{
  "address": "0x424C2A31976C2d609819582c84F534b15b001793",
  "abi": [
    {
      "inputs": [],
      "stateMutability": "nonpayable",
      "type": "constructor"
    },
    {
      "anonymous": false,
      "inputs": [
        {
          "indexed": true,
          "internalType": "address",
          "name": "account",
          "type": "address"
        }
      ],
      "name": "CollateralServiceProviderRevoked",
      "type": "event"
    },
    {
      "anonymous": false,
      "inputs": [
        {
          "indexed": true,
          "internalType": "address",
          "name": "account",
          "type": "address"
        }
      ],
      "name": "CouncilRevoked",
      "type": "event"
    },
    {
      "anonymous": false,
      "inputs": [
        {
          "indexed": true,
          "internalType": "address",
          "name": "account",
          "type": "address"
        }
      ],
      "name": "NewCollateralServiceProviderAdded",
      "type": "event"
    },
    {
      "anonymous": false,
      "inputs": [
        {
          "indexed": true,
          "internalType": "address",
          "name": "account",
          "type": "address"
        }
      ],
      "name": "NewCouncilAdded",
      "type": "event"
    },
    {
      "anonymous": false,
      "inputs": [
        {
          "indexed": true,
          "internalType": "address",
          "name": "previousOwner",
          "type": "address"
        },
        {
          "indexed": true,
          "internalType": "address",
          "name": "newOwner",
          "type": "address"
        }
      ],
      "name": "OwnershipTransferred",
      "type": "event"
    },
    {
      "inputs": [
        {
          "internalType": "address",
          "name": "account",
          "type": "address"
        }
      ],
      "name": "addCollateralServiceProvider",
      "outputs": [],
      "stateMutability": "nonpayable",
      "type": "function"
    },
    {
      "inputs": [
        {
          "internalType": "address",
          "name": "account",
          "type": "address"
        }
      ],
      "name": "addCouncil",
      "outputs": [],
      "stateMutability": "nonpayable",
      "type": "function"
    },
    {
      "inputs": [
        {
          "internalType": "address",
          "name": "account",
          "type": "address"
        }
      ],
      "name": "isCollateralServiceProvider",
      "outputs": [
        {
          "internalType": "bool",
          "name": "",
          "type": "bool"
        }
      ],
      "stateMutability": "view",
      "type": "function"
    },
    {
      "inputs": [
        {
          "internalType": "address",
          "name": "account",
          "type": "address"
        }
      ],
      "name": "isCouncil",
      "outputs": [
        {
          "internalType": "bool",
          "name": "",
          "type": "bool"
        }
      ],
      "stateMutability": "view",
      "type": "function"
    },
    {
      "inputs": [
        {
          "internalType": "address",
          "name": "account",
          "type": "address"
        }
      ],
      "name": "isMoneyPoolAdmin",
      "outputs": [
        {
          "internalType": "bool",
          "name": "",
          "type": "bool"
        }
      ],
      "stateMutability": "view",
      "type": "function"
    },
    {
      "inputs": [],
      "name": "owner",
      "outputs": [
        {
          "internalType": "address",
          "name": "",
          "type": "address"
        }
      ],
      "stateMutability": "view",
      "type": "function"
    },
    {
      "inputs": [],
      "name": "renounceOwnership",
      "outputs": [],
      "stateMutability": "nonpayable",
      "type": "function"
    },
    {
      "inputs": [
        {
          "internalType": "address",
          "name": "account",
          "type": "address"
        }
      ],
      "name": "revokeCollateralServiceProvider",
      "outputs": [],
      "stateMutability": "nonpayable",
      "type": "function"
    },
    {
      "inputs": [
        {
          "internalType": "address",
          "name": "account",
          "type": "address"
        }
      ],
      "name": "revokeCouncil",
      "outputs": [],
      "stateMutability": "nonpayable",
      "type": "function"
    },
    {
      "inputs": [
        {
          "internalType": "address",
          "name": "newOwner",
          "type": "address"
        }
      ],
      "name": "transferOwnership",
      "outputs": [],
      "stateMutability": "nonpayable",
      "type": "function"
    }
  ],
  "transactionHash": "0xf06dbe50b41dc2878699149b3df961e844a22720daf4b29f878c8fbd081021a1",
  "args": [],
  "solcInputHash": "efcd845ea837ae5482eec05fa8d312de",
  "bytecode": "0x608060405234801561001057600080fd5b5061001a3361001f565b610071565b600280546001600160a01b038381166001600160a01b0319831681179093556040519116919082907f8be0079c531659141344cd1fd0a4f28419497f9722a3daafe3b4186f6b6457e090600090a35050565b610634806100806000396000f3fe608060405234801561001057600080fd5b506004361061008e5760003560e01c806322aa8e7d146100935780632b0f90c0146100a85780632bac1c55146100bb5780633f8d65f2146100ce578063715018a6146100f65780638da5cb5b146100fe5780639aa360ec1461011e578063c60288ab14610131578063f2770bf014610144578063f2fde38b14610157575b600080fd5b6100a66100a136600461057b565b61016a565b005b6100a66100b636600461057b565b6101ed565b6100a66100c936600461057b565b610267565b6100e16100dc36600461057b565b6102e5565b60405190151581526020015b60405180910390f35b6100a6610305565b610106610340565b6040516001600160a01b0390911681526020016100ed565b6100e161012c36600461057b565b61034f565b6100a661013f36600461057b565b610365565b6100e161015236600461057b565b6103e3565b6100a661016536600461057b565b610407565b33610173610340565b6001600160a01b0316146101a25760405162461bcd60e51b8152600401610199906105a9565b60405180910390fd5b6101b66610d3d55390d25360ca1b826104a7565b6040516001600160a01b038216907f94b301526e028aec5a50c07590d098bdf8483f32485a8b8bba723955763063d590600090a250565b336101f6610340565b6001600160a01b03161461021c5760405162461bcd60e51b8152600401610199906105a9565b6102306610d3d55390d25360ca1b826104d5565b6040516001600160a01b038216907feb68cd3369a51fe9f5bc81762f144b8021f7b211fca65d0a0bb689407354a95690600090a250565b33610270610340565b6001600160a01b0316146102965760405162461bcd60e51b8152600401610199906105a9565b6102ae6000805160206105df833981519152826104a7565b6040516001600160a01b038216907f890180e7c1b13ee272f812ff06c5bca5ffff5588bb97c5650754f9e6eaec194b90600090a250565b60006102ff6000805160206105df83398151915283610500565b92915050565b3361030e610340565b6001600160a01b0316146103345760405162461bcd60e51b8152600401610199906105a9565b61033e6000610529565b565b6002546001600160a01b031690565b60006102ff6610d3d55390d25360ca1b83610500565b3361036e610340565b6001600160a01b0316146103945760405162461bcd60e51b8152600401610199906105a9565b6103ac6000805160206105df833981519152826104d5565b6040516001600160a01b038216907fbfc39f8a0326a282cdf9a0a6495a1efc731ee34e232f69ef5dc4669485cd889f90600090a250565b6000816001600160a01b03166103f7610340565b6001600160a01b03161492915050565b33610410610340565b6001600160a01b0316146104365760405162461bcd60e51b8152600401610199906105a9565b6001600160a01b03811661049b5760405162461bcd60e51b815260206004820152602660248201527f4f776e61626c653a206e6577206f776e657220697320746865207a65726f206160448201526564647265737360d01b6064820152608401610199565b6104a481610529565b50565b6000918252602082815260408084206001600160a01b0390931684529190529020805460ff19166001179055565b6000918252602082815260408084206001600160a01b0390931684529190529020805460ff19169055565b6000918252602082815260408084206001600160a01b0393909316845291905290205460ff1690565b600280546001600160a01b038381166001600160a01b0319831681179093556040519116919082907f8be0079c531659141344cd1fd0a4f28419497f9722a3daafe3b4186f6b6457e090600090a35050565b60006020828403121561058c578081fd5b81356001600160a01b03811681146105a2578182fd5b9392505050565b6020808252818101527f4f776e61626c653a2063616c6c6572206973206e6f7420746865206f776e657260408201526060019056fe436f6c6c61746572616c5365727669636550726f766964657200000000000000a2646970667358221220ddea809c39e23ef9269392e8bb0783606fc6c9f6aa22f3666b0eed2d880e141b64736f6c63430008030033",
  "devdoc": {
    "author": "ELYSIA",
    "details": "Only admin can add or revoke roles of the ELYFI. The admin account of the connector is strictly managed, and it is to be managed by governance of ELYFI.",
    "kind": "dev",
    "methods": {
      "owner()": {
        "details": "Returns the address of the current owner."
      },
      "renounceOwnership()": {
        "details": "Leaves the contract without owner. It will not be possible to call `onlyOwner` functions anymore. Can only be called by the current owner. NOTE: Renouncing ownership will leave the contract without an owner, thereby removing any functionality that is only available to the owner."
      },
      "transferOwnership(address)": {
        "details": "Transfers ownership of the contract to a new account (`newOwner`). Can only be called by the current owner."
      }
    },
    "title": "ELYFI Connector",
    "version": 1
  },
  "userdoc": {
    "events": {
      "CollateralServiceProviderRevoked(address)": {
        "notice": "Emitted when a collateral service provider role is revoked by admin*"
      },
      "CouncilRevoked(address)": {
        "notice": "Emitted when a council role is revoked by admin*"
      },
      "NewCollateralServiceProviderAdded(address)": {
        "notice": "Emitted when an admin adds a collateral service provider role*"
      },
      "NewCouncilAdded(address)": {
        "notice": "Emitted when an admin adds a council role*"
      }
    },
    "kind": "user",
    "methods": {},
    "notice": "ELYFI functions through continual interaction among the various participants. In order to link the real assets and the blockchain, unlike the existing DeFi platform, ELYFI has a group of participants in charge of actual legal contracts and maintenance. 1. Collateral service providers are a group of users who sign a collateral contract with a borrower who takes out a real asset-backed loan and borrows cryptocurrencies from the Money Pool based on this contract. 2. The council, such as legal service provider is a corporation that provides legal services such as document review in the context of legal proceedings, consulting, and the provision of documents necessary in the process of taking out loans secured by real assets, In the future, the types of participant groups will be diversified and subdivided.",
    "version": 1
  },
  "storageLayout": {
    "storage": [
      {
        "astId": 2712,
        "contract": "contracts/Connector.sol:Connector",
        "label": "_roles",
        "offset": 0,
        "slot": "0",
        "type": "t_mapping(t_bytes32,t_struct(RoleData)2707_storage)"
      },
      {
        "astId": 2715,
        "contract": "contracts/Connector.sol:Connector",
        "label": "_moneyPool",
        "offset": 0,
        "slot": "1",
        "type": "t_contract(IMoneyPool)7140"
      },
      {
        "astId": 7,
        "contract": "contracts/Connector.sol:Connector",
        "label": "_owner",
        "offset": 0,
        "slot": "2",
        "type": "t_address"
      }
    ],
    "types": {
      "t_address": {
        "encoding": "inplace",
        "label": "address",
        "numberOfBytes": "20"
      },
      "t_bool": {
        "encoding": "inplace",
        "label": "bool",
        "numberOfBytes": "1"
      },
      "t_bytes32": {
        "encoding": "inplace",
        "label": "bytes32",
        "numberOfBytes": "32"
      },
      "t_contract(IMoneyPool)7140": {
        "encoding": "inplace",
        "label": "contract IMoneyPool",
        "numberOfBytes": "20"
      },
      "t_mapping(t_address,t_bool)": {
        "encoding": "mapping",
        "key": "t_address",
        "label": "mapping(address => bool)",
        "numberOfBytes": "32",
        "value": "t_bool"
      },
      "t_mapping(t_bytes32,t_struct(RoleData)2707_storage)": {
        "encoding": "mapping",
        "key": "t_bytes32",
        "label": "mapping(bytes32 => struct ConnectorStorage.RoleData)",
        "numberOfBytes": "32",
        "value": "t_struct(RoleData)2707_storage"
      },
      "t_struct(RoleData)2707_storage": {
        "encoding": "inplace",
        "label": "struct ConnectorStorage.RoleData",
        "members": [
          {
            "astId": 2704,
            "contract": "contracts/Connector.sol:Connector",
            "label": "participants",
            "offset": 0,
            "slot": "0",
            "type": "t_mapping(t_address,t_bool)"
          },
          {
            "astId": 2706,
            "contract": "contracts/Connector.sol:Connector",
            "label": "admin",
            "offset": 0,
            "slot": "1",
            "type": "t_bytes32"
          }
        ],
        "numberOfBytes": "64"
      }
    }
  }
}