{
  "address": "0xA63830cCCDcd380b00EF00f070357Cb03cDc2E7b",
  "abi": [
    {
      "inputs": [
        {
          "internalType": "address",
          "name": "moneyPool_",
          "type": "address"
        }
      ],
      "stateMutability": "nonpayable",
      "type": "constructor"
    },
    {
      "inputs": [
        {
          "internalType": "address",
          "name": "asset",
          "type": "address"
        },
        {
          "internalType": "uint256",
          "name": "tokenId",
          "type": "uint256"
        }
      ],
      "name": "getAssetBondStateData",
      "outputs": [
        {
          "components": [
            {
              "internalType": "enum DataStruct.AssetBondState",
              "name": "assetBondState",
              "type": "uint8"
            },
            {
              "internalType": "address",
              "name": "tokenOwner",
              "type": "address"
            },
            {
              "internalType": "uint256",
              "name": "debtOnMoneyPool",
              "type": "uint256"
            },
            {
              "internalType": "uint256",
              "name": "feeOnCollateralServiceProvider",
              "type": "uint256"
            }
          ],
          "internalType": "struct DataPipeline.AssetBondStateDataLocalVars",
          "name": "",
          "type": "tuple"
        }
      ],
      "stateMutability": "view",
      "type": "function"
    },
    {
      "inputs": [
        {
          "internalType": "address",
          "name": "asset",
          "type": "address"
        }
      ],
      "name": "getReserveData",
      "outputs": [
        {
          "components": [
            {
              "internalType": "uint256",
              "name": "totalLTokenSupply",
              "type": "uint256"
            },
            {
              "internalType": "uint256",
              "name": "implicitLTokenSupply",
              "type": "uint256"
            },
            {
              "internalType": "uint256",
              "name": "lTokenInterestIndex",
              "type": "uint256"
            },
            {
              "internalType": "uint256",
              "name": "principalDTokenSupply",
              "type": "uint256"
            },
            {
              "internalType": "uint256",
              "name": "totalDTokenSupply",
              "type": "uint256"
            },
            {
              "internalType": "uint256",
              "name": "averageRealAssetBorrowRate",
              "type": "uint256"
            },
            {
              "internalType": "uint256",
              "name": "dTokenLastUpdateTimestamp",
              "type": "uint256"
            },
            {
              "internalType": "uint256",
              "name": "borrowAPY",
              "type": "uint256"
            },
            {
              "internalType": "uint256",
              "name": "depositAPY",
              "type": "uint256"
            },
            {
              "internalType": "uint256",
              "name": "moneyPooLastUpdateTimestamp",
              "type": "uint256"
            }
          ],
          "internalType": "struct DataPipeline.ReserveDataLocalVars",
          "name": "",
          "type": "tuple"
        }
      ],
      "stateMutability": "view",
      "type": "function"
    },
    {
      "inputs": [
        {
          "internalType": "address",
          "name": "asset",
          "type": "address"
        },
        {
          "internalType": "address",
          "name": "user",
          "type": "address"
        }
      ],
      "name": "getUserData",
      "outputs": [
        {
          "components": [
            {
              "internalType": "uint256",
              "name": "underlyingAssetBalance",
              "type": "uint256"
            },
            {
              "internalType": "uint256",
              "name": "lTokenBalance",
              "type": "uint256"
            },
            {
              "internalType": "uint256",
              "name": "implicitLtokenBalance",
              "type": "uint256"
            },
            {
              "internalType": "uint256",
              "name": "dTokenBalance",
              "type": "uint256"
            },
            {
              "internalType": "uint256",
              "name": "principalDTokenBalance",
              "type": "uint256"
            },
            {
              "internalType": "uint256",
              "name": "averageRealAssetBorrowRate",
              "type": "uint256"
            },
            {
              "internalType": "uint256",
              "name": "lastUpdateTimestamp",
              "type": "uint256"
            }
          ],
          "internalType": "struct DataPipeline.UserDataLocalVars",
          "name": "",
          "type": "tuple"
        }
      ],
      "stateMutability": "view",
      "type": "function"
    },
    {
      "inputs": [],
      "name": "moneyPool",
      "outputs": [
        {
          "internalType": "contract IMoneyPool",
          "name": "",
          "type": "address"
        }
      ],
      "stateMutability": "view",
      "type": "function"
    }
  ],
  "transactionHash": "0x75b2aa704c35edd4c71bc3d026f39df2896e45c030e3a75a6a35cc1348a4fb48",
  "args": [
    "0x0bdFef5f8B75741d33a22d85022244CBE793DA24"
  ],
  "solcInputHash": "efcd845ea837ae5482eec05fa8d312de",
  "bytecode": "0x608060405234801561001057600080fd5b506040516110d23803806110d283398101604081905261002f91610054565b600080546001600160a01b0319166001600160a01b0392909216919091179055610082565b600060208284031215610065578081fd5b81516001600160a01b038116811461007b578182fd5b9392505050565b611041806100916000396000f3fe608060405234801561001057600080fd5b506004361061004c5760003560e01c8063342354431461005157806335ea6a751461007a57806371d1014d14610106578063f4eeefe914610126575b600080fd5b600054610064906001600160a01b031681565b6040516100719190610f44565b60405180910390f35b61008d610088366004610c2c565b61018f565b6040516100719190600061014082019050825182526020830151602083015260408301516040830152606083015160608301526080830151608083015260a083015160a083015260c083015160c083015260e083015160e083015261010080840151818401525061012080840151818401525092915050565b610119610114366004610ca3565b6103e2565b6040516100719190610f58565b610139610134366004610c6b565b610661565b6040516100719190600060e082019050825182526020830151602083015260408301516040830152606083015160608301526080830151608083015260a083015160a083015260c083015160c083015292915050565b610197610aa8565b61019f610aa8565b600080546040516335ea6a7560e01b81526001600160a01b03909116906335ea6a75906101d0908790600401610f44565b6101806040518083038186803b1580156101e957600080fd5b505afa1580156101fd573d6000803e3d6000fd5b505050506040513d601f19601f820116820180604052508101906102219190610e08565b90508060a001516001600160a01b03166318160ddd6040518163ffffffff1660e01b815260040160206040518083038186803b15801561026057600080fd5b505afa158015610274573d6000803e3d6000fd5b505050506040513d601f19601f820116820180604052508101906102989190610ed4565b8260000181815250508060a001516001600160a01b031663d1f2b4d96040518163ffffffff1660e01b815260040160206040518083038186803b1580156102de57600080fd5b505afa1580156102f2573d6000803e3d6000fd5b505050506040513d601f19601f820116820180604052508101906103169190610ed4565b82602001818152505080602001518260400181815250508060c001516001600160a01b031663723f319e6040518163ffffffff1660e01b815260040160806040518083038186803b15801561036a57600080fd5b505afa15801561037e573d6000803e3d6000fd5b505050506040513d601f19601f820116820180604052508101906103a29190610f0f565b60c086015260a0850152608080850191909152606080850192909252604083015160e085015290820151610100840152015161012082015290505b919050565b6103ea610afb565b6103f2610afb565b600080546040516335ea6a7560e01b81526001600160a01b03909116906335ea6a7590610423908890600401610f44565b6101806040518083038186803b15801561043c57600080fd5b505afa158015610450573d6000803e3d6000fd5b505050506040513d601f19601f820116820180604052508101906104749190610e08565b905060008161010001516001600160a01b0316638268b24e866040518263ffffffff1660e01b81526004016104ab91815260200190565b60006040518083038186803b1580156104c357600080fd5b505afa1580156104d7573d6000803e3d6000fd5b505050506040513d6000823e601f3d908101601f191682016040526104ff9190810190610cce565b80519091508390600681111561052557634e487b7160e01b600052602160045260246000fd5b9081600681111561054657634e487b7160e01b600052602160045260246000fd5b9052506101008201516040516331a9108f60e11b8152600481018790526001600160a01b0390911690636352211e9060240160206040518083038186803b15801561059057600080fd5b505afa1580156105a4573d6000803e3d6000fd5b505050506040513d601f19601f820116820180604052508101906105c89190610c4f565b6001600160a01b039081166020850152610100830151604051630349b75f60e31b815260048101889052911690631a4dbaf890602401604080518083038186803b15801561061557600080fd5b505afa158015610629573d6000803e3d6000fd5b505050506040513d601f19601f8201168201806040525081019061064d9190610eec565b606085015260408401525090949350505050565b610669610b2d565b610671610b2d565b600080546040516335ea6a7560e01b81526001600160a01b03909116906335ea6a75906106a2908890600401610f44565b6101806040518083038186803b1580156106bb57600080fd5b505afa1580156106cf573d6000803e3d6000fd5b505050506040513d601f19601f820116820180604052508101906106f39190610e08565b6040516370a0823160e01b81529091506001600160a01b038616906370a0823190610722908790600401610f44565b60206040518083038186803b15801561073a57600080fd5b505afa15801561074e573d6000803e3d6000fd5b505050506040513d601f19601f820116820180604052508101906107729190610ed4565b825260a08101516040516370a0823160e01b81526001600160a01b03909116906370a08231906107a6908790600401610f44565b60206040518083038186803b1580156107be57600080fd5b505afa1580156107d2573d6000803e3d6000fd5b505050506040513d601f19601f820116820180604052508101906107f69190610ed4565b602083015260a0810151604051630103f1a160e71b81526001600160a01b03909116906381f8d0809061082d908790600401610f44565b60206040518083038186803b15801561084557600080fd5b505afa158015610859573d6000803e3d6000fd5b505050506040513d601f19601f8201168201806040525081019061087d9190610ed4565b8260400181815250508060c001516001600160a01b03166370a08231856040518263ffffffff1660e01b81526004016108b69190610f44565b60206040518083038186803b1580156108ce57600080fd5b505afa1580156108e2573d6000803e3d6000fd5b505050506040513d601f19601f820116820180604052508101906109069190610ed4565b606083015260c081015160405163631a6fd560e11b81526001600160a01b039091169063c634dfaa9061093d908790600401610f44565b60206040518083038186803b15801561095557600080fd5b505afa158015610969573d6000803e3d6000fd5b505050506040513d601f19601f8201168201806040525081019061098d9190610ed4565b608083015260c08101516040516319b7dc3360e21b81526001600160a01b03909116906366df70cc906109c4908790600401610f44565b60206040518083038186803b1580156109dc57600080fd5b505afa1580156109f0573d6000803e3d6000fd5b505050506040513d601f19601f82011682018060405250810190610a149190610ed4565b60a083015260c0810151604051630ad7bcdf60e41b81526001600160a01b039091169063ad7bcdf090610a4b908790600401610f44565b60206040518083038186803b158015610a6357600080fd5b505afa158015610a77573d6000803e3d6000fd5b505050506040513d601f19601f82011682018060405250810190610a9b9190610ed4565b60c0830152509392505050565b604051806101400160405280600081526020016000815260200160008152602001600081526020016000815260200160008152602001600081526020016000815260200160008152602001600081525090565b6040805160808101909152806000815260200160006001600160a01b0316815260200160008152602001600081525090565b6040518060e00160405280600081526020016000815260200160008152602001600081526020016000815260200160008152602001600081525090565b80516103dd81610ff3565b805180151581146103dd57600080fd5b8051600781106103dd57600080fd5b600082601f830112610ba4578081fd5b81516001600160401b03811115610bbd57610bbd610fdd565b6020610bd1601f8301601f19168201610fad565b8281528582848701011115610be4578384fd5b835b83811015610c01578581018301518282018401528201610be6565b83811115610c1157848385840101525b5095945050505050565b805160ff811681146103dd57600080fd5b600060208284031215610c3d578081fd5b8135610c4881610ff3565b9392505050565b600060208284031215610c60578081fd5b8151610c4881610ff3565b60008060408385031215610c7d578081fd5b8235610c8881610ff3565b91506020830135610c9881610ff3565b809150509250929050565b60008060408385031215610cb5578182fd5b8235610cc081610ff3565b946020939093013593505050565b600060208284031215610cdf578081fd5b81516001600160401b0380821115610cf5578283fd5b81840191506101e0808387031215610d0b578384fd5b610d1481610fad565b9050610d1f83610b85565b8152610d2d60208401610b6a565b6020820152610d3e60408401610b6a565b6040820152610d4f60608401610b6a565b60608201526080838101519082015260a0808401519082015260c0808401519082015260e08084015190820152610100808401519082015261012080840151908201526101408084015190820152610160808401519082015261018080840151908201526101a08084015183811115610dc6578586fd5b610dd288828701610b94565b8284015250506101c08084015183811115610deb578586fd5b610df788828701610b94565b918301919091525095945050505050565b6000610180808385031215610e1b578182fd5b610e2481610fad565b90508251815260208301516020820152604083015160408201526060830151606082015260808301516080820152610e5e60a08401610b6a565b60a0820152610e6f60c08401610b6a565b60c0820152610e8060e08401610b6a565b60e0820152610100610e93818501610b6a565b90820152610120610ea5848201610c1b565b90820152610140610eb7848201610b75565b90820152610160610ec9848201610b75565b908201529392505050565b600060208284031215610ee5578081fd5b5051919050565b60008060408385031215610efe578182fd5b505080516020909101519092909150565b60008060008060808587031215610f24578182fd5b505082516020840151604085015160609095015191969095509092509050565b6001600160a01b0391909116815260200190565b8151608082019060078110610f7d57634e487b7160e01b600052602160045260246000fd5b82526020838101516001600160a01b03169083015260408084015190830152606092830151929091019190915290565b604051601f8201601f191681016001600160401b0381118282101715610fd557610fd5610fdd565b604052919050565b634e487b7160e01b600052604160045260246000fd5b6001600160a01b038116811461100857600080fd5b5056fea26469706673582212201eb16b66bc0267cdf5c2a12d117f0bd003a371824bf40db3fda0ae188c8fa45c64736f6c63430008030033",
  "devdoc": {
    "author": "ELYSIA",
    "details": "The data pipeline contract is to help integrating the data of user and reserve in ELYFI. Each reserve has a seperate data pipeline.",
    "kind": "dev",
    "methods": {
      "getAssetBondStateData(address,uint256)": {
        "details": "Return the asset bond data",
        "params": {
          "asset": "The address of the underlying asset of the reserve",
          "tokenId": "The id of the token"
        }
      },
      "getReserveData(address)": {
        "details": "Returns the reserve's data for asset.",
        "params": {
          "asset": "The address of the underlying asset of the reserve"
        }
      },
      "getUserData(address,address)": {
        "details": "Returns the user's data for asset.",
        "params": {
          "asset": "The address of the underlying asset of the reserve",
          "user": "The address of the user"
        }
      }
    },
    "title": "ELYFI Data Pipeline",
    "version": 1
  },
  "userdoc": {
    "kind": "user",
    "methods": {},
    "version": 1
  },
  "storageLayout": {
    "storage": [
      {
        "astId": 3596,
        "contract": "contracts/DataPipeline.sol:DataPipeline",
        "label": "moneyPool",
        "offset": 0,
        "slot": "0",
        "type": "t_contract(IMoneyPool)7140"
      }
    ],
    "types": {
      "t_contract(IMoneyPool)7140": {
        "encoding": "inplace",
        "label": "contract IMoneyPool",
        "numberOfBytes": "20"
      }
    }
  }
}