{
  "address": "0xf42C51527cccAB25b70ad46b6C79353d0F2cDdfC",
  "abi": [
    {
      "inputs": [
        {
          "internalType": "contract IMoneyPool",
          "name": "moneyPool",
          "type": "address"
        },
        {
          "internalType": "address",
          "name": "incentiveAsset",
          "type": "address"
        },
        {
          "internalType": "uint256",
          "name": "amountPerSecond_",
          "type": "uint256"
        }
      ],
      "stateMutability": "nonpayable",
      "type": "constructor"
    },
    {
      "anonymous": false,
      "inputs": [
        {
          "indexed": true,
          "internalType": "address",
          "name": "user",
          "type": "address"
        },
        {
          "indexed": false,
          "internalType": "uint256",
          "name": "claimedIncentive",
          "type": "uint256"
        },
        {
          "indexed": false,
          "internalType": "uint256",
          "name": "userIncentiveIndex",
          "type": "uint256"
        }
      ],
      "name": "ClaimIncentive",
      "type": "event"
    },
    {
      "anonymous": false,
      "inputs": [
        {
          "indexed": false,
          "internalType": "uint256",
          "name": "newEndTimestamp",
          "type": "uint256"
        }
      ],
      "name": "IncentiveEndTimestampUpdated",
      "type": "event"
    },
    {
      "anonymous": false,
      "inputs": [],
      "name": "IncentivePoolEnded",
      "type": "event"
    },
    {
      "anonymous": false,
      "inputs": [
        {
          "indexed": false,
          "internalType": "uint256",
          "name": "newAmountPerSecond",
          "type": "uint256"
        }
      ],
      "name": "RewardPerSecondUpdated",
      "type": "event"
    },
    {
      "anonymous": false,
      "inputs": [
        {
          "indexed": true,
          "internalType": "address",
          "name": "user",
          "type": "address"
        },
        {
          "indexed": false,
          "internalType": "uint256",
          "name": "accruedIncentive",
          "type": "uint256"
        },
        {
          "indexed": false,
          "internalType": "uint256",
          "name": "incentiveIndex",
          "type": "uint256"
        }
      ],
      "name": "UpdateIncentivePool",
      "type": "event"
    },
    {
      "inputs": [],
      "name": "amountPerSecond",
      "outputs": [
        {
          "internalType": "uint256",
          "name": "",
          "type": "uint256"
        }
      ],
      "stateMutability": "view",
      "type": "function"
    },
    {
      "inputs": [
        {
          "internalType": "address",
          "name": "from",
          "type": "address"
        },
        {
          "internalType": "address",
          "name": "to",
          "type": "address"
        }
      ],
      "name": "beforeTokenTransfer",
      "outputs": [],
      "stateMutability": "nonpayable",
      "type": "function"
    },
    {
      "inputs": [],
      "name": "claimIncentive",
      "outputs": [],
      "stateMutability": "nonpayable",
      "type": "function"
    },
    {
      "inputs": [],
      "name": "endTimestamp",
      "outputs": [
        {
          "internalType": "uint256",
          "name": "",
          "type": "uint256"
        }
      ],
      "stateMutability": "view",
      "type": "function"
    },
    {
      "inputs": [],
      "name": "getIncentiveIndex",
      "outputs": [
        {
          "internalType": "uint256",
          "name": "",
          "type": "uint256"
        }
      ],
      "stateMutability": "view",
      "type": "function"
    },
    {
      "inputs": [],
      "name": "getIncentivePoolData",
      "outputs": [
        {
          "internalType": "uint256",
          "name": "incentiveIndex",
          "type": "uint256"
        },
        {
          "internalType": "uint256",
          "name": "lastUpdateTimestamp",
          "type": "uint256"
        }
      ],
      "stateMutability": "view",
      "type": "function"
    },
    {
      "inputs": [
        {
          "internalType": "address",
          "name": "user",
          "type": "address"
        }
      ],
      "name": "getUserIncentive",
      "outputs": [
        {
          "internalType": "uint256",
          "name": "",
          "type": "uint256"
        }
      ],
      "stateMutability": "view",
      "type": "function"
    },
    {
      "inputs": [
        {
          "internalType": "address",
          "name": "user",
          "type": "address"
        }
      ],
      "name": "getUserIncentiveData",
      "outputs": [
        {
          "internalType": "uint256",
          "name": "userIndex",
          "type": "uint256"
        },
        {
          "internalType": "uint256",
          "name": "userReward",
          "type": "uint256"
        },
        {
          "internalType": "uint256",
          "name": "userLTokenBalance",
          "type": "uint256"
        }
      ],
      "stateMutability": "view",
      "type": "function"
    },
    {
      "inputs": [
        {
          "internalType": "address",
          "name": "lToken_",
          "type": "address"
        }
      ],
      "name": "initializeIncentivePool",
      "outputs": [],
      "stateMutability": "nonpayable",
      "type": "function"
    },
    {
      "inputs": [],
      "name": "isClosed",
      "outputs": [
        {
          "internalType": "bool",
          "name": "",
          "type": "bool"
        }
      ],
      "stateMutability": "view",
      "type": "function"
    },
    {
      "inputs": [],
      "name": "lToken",
      "outputs": [
        {
          "internalType": "address",
          "name": "",
          "type": "address"
        }
      ],
      "stateMutability": "view",
      "type": "function"
    },
    {
      "inputs": [
        {
          "internalType": "uint256",
          "name": "newAmountPerSecond",
          "type": "uint256"
        }
      ],
      "name": "setAmountPerSecond",
      "outputs": [],
      "stateMutability": "nonpayable",
      "type": "function"
    },
    {
      "inputs": [
        {
          "internalType": "uint256",
          "name": "newEndTimestamp",
          "type": "uint256"
        }
      ],
      "name": "setEndTimestamp",
      "outputs": [],
      "stateMutability": "nonpayable",
      "type": "function"
    },
    {
      "inputs": [
        {
          "internalType": "address",
          "name": "user",
          "type": "address"
        }
      ],
      "name": "updateIncentivePool",
      "outputs": [],
      "stateMutability": "nonpayable",
      "type": "function"
    },
    {
      "inputs": [],
      "name": "withdrawResidue",
      "outputs": [],
      "stateMutability": "nonpayable",
      "type": "function"
    }
  ],
  "transactionHash": "0xd4107df68b2e8e4630e22dd895028a9a6c6663533161886a5a07b4cf00a03e73",
  "args": [
    "0x0bdFef5f8B75741d33a22d85022244CBE793DA24",
    "0x6c619006043eab742355395690c7b42d3411e8c0",
    "578703703703703703"
  ],
  "solcInputHash": "efcd845ea837ae5482eec05fa8d312de",
  "bytecode": "0x608060405234801561001057600080fd5b5060405161104238038061104283398101604081905261002f91610076565b600180546001600160a01b039485166001600160a01b03199182161790915560028054939094169281169290921790925560079190915560008054909116331790556100d0565b60008060006060848603121561008a578283fd5b8351610095816100b8565b60208501519093506100a6816100b8565b80925050604084015190509250925092565b6001600160a01b03811681146100cd57600080fd5b50565b610f63806100df6000396000f3fe608060405234801561001057600080fd5b50600436106100c55760003560e01c8063010ee184146100ca5780630b3bb2ab146100f35780631ca593ca146100fd57806321c74e081461011457806335363a8d14610127578063456fcf6b146101425780636b78efaa1461014a5780637df6a6c8146101525780638891e6e8146101655780639a2b0be814610178578063a2e98cfc146101a6578063a85adeab146101b9578063ae2d2bb3146101c2578063b6de729e146101d5578063c2b6b58c146101e8575b600080fd5b6008546100dd906001600160a01b031681565b6040516100ea9190610deb565b60405180910390f35b6100fb610200565b005b61010660075481565b6040519081526020016100ea565b610106610122366004610d33565b610341565b600354600454604080519283526020830191909152016100ea565b6100fb610463565b610106610558565b6100fb610160366004610d9f565b610672565b6100fb610173366004610d33565b6106d8565b61018b610186366004610d33565b6107c5565b604080519384526020840192909252908201526060016100ea565b6100fb6101b4366004610d9f565b610876565b61010660095481565b6100fb6101d0366004610d4d565b6108e4565b6100fb6101e3366004610d33565b610983565b6101f0610a5f565b60405190151581526020016100ea565b6000546001600160a01b031633146102335760405162461bcd60e51b815260040161022a90610e32565b60405180910390fd5b61023b610a5f565b6102745760405162461bcd60e51b815260206004820152600a60248201526913db9b1e50db1bdcd95960b21b604482015260640161022a565b6002546040516370a0823160e01b81526000916001600160a01b0316906370a08231906102a5903090600401610deb565b60206040518083038186803b1580156102bd57600080fd5b505afa1580156102d1573d6000803e3d6000fd5b505050506040513d601f19601f820116820180604052508101906102f59190610db7565b600054600254919250610315916001600160a01b03908116911683610a79565b6040517f2d4e7d5f97f455899be66b049240b2962e5507f4412d4727e9c8914405bf07d990600090a150565b6001600160a01b0381166000908152600560205260408120548190610364610558565b10610397576001600160a01b03831660009081526005602052604090205461038a610558565b6103949190610ed0565b90505b6008546040516370a0823160e01b81526000916001600160a01b0316906370a08231906103c8908790600401610deb565b60206040518083038186803b1580156103e057600080fd5b505afa1580156103f4573d6000803e3d6000fd5b505050506040513d601f19601f820116820180604052508101906104189190610db7565b90506000633b9aca0061042b8484610eb1565b6104359190610e91565b6001600160a01b0386166000908152600660205260409020546104589190610e79565b93505050505b919050565b33600061046f82610341565b9050600081116104c15760405162461bcd60e51b815260206004820152601d60248201527f4e6f74456e6f7567685573657241636372756564496e63656e74697665000000604482015260640161022a565b6104c9610558565b6001600160a01b03808416600090815260056020908152604080832094909455600690529182209190915560025461050391168383610a79565b6001600160a01b038216600081815260056020908152604091829020548251858152918201527f6e115cba4102730b6664a35c333d3162d4575d448ff80316e3f074324eedb6af910160405180910390a25050565b600080600954421061056c5760095461056e565b425b90506000600454826105809190610ed0565b90506000600860009054906101000a90046001600160a01b03166001600160a01b03166318160ddd6040518163ffffffff1660e01b815260040160206040518083038186803b1580156105d257600080fd5b505afa1580156105e6573d6000803e3d6000fd5b505050506040513d601f19601f8201168201806040525081019061060a9190610db7565b90508161061e57600354935050505061066f565b8061062f576000935050505061066f565b600081600754846106409190610eb1565b61064e90633b9aca00610eb1565b6106589190610e91565b9050806003546106689190610e79565b9450505050505b90565b6000546001600160a01b0316331461069c5760405162461bcd60e51b815260040161022a90610e32565b60098190556040518181527f7efc27f23486df1c8f49b47615a8c15e5b0ff457d8a5786aa0857359536fb563906020015b60405180910390a150565b6008546001600160a01b031633146107025760405162461bcd60e51b815260040161022a90610e55565b61070b81610341565b6001600160a01b03821660009081526006602052604090205561072c610558565b6001600160a01b0382166000908152600560205260409020819055600355610752610a5f565b15610762576009546004556107c2565b426004556001600160a01b038116600081815260066020526040908190205460035491517fe224395093d030cc929f2471194c6da61dc4be880056dd255d651e3eca3767e3926107b9928252602082015260400190565b60405180910390a25b50565b6001600160a01b0380821660009081526005602090815260408083205460069092528083205460085491516370a0823160e01b815293948594859493909116906370a0823190610819908990600401610deb565b60206040518083038186803b15801561083157600080fd5b505afa158015610845573d6000803e3d6000fd5b505050506040513d601f19601f820116820180604052508101906108699190610db7565b9250925092509193909250565b6000546001600160a01b031633146108a05760405162461bcd60e51b815260040161022a90610e32565b6108a8610558565b6003556007819055426004556040518181527f951c6f64eb06ec6a6682072cda71420984dd55199006684bb820a80fd7e98793906020016106cd565b6008546001600160a01b0316331461090e5760405162461bcd60e51b815260040161022a90610e55565b61091782610341565b6001600160a01b03831660009081526006602052604090205561093981610341565b6001600160a01b03821660009081526006602052604090205561095a610558565b6001600160a01b0391821660009081526005602052604080822083905593909216825291902055565b6001546001600160a01b031633146109cd5760405162461bcd60e51b815260206004820152600d60248201526c13db9b1e535bdb995e541bdbdb609a1b604482015260640161022a565b600054600160a01b900460ff1615610a1c5760405162461bcd60e51b8152602060048201526012602482015271105b1c9958591e525b9a5d1a585b1a5e995960721b604482015260640161022a565b6000805460ff60a01b1916600160a01b179055600880546001600160a01b0383166001600160a01b0319909116179055610a5942627d3e80610e79565b60095550565b6000600954421115610a735750600161066f565b50600090565b604080516001600160a01b038416602482015260448082018490528251808303909101815260649091019091526020810180516001600160e01b031663a9059cbb60e01b179052610acb908490610ad0565b505050565b6000610b25826040518060400160405280602081526020017f5361666545524332303a206c6f772d6c6576656c2063616c6c206661696c6564815250856001600160a01b0316610ba29092919063ffffffff16565b805190915015610acb5780806020019051810190610b439190610d7f565b610acb5760405162461bcd60e51b815260206004820152602a60248201527f5361666545524332303a204552433230206f7065726174696f6e20646964206e6044820152691bdd081cdd58d8d9595960b21b606482015260840161022a565b6060610bb18484600085610bbb565b90505b9392505050565b606082471015610c1c5760405162461bcd60e51b815260206004820152602660248201527f416464726573733a20696e73756666696369656e742062616c616e636520666f6044820152651c8818d85b1b60d21b606482015260840161022a565b843b610c6a5760405162461bcd60e51b815260206004820152601d60248201527f416464726573733a2063616c6c20746f206e6f6e2d636f6e7472616374000000604482015260640161022a565b600080866001600160a01b03168587604051610c869190610dcf565b60006040518083038185875af1925050503d8060008114610cc3576040519150601f19603f3d011682016040523d82523d6000602084013e610cc8565b606091505b5091509150610cd8828286610ce3565b979650505050505050565b60608315610cf2575081610bb4565b825115610d025782518084602001fd5b8160405162461bcd60e51b815260040161022a9190610dff565b80356001600160a01b038116811461045e57600080fd5b600060208284031215610d44578081fd5b610bb482610d1c565b60008060408385031215610d5f578081fd5b610d6883610d1c565b9150610d7660208401610d1c565b90509250929050565b600060208284031215610d90578081fd5b81518015158114610bb4578182fd5b600060208284031215610db0578081fd5b5035919050565b600060208284031215610dc8578081fd5b5051919050565b60008251610de1818460208701610ee7565b9190910192915050565b6001600160a01b0391909116815260200190565b6000602082528251806020840152610e1e816040850160208701610ee7565b601f01601f19169190910160400192915050565b60208082526009908201526837b7363ca0b236b4b760b91b604082015260600190565b6020808252600a908201526927b7363ca62a37b5b2b760b11b604082015260600190565b60008219821115610e8c57610e8c610f17565b500190565b600082610eac57634e487b7160e01b81526012600452602481fd5b500490565b6000816000190483118215151615610ecb57610ecb610f17565b500290565b600082821015610ee257610ee2610f17565b500390565b60005b83811015610f02578181015183820152602001610eea565b83811115610f11576000848401525b50505050565b634e487b7160e01b600052601160045260246000fdfea2646970667358221220653cb39dae4cc9d37d61a2c11956619ff5cbe20efdcf4b3f30af9c54e28a9eb964736f6c63430008030033",
  "devdoc": {
    "kind": "dev",
    "methods": {},
    "version": 1
  },
  "userdoc": {
    "kind": "user",
    "methods": {
      "beforeTokenTransfer(address,address)": {
        "notice": "If user transfered lToken, accrued reward will be updated and user index will be set to the current index"
      },
      "setAmountPerSecond(uint256)": {
        "notice": "Admin can update amount per second"
      },
      "setEndTimestamp(uint256)": {
        "notice": "Admin can update incentive pool end timestamp"
      },
      "updateIncentivePool(address)": {
        "notice": "Update user incentive index and last update timestamp in minting or burining lTokens."
      }
    },
    "version": 1
  },
  "storageLayout": {
    "storage": [
      {
        "astId": 3982,
        "contract": "contracts/IncentivePool.sol:IncentivePool",
        "label": "_owner",
        "offset": 0,
        "slot": "0",
        "type": "t_address"
      },
      {
        "astId": 3984,
        "contract": "contracts/IncentivePool.sol:IncentivePool",
        "label": "_initialized",
        "offset": 20,
        "slot": "0",
        "type": "t_bool"
      },
      {
        "astId": 3987,
        "contract": "contracts/IncentivePool.sol:IncentivePool",
        "label": "_moneyPool",
        "offset": 0,
        "slot": "1",
        "type": "t_contract(IMoneyPool)7140"
      },
      {
        "astId": 3989,
        "contract": "contracts/IncentivePool.sol:IncentivePool",
        "label": "_incentiveAsset",
        "offset": 0,
        "slot": "2",
        "type": "t_address"
      },
      {
        "astId": 3991,
        "contract": "contracts/IncentivePool.sol:IncentivePool",
        "label": "_incentiveIndex",
        "offset": 0,
        "slot": "3",
        "type": "t_uint256"
      },
      {
        "astId": 3993,
        "contract": "contracts/IncentivePool.sol:IncentivePool",
        "label": "_lastUpdateTimestamp",
        "offset": 0,
        "slot": "4",
        "type": "t_uint256"
      },
      {
        "astId": 3997,
        "contract": "contracts/IncentivePool.sol:IncentivePool",
        "label": "_userIncentiveIndex",
        "offset": 0,
        "slot": "5",
        "type": "t_mapping(t_address,t_uint256)"
      },
      {
        "astId": 4001,
        "contract": "contracts/IncentivePool.sol:IncentivePool",
        "label": "_accruedIncentive",
        "offset": 0,
        "slot": "6",
        "type": "t_mapping(t_address,t_uint256)"
      },
      {
        "astId": 4003,
        "contract": "contracts/IncentivePool.sol:IncentivePool",
        "label": "amountPerSecond",
        "offset": 0,
        "slot": "7",
        "type": "t_uint256"
      },
      {
        "astId": 4005,
        "contract": "contracts/IncentivePool.sol:IncentivePool",
        "label": "lToken",
        "offset": 0,
        "slot": "8",
        "type": "t_address"
      },
      {
        "astId": 4007,
        "contract": "contracts/IncentivePool.sol:IncentivePool",
        "label": "endTimestamp",
        "offset": 0,
        "slot": "9",
        "type": "t_uint256"
      }
    ],
    "types": {
      "t_address": {
        "encoding": "inplace",
        "label": "address",
        "numberOfBytes": "20"
      },
      "t_bool": {
        "encoding": "inplace",
        "label": "bool",
        "numberOfBytes": "1"
      },
      "t_contract(IMoneyPool)7140": {
        "encoding": "inplace",
        "label": "contract IMoneyPool",
        "numberOfBytes": "20"
      },
      "t_mapping(t_address,t_uint256)": {
        "encoding": "mapping",
        "key": "t_address",
        "label": "mapping(address => uint256)",
        "numberOfBytes": "32",
        "value": "t_uint256"
      },
      "t_uint256": {
        "encoding": "inplace",
        "label": "uint256",
        "numberOfBytes": "32"
      }
    }
  }
}