{
  "address": "0x0bdFef5f8B75741d33a22d85022244CBE793DA24",
  "abi": [
    {
      "inputs": [
        {
          "internalType": "uint256",
          "name": "maxReserveCount_",
          "type": "uint256"
        },
        {
          "internalType": "address",
          "name": "connector",
          "type": "address"
        }
      ],
      "stateMutability": "nonpayable",
      "type": "constructor"
    },
    {
      "anonymous": false,
      "inputs": [
        {
          "indexed": true,
          "internalType": "address",
          "name": "asset",
          "type": "address"
        },
        {
          "indexed": true,
          "internalType": "address",
          "name": "collateralServiceProvider",
          "type": "address"
        },
        {
          "indexed": true,
          "internalType": "address",
          "name": "borrower",
          "type": "address"
        },
        {
          "indexed": false,
          "internalType": "uint256",
          "name": "tokenId",
          "type": "uint256"
        },
        {
          "indexed": false,
          "internalType": "uint256",
          "name": "borrowAPY",
          "type": "uint256"
        },
        {
          "indexed": false,
          "internalType": "uint256",
          "name": "borrowAmount",
          "type": "uint256"
        }
      ],
      "name": "Borrow",
      "type": "event"
    },
    {
      "anonymous": false,
      "inputs": [
        {
          "indexed": true,
          "internalType": "address",
          "name": "asset",
          "type": "address"
        },
        {
          "indexed": true,
          "internalType": "address",
          "name": "account",
          "type": "address"
        },
        {
          "indexed": false,
          "internalType": "uint256",
          "name": "amount",
          "type": "uint256"
        }
      ],
      "name": "Deposit",
      "type": "event"
    },
    {
      "anonymous": false,
      "inputs": [
        {
          "indexed": true,
          "internalType": "address",
          "name": "asset",
          "type": "address"
        },
        {
          "indexed": true,
          "internalType": "address",
          "name": "borrower",
          "type": "address"
        },
        {
          "indexed": false,
          "internalType": "uint256",
          "name": "tokenId",
          "type": "uint256"
        },
        {
          "indexed": false,
          "internalType": "uint256",
          "name": "userDTokenBalance",
          "type": "uint256"
        },
        {
          "indexed": false,
          "internalType": "uint256",
          "name": "feeOnCollateralServiceProvider",
          "type": "uint256"
        }
      ],
      "name": "Liquidation",
      "type": "event"
    },
    {
      "anonymous": false,
      "inputs": [
        {
          "indexed": true,
          "internalType": "address",
          "name": "asset",
          "type": "address"
        },
        {
          "indexed": false,
          "internalType": "address",
          "name": "lToken",
          "type": "address"
        },
        {
          "indexed": false,
          "internalType": "address",
          "name": "dToken",
          "type": "address"
        },
        {
          "indexed": false,
          "internalType": "address",
          "name": "interestModel",
          "type": "address"
        },
        {
          "indexed": false,
          "internalType": "address",
          "name": "tokenizer",
          "type": "address"
        },
        {
          "indexed": false,
          "internalType": "address",
          "name": "incentivePool",
          "type": "address"
        },
        {
          "indexed": false,
          "internalType": "uint256",
          "name": "moneyPoolFactor",
          "type": "uint256"
        }
      ],
      "name": "NewReserve",
      "type": "event"
    },
    {
      "anonymous": false,
      "inputs": [
        {
          "indexed": true,
          "internalType": "address",
          "name": "asset",
          "type": "address"
        },
        {
          "indexed": true,
          "internalType": "address",
          "name": "borrower",
          "type": "address"
        },
        {
          "indexed": false,
          "internalType": "uint256",
          "name": "tokenId",
          "type": "uint256"
        },
        {
          "indexed": false,
          "internalType": "uint256",
          "name": "userDTokenBalance",
          "type": "uint256"
        },
        {
          "indexed": false,
          "internalType": "uint256",
          "name": "feeOnCollateralServiceProvider",
          "type": "uint256"
        }
      ],
      "name": "Repay",
      "type": "event"
    },
    {
      "anonymous": false,
      "inputs": [
        {
          "indexed": true,
          "internalType": "address",
          "name": "asset",
          "type": "address"
        },
        {
          "indexed": true,
          "internalType": "address",
          "name": "account",
          "type": "address"
        },
        {
          "indexed": true,
          "internalType": "address",
          "name": "to",
          "type": "address"
        },
        {
          "indexed": false,
          "internalType": "uint256",
          "name": "amount",
          "type": "uint256"
        }
      ],
      "name": "Withdraw",
      "type": "event"
    },
    {
      "inputs": [
        {
          "internalType": "address",
          "name": "asset",
          "type": "address"
        }
      ],
      "name": "activateMoneyPool",
      "outputs": [],
      "stateMutability": "nonpayable",
      "type": "function"
    },
    {
      "inputs": [
        {
          "internalType": "address",
          "name": "asset",
          "type": "address"
        },
        {
          "internalType": "address",
          "name": "lToken",
          "type": "address"
        },
        {
          "internalType": "address",
          "name": "dToken",
          "type": "address"
        },
        {
          "internalType": "address",
          "name": "interestModel",
          "type": "address"
        },
        {
          "internalType": "address",
          "name": "tokenizer",
          "type": "address"
        },
        {
          "internalType": "address",
          "name": "incentivePool",
          "type": "address"
        },
        {
          "internalType": "uint256",
          "name": "moneyPoolFactor_",
          "type": "uint256"
        }
      ],
      "name": "addNewReserve",
      "outputs": [],
      "stateMutability": "nonpayable",
      "type": "function"
    },
    {
      "inputs": [
        {
          "internalType": "address",
          "name": "asset",
          "type": "address"
        },
        {
          "internalType": "uint256",
          "name": "tokenId",
          "type": "uint256"
        }
      ],
      "name": "borrow",
      "outputs": [],
      "stateMutability": "nonpayable",
      "type": "function"
    },
    {
      "inputs": [
        {
          "internalType": "address",
          "name": "asset",
          "type": "address"
        }
      ],
      "name": "deactivateMoneyPool",
      "outputs": [],
      "stateMutability": "nonpayable",
      "type": "function"
    },
    {
      "inputs": [
        {
          "internalType": "address",
          "name": "asset",
          "type": "address"
        },
        {
          "internalType": "address",
          "name": "account",
          "type": "address"
        },
        {
          "internalType": "uint256",
          "name": "amount",
          "type": "uint256"
        }
      ],
      "name": "deposit",
      "outputs": [],
      "stateMutability": "nonpayable",
      "type": "function"
    },
    {
      "inputs": [
        {
          "internalType": "address",
          "name": "asset",
          "type": "address"
        }
      ],
      "name": "getLTokenInterestIndex",
      "outputs": [
        {
          "internalType": "uint256",
          "name": "",
          "type": "uint256"
        }
      ],
      "stateMutability": "view",
      "type": "function"
    },
    {
      "inputs": [
        {
          "internalType": "address",
          "name": "asset",
          "type": "address"
        }
      ],
      "name": "getReserveData",
      "outputs": [
        {
          "components": [
            {
              "internalType": "uint256",
              "name": "moneyPoolFactor",
              "type": "uint256"
            },
            {
              "internalType": "uint256",
              "name": "lTokenInterestIndex",
              "type": "uint256"
            },
            {
              "internalType": "uint256",
              "name": "borrowAPY",
              "type": "uint256"
            },
            {
              "internalType": "uint256",
              "name": "depositAPY",
              "type": "uint256"
            },
            {
              "internalType": "uint256",
              "name": "lastUpdateTimestamp",
              "type": "uint256"
            },
            {
              "internalType": "address",
              "name": "lTokenAddress",
              "type": "address"
            },
            {
              "internalType": "address",
              "name": "dTokenAddress",
              "type": "address"
            },
            {
              "internalType": "address",
              "name": "interestModelAddress",
              "type": "address"
            },
            {
              "internalType": "address",
              "name": "tokenizerAddress",
              "type": "address"
            },
            {
              "internalType": "uint8",
              "name": "id",
              "type": "uint8"
            },
            {
              "internalType": "bool",
              "name": "isPaused",
              "type": "bool"
            },
            {
              "internalType": "bool",
              "name": "isActivated",
              "type": "bool"
            }
          ],
          "internalType": "struct DataStruct.ReserveData",
          "name": "",
          "type": "tuple"
        }
      ],
      "stateMutability": "view",
      "type": "function"
    },
    {
      "inputs": [
        {
          "internalType": "address",
          "name": "asset",
          "type": "address"
        },
        {
          "internalType": "uint256",
          "name": "tokenId",
          "type": "uint256"
        }
      ],
      "name": "liquidate",
      "outputs": [],
      "stateMutability": "nonpayable",
      "type": "function"
    },
    {
      "inputs": [
        {
          "internalType": "address",
          "name": "asset",
          "type": "address"
        }
      ],
      "name": "pauseMoneyPool",
      "outputs": [],
      "stateMutability": "nonpayable",
      "type": "function"
    },
    {
      "inputs": [
        {
          "internalType": "address",
          "name": "asset",
          "type": "address"
        },
        {
          "internalType": "uint256",
          "name": "tokenId",
          "type": "uint256"
        }
      ],
      "name": "repay",
      "outputs": [],
      "stateMutability": "nonpayable",
      "type": "function"
    },
    {
      "inputs": [
        {
          "internalType": "address",
          "name": "asset",
          "type": "address"
        }
      ],
      "name": "unPauseMoneyPool",
      "outputs": [],
      "stateMutability": "nonpayable",
      "type": "function"
    },
    {
      "inputs": [
        {
          "internalType": "address",
          "name": "asset",
          "type": "address"
        },
        {
          "internalType": "address",
          "name": "newIncentivePool",
          "type": "address"
        }
      ],
      "name": "updateIncentivePool",
      "outputs": [],
      "stateMutability": "nonpayable",
      "type": "function"
    },
    {
      "inputs": [
        {
          "internalType": "address",
          "name": "asset",
          "type": "address"
        },
        {
          "internalType": "address",
          "name": "account",
          "type": "address"
        },
        {
          "internalType": "uint256",
          "name": "amount",
          "type": "uint256"
        }
      ],
      "name": "withdraw",
      "outputs": [],
      "stateMutability": "nonpayable",
      "type": "function"
    }
  ],
  "transactionHash": "0xae24bf73e50fd25317f5c1b86f5629c5d23ffd6fce865085fd693aa9dd801f8f",
  "args": [
    "16",
    "0x424C2A31976C2d609819582c84F534b15b001793"
  ],
  "solcInputHash": "efcd845ea837ae5482eec05fa8d312de",
  "bytecode": "0x60806040523480156200001157600080fd5b5060405162002d3838038062002d3883398101604081905262000034916200007a565b600480546001600160a01b0319166001600160a01b038316179055600382905560028054600191906000906200006c908490620000b7565b90915550620000dc92505050565b600080604083850312156200008d578182fd5b825160208401519092506001600160a01b0381168114620000ac578182fd5b809150509250929050565b60008219821115620000d757634e487b7160e01b81526011600452602481fd5b500190565b612c4c80620000ec6000396000f3fe608060405234801561001057600080fd5b50600436106100af5760003560e01c8063134cc9ea146100b457806322867d78146100c95780632e44cffd146100dc5780632e7c79d4146100ef57806335ea6a75146101025780634830b50a1461012b5780634b8a35291461013e5780634e34ca67146101515780638340f54914610164578063af5be73d14610177578063bcbaf4871461018a578063cee439231461019d578063d9caed12146101be575b600080fd5b6100c76100c23660046123cc565b6101d1565b005b6100c76100d73660046124ec565b6102a2565b6100c76100ea366004612420565b610674565b6100c76100fd3660046123e8565b6109e7565b6101156101103660046123cc565b610b00565b60405161012291906129a9565b60405180910390f35b6100c76101393660046123cc565b610c24565b6100c761014c3660046124ec565b610ce6565b6100c761015f3660046123cc565b6110c6565b6100c76101723660046124ac565b61118e565b6100c76101853660046123cc565b61136e565b6100c76101983660046124ec565b611430565b6101b06101ab3660046123cc565b61180a565b604051908152602001610122565b6100c76101cc3660046124ac565b6118ac565b60048054604051630f2770bf60e41b81526001600160a01b039091169163f2770bf091610200913391016128a9565b60206040518083038186803b15801561021857600080fd5b505afa15801561022c573d6000803e3d6000fd5b505050506040513d601f19601f820116820180604052508101906102509190612517565b6102755760405162461bcd60e51b815260040161026c9061296a565b60405180910390fd5b6001600160a01b03166000908152602081905260409020600801805460ff60b01b1916600160b01b179055565b6001600160a01b0382811660009081526020819052604080822060088101549151634134592760e11b81526004810186905290939190911690638268b24e9060240160006040518083038186803b1580156102fc57600080fd5b505afa158015610310573d6000803e3d6000fd5b505050506040513d6000823e601f3d908101601f191682016040526103389190810190612537565b604051637559466d60e01b815290915073926F61222cd96Dd1f1C4066F8626E8514baBB01690637559466d906103749085908590600401612a7f565b60006040518083038186803b15801561038c57600080fd5b505af41580156103a0573d6000803e3d6000fd5b50506040516367f0d33960e01b815260009250829150731bfbF29ac46B53352a12bF493f3350B7A17b1cF8906367f0d339906103e0908690600401612996565b604080518083038186803b1580156103f757600080fd5b505af415801561040b573d6000803e3d6000fd5b505050506040513d601f19601f8201168201806040525081019061042f9190612724565b909250905060006104408284612b13565b905061044c8588611afc565b600585015461046a906001600160a01b038981169133911684611b77565b60068501546020850151604051632770a7eb60e21b81526001600160a01b0390921691639dc29fac916104a19187906004016128e6565b600060405180830381600087803b1580156104bb57600080fd5b505af11580156104cf573d6000803e3d6000fd5b5050604051636f6f4e0f60e01b81527351EC26D9C0806e42a6bB8fBA40bcc5F7D54400Ef9250636f6f4e0f91506105109088908b9087908990600401612a5b565b60006040518083038186803b15801561052857600080fd5b505af415801561053c573d6000803e3d6000fd5b5050505060088501546020850151604051636e59367360e01b81526001600160a01b0390921691636e59367391610577918a906004016128e6565b600060405180830381600087803b15801561059157600080fd5b505af11580156105a5573d6000803e3d6000fd5b505050600586015460608601516001880154604051630ab714fb60e11b81526001600160a01b03909316935063156e29f6926105e6929187916004016128ff565b600060405180830381600087803b15801561060057600080fd5b505af1158015610614573d6000803e3d6000fd5b5050505083602001516001600160a01b0316876001600160a01b03167fd6a068ae75f1025380f00b7a1476f705bae3c3644640cf62b857f8d02ace826e88868660405161066393929190612acd565b60405180910390a350505050505050565b60048054604051630f2770bf60e41b81526001600160a01b039091169163f2770bf0916106a3913391016128a9565b60206040518083038186803b1580156106bb57600080fd5b505afa1580156106cf573d6000803e3d6000fd5b505050506040513d601f19601f820116820180604052508101906106f39190612517565b61070f5760405162461bcd60e51b815260040161026c9061296a565b600060405180610180016040528083815260200161072b611bd7565b81526020016000815260200160008152602001428152602001886001600160a01b03168152602001876001600160a01b03168152602001866001600160a01b03168152602001856001600160a01b03168152602001600060ff168152602001600015158152602001600115158152509050806000808a6001600160a01b03166001600160a01b03168152602001908152602001600020600082015181600001556020820151816001015560408201518160020155606082015181600301556080820151816004015560a08201518160050160006101000a8154816001600160a01b0302191690836001600160a01b0316021790555060c08201518160060160006101000a8154816001600160a01b0302191690836001600160a01b0316021790555060e08201518160070160006101000a8154816001600160a01b0302191690836001600160a01b031602179055506101008201518160080160006101000a8154816001600160a01b0302191690836001600160a01b031602179055506101208201518160080160146101000a81548160ff021916908360ff1602179055506101408201518160080160156101000a81548160ff0219169083151502179055506101608201518160080160166101000a81548160ff02191690831515021790555090505061091888611be6565b604051635b6f394f60e11b81526001600160a01b0384169063b6de729e90610944908a906004016128a9565b600060405180830381600087803b15801561095e57600080fd5b505af1158015610972573d6000803e3d6000fd5b5050604080516001600160a01b038b811682528a81166020830152898116828401528881166060830152878116608083015260a082018790529151918c1693507f030d2f64fa28afda22bc2449a466bc0ea2105b886ec225f9a4e82a16afadede0925081900360c00190a25050505050505050565b60048054604051630f2770bf60e41b81526001600160a01b039091169163f2770bf091610a16913391016128a9565b60206040518083038186803b158015610a2e57600080fd5b505afa158015610a42573d6000803e3d6000fd5b505050506040513d601f19601f82011682018060405250810190610a669190612517565b610a825760405162461bcd60e51b815260040161026c9061296a565b6001600160a01b0380831660009081526020819052604090819020600581015491516311123cdd60e31b815290929190911690638891e6e890610ac99085906004016128a9565b600060405180830381600087803b158015610ae357600080fd5b505af1158015610af7573d6000803e3d6000fd5b50505050505050565b6040805161018081018252600080825260208201819052918101829052606081018290526080810182905260a0810182905260c0810182905260e08101829052610100810182905261012081018290526101408101829052610160810191909152506001600160a01b03808216600090815260208181526040918290208251610180810184528154815260018201549281019290925260028101549282019290925260038201546060820152600482015460808201526005820154831660a08201526006820154831660c08201526007820154831660e082015260089091015491821661010082015260ff600160a01b83048116610120830152600160a81b830481161515610140830152600160b01b90920490911615156101608201525b919050565b60048054604051630f2770bf60e41b81526001600160a01b039091169163f2770bf091610c53913391016128a9565b60206040518083038186803b158015610c6b57600080fd5b505afa158015610c7f573d6000803e3d6000fd5b505050506040513d601f19601f82011682018060405250810190610ca39190612517565b610cbf5760405162461bcd60e51b815260040161026c9061296a565b6001600160a01b03166000908152602081905260409020600801805460ff60b01b19169055565b60048054604051631fc6b2f960e11b81526001600160a01b0390911691633f8d65f291610d15913391016128a9565b60206040518083038186803b158015610d2d57600080fd5b505afa158015610d41573d6000803e3d6000fd5b505050506040513d601f19601f82011682018060405250810190610d659190612517565b610d815760405162461bcd60e51b815260040161026c90612933565b6001600160a01b0382811660009081526020819052604080822060088101549151634134592760e11b81526004810186905290939190911690638268b24e9060240160006040518083038186803b158015610ddb57600080fd5b505afa158015610def573d6000803e3d6000fd5b505050506040513d6000823e601f3d908101601f19168201604052610e179190810190612537565b60808101516020820151604051630cf0b0e960e01b8152929350909173926F61222cd96Dd1f1C4066F8626E8514baBB01690630cf0b0e990610e6390879087908b908890600401612a98565b60006040518083038186803b158015610e7b57600080fd5b505af4158015610e8f573d6000803e3d6000fd5b50505050610ea68685611afc90919063ffffffff16565b6008840154600285015460405163344c988d60e11b8152336004820152602481018890526044810185905260648101919091526001600160a01b0390911690636899311a90608401600060405180830381600087803b158015610f0857600080fd5b505af1158015610f1c573d6000803e3d6000fd5b5050506006850154600286015460405163b3f1c93d60e01b81526001600160a01b03909216925063b3f1c93d91610f5b913391869188916004016128bd565b600060405180830381600087803b158015610f7557600080fd5b505af1158015610f89573d6000803e3d6000fd5b5050604051636f6f4e0f60e01b81527351EC26D9C0806e42a6bB8fBA40bcc5F7D54400Ef9250636f6f4e0f9150610fcb9087908a906000908890600401612a5b565b60006040518083038186803b158015610fe357600080fd5b505af4158015610ff7573d6000803e3d6000fd5b5050506005850154604051634efecaa560e01b81526001600160a01b039091169150634efecaa59061102f90849086906004016128e6565b600060405180830381600087803b15801561104957600080fd5b505af115801561105d573d6000803e3d6000fd5b50505050806001600160a01b0316336001600160a01b0316876001600160a01b03167f4bc4b08d677fc59195d56e346dcb5cc5dc3b78b90d59f5d36740ae1b3d225db8888860020154876040516110b693929190612acd565b60405180910390a4505050505050565b60048054604051630f2770bf60e41b81526001600160a01b039091169163f2770bf0916110f5913391016128a9565b60206040518083038186803b15801561110d57600080fd5b505afa158015611121573d6000803e3d6000fd5b505050506040513d601f19601f820116820180604052508101906111459190612517565b6111615760405162461bcd60e51b815260040161026c9061296a565b6001600160a01b03166000908152602081905260409020600801805460ff60a81b1916600160a81b179055565b6001600160a01b03831660009081526020819052604090819020905163259dd32560e21b8152600481018290526024810183905273926F61222cd96Dd1f1C4066F8626E8514baBB016906396774c949060440160006040518083038186803b1580156111f957600080fd5b505af415801561120d573d6000803e3d6000fd5b505050506112248482611afc90919063ffffffff16565b604051636f6f4e0f60e01b81527351EC26D9C0806e42a6bB8fBA40bcc5F7D54400Ef90636f6f4e0f9061126290849088908790600090600401612a5b565b60006040518083038186803b15801561127a57600080fd5b505af415801561128e573d6000803e3d6000fd5b50505060058201546112b091506001600160a01b038681169133911685611b77565b60058101546001820154604051630ab714fb60e11b81526001600160a01b039092169163156e29f6916112e991879187916004016128ff565b600060405180830381600087803b15801561130357600080fd5b505af1158015611317573d6000803e3d6000fd5b50505050826001600160a01b0316846001600160a01b03167f5548c837ab068cf56a2c2479df0882a4922fd203edb7517321831d95078c5f628460405161136091815260200190565b60405180910390a350505050565b60048054604051630f2770bf60e41b81526001600160a01b039091169163f2770bf09161139d913391016128a9565b60206040518083038186803b1580156113b557600080fd5b505afa1580156113c9573d6000803e3d6000fd5b505050506040513d601f19601f820116820180604052508101906113ed9190612517565b6114095760405162461bcd60e51b815260040161026c9061296a565b6001600160a01b03166000908152602081905260409020600801805460ff60a81b19169055565b60048054604051631fc6b2f960e11b81526001600160a01b0390911691633f8d65f29161145f913391016128a9565b60206040518083038186803b15801561147757600080fd5b505afa15801561148b573d6000803e3d6000fd5b505050506040513d601f19601f820116820180604052508101906114af9190612517565b6114cb5760405162461bcd60e51b815260040161026c90612933565b6001600160a01b0382811660009081526020819052604080822060088101549151634134592760e11b81526004810186905290939190911690638268b24e9060240160006040518083038186803b15801561152557600080fd5b505afa158015611539573d6000803e3d6000fd5b505050506040513d6000823e601f3d908101601f191682016040526115619190810190612537565b6040516306e4e14f60e21b815290915073926F61222cd96Dd1f1C4066F8626E8514baBB01690631b93853c9061159d9085908590600401612a7f565b60006040518083038186803b1580156115b557600080fd5b505af41580156115c9573d6000803e3d6000fd5b505050506000806115d983611d04565b909250905060006115ea8284612b13565b90506115f68588611afc565b60068501546020850151604051632770a7eb60e21b81526001600160a01b0390921691639dc29fac9161162d9187906004016128e6565b600060405180830381600087803b15801561164757600080fd5b505af115801561165b573d6000803e3d6000fd5b5050604051636f6f4e0f60e01b81527351EC26D9C0806e42a6bB8fBA40bcc5F7D54400Ef9250636f6f4e0f915061169c9088908b9087908990600401612a5b565b60006040518083038186803b1580156116b457600080fd5b505af41580156116c8573d6000803e3d6000fd5b50505060058601546116ea91506001600160a01b038981169133911684611b77565b60088501546040516354b0e57f60e01b81526001600160a01b03909116906354b0e57f9061171e9033908a906004016128e6565b600060405180830381600087803b15801561173857600080fd5b505af115801561174c573d6000803e3d6000fd5b505050600586015460608601516001880154604051630ab714fb60e11b81526001600160a01b03909316935063156e29f69261178d929187916004016128ff565b600060405180830381600087803b1580156117a757600080fd5b505af11580156117bb573d6000803e3d6000fd5b5050505083602001516001600160a01b0316876001600160a01b03167f5a821a618ddb1a1fd304234a69c9d7f20c129d122fcf35593d13a0719266430788868660405161066393929190612acd565b6001600160a01b0381166000908152602081905260408082209051635ed8914160e01b815260048101919091527366368D5bE45FBF209fc1f34733dA31708A7c03a090635ed891419060240160206040518083038186803b15801561186e57600080fd5b505af4158015611882573d6000803e3d6000fd5b505050506040513d601f19601f820116820180604052508101906118a6919061270c565b92915050565b6001600160a01b03808416600090815260208190526040808220600581015491516370a0823160e01b8152909391909116906370a08231906118f29033906004016128a9565b60206040518083038186803b15801561190a57600080fd5b505afa15801561191e573d6000803e3d6000fd5b505050506040513d601f19601f82011682018060405250810190611942919061270c565b9050826000198114156119525750805b60405163300996c360e21b815273926F61222cd96Dd1f1C4066F8626E8514baBB0169063c0265b0c9061198f9086908a9086908890600401612a5b565b60006040518083038186803b1580156119a757600080fd5b505af41580156119bb573d6000803e3d6000fd5b505050506119d28684611afc90919063ffffffff16565b604051636f6f4e0f60e01b81527351EC26D9C0806e42a6bB8fBA40bcc5F7D54400Ef90636f6f4e0f90611a109086908a906000908790600401612a5b565b60006040518083038186803b158015611a2857600080fd5b505af4158015611a3c573d6000803e3d6000fd5b50505060058401546001850154604051636b81068560e11b81526001600160a01b03909216925063d7020d0a91611a7b9133918a9187916004016128bd565b600060405180830381600087803b158015611a9557600080fd5b505af1158015611aa9573d6000803e3d6000fd5b50505050846001600160a01b0316336001600160a01b0316876001600160a01b03167f3115d1449a7b732c986cba18244e897a450f61e1bb8d589cd2e69e6c8924f9f7846040516110b691815260200190565b6003820154611b1057426004830155611b73565b611b1982611d45565b6001830181905542600484018190556040516001600160a01b038416927f9a1b7c42fa344b6eab391c9dce3f027cd74830d4e906c023ad432a8cb06e4f8792611b6a92918252602082015260400190565b60405180910390a25b5050565b604080516001600160a01b0385811660248301528416604482015260648082018490528251808303909101815260849091019091526020810180516001600160e01b03166323b872dd60e01b179052611bd1908590611d82565b50505050565b676765c793fa10079d601b1b90565b6002546003548110611c345760405162461bcd60e51b815260206004820152601760248201527613585e14995cd95c9d9950dbdd5b9d115e18d959591959604a1b604482015260640161026c565b6001600160a01b038216600090815260208190526040902060080154600160a01b900460ff1615611ca25760405162461bcd60e51b8152602060048201526018602482015277111a59da5d185b105cdcd95d105b1c9958591e505919195960421b604482015260640161026c565b6001600160a01b038216600081815260208181526040808320600801805460ff60a01b1916600160a01b60ff88160217905584835260019182905290912080546001600160a01b031916909217909155611cfd908290612b13565b6002555050565b6000806000611d2b8460800151611d258660e0015187610140015142611e59565b90611f71565b90506000611d398542611fc0565b91935090915050915091565b600481015460009042811415611d615750506001810154610c1f565b6000611d7a8460010154611d25866003015485426121f2565b949350505050565b6000611dd7826040518060400160405280602081526020017f5361666545524332303a206c6f772d6c6576656c2063616c6c206661696c6564815250856001600160a01b03166122359092919063ffffffff16565b805190915015611e545780806020019051810190611df59190612517565b611e545760405162461bcd60e51b815260206004820152602a60248201527f5361666545524332303a204552433230206f7065726174696f6e20646964206e6044820152691bdd081cdd58d8d9595960b21b606482015260840161026c565b505050565b600080611e668484612b8f565b905080611e7d57611e75611bd7565b915050611f6a565b6000611e8a600183612b8f565b9050600060028311611e9d576000611ea8565b611ea8600284612b8f565b90506000611eba6301e1338089612b50565b90506000611ec88280611f71565b90506000611ed68284611f71565b90506000600283611ee7888a612b70565b611ef19190612b70565b611efb9190612b50565b9050600060068387611f0d8a8c612b70565b611f179190612b70565b611f219190612b70565b611f2b9190612b50565b90508082611f398a88612b70565b611f41611bd7565b611f4b9190612b13565b611f559190612b13565b611f5f9190612b13565b985050505050505050505b9392505050565b6000821580611f7e575081155b15611f8b575060006118a6565b676765c793fa10079d601b1b611fa2600282612b50565b611fac8486612b70565b611fb69190612b13565b611f6a9190612b50565b6040805161018081018252600060a0820181815260c0830182905260e08301829052610100830182905261012083018290526101408301829052610160830182905282526020820181905291810182905260608101829052608081018290526120388460c00151856101200151866101600151611e59565b6040828101919091525163f97d059160e01b81526004810184905273144d0B69Da2cAe4c299357e2Fc5B4C37a234Aa439063f97d05919060240160e06040518083038186803b15801561208a57600080fd5b505af415801561209e573d6000803e3d6000fd5b505050506040513d601f19601f820116820180604052508101906120c29190612671565b8082528051602082015160409092015173144d0B69Da2cAe4c299357e2Fc5B4C37a234Aa4392638c8d98a092916120fa906001612b2b565b6040516001600160e01b031960e086901b16815261ffff909316600484015260ff918216602484015216604482015260640160206040518083038186803b15801561214457600080fd5b505af4158015612158573d6000803e3d6000fd5b505050506040513d601f19601f8201168201806040525081019061217c919061270c565b6020820152612189611bd7565b6121b18561010001518660c001516121a19190612b13565b8661016001518460200151611e59565b6121bb9190612b8f565b6060820181905260408201516121d19190612b13565b6080808301829052850151906121e8908290611f71565b611d7a9190612b8f565b6000806121ff8484612b8f565b9050612209611bd7565b6301e133806122188388612b70565b6122229190612b50565b61222c9190612b13565b95945050505050565b6060611d7a848460008585843b61228e5760405162461bcd60e51b815260206004820152601d60248201527f416464726573733a2063616c6c20746f206e6f6e2d636f6e7472616374000000604482015260640161026c565b600080866001600160a01b031685876040516122aa919061288d565b60006040518083038185875af1925050503d80600081146122e7576040519150601f19603f3d011682016040523d82523d6000602084013e6122ec565b606091505b50915091506122fc828286612307565b979650505050505050565b60608315612316575081611f6a565b8251156123265782518084602001fd5b8160405162461bcd60e51b815260040161026c9190612920565b8051610c1f81612bfe565b805160078110610c1f57600080fd5b600082601f83011261236a578081fd5b81516001600160401b0381111561238357612383612be8565b612396601f8201601f1916602001612ae3565b8181528460208386010111156123aa578283fd5b611d7a826020830160208701612ba6565b805160ff81168114610c1f57600080fd5b6000602082840312156123dd578081fd5b8135611f6a81612bfe565b600080604083850312156123fa578081fd5b823561240581612bfe565b9150602083013561241581612bfe565b809150509250929050565b600080600080600080600060e0888a03121561243a578283fd5b873561244581612bfe565b9650602088013561245581612bfe565b9550604088013561246581612bfe565b9450606088013561247581612bfe565b9350608088013561248581612bfe565b925060a088013561249581612bfe565b8092505060c0880135905092959891949750929550565b6000806000606084860312156124c0578283fd5b83356124cb81612bfe565b925060208401356124db81612bfe565b929592945050506040919091013590565b600080604083850312156124fe578182fd5b823561250981612bfe565b946020939093013593505050565b600060208284031215612528578081fd5b81518015158114611f6a578182fd5b600060208284031215612548578081fd5b81516001600160401b038082111561255e578283fd5b81840191506101e0808387031215612574578384fd5b61257d81612ae3565b90506125888361234b565b815261259660208401612340565b60208201526125a760408401612340565b60408201526125b860608401612340565b60608201526080838101519082015260a0808401519082015260c0808401519082015260e08084015190820152610100808401519082015261012080840151908201526101408084015190820152610160808401519082015261018080840151908201526101a0808401518381111561262f578586fd5b61263b8882870161235a565b8284015250506101c08084015183811115612654578586fd5b6126608882870161235a565b918301919091525095945050505050565b600060e08284031215612682578081fd5b61268c60e0612ae3565b825161ffff8116811461269d578283fd5b81526126ab602084016123bb565b60208201526126bc604084016123bb565b60408201526126cd606084016123bb565b60608201526126de608084016123bb565b60808201526126ef60a084016123bb565b60a082015261270060c084016123bb565b60c08201529392505050565b60006020828403121561271d578081fd5b5051919050565b60008060408385031215612736578182fd5b505080516020909101519092909150565b6001600160a01b03169052565b6007811061277257634e487b7160e01b600052602160045260246000fd5b9052565b6000815180845261278e816020860160208601612ba6565b601f01601f19169290920160200192915050565b60006101e06127b2848451612754565b60208301516127c46020860182612747565b5060408301516127d76040860182612747565b5060608301516127ea6060860182612747565b506080830151608085015260a083015160a085015260c083015160c085015260e083015160e08501526101008084015181860152506101208084015181860152506101408084015181860152506101608084015181860152506101808084015181860152506101a080840151828287015261286783870182612776565b925050506101c080840151858303828701526128838382612776565b9695505050505050565b6000825161289f818460208701612ba6565b9190910192915050565b6001600160a01b0391909116815260200190565b6001600160a01b0394851681529290931660208301526040820152606081019190915260800190565b6001600160a01b03929092168252602082015260400190565b6001600160a01b039390931683526020830191909152604082015260600190565b600060208252611f6a6020830184612776565b6020808252601d908201527f4f6e6c79436f6c6c61746572616c5365727669636550726f7669646572000000604082015260600190565b60208082526012908201527127b7363ca6b7b732bca837b7b620b236b4b760711b604082015260600190565b600060208252611f6a60208301846127a2565b600061018082019050825182526020830151602083015260408301516040830152606083015160608301526080830151608083015260a08301516129f060a0840182612747565b5060c0830151612a0360c0840182612747565b5060e0830151612a1660e0840182612747565b5061010080840151612a2a82850182612747565b50506101208381015160ff169083015261014080840151151590830152610160928301511515929091019190915290565b9384526001600160a01b039290921660208401526040830152606082015260800190565b600083825260406020830152611d7a60408301846127a2565b600085825260806020830152612ab160808301866127a2565b6001600160a01b03949094166040830152506060015292915050565b9283526020830191909152604082015260600190565b604051601f8201601f191681016001600160401b0381118282101715612b0b57612b0b612be8565b604052919050565b60008219821115612b2657612b26612bd2565b500190565b600060ff821660ff84168060ff03821115612b4857612b48612bd2565b019392505050565b600082612b6b57634e487b7160e01b81526012600452602481fd5b500490565b6000816000190483118215151615612b8a57612b8a612bd2565b500290565b600082821015612ba157612ba1612bd2565b500390565b60005b83811015612bc1578181015183820152602001612ba9565b83811115611bd15750506000910152565b634e487b7160e01b600052601160045260246000fd5b634e487b7160e01b600052604160045260246000fd5b6001600160a01b0381168114612c1357600080fd5b5056fea264697066735822122079e89fa762b98000cf3bbc33752d62bcff7fc0a48921e3fad8190a19bb30300b64736f6c63430008030033",
  "deployedBytecode": "0x608060405234801561001057600080fd5b50600436106100af5760003560e01c8063134cc9ea146100b457806322867d78146100c95780632e44cffd146100dc5780632e7c79d4146100ef57806335ea6a75146101025780634830b50a1461012b5780634b8a35291461013e5780634e34ca67146101515780638340f54914610164578063af5be73d14610177578063bcbaf4871461018a578063cee439231461019d578063d9caed12146101be575b600080fd5b6100c76100c23660046123cc565b6101d1565b005b6100c76100d73660046124ec565b6102a2565b6100c76100ea366004612420565b610674565b6100c76100fd3660046123e8565b6109e7565b6101156101103660046123cc565b610b00565b60405161012291906129a9565b60405180910390f35b6100c76101393660046123cc565b610c24565b6100c761014c3660046124ec565b610ce6565b6100c761015f3660046123cc565b6110c6565b6100c76101723660046124ac565b61118e565b6100c76101853660046123cc565b61136e565b6100c76101983660046124ec565b611430565b6101b06101ab3660046123cc565b61180a565b604051908152602001610122565b6100c76101cc3660046124ac565b6118ac565b60048054604051630f2770bf60e41b81526001600160a01b039091169163f2770bf091610200913391016128a9565b60206040518083038186803b15801561021857600080fd5b505afa15801561022c573d6000803e3d6000fd5b505050506040513d601f19601f820116820180604052508101906102509190612517565b6102755760405162461bcd60e51b815260040161026c9061296a565b60405180910390fd5b6001600160a01b03166000908152602081905260409020600801805460ff60b01b1916600160b01b179055565b6001600160a01b0382811660009081526020819052604080822060088101549151634134592760e11b81526004810186905290939190911690638268b24e9060240160006040518083038186803b1580156102fc57600080fd5b505afa158015610310573d6000803e3d6000fd5b505050506040513d6000823e601f3d908101601f191682016040526103389190810190612537565b604051637559466d60e01b815290915073__$a034ea2d5e2156aee4d32ca102faa25bbf$__90637559466d906103749085908590600401612a7f565b60006040518083038186803b15801561038c57600080fd5b505af41580156103a0573d6000803e3d6000fd5b50506040516367f0d33960e01b81526000925082915073__$82c3638f3539fdc3511ed289aa50105dc3$__906367f0d339906103e0908690600401612996565b604080518083038186803b1580156103f757600080fd5b505af415801561040b573d6000803e3d6000fd5b505050506040513d601f19601f8201168201806040525081019061042f9190612724565b909250905060006104408284612b13565b905061044c8588611afc565b600585015461046a906001600160a01b038981169133911684611b77565b60068501546020850151604051632770a7eb60e21b81526001600160a01b0390921691639dc29fac916104a19187906004016128e6565b600060405180830381600087803b1580156104bb57600080fd5b505af11580156104cf573d6000803e3d6000fd5b5050604051636f6f4e0f60e01b815273__$38210f4bf40afed76bc0d246cb38cb9809$__9250636f6f4e0f91506105109088908b9087908990600401612a5b565b60006040518083038186803b15801561052857600080fd5b505af415801561053c573d6000803e3d6000fd5b5050505060088501546020850151604051636e59367360e01b81526001600160a01b0390921691636e59367391610577918a906004016128e6565b600060405180830381600087803b15801561059157600080fd5b505af11580156105a5573d6000803e3d6000fd5b505050600586015460608601516001880154604051630ab714fb60e11b81526001600160a01b03909316935063156e29f6926105e6929187916004016128ff565b600060405180830381600087803b15801561060057600080fd5b505af1158015610614573d6000803e3d6000fd5b5050505083602001516001600160a01b0316876001600160a01b03167fd6a068ae75f1025380f00b7a1476f705bae3c3644640cf62b857f8d02ace826e88868660405161066393929190612acd565b60405180910390a350505050505050565b60048054604051630f2770bf60e41b81526001600160a01b039091169163f2770bf0916106a3913391016128a9565b60206040518083038186803b1580156106bb57600080fd5b505afa1580156106cf573d6000803e3d6000fd5b505050506040513d601f19601f820116820180604052508101906106f39190612517565b61070f5760405162461bcd60e51b815260040161026c9061296a565b600060405180610180016040528083815260200161072b611bd7565b81526020016000815260200160008152602001428152602001886001600160a01b03168152602001876001600160a01b03168152602001866001600160a01b03168152602001856001600160a01b03168152602001600060ff168152602001600015158152602001600115158152509050806000808a6001600160a01b03166001600160a01b03168152602001908152602001600020600082015181600001556020820151816001015560408201518160020155606082015181600301556080820151816004015560a08201518160050160006101000a8154816001600160a01b0302191690836001600160a01b0316021790555060c08201518160060160006101000a8154816001600160a01b0302191690836001600160a01b0316021790555060e08201518160070160006101000a8154816001600160a01b0302191690836001600160a01b031602179055506101008201518160080160006101000a8154816001600160a01b0302191690836001600160a01b031602179055506101208201518160080160146101000a81548160ff021916908360ff1602179055506101408201518160080160156101000a81548160ff0219169083151502179055506101608201518160080160166101000a81548160ff02191690831515021790555090505061091888611be6565b604051635b6f394f60e11b81526001600160a01b0384169063b6de729e90610944908a906004016128a9565b600060405180830381600087803b15801561095e57600080fd5b505af1158015610972573d6000803e3d6000fd5b5050604080516001600160a01b038b811682528a81166020830152898116828401528881166060830152878116608083015260a082018790529151918c1693507f030d2f64fa28afda22bc2449a466bc0ea2105b886ec225f9a4e82a16afadede0925081900360c00190a25050505050505050565b60048054604051630f2770bf60e41b81526001600160a01b039091169163f2770bf091610a16913391016128a9565b60206040518083038186803b158015610a2e57600080fd5b505afa158015610a42573d6000803e3d6000fd5b505050506040513d601f19601f82011682018060405250810190610a669190612517565b610a825760405162461bcd60e51b815260040161026c9061296a565b6001600160a01b0380831660009081526020819052604090819020600581015491516311123cdd60e31b815290929190911690638891e6e890610ac99085906004016128a9565b600060405180830381600087803b158015610ae357600080fd5b505af1158015610af7573d6000803e3d6000fd5b50505050505050565b6040805161018081018252600080825260208201819052918101829052606081018290526080810182905260a0810182905260c0810182905260e08101829052610100810182905261012081018290526101408101829052610160810191909152506001600160a01b03808216600090815260208181526040918290208251610180810184528154815260018201549281019290925260028101549282019290925260038201546060820152600482015460808201526005820154831660a08201526006820154831660c08201526007820154831660e082015260089091015491821661010082015260ff600160a01b83048116610120830152600160a81b830481161515610140830152600160b01b90920490911615156101608201525b919050565b60048054604051630f2770bf60e41b81526001600160a01b039091169163f2770bf091610c53913391016128a9565b60206040518083038186803b158015610c6b57600080fd5b505afa158015610c7f573d6000803e3d6000fd5b505050506040513d601f19601f82011682018060405250810190610ca39190612517565b610cbf5760405162461bcd60e51b815260040161026c9061296a565b6001600160a01b03166000908152602081905260409020600801805460ff60b01b19169055565b60048054604051631fc6b2f960e11b81526001600160a01b0390911691633f8d65f291610d15913391016128a9565b60206040518083038186803b158015610d2d57600080fd5b505afa158015610d41573d6000803e3d6000fd5b505050506040513d601f19601f82011682018060405250810190610d659190612517565b610d815760405162461bcd60e51b815260040161026c90612933565b6001600160a01b0382811660009081526020819052604080822060088101549151634134592760e11b81526004810186905290939190911690638268b24e9060240160006040518083038186803b158015610ddb57600080fd5b505afa158015610def573d6000803e3d6000fd5b505050506040513d6000823e601f3d908101601f19168201604052610e179190810190612537565b60808101516020820151604051630cf0b0e960e01b8152929350909173__$a034ea2d5e2156aee4d32ca102faa25bbf$__90630cf0b0e990610e6390879087908b908890600401612a98565b60006040518083038186803b158015610e7b57600080fd5b505af4158015610e8f573d6000803e3d6000fd5b50505050610ea68685611afc90919063ffffffff16565b6008840154600285015460405163344c988d60e11b8152336004820152602481018890526044810185905260648101919091526001600160a01b0390911690636899311a90608401600060405180830381600087803b158015610f0857600080fd5b505af1158015610f1c573d6000803e3d6000fd5b5050506006850154600286015460405163b3f1c93d60e01b81526001600160a01b03909216925063b3f1c93d91610f5b913391869188916004016128bd565b600060405180830381600087803b158015610f7557600080fd5b505af1158015610f89573d6000803e3d6000fd5b5050604051636f6f4e0f60e01b815273__$38210f4bf40afed76bc0d246cb38cb9809$__9250636f6f4e0f9150610fcb9087908a906000908890600401612a5b565b60006040518083038186803b158015610fe357600080fd5b505af4158015610ff7573d6000803e3d6000fd5b5050506005850154604051634efecaa560e01b81526001600160a01b039091169150634efecaa59061102f90849086906004016128e6565b600060405180830381600087803b15801561104957600080fd5b505af115801561105d573d6000803e3d6000fd5b50505050806001600160a01b0316336001600160a01b0316876001600160a01b03167f4bc4b08d677fc59195d56e346dcb5cc5dc3b78b90d59f5d36740ae1b3d225db8888860020154876040516110b693929190612acd565b60405180910390a4505050505050565b60048054604051630f2770bf60e41b81526001600160a01b039091169163f2770bf0916110f5913391016128a9565b60206040518083038186803b15801561110d57600080fd5b505afa158015611121573d6000803e3d6000fd5b505050506040513d601f19601f820116820180604052508101906111459190612517565b6111615760405162461bcd60e51b815260040161026c9061296a565b6001600160a01b03166000908152602081905260409020600801805460ff60a81b1916600160a81b179055565b6001600160a01b03831660009081526020819052604090819020905163259dd32560e21b8152600481018290526024810183905273__$a034ea2d5e2156aee4d32ca102faa25bbf$__906396774c949060440160006040518083038186803b1580156111f957600080fd5b505af415801561120d573d6000803e3d6000fd5b505050506112248482611afc90919063ffffffff16565b604051636f6f4e0f60e01b815273__$38210f4bf40afed76bc0d246cb38cb9809$__90636f6f4e0f9061126290849088908790600090600401612a5b565b60006040518083038186803b15801561127a57600080fd5b505af415801561128e573d6000803e3d6000fd5b50505060058201546112b091506001600160a01b038681169133911685611b77565b60058101546001820154604051630ab714fb60e11b81526001600160a01b039092169163156e29f6916112e991879187916004016128ff565b600060405180830381600087803b15801561130357600080fd5b505af1158015611317573d6000803e3d6000fd5b50505050826001600160a01b0316846001600160a01b03167f5548c837ab068cf56a2c2479df0882a4922fd203edb7517321831d95078c5f628460405161136091815260200190565b60405180910390a350505050565b60048054604051630f2770bf60e41b81526001600160a01b039091169163f2770bf09161139d913391016128a9565b60206040518083038186803b1580156113b557600080fd5b505afa1580156113c9573d6000803e3d6000fd5b505050506040513d601f19601f820116820180604052508101906113ed9190612517565b6114095760405162461bcd60e51b815260040161026c9061296a565b6001600160a01b03166000908152602081905260409020600801805460ff60a81b19169055565b60048054604051631fc6b2f960e11b81526001600160a01b0390911691633f8d65f29161145f913391016128a9565b60206040518083038186803b15801561147757600080fd5b505afa15801561148b573d6000803e3d6000fd5b505050506040513d601f19601f820116820180604052508101906114af9190612517565b6114cb5760405162461bcd60e51b815260040161026c90612933565b6001600160a01b0382811660009081526020819052604080822060088101549151634134592760e11b81526004810186905290939190911690638268b24e9060240160006040518083038186803b15801561152557600080fd5b505afa158015611539573d6000803e3d6000fd5b505050506040513d6000823e601f3d908101601f191682016040526115619190810190612537565b6040516306e4e14f60e21b815290915073__$a034ea2d5e2156aee4d32ca102faa25bbf$__90631b93853c9061159d9085908590600401612a7f565b60006040518083038186803b1580156115b557600080fd5b505af41580156115c9573d6000803e3d6000fd5b505050506000806115d983611d04565b909250905060006115ea8284612b13565b90506115f68588611afc565b60068501546020850151604051632770a7eb60e21b81526001600160a01b0390921691639dc29fac9161162d9187906004016128e6565b600060405180830381600087803b15801561164757600080fd5b505af115801561165b573d6000803e3d6000fd5b5050604051636f6f4e0f60e01b815273__$38210f4bf40afed76bc0d246cb38cb9809$__9250636f6f4e0f915061169c9088908b9087908990600401612a5b565b60006040518083038186803b1580156116b457600080fd5b505af41580156116c8573d6000803e3d6000fd5b50505060058601546116ea91506001600160a01b038981169133911684611b77565b60088501546040516354b0e57f60e01b81526001600160a01b03909116906354b0e57f9061171e9033908a906004016128e6565b600060405180830381600087803b15801561173857600080fd5b505af115801561174c573d6000803e3d6000fd5b505050600586015460608601516001880154604051630ab714fb60e11b81526001600160a01b03909316935063156e29f69261178d929187916004016128ff565b600060405180830381600087803b1580156117a757600080fd5b505af11580156117bb573d6000803e3d6000fd5b5050505083602001516001600160a01b0316876001600160a01b03167f5a821a618ddb1a1fd304234a69c9d7f20c129d122fcf35593d13a0719266430788868660405161066393929190612acd565b6001600160a01b0381166000908152602081905260408082209051635ed8914160e01b8152600481019190915273__$b2803e6fc9c1907245baf73f249fd756da$__90635ed891419060240160206040518083038186803b15801561186e57600080fd5b505af4158015611882573d6000803e3d6000fd5b505050506040513d601f19601f820116820180604052508101906118a6919061270c565b92915050565b6001600160a01b03808416600090815260208190526040808220600581015491516370a0823160e01b8152909391909116906370a08231906118f29033906004016128a9565b60206040518083038186803b15801561190a57600080fd5b505afa15801561191e573d6000803e3d6000fd5b505050506040513d601f19601f82011682018060405250810190611942919061270c565b9050826000198114156119525750805b60405163300996c360e21b815273__$a034ea2d5e2156aee4d32ca102faa25bbf$__9063c0265b0c9061198f9086908a9086908890600401612a5b565b60006040518083038186803b1580156119a757600080fd5b505af41580156119bb573d6000803e3d6000fd5b505050506119d28684611afc90919063ffffffff16565b604051636f6f4e0f60e01b815273__$38210f4bf40afed76bc0d246cb38cb9809$__90636f6f4e0f90611a109086908a906000908790600401612a5b565b60006040518083038186803b158015611a2857600080fd5b505af4158015611a3c573d6000803e3d6000fd5b50505060058401546001850154604051636b81068560e11b81526001600160a01b03909216925063d7020d0a91611a7b9133918a9187916004016128bd565b600060405180830381600087803b158015611a9557600080fd5b505af1158015611aa9573d6000803e3d6000fd5b50505050846001600160a01b0316336001600160a01b0316876001600160a01b03167f3115d1449a7b732c986cba18244e897a450f61e1bb8d589cd2e69e6c8924f9f7846040516110b691815260200190565b6003820154611b1057426004830155611b73565b611b1982611d45565b6001830181905542600484018190556040516001600160a01b038416927f9a1b7c42fa344b6eab391c9dce3f027cd74830d4e906c023ad432a8cb06e4f8792611b6a92918252602082015260400190565b60405180910390a25b5050565b604080516001600160a01b0385811660248301528416604482015260648082018490528251808303909101815260849091019091526020810180516001600160e01b03166323b872dd60e01b179052611bd1908590611d82565b50505050565b676765c793fa10079d601b1b90565b6002546003548110611c345760405162461bcd60e51b815260206004820152601760248201527613585e14995cd95c9d9950dbdd5b9d115e18d959591959604a1b604482015260640161026c565b6001600160a01b038216600090815260208190526040902060080154600160a01b900460ff1615611ca25760405162461bcd60e51b8152602060048201526018602482015277111a59da5d185b105cdcd95d105b1c9958591e505919195960421b604482015260640161026c565b6001600160a01b038216600081815260208181526040808320600801805460ff60a01b1916600160a01b60ff88160217905584835260019182905290912080546001600160a01b031916909217909155611cfd908290612b13565b6002555050565b6000806000611d2b8460800151611d258660e0015187610140015142611e59565b90611f71565b90506000611d398542611fc0565b91935090915050915091565b600481015460009042811415611d615750506001810154610c1f565b6000611d7a8460010154611d25866003015485426121f2565b949350505050565b6000611dd7826040518060400160405280602081526020017f5361666545524332303a206c6f772d6c6576656c2063616c6c206661696c6564815250856001600160a01b03166122359092919063ffffffff16565b805190915015611e545780806020019051810190611df59190612517565b611e545760405162461bcd60e51b815260206004820152602a60248201527f5361666545524332303a204552433230206f7065726174696f6e20646964206e6044820152691bdd081cdd58d8d9595960b21b606482015260840161026c565b505050565b600080611e668484612b8f565b905080611e7d57611e75611bd7565b915050611f6a565b6000611e8a600183612b8f565b9050600060028311611e9d576000611ea8565b611ea8600284612b8f565b90506000611eba6301e1338089612b50565b90506000611ec88280611f71565b90506000611ed68284611f71565b90506000600283611ee7888a612b70565b611ef19190612b70565b611efb9190612b50565b9050600060068387611f0d8a8c612b70565b611f179190612b70565b611f219190612b70565b611f2b9190612b50565b90508082611f398a88612b70565b611f41611bd7565b611f4b9190612b13565b611f559190612b13565b611f5f9190612b13565b985050505050505050505b9392505050565b6000821580611f7e575081155b15611f8b575060006118a6565b676765c793fa10079d601b1b611fa2600282612b50565b611fac8486612b70565b611fb69190612b13565b611f6a9190612b50565b6040805161018081018252600060a0820181815260c0830182905260e08301829052610100830182905261012083018290526101408301829052610160830182905282526020820181905291810182905260608101829052608081018290526120388460c00151856101200151866101600151611e59565b6040828101919091525163f97d059160e01b81526004810184905273__$f064660449bb8f64614f18479211edbf10$__9063f97d05919060240160e06040518083038186803b15801561208a57600080fd5b505af415801561209e573d6000803e3d6000fd5b505050506040513d601f19601f820116820180604052508101906120c29190612671565b8082528051602082015160409092015173__$f064660449bb8f64614f18479211edbf10$__92638c8d98a092916120fa906001612b2b565b6040516001600160e01b031960e086901b16815261ffff909316600484015260ff918216602484015216604482015260640160206040518083038186803b15801561214457600080fd5b505af4158015612158573d6000803e3d6000fd5b505050506040513d601f19601f8201168201806040525081019061217c919061270c565b6020820152612189611bd7565b6121b18561010001518660c001516121a19190612b13565b8661016001518460200151611e59565b6121bb9190612b8f565b6060820181905260408201516121d19190612b13565b6080808301829052850151906121e8908290611f71565b611d7a9190612b8f565b6000806121ff8484612b8f565b9050612209611bd7565b6301e133806122188388612b70565b6122229190612b50565b61222c9190612b13565b95945050505050565b6060611d7a848460008585843b61228e5760405162461bcd60e51b815260206004820152601d60248201527f416464726573733a2063616c6c20746f206e6f6e2d636f6e7472616374000000604482015260640161026c565b600080866001600160a01b031685876040516122aa919061288d565b60006040518083038185875af1925050503d80600081146122e7576040519150601f19603f3d011682016040523d82523d6000602084013e6122ec565b606091505b50915091506122fc828286612307565b979650505050505050565b60608315612316575081611f6a565b8251156123265782518084602001fd5b8160405162461bcd60e51b815260040161026c9190612920565b8051610c1f81612bfe565b805160078110610c1f57600080fd5b600082601f83011261236a578081fd5b81516001600160401b0381111561238357612383612be8565b612396601f8201601f1916602001612ae3565b8181528460208386010111156123aa578283fd5b611d7a826020830160208701612ba6565b805160ff81168114610c1f57600080fd5b6000602082840312156123dd578081fd5b8135611f6a81612bfe565b600080604083850312156123fa578081fd5b823561240581612bfe565b9150602083013561241581612bfe565b809150509250929050565b600080600080600080600060e0888a03121561243a578283fd5b873561244581612bfe565b9650602088013561245581612bfe565b9550604088013561246581612bfe565b9450606088013561247581612bfe565b9350608088013561248581612bfe565b925060a088013561249581612bfe565b8092505060c0880135905092959891949750929550565b6000806000606084860312156124c0578283fd5b83356124cb81612bfe565b925060208401356124db81612bfe565b929592945050506040919091013590565b600080604083850312156124fe578182fd5b823561250981612bfe565b946020939093013593505050565b600060208284031215612528578081fd5b81518015158114611f6a578182fd5b600060208284031215612548578081fd5b81516001600160401b038082111561255e578283fd5b81840191506101e0808387031215612574578384fd5b61257d81612ae3565b90506125888361234b565b815261259660208401612340565b60208201526125a760408401612340565b60408201526125b860608401612340565b60608201526080838101519082015260a0808401519082015260c0808401519082015260e08084015190820152610100808401519082015261012080840151908201526101408084015190820152610160808401519082015261018080840151908201526101a0808401518381111561262f578586fd5b61263b8882870161235a565b8284015250506101c08084015183811115612654578586fd5b6126608882870161235a565b918301919091525095945050505050565b600060e08284031215612682578081fd5b61268c60e0612ae3565b825161ffff8116811461269d578283fd5b81526126ab602084016123bb565b60208201526126bc604084016123bb565b60408201526126cd606084016123bb565b60608201526126de608084016123bb565b60808201526126ef60a084016123bb565b60a082015261270060c084016123bb565b60c08201529392505050565b60006020828403121561271d578081fd5b5051919050565b60008060408385031215612736578182fd5b505080516020909101519092909150565b6001600160a01b03169052565b6007811061277257634e487b7160e01b600052602160045260246000fd5b9052565b6000815180845261278e816020860160208601612ba6565b601f01601f19169290920160200192915050565b60006101e06127b2848451612754565b60208301516127c46020860182612747565b5060408301516127d76040860182612747565b5060608301516127ea6060860182612747565b506080830151608085015260a083015160a085015260c083015160c085015260e083015160e08501526101008084015181860152506101208084015181860152506101408084015181860152506101608084015181860152506101808084015181860152506101a080840151828287015261286783870182612776565b925050506101c080840151858303828701526128838382612776565b9695505050505050565b6000825161289f818460208701612ba6565b9190910192915050565b6001600160a01b0391909116815260200190565b6001600160a01b0394851681529290931660208301526040820152606081019190915260800190565b6001600160a01b03929092168252602082015260400190565b6001600160a01b039390931683526020830191909152604082015260600190565b600060208252611f6a6020830184612776565b6020808252601d908201527f4f6e6c79436f6c6c61746572616c5365727669636550726f7669646572000000604082015260600190565b60208082526012908201527127b7363ca6b7b732bca837b7b620b236b4b760711b604082015260600190565b600060208252611f6a60208301846127a2565b600061018082019050825182526020830151602083015260408301516040830152606083015160608301526080830151608083015260a08301516129f060a0840182612747565b5060c0830151612a0360c0840182612747565b5060e0830151612a1660e0840182612747565b5061010080840151612a2a82850182612747565b50506101208381015160ff169083015261014080840151151590830152610160928301511515929091019190915290565b9384526001600160a01b039290921660208401526040830152606082015260800190565b600083825260406020830152611d7a60408301846127a2565b600085825260806020830152612ab160808301866127a2565b6001600160a01b03949094166040830152506060015292915050565b9283526020830191909152604082015260600190565b604051601f8201601f191681016001600160401b0381118282101715612b0b57612b0b612be8565b604052919050565b60008219821115612b2657612b26612bd2565b500190565b600060ff821660ff84168060ff03821115612b4857612b48612bd2565b019392505050565b600082612b6b57634e487b7160e01b81526012600452602481fd5b500490565b6000816000190483118215151615612b8a57612b8a612bd2565b500290565b600082821015612ba157612ba1612bd2565b500390565b60005b83811015612bc1578181015183820152602001612ba9565b83811115611bd15750506000910152565b634e487b7160e01b600052601160045260246000fd5b634e487b7160e01b600052604160045260246000fd5b6001600160a01b0381168114612c1357600080fd5b5056fea264697066735822122079e89fa762b98000cf3bbc33752d62bcff7fc0a48921e3fad8190a19bb30300b64736f6c63430008030033",
  "libraries": {
    "AssetBond": "0x1bfbF29ac46B53352a12bF493f3350B7A17b1cF8",
    "Validation": "0x926F61222cd96Dd1f1C4066F8626E8514baBB016",
    "TimeConverter": "0x144d0B69Da2cAe4c299357e2Fc5B4C37a234Aa43",
    "Index": "0x66368D5bE45FBF209fc1f34733dA31708A7c03a0",
    "Rate": "0x51EC26D9C0806e42a6bB8fBA40bcc5F7D54400Ef"
  },
  "devdoc": {
    "author": "ELYSIA",
    "details": "Only admin can modify the variables and state of the moneypool.*",
    "kind": "dev",
    "methods": {
      "activateMoneyPool(address)": {
        "details": "Only moneypool admin can activate the reserve",
        "params": {
          "asset": "The address of the underlying asset of the reserve*"
        }
      },
      "addNewReserve(address,address,address,address,address,address,uint256)": {
        "details": "Only admin can add new reserve. In the elyfi version 1, the initiation of the new reserve will be in the limited circumstances.",
        "params": {
          "asset": "The address of the underlying asset of the reserve",
          "dToken": "The address of the dToken of the reserve",
          "incentivePool": "The address of the incentivePool of the reserve",
          "interestModel": "The address of interestModel of the reserve",
          "lToken": "The address of the lToken of the reserve",
          "moneyPoolFactor_": "The address of the moneyPoolFactor of the reserve*",
          "tokenizer": "The address of the tokenizer of the reserve"
        }
      },
      "borrow(address,uint256)": {
        "details": "Transfer asset bond from the collateral service provider to the moneypool and mint dTokens corresponding to principal. After that, transfer the underlying asset",
        "params": {
          "asset": "The address of the underlying asset to withdraw",
          "tokenId": "The id of the token to collateralize*"
        }
      },
      "deactivateMoneyPool(address)": {
        "details": "Only moneypool admin can deactivate the reserve",
        "params": {
          "asset": "The address of the underlying asset of the reserve*"
        }
      },
      "deposit(address,address,uint256)": {
        "details": "Deposits an amount of underlying asset and receive corresponding LTokens.",
        "params": {
          "account": "The address that will receive the LToken",
          "amount": "Deposit amount*",
          "asset": "The address of the underlying asset to deposit"
        }
      },
      "getLTokenInterestIndex(address)": {
        "params": {
          "asset": "The address of the underlying asset of the reserve"
        },
        "returns": {
          "_0": "The LToken interest index of reserve"
        }
      },
      "getReserveData(address)": {
        "details": "Returns the reserveData struct of underlying asset",
        "params": {
          "asset": "The address of the underlying asset of the reserve"
        },
        "returns": {
          "_0": "The state struct of the reserve*"
        }
      },
      "liquidate(address,uint256)": {
        "details": "Transfer liquidation amount of the underlying asset from msg.sender to the moneypool and burn the corresponding amount of dTokens. Then release the asset bond token which is locked in the moneypool and transfer it to the liquidator. The total amount of transferred underlying asset is the sum of the fee on the collateral service provider and debt on the moneypool. The fee on the collateral service provider is paid as a form of minted corresponding lToken",
        "params": {
          "asset": "The address of the underlying asset to liquidate",
          "tokenId": "The id of the token to liquidate*"
        }
      },
      "pauseMoneyPool(address)": {
        "details": "Only moneypool admin can pause the reserve",
        "params": {
          "asset": "The address of the underlying asset of the reserve*"
        }
      },
      "repay(address,uint256)": {
        "details": "Transfer total repayment of the underlying asset from msg.sender to the moneypool and burn the corresponding amount of dTokens. Then release the asset bond token which is locked in the moneypool and transfer it to the borrower. The total amount of transferred underlying asset is the sum of the fee on the collateral service provider and debt on the moneypool",
        "params": {
          "asset": "The address of the underlying asset to repay",
          "tokenId": "The id of the token to retrieve*"
        }
      },
      "unPauseMoneyPool(address)": {
        "details": "Only moneypool admin can uppause the reserve",
        "params": {
          "asset": "The address of the underlying asset of the reserve*"
        }
      },
      "updateIncentivePool(address,address)": {
        "details": "Only moneypool admin can update the incentive pool",
        "params": {
          "asset": "The address of the underlying asset of the reserve",
          "newIncentivePool": "The address of the new incentivepool of the reserve*"
        }
      },
      "withdraw(address,address,uint256)": {
        "details": "Withdraws an amount of underlying asset from the reserve and burns the corresponding lTokens.",
        "params": {
          "account": "The address that will receive the underlying asset",
          "amount": "Withdrawl amount*",
          "asset": "The address of the underlying asset to withdraw"
        }
      }
    },
    "title": "Main contract for ELYFI version 1.",
    "version": 1
  },
  "userdoc": {
    "kind": "user",
    "methods": {
      "activateMoneyPool(address)": {
        "notice": "Set the isActivated state of a reserve"
      },
      "addNewReserve(address,address,address,address,address,address,uint256)": {
        "notice": "Initializes a new reserve and assign lToken, dToken, interestModel, tokenizer and incentive pool."
      },
      "borrow(address,uint256)": {
        "notice": "The collateral service provider can take out a loan of value equivalent to the principal recorded in the asset bond data. As asset bonds are deposited as collateral in the Money Pool and loans are made, financial services that link real assets and cryptoassets can be achieved."
      },
      "deactivateMoneyPool(address)": {
        "notice": "Set the isActivated state of a reserve"
      },
      "deposit(address,address,uint256)": {
        "notice": "By depositing virtual assets in the MoneyPool and supply liquidity, depositors can receive interest accruing from the MoneyPool.The return on the deposit arises from the interest on real asset backed loans. MoneyPool depositors who deposit certain cryptoassets receives LTokens equivalent to the deposit amount. LTokens are backed by cryptoassets deposited in the MoneyPool in a 1:1 ratio."
      },
      "getLTokenInterestIndex(address)": {
        "notice": "LToken Index is an indicator of interest occurring and accrued to liquidity providers who have provided liquidity to the Money Pool. LToken Index is calculated every time user activities occur in the Money Pool, such as loans and repayments by Money Pool participants."
      },
      "liquidate(address,uint256)": {
        "notice": "Liquidate a non performed asset bond and retrieve asset bond token. The caller must be the collateral service provider,"
      },
      "pauseMoneyPool(address)": {
        "notice": "Set the isPaused state of a reserve"
      },
      "repay(address,uint256)": {
        "notice": "repays an amount of underlying asset from the reserve and burns the corresponding lTokens."
      },
      "unPauseMoneyPool(address)": {
        "notice": "Set the isPaused state of a reserve"
      },
      "updateIncentivePool(address,address)": {
        "notice": "Update the incentive of the reserve"
      },
      "withdraw(address,address,uint256)": {
        "notice": "The depositors can seize their virtual assets deposited in the MoneyPool whenever they wish."
      }
    },
    "notice": "This is the first version of ELYFI. ELYFI has various contract interactions centered on the Money Pool Contract. Several tokens are issued or destroyed to indicate the status of participants, and all issuance and burn processes are carried out through the Money Pool Contract. The depositor and borrower should approve the ELYFI moneypool contract to move their AssetBond token or ERC20 tokens on their behalf.",
    "version": 1
  },
  "storageLayout": {
    "storage": [
      {
        "astId": 5956,
        "contract": "contracts/MoneyPool.sol:MoneyPool",
        "label": "_reserves",
        "offset": 0,
        "slot": "0",
        "type": "t_mapping(t_address,t_struct(ReserveData)7300_storage)"
      },
      {
        "astId": 5960,
        "contract": "contracts/MoneyPool.sol:MoneyPool",
        "label": "_reservesList",
        "offset": 0,
        "slot": "1",
        "type": "t_mapping(t_uint256,t_address)"
      },
      {
        "astId": 5962,
        "contract": "contracts/MoneyPool.sol:MoneyPool",
        "label": "_reserveCount",
        "offset": 0,
        "slot": "2",
        "type": "t_uint256"
      },
      {
        "astId": 5964,
        "contract": "contracts/MoneyPool.sol:MoneyPool",
        "label": "_maxReserveCount",
        "offset": 0,
        "slot": "3",
        "type": "t_uint256"
      },
      {
        "astId": 5967,
        "contract": "contracts/MoneyPool.sol:MoneyPool",
        "label": "_connector",
        "offset": 0,
        "slot": "4",
        "type": "t_contract(IConnector)6684"
      }
    ],
    "types": {
      "t_address": {
        "encoding": "inplace",
        "label": "address",
        "numberOfBytes": "20"
      },
      "t_bool": {
        "encoding": "inplace",
        "label": "bool",
        "numberOfBytes": "1"
      },
      "t_contract(IConnector)6684": {
        "encoding": "inplace",
        "label": "contract IConnector",
        "numberOfBytes": "20"
      },
      "t_mapping(t_address,t_struct(ReserveData)7300_storage)": {
        "encoding": "mapping",
        "key": "t_address",
        "label": "mapping(address => struct DataStruct.ReserveData)",
        "numberOfBytes": "32",
        "value": "t_struct(ReserveData)7300_storage"
      },
      "t_mapping(t_uint256,t_address)": {
        "encoding": "mapping",
        "key": "t_uint256",
        "label": "mapping(uint256 => address)",
        "numberOfBytes": "32",
        "value": "t_address"
      },
      "t_struct(ReserveData)7300_storage": {
        "encoding": "inplace",
        "label": "struct DataStruct.ReserveData",
        "members": [
          {
            "astId": 7277,
            "contract": "contracts/MoneyPool.sol:MoneyPool",
            "label": "moneyPoolFactor",
            "offset": 0,
            "slot": "0",
            "type": "t_uint256"
          },
          {
            "astId": 7279,
            "contract": "contracts/MoneyPool.sol:MoneyPool",
            "label": "lTokenInterestIndex",
            "offset": 0,
            "slot": "1",
            "type": "t_uint256"
          },
          {
            "astId": 7281,
            "contract": "contracts/MoneyPool.sol:MoneyPool",
            "label": "borrowAPY",
            "offset": 0,
            "slot": "2",
            "type": "t_uint256"
          },
          {
            "astId": 7283,
            "contract": "contracts/MoneyPool.sol:MoneyPool",
            "label": "depositAPY",
            "offset": 0,
            "slot": "3",
            "type": "t_uint256"
          },
          {
            "astId": 7285,
            "contract": "contracts/MoneyPool.sol:MoneyPool",
            "label": "lastUpdateTimestamp",
            "offset": 0,
            "slot": "4",
            "type": "t_uint256"
          },
          {
            "astId": 7287,
            "contract": "contracts/MoneyPool.sol:MoneyPool",
            "label": "lTokenAddress",
            "offset": 0,
            "slot": "5",
            "type": "t_address"
          },
          {
            "astId": 7289,
            "contract": "contracts/MoneyPool.sol:MoneyPool",
            "label": "dTokenAddress",
            "offset": 0,
            "slot": "6",
            "type": "t_address"
          },
          {
            "astId": 7291,
            "contract": "contracts/MoneyPool.sol:MoneyPool",
            "label": "interestModelAddress",
            "offset": 0,
            "slot": "7",
            "type": "t_address"
          },
          {
            "astId": 7293,
            "contract": "contracts/MoneyPool.sol:MoneyPool",
            "label": "tokenizerAddress",
            "offset": 0,
            "slot": "8",
            "type": "t_address"
          },
          {
            "astId": 7295,
            "contract": "contracts/MoneyPool.sol:MoneyPool",
            "label": "id",
            "offset": 20,
            "slot": "8",
            "type": "t_uint8"
          },
          {
            "astId": 7297,
            "contract": "contracts/MoneyPool.sol:MoneyPool",
            "label": "isPaused",
            "offset": 21,
            "slot": "8",
            "type": "t_bool"
          },
          {
            "astId": 7299,
            "contract": "contracts/MoneyPool.sol:MoneyPool",
            "label": "isActivated",
            "offset": 22,
            "slot": "8",
            "type": "t_bool"
          }
        ],
        "numberOfBytes": "288"
      },
      "t_uint256": {
        "encoding": "inplace",
        "label": "uint256",
        "numberOfBytes": "32"
      },
      "t_uint8": {
        "encoding": "inplace",
        "label": "uint8",
        "numberOfBytes": "1"
      }
    }
  }
}