{
  "address": "0xD1e55Bff66da2Dc0290269B8e4b843531EBa7628",
  "abi": [
    {
      "inputs": [
        {
          "internalType": "contract IMoneyPool",
          "name": "moneyPool",
          "type": "address"
        },
        {
          "internalType": "address",
          "name": "incentiveAsset",
          "type": "address"
        },
        {
          "internalType": "uint256",
          "name": "amountPerSecond_",
          "type": "uint256"
        }
      ],
      "stateMutability": "nonpayable",
      "type": "constructor"
    },
    {
      "anonymous": false,
      "inputs": [
        {
          "indexed": true,
          "internalType": "address",
          "name": "user",
          "type": "address"
        },
        {
          "indexed": false,
          "internalType": "uint256",
          "name": "claimedIncentive",
          "type": "uint256"
        },
        {
          "indexed": false,
          "internalType": "uint256",
          "name": "userIncentiveIndex",
          "type": "uint256"
        }
      ],
      "name": "ClaimIncentive",
      "type": "event"
    },
    {
      "anonymous": false,
      "inputs": [],
      "name": "IncentivePoolEnded",
      "type": "event"
    },
    {
      "anonymous": false,
      "inputs": [
        {
          "indexed": true,
          "internalType": "address",
          "name": "user",
          "type": "address"
        },
        {
          "indexed": false,
          "internalType": "uint256",
          "name": "accruedIncentive",
          "type": "uint256"
        },
        {
          "indexed": false,
          "internalType": "uint256",
          "name": "incentiveIndex",
          "type": "uint256"
        }
      ],
      "name": "UpdateIncentivePool",
      "type": "event"
    },
    {
      "inputs": [],
      "name": "amountPerSecond",
      "outputs": [
        {
          "internalType": "uint256",
          "name": "",
          "type": "uint256"
        }
      ],
      "stateMutability": "view",
      "type": "function"
    },
    {
      "inputs": [
        {
          "internalType": "address",
          "name": "from",
          "type": "address"
        },
        {
          "internalType": "address",
          "name": "to",
          "type": "address"
        }
      ],
      "name": "beforeTokenTransfer",
      "outputs": [],
      "stateMutability": "nonpayable",
      "type": "function"
    },
    {
      "inputs": [],
      "name": "claimIncentive",
      "outputs": [],
      "stateMutability": "nonpayable",
      "type": "function"
    },
    {
      "inputs": [],
      "name": "endTimestamp",
      "outputs": [
        {
          "internalType": "uint256",
          "name": "",
          "type": "uint256"
        }
      ],
      "stateMutability": "view",
      "type": "function"
    },
    {
      "inputs": [],
      "name": "getIncentiveIndex",
      "outputs": [
        {
          "internalType": "uint256",
          "name": "",
          "type": "uint256"
        }
      ],
      "stateMutability": "view",
      "type": "function"
    },
    {
      "inputs": [],
      "name": "getIncentivePoolData",
      "outputs": [
        {
          "internalType": "uint256",
          "name": "incentiveIndex",
          "type": "uint256"
        },
        {
          "internalType": "uint256",
          "name": "lastUpdateTimestamp",
          "type": "uint256"
        }
      ],
      "stateMutability": "view",
      "type": "function"
    },
    {
      "inputs": [
        {
          "internalType": "address",
          "name": "user",
          "type": "address"
        }
      ],
      "name": "getUserIncentive",
      "outputs": [
        {
          "internalType": "uint256",
          "name": "",
          "type": "uint256"
        }
      ],
      "stateMutability": "view",
      "type": "function"
    },
    {
      "inputs": [
        {
          "internalType": "address",
          "name": "user",
          "type": "address"
        }
      ],
      "name": "getUserIncentiveData",
      "outputs": [
        {
          "internalType": "uint256",
          "name": "userIndex",
          "type": "uint256"
        },
        {
          "internalType": "uint256",
          "name": "userReward",
          "type": "uint256"
        },
        {
          "internalType": "uint256",
          "name": "userLTokenBalance",
          "type": "uint256"
        }
      ],
      "stateMutability": "view",
      "type": "function"
    },
    {
      "inputs": [
        {
          "internalType": "address",
          "name": "lToken_",
          "type": "address"
        }
      ],
      "name": "initializeIncentivePool",
      "outputs": [],
      "stateMutability": "nonpayable",
      "type": "function"
    },
    {
      "inputs": [],
      "name": "isClosed",
      "outputs": [
        {
          "internalType": "bool",
          "name": "",
          "type": "bool"
        }
      ],
      "stateMutability": "view",
      "type": "function"
    },
    {
      "inputs": [],
      "name": "lToken",
      "outputs": [
        {
          "internalType": "address",
          "name": "",
          "type": "address"
        }
      ],
      "stateMutability": "view",
      "type": "function"
    },
    {
      "inputs": [
        {
          "internalType": "address",
          "name": "user",
          "type": "address"
        }
      ],
      "name": "updateIncentivePool",
      "outputs": [],
      "stateMutability": "nonpayable",
      "type": "function"
    },
    {
      "inputs": [],
      "name": "withdrawResidue",
      "outputs": [],
      "stateMutability": "nonpayable",
      "type": "function"
    }
  ],
  "transactionHash": "0xa295057c2cb4890dda81e7091d50664da168eb5954bc00c92b0f9e1e599115a3",
  "args": [
    "0xa93008fD32EB24E488DDAA6C0aA152559fDa9E8c",
    "0x4dA34f8264CB33A5c9F17081B9EF5Ff6091116f4",
    "192901234567901234"
  ],
  "solcInputHash": "0c71cd98fa6269b62417fa18d1fc6779",
  "bytecode": "0x608060405234801561001057600080fd5b50604051610f0f380380610f0f83398101604081905261002f91610076565b600180546001600160a01b039485166001600160a01b03199182161790915560028054939094169281169290921790925560079190915560008054909116331790556100d0565b60008060006060848603121561008a578283fd5b8351610095816100b8565b60208501519093506100a6816100b8565b80925050604084015190509250925092565b6001600160a01b03811681146100cd57600080fd5b50565b610e30806100df6000396000f3fe608060405234801561001057600080fd5b50600436106100af5760003560e01c8063010ee184146100b45780630b3bb2ab146100dd5780631ca593ca146100e757806321c74e08146100fe57806335363a8d14610111578063456fcf6b1461012c5780636b78efaa146101345780638891e6e81461013c5780639a2b0be81461014f578063a85adeab1461017d578063ae2d2bb314610186578063b6de729e14610199578063c2b6b58c146101ac575b600080fd5b6008546100c7906001600160a01b031681565b6040516100d49190610cdb565b60405180910390f35b6100e56101c4565b005b6100f060075481565b6040519081526020016100d4565b6100f061010c366004610c3b565b61031d565b600354600454604080519283526020830191909152016100d4565b6100e561043f565b6100f0610534565b6100e561014a366004610c3b565b61064e565b61016261015d366004610c3b565b61073b565b604080519384526020840192909252908201526060016100d4565b6100f060095481565b6100e5610194366004610c55565b6107ec565b6100e56101a7366004610c3b565b61088b565b6101b4610967565b60405190151581526020016100d4565b6000546001600160a01b0316331461020f5760405162461bcd60e51b815260206004820152600960248201526837b7363ca0b236b4b760b91b60448201526064015b60405180910390fd5b610217610967565b6102505760405162461bcd60e51b815260206004820152600a60248201526913db9b1e50db1bdcd95960b21b6044820152606401610206565b6002546040516370a0823160e01b81526000916001600160a01b0316906370a0823190610281903090600401610cdb565b60206040518083038186803b15801561029957600080fd5b505afa1580156102ad573d6000803e3d6000fd5b505050506040513d601f19601f820116820180604052508101906102d19190610ca7565b6000546002549192506102f1916001600160a01b03908116911683610981565b6040517f2d4e7d5f97f455899be66b049240b2962e5507f4412d4727e9c8914405bf07d990600090a150565b6001600160a01b0381166000908152600560205260408120548190610340610534565b10610373576001600160a01b038316600090815260056020526040902054610366610534565b6103709190610d9d565b90505b6008546040516370a0823160e01b81526000916001600160a01b0316906370a08231906103a4908790600401610cdb565b60206040518083038186803b1580156103bc57600080fd5b505afa1580156103d0573d6000803e3d6000fd5b505050506040513d601f19601f820116820180604052508101906103f49190610ca7565b90506000633b9aca006104078484610d7e565b6104119190610d5e565b6001600160a01b0386166000908152600660205260409020546104349190610d46565b93505050505b919050565b33600061044b8261031d565b90506000811161049d5760405162461bcd60e51b815260206004820152601d60248201527f4e6f74456e6f7567685573657241636372756564496e63656e746976650000006044820152606401610206565b6104a5610534565b6001600160a01b0380841660009081526005602090815260408083209490945560069052918220919091556002546104df91168383610981565b6001600160a01b038216600081815260056020908152604091829020548251858152918201527f6e115cba4102730b6664a35c333d3162d4575d448ff80316e3f074324eedb6af910160405180910390a25050565b60008060095442106105485760095461054a565b425b905060006004548261055c9190610d9d565b90506000600860009054906101000a90046001600160a01b03166001600160a01b03166318160ddd6040518163ffffffff1660e01b815260040160206040518083038186803b1580156105ae57600080fd5b505afa1580156105c2573d6000803e3d6000fd5b505050506040513d601f19601f820116820180604052508101906105e69190610ca7565b9050816105fa57600354935050505061064b565b8061060b576000935050505061064b565b6000816007548461061c9190610d7e565b61062a90633b9aca00610d7e565b6106349190610d5e565b9050806003546106449190610d46565b9450505050505b90565b6008546001600160a01b031633146106785760405162461bcd60e51b815260040161020690610d22565b6106818161031d565b6001600160a01b0382166000908152600660205260409020556106a2610534565b6001600160a01b03821660009081526005602052604090208190556003556106c8610967565b156106d857600954600455610738565b426004556001600160a01b038116600081815260066020526040908190205460035491517fe224395093d030cc929f2471194c6da61dc4be880056dd255d651e3eca3767e39261072f928252602082015260400190565b60405180910390a25b50565b6001600160a01b0380821660009081526005602090815260408083205460069092528083205460085491516370a0823160e01b815293948594859493909116906370a082319061078f908990600401610cdb565b60206040518083038186803b1580156107a757600080fd5b505afa1580156107bb573d6000803e3d6000fd5b505050506040513d601f19601f820116820180604052508101906107df9190610ca7565b9250925092509193909250565b6008546001600160a01b031633146108165760405162461bcd60e51b815260040161020690610d22565b61081f8261031d565b6001600160a01b0383166000908152600660205260409020556108418161031d565b6001600160a01b038216600090815260066020526040902055610862610534565b6001600160a01b0391821660009081526005602052604080822083905593909216825291902055565b6001546001600160a01b031633146108d55760405162461bcd60e51b815260206004820152600d60248201526c13db9b1e535bdb995e541bdbdb609a1b6044820152606401610206565b600054600160a01b900460ff16156109245760405162461bcd60e51b8152602060048201526012602482015271105b1c9958591e525b9a5d1a585b1a5e995960721b6044820152606401610206565b6000805460ff60a01b1916600160a01b179055600880546001600160a01b0383166001600160a01b03199091161790556109614262ed4e00610d46565b60095550565b600060095442111561097b5750600161064b565b50600090565b604080516001600160a01b038416602482015260448082018490528251808303909101815260649091019091526020810180516001600160e01b031663a9059cbb60e01b1790526109d39084906109d8565b505050565b6000610a2d826040518060400160405280602081526020017f5361666545524332303a206c6f772d6c6576656c2063616c6c206661696c6564815250856001600160a01b0316610aaa9092919063ffffffff16565b8051909150156109d35780806020019051810190610a4b9190610c87565b6109d35760405162461bcd60e51b815260206004820152602a60248201527f5361666545524332303a204552433230206f7065726174696f6e20646964206e6044820152691bdd081cdd58d8d9595960b21b6064820152608401610206565b6060610ab98484600085610ac3565b90505b9392505050565b606082471015610b245760405162461bcd60e51b815260206004820152602660248201527f416464726573733a20696e73756666696369656e742062616c616e636520666f6044820152651c8818d85b1b60d21b6064820152608401610206565b843b610b725760405162461bcd60e51b815260206004820152601d60248201527f416464726573733a2063616c6c20746f206e6f6e2d636f6e74726163740000006044820152606401610206565b600080866001600160a01b03168587604051610b8e9190610cbf565b60006040518083038185875af1925050503d8060008114610bcb576040519150601f19603f3d011682016040523d82523d6000602084013e610bd0565b606091505b5091509150610be0828286610beb565b979650505050505050565b60608315610bfa575081610abc565b825115610c0a5782518084602001fd5b8160405162461bcd60e51b81526004016102069190610cef565b80356001600160a01b038116811461043a57600080fd5b600060208284031215610c4c578081fd5b610abc82610c24565b60008060408385031215610c67578081fd5b610c7083610c24565b9150610c7e60208401610c24565b90509250929050565b600060208284031215610c98578081fd5b81518015158114610abc578182fd5b600060208284031215610cb8578081fd5b5051919050565b60008251610cd1818460208701610db4565b9190910192915050565b6001600160a01b0391909116815260200190565b6000602082528251806020840152610d0e816040850160208701610db4565b601f01601f19169190910160400192915050565b6020808252600a908201526927b7363ca62a37b5b2b760b11b604082015260600190565b60008219821115610d5957610d59610de4565b500190565b600082610d7957634e487b7160e01b81526012600452602481fd5b500490565b6000816000190483118215151615610d9857610d98610de4565b500290565b600082821015610daf57610daf610de4565b500390565b60005b83811015610dcf578181015183820152602001610db7565b83811115610dde576000848401525b50505050565b634e487b7160e01b600052601160045260246000fdfea2646970667358221220d2dddd878a623c297f05fa3285bd33725a0fb7a1dc0024973842831b7f58137264736f6c63430008030033",
  "devdoc": {
    "kind": "dev",
    "methods": {},
    "version": 1
  },
  "userdoc": {
    "kind": "user",
    "methods": {
      "beforeTokenTransfer(address,address)": {
        "notice": "If user transfered lToken, accrued reward will be updated and user index will be set to the current index"
      },
      "updateIncentivePool(address)": {
        "notice": "Update user incentive index and last update timestamp in minting or burining lTokens."
      }
    },
    "version": 1
  },
  "storageLayout": {
    "storage": [
      {
        "astId": 3950,
        "contract": "contracts/IncentivePool.sol:IncentivePool",
        "label": "_owner",
        "offset": 0,
        "slot": "0",
        "type": "t_address"
      },
      {
        "astId": 3952,
        "contract": "contracts/IncentivePool.sol:IncentivePool",
        "label": "_initialized",
        "offset": 20,
        "slot": "0",
        "type": "t_bool"
      },
      {
        "astId": 3955,
        "contract": "contracts/IncentivePool.sol:IncentivePool",
        "label": "_moneyPool",
        "offset": 0,
        "slot": "1",
        "type": "t_contract(IMoneyPool)6934"
      },
      {
        "astId": 3957,
        "contract": "contracts/IncentivePool.sol:IncentivePool",
        "label": "_incentiveAsset",
        "offset": 0,
        "slot": "2",
        "type": "t_address"
      },
      {
        "astId": 3959,
        "contract": "contracts/IncentivePool.sol:IncentivePool",
        "label": "_incentiveIndex",
        "offset": 0,
        "slot": "3",
        "type": "t_uint256"
      },
      {
        "astId": 3961,
        "contract": "contracts/IncentivePool.sol:IncentivePool",
        "label": "_lastUpdateTimestamp",
        "offset": 0,
        "slot": "4",
        "type": "t_uint256"
      },
      {
        "astId": 3965,
        "contract": "contracts/IncentivePool.sol:IncentivePool",
        "label": "_userIncentiveIndex",
        "offset": 0,
        "slot": "5",
        "type": "t_mapping(t_address,t_uint256)"
      },
      {
        "astId": 3969,
        "contract": "contracts/IncentivePool.sol:IncentivePool",
        "label": "_accruedIncentive",
        "offset": 0,
        "slot": "6",
        "type": "t_mapping(t_address,t_uint256)"
      },
      {
        "astId": 3971,
        "contract": "contracts/IncentivePool.sol:IncentivePool",
        "label": "amountPerSecond",
        "offset": 0,
        "slot": "7",
        "type": "t_uint256"
      },
      {
        "astId": 3973,
        "contract": "contracts/IncentivePool.sol:IncentivePool",
        "label": "lToken",
        "offset": 0,
        "slot": "8",
        "type": "t_address"
      },
      {
        "astId": 3975,
        "contract": "contracts/IncentivePool.sol:IncentivePool",
        "label": "endTimestamp",
        "offset": 0,
        "slot": "9",
        "type": "t_uint256"
      }
    ],
    "types": {
      "t_address": {
        "encoding": "inplace",
        "label": "address",
        "numberOfBytes": "20"
      },
      "t_bool": {
        "encoding": "inplace",
        "label": "bool",
        "numberOfBytes": "1"
      },
      "t_contract(IMoneyPool)6934": {
        "encoding": "inplace",
        "label": "contract IMoneyPool",
        "numberOfBytes": "20"
      },
      "t_mapping(t_address,t_uint256)": {
        "encoding": "mapping",
        "key": "t_address",
        "label": "mapping(address => uint256)",
        "numberOfBytes": "32",
        "value": "t_uint256"
      },
      "t_uint256": {
        "encoding": "inplace",
        "label": "uint256",
        "numberOfBytes": "32"
      }
    }
  }
}