{
  "address": "0x527c901E05228f54a9a63151A924A97622F9f173",
  "abi": [
    {
      "inputs": [
        {
          "internalType": "contract IMoneyPool",
          "name": "moneyPool",
          "type": "address"
        },
        {
          "internalType": "address",
          "name": "underlyingAsset",
          "type": "address"
        },
        {
          "internalType": "contract IIncentivePool",
          "name": "incentivePool",
          "type": "address"
        },
        {
          "internalType": "string",
          "name": "name",
          "type": "string"
        },
        {
          "internalType": "string",
          "name": "symbol",
          "type": "string"
        }
      ],
      "stateMutability": "nonpayable",
      "type": "constructor"
    },
    {
      "anonymous": false,
      "inputs": [
        {
          "indexed": true,
          "internalType": "address",
          "name": "owner",
          "type": "address"
        },
        {
          "indexed": true,
          "internalType": "address",
          "name": "spender",
          "type": "address"
        },
        {
          "indexed": false,
          "internalType": "uint256",
          "name": "value",
          "type": "uint256"
        }
      ],
      "name": "Approval",
      "type": "event"
    },
    {
      "anonymous": false,
      "inputs": [
        {
          "indexed": true,
          "internalType": "address",
          "name": "account",
          "type": "address"
        },
        {
          "indexed": true,
          "internalType": "address",
          "name": "to",
          "type": "address"
        },
        {
          "indexed": false,
          "internalType": "uint256",
          "name": "amount",
          "type": "uint256"
        },
        {
          "indexed": false,
          "internalType": "uint256",
          "name": "index",
          "type": "uint256"
        }
      ],
      "name": "BalanceTransfer",
      "type": "event"
    },
    {
      "anonymous": false,
      "inputs": [
        {
          "indexed": true,
          "internalType": "address",
          "name": "account",
          "type": "address"
        },
        {
          "indexed": true,
          "internalType": "address",
          "name": "underlyingAssetReceiver",
          "type": "address"
        },
        {
          "indexed": false,
          "internalType": "uint256",
          "name": "amount",
          "type": "uint256"
        },
        {
          "indexed": false,
          "internalType": "uint256",
          "name": "index",
          "type": "uint256"
        }
      ],
      "name": "Burn",
      "type": "event"
    },
    {
      "anonymous": false,
      "inputs": [
        {
          "indexed": true,
          "internalType": "address",
          "name": "account",
          "type": "address"
        },
        {
          "indexed": false,
          "internalType": "uint256",
          "name": "amount",
          "type": "uint256"
        },
        {
          "indexed": false,
          "internalType": "uint256",
          "name": "index",
          "type": "uint256"
        }
      ],
      "name": "Mint",
      "type": "event"
    },
    {
      "anonymous": false,
      "inputs": [
        {
          "indexed": true,
          "internalType": "address",
          "name": "from",
          "type": "address"
        },
        {
          "indexed": true,
          "internalType": "address",
          "name": "to",
          "type": "address"
        },
        {
          "indexed": false,
          "internalType": "uint256",
          "name": "value",
          "type": "uint256"
        }
      ],
      "name": "Transfer",
      "type": "event"
    },
    {
      "inputs": [
        {
          "internalType": "address",
          "name": "owner",
          "type": "address"
        },
        {
          "internalType": "address",
          "name": "spender",
          "type": "address"
        }
      ],
      "name": "allowance",
      "outputs": [
        {
          "internalType": "uint256",
          "name": "",
          "type": "uint256"
        }
      ],
      "stateMutability": "view",
      "type": "function"
    },
    {
      "inputs": [
        {
          "internalType": "address",
          "name": "spender",
          "type": "address"
        },
        {
          "internalType": "uint256",
          "name": "amount",
          "type": "uint256"
        }
      ],
      "name": "approve",
      "outputs": [
        {
          "internalType": "bool",
          "name": "",
          "type": "bool"
        }
      ],
      "stateMutability": "nonpayable",
      "type": "function"
    },
    {
      "inputs": [
        {
          "internalType": "address",
          "name": "account",
          "type": "address"
        }
      ],
      "name": "balanceOf",
      "outputs": [
        {
          "internalType": "uint256",
          "name": "",
          "type": "uint256"
        }
      ],
      "stateMutability": "view",
      "type": "function"
    },
    {
      "inputs": [
        {
          "internalType": "address",
          "name": "account",
          "type": "address"
        },
        {
          "internalType": "address",
          "name": "receiver",
          "type": "address"
        },
        {
          "internalType": "uint256",
          "name": "amount",
          "type": "uint256"
        },
        {
          "internalType": "uint256",
          "name": "index",
          "type": "uint256"
        }
      ],
      "name": "burn",
      "outputs": [],
      "stateMutability": "nonpayable",
      "type": "function"
    },
    {
      "inputs": [],
      "name": "decimals",
      "outputs": [
        {
          "internalType": "uint8",
          "name": "",
          "type": "uint8"
        }
      ],
      "stateMutability": "view",
      "type": "function"
    },
    {
      "inputs": [
        {
          "internalType": "address",
          "name": "spender",
          "type": "address"
        },
        {
          "internalType": "uint256",
          "name": "subtractedValue",
          "type": "uint256"
        }
      ],
      "name": "decreaseAllowance",
      "outputs": [
        {
          "internalType": "bool",
          "name": "",
          "type": "bool"
        }
      ],
      "stateMutability": "nonpayable",
      "type": "function"
    },
    {
      "inputs": [],
      "name": "getUnderlyingAsset",
      "outputs": [
        {
          "internalType": "address",
          "name": "",
          "type": "address"
        }
      ],
      "stateMutability": "view",
      "type": "function"
    },
    {
      "inputs": [
        {
          "internalType": "address",
          "name": "account",
          "type": "address"
        }
      ],
      "name": "implicitBalanceOf",
      "outputs": [
        {
          "internalType": "uint256",
          "name": "",
          "type": "uint256"
        }
      ],
      "stateMutability": "view",
      "type": "function"
    },
    {
      "inputs": [],
      "name": "implicitTotalSupply",
      "outputs": [
        {
          "internalType": "uint256",
          "name": "",
          "type": "uint256"
        }
      ],
      "stateMutability": "view",
      "type": "function"
    },
    {
      "inputs": [
        {
          "internalType": "address",
          "name": "spender",
          "type": "address"
        },
        {
          "internalType": "uint256",
          "name": "addedValue",
          "type": "uint256"
        }
      ],
      "name": "increaseAllowance",
      "outputs": [
        {
          "internalType": "bool",
          "name": "",
          "type": "bool"
        }
      ],
      "stateMutability": "nonpayable",
      "type": "function"
    },
    {
      "inputs": [
        {
          "internalType": "address",
          "name": "account",
          "type": "address"
        },
        {
          "internalType": "uint256",
          "name": "amount",
          "type": "uint256"
        },
        {
          "internalType": "uint256",
          "name": "index",
          "type": "uint256"
        }
      ],
      "name": "mint",
      "outputs": [],
      "stateMutability": "nonpayable",
      "type": "function"
    },
    {
      "inputs": [],
      "name": "name",
      "outputs": [
        {
          "internalType": "string",
          "name": "",
          "type": "string"
        }
      ],
      "stateMutability": "view",
      "type": "function"
    },
    {
      "inputs": [],
      "name": "symbol",
      "outputs": [
        {
          "internalType": "string",
          "name": "",
          "type": "string"
        }
      ],
      "stateMutability": "view",
      "type": "function"
    },
    {
      "inputs": [],
      "name": "totalSupply",
      "outputs": [
        {
          "internalType": "uint256",
          "name": "",
          "type": "uint256"
        }
      ],
      "stateMutability": "view",
      "type": "function"
    },
    {
      "inputs": [
        {
          "internalType": "address",
          "name": "recipient",
          "type": "address"
        },
        {
          "internalType": "uint256",
          "name": "amount",
          "type": "uint256"
        }
      ],
      "name": "transfer",
      "outputs": [
        {
          "internalType": "bool",
          "name": "",
          "type": "bool"
        }
      ],
      "stateMutability": "nonpayable",
      "type": "function"
    },
    {
      "inputs": [
        {
          "internalType": "address",
          "name": "sender",
          "type": "address"
        },
        {
          "internalType": "address",
          "name": "recipient",
          "type": "address"
        },
        {
          "internalType": "uint256",
          "name": "amount",
          "type": "uint256"
        }
      ],
      "name": "transferFrom",
      "outputs": [
        {
          "internalType": "bool",
          "name": "",
          "type": "bool"
        }
      ],
      "stateMutability": "nonpayable",
      "type": "function"
    },
    {
      "inputs": [
        {
          "internalType": "address",
          "name": "receiver",
          "type": "address"
        },
        {
          "internalType": "uint256",
          "name": "amount",
          "type": "uint256"
        }
      ],
      "name": "transferUnderlyingTo",
      "outputs": [],
      "stateMutability": "nonpayable",
      "type": "function"
    },
    {
      "inputs": [
        {
          "internalType": "address",
          "name": "newIncentivePool",
          "type": "address"
        }
      ],
      "name": "updateIncentivePool",
      "outputs": [],
      "stateMutability": "nonpayable",
      "type": "function"
    }
  ],
  "transactionHash": "0x41a999a15b7655cbff7b3bdc0cc417b42e4322e4c3ff288101a02c44a0a45bfd",
  "args": [
    "0xa93008fD32EB24E488DDAA6C0aA152559fDa9E8c",
    "0x6B175474E89094C44Da98b954EedeAC495271d0F",
    "0xD1e55Bff66da2Dc0290269B8e4b843531EBa7628",
    "Elyfi_DaiStablecoin_LToken",
    "ELFI_DAI_LToken"
  ],
  "solcInputHash": "0c71cd98fa6269b62417fa18d1fc6779",
  "bytecode": "0x60806040523480156200001157600080fd5b50604051620018fb380380620018fb833981016040819052620000349162000204565b8151829082906200004d906003906020850190620000ab565b50805162000063906004906020840190620000ab565b5050600580546001600160a01b03199081166001600160a01b039889161790915560078054821696881696909617909555505060068054909316919093161790555062000318565b828054620000b990620002ac565b90600052602060002090601f016020900481019282620000dd576000855562000128565b82601f10620000f857805160ff191683800117855562000128565b8280016001018555821562000128579182015b82811115620001285782518255916020019190600101906200010b565b50620001369291506200013a565b5090565b5b808211156200013657600081556001016200013b565b600082601f83011262000162578081fd5b81516001600160401b03808211156200017f576200017f620002e9565b604051601f8301601f19908116603f01168101908282118183101715620001aa57620001aa620002e9565b81604052838152602092508683858801011115620001c6578485fd5b8491505b83821015620001e95785820183015181830184015290820190620001ca565b83821115620001fa57848385830101525b9695505050505050565b600080600080600060a086880312156200021c578081fd5b85516200022981620002ff565b60208701519095506200023c81620002ff565b60408701519094506200024f81620002ff565b60608701519093506001600160401b03808211156200026c578283fd5b6200027a89838a0162000151565b9350608088015191508082111562000290578283fd5b506200029f8882890162000151565b9150509295509295909350565b600181811c90821680620002c157607f821691505b60208210811415620002e357634e487b7160e01b600052602260045260246000fd5b50919050565b634e487b7160e01b600052604160045260246000fd5b6001600160a01b03811681146200031557600080fd5b50565b6115d380620003286000396000f3fe608060405234801561001057600080fd5b50600436106100e65760003560e01c806306fdde03146100eb578063095ea7b314610109578063156e29f61461012c57806318160ddd146101415780631b206b731461015757806323b872dd14610170578063313ce5671461018357806339509351146101925780634efecaa5146101a557806370a08231146101b857806381f8d080146101cb5780638891e6e8146101de57806395d89b41146101f1578063a457c2d7146101f9578063a9059cbb1461020c578063d1f2b4d91461021f578063d7020d0a14610227578063dd62ed3e1461023a575b600080fd5b6100f3610273565b6040516101009190611434565b60405180910390f35b61011c610117366004611371565b610305565b6040519015158152602001610100565b61013f61013a36600461139a565b61031c565b005b610149610463565b604051908152602001610100565b6007546001600160a01b03166040516101009190611420565b61011c61017e3660046112f5565b6104fc565b60405160128152602001610100565b61011c6101a0366004611371565b6105af565b61013f6101b3366004611371565b6105e6565b6101496101c63660046112a9565b610634565b6101496101d93660046112a9565b6106cf565b61013f6101ec3660046112a9565b6106da565b6100f361072f565b61011c610207366004611371565b61073e565b61011c61021a366004611371565b6107d9565b6101496107e6565b61013f610235366004611330565b6107f1565b6101496102483660046112c3565b6001600160a01b03918216600090815260016020908152604080832093909416825291909152205490565b6060600380546102829061152c565b80601f01602080910402602001604051908101604052809291908181526020018280546102ae9061152c565b80156102fb5780601f106102d0576101008083540402835291602001916102fb565b820191906000526020600020905b8154815290600101906020018083116102de57829003601f168201915b5050505050905090565b6000610312338484610959565b5060015b92915050565b6005546001600160a01b0316336001600160a01b0316146103585760405162461bcd60e51b815260040161034f90611467565b60405180910390fd5b60006103648383610a7e565b9050826103ad5760405162461bcd60e51b815260206004820152601760248201527613151bdad95b925b9d985b1a59135a5b9d105b5bdd5b9d604a1b604482015260640161034f565b6006546040516311123cdd60e31b81526001600160a01b0390911690638891e6e8906103dd908790600401611420565b600060405180830381600087803b1580156103f757600080fd5b505af115801561040b573d6000803e3d6000fd5b505050506104198482610b02565b60408051828152602081018490526001600160a01b038616917f4c209b5fc8ad50758f13e2e1088ba56a560dff690a1c6fef26394f4c03821c4f910160405180910390a250505050565b60055460075460405163cee4392360e01b81526000926104f7926001600160a01b039182169263cee439239261049d921690600401611420565b60206040518083038186803b1580156104b557600080fd5b505afa1580156104c9573d6000803e3d6000fd5b505050506040513d601f19601f820116820180604052508101906104ed91906113ec565b6002545b90610bcf565b905090565b6000610509848484610c1e565b6001600160a01b03841660009081526001602090815260408083203384529091529020548281101561058e5760405162461bcd60e51b815260206004820152602860248201527f45524332303a207472616e7366657220616d6f756e74206578636565647320616044820152676c6c6f77616e636560c01b606482015260840161034f565b6105a2853361059d86856114e5565b610959565b60019150505b9392505050565b3360008181526001602090815260408083206001600160a01b0387168452909152812054909161031291859061059d90869061148e565b6005546001600160a01b0316336001600160a01b0316146106195760405162461bcd60e51b815260040161034f90611467565b600754610630906001600160a01b03168383610c30565b5050565b60055460075460405163cee4392360e01b81526000926106c7926001600160a01b039182169263cee439239261066e921690600401611420565b60206040518083038186803b15801561068657600080fd5b505afa15801561069a573d6000803e3d6000fd5b505050506040513d601f19601f820116820180604052508101906106be91906113ec565b6104f184610c82565b90505b919050565b60006106c782610c82565b6005546001600160a01b0316336001600160a01b03161461070d5760405162461bcd60e51b815260040161034f90611467565b600680546001600160a01b0319166001600160a01b0392909216919091179055565b6060600480546102829061152c565b3360009081526001602090815260408083206001600160a01b0386168452909152812054828110156107c05760405162461bcd60e51b815260206004820152602560248201527f45524332303a2064656372656173656420616c6c6f77616e63652062656c6f77604482015264207a65726f60d81b606482015260840161034f565b6107cf338561059d86856114e5565b5060019392505050565b6000610312338484610c1e565b60006104f760025490565b6005546001600160a01b0316336001600160a01b0316146108245760405162461bcd60e51b815260040161034f90611467565b60006108308383610a7e565b9050826108795760405162461bcd60e51b815260206004820152601760248201527613151bdad95b925b9d985b1a59109d5c9b905b5bdd5b9d604a1b604482015260640161034f565b6006546040516311123cdd60e31b81526001600160a01b0390911690638891e6e8906108a9908890600401611420565b600060405180830381600087803b1580156108c357600080fd5b505af11580156108d7573d6000803e3d6000fd5b505050506108e58582610c9d565b6007546108fc906001600160a01b03168585610c30565b836001600160a01b0316856001600160a01b03167f5d624aa9c148153ab3446c1b154f660ee7701e549fe9b62dab7171b1c80e6fa2838560405161094a929190918252602082015260400190565b60405180910390a35050505050565b6001600160a01b0383166109bb5760405162461bcd60e51b8152602060048201526024808201527f45524332303a20617070726f76652066726f6d20746865207a65726f206164646044820152637265737360e01b606482015260840161034f565b6001600160a01b038216610a1c5760405162461bcd60e51b815260206004820152602260248201527f45524332303a20617070726f766520746f20746865207a65726f206164647265604482015261737360f01b606482015260840161034f565b6001600160a01b0383811660008181526001602090815260408083209487168084529482529182902085905590518481527f8c5be1e5ebec7d5bd14f71427d1e84f3dd0314c0f7b2291e5b200ac8c7c3b92591015b60405180910390a3505050565b600081610ac05760405162461bcd60e51b815260206004820152601060248201526f4469766973696f6e206279205a65726f60801b604482015260640161034f565b6000610acd6002846114a6565b90508281610ae6676765c793fa10079d601b1b876114c6565b610af0919061148e565b610afa91906114a6565b949350505050565b6001600160a01b038216610b585760405162461bcd60e51b815260206004820152601f60248201527f45524332303a206d696e7420746f20746865207a65726f206164647265737300604482015260640161034f565b8060026000828254610b6a919061148e565b90915550506001600160a01b03821660009081526020819052604081208054839290610b9790849061148e565b90915550506040518181526001600160a01b0383169060009060008051602061157e8339815191529060200160405180910390a35050565b6000821580610bdc575081155b15610be957506000610316565b676765c793fa10079d601b1b610c006002826114a6565b610c0a84866114c6565b610c14919061148e565b6105a891906114a6565b610c2b8383836001610dda565b505050565b604080516001600160a01b038416602482015260448082018490528251808303909101815260649091019091526020810180516001600160e01b031663a9059cbb60e01b179052610c2b908490610eef565b6001600160a01b031660009081526020819052604090205490565b6001600160a01b038216610cfd5760405162461bcd60e51b815260206004820152602160248201527f45524332303a206275726e2066726f6d20746865207a65726f206164647265736044820152607360f81b606482015260840161034f565b6001600160a01b03821660009081526020819052604090205481811015610d715760405162461bcd60e51b815260206004820152602260248201527f45524332303a206275726e20616d6f756e7420657863656564732062616c616e604482015261636560f01b606482015260840161034f565b610d7b82826114e5565b6001600160a01b03841660009081526020819052604081209190915560028054849290610da99084906114e5565b90915550506040518281526000906001600160a01b0385169060008051602061157e83398151915290602001610a71565b60055460075460405163cee4392360e01b81526000926001600160a01b039081169263cee4392392610e129290911690600401611420565b60206040518083038186803b158015610e2a57600080fd5b505afa158015610e3e573d6000803e3d6000fd5b505050506040513d601f19601f82011682018060405250810190610e6291906113ec565b60065460405163ae2d2bb360e01b81526001600160a01b038881166004830152878116602483015292935091169063ae2d2bb390604401600060405180830381600087803b158015610eb357600080fd5b505af1158015610ec7573d6000803e3d6000fd5b50505050610ee88585610ee38487610a7e90919063ffffffff16565b610fc1565b5050505050565b6000610f44826040518060400160405280602081526020017f5361666545524332303a206c6f772d6c6576656c2063616c6c206661696c6564815250856001600160a01b03166111879092919063ffffffff16565b805190915015610c2b5780806020019051810190610f6291906113cc565b610c2b5760405162461bcd60e51b815260206004820152602a60248201527f5361666545524332303a204552433230206f7065726174696f6e20646964206e6044820152691bdd081cdd58d8d9595960b21b606482015260840161034f565b6001600160a01b0383166110255760405162461bcd60e51b815260206004820152602560248201527f45524332303a207472616e736665722066726f6d20746865207a65726f206164604482015264647265737360d81b606482015260840161034f565b6001600160a01b0382166110875760405162461bcd60e51b815260206004820152602360248201527f45524332303a207472616e7366657220746f20746865207a65726f206164647260448201526265737360e81b606482015260840161034f565b6001600160a01b038316600090815260208190526040902054818110156110ff5760405162461bcd60e51b815260206004820152602660248201527f45524332303a207472616e7366657220616d6f756e7420657863656564732062604482015265616c616e636560d01b606482015260840161034f565b61110982826114e5565b6001600160a01b03808616600090815260208190526040808220939093559085168152908120805484929061113f90849061148e565b92505081905550826001600160a01b0316846001600160a01b031660008051602061157e8339815191528460405161117991815260200190565b60405180910390a350505050565b6060610afa848460008585843b6111e05760405162461bcd60e51b815260206004820152601d60248201527f416464726573733a2063616c6c20746f206e6f6e2d636f6e7472616374000000604482015260640161034f565b600080866001600160a01b031685876040516111fc9190611404565b60006040518083038185875af1925050503d8060008114611239576040519150601f19603f3d011682016040523d82523d6000602084013e61123e565b606091505b509150915061124e828286611259565b979650505050505050565b606083156112685750816105a8565b8251156112785782518084602001fd5b8160405162461bcd60e51b815260040161034f9190611434565b80356001600160a01b03811681146106ca57600080fd5b6000602082840312156112ba578081fd5b6105a882611292565b600080604083850312156112d5578081fd5b6112de83611292565b91506112ec60208401611292565b90509250929050565b600080600060608486031215611309578081fd5b61131284611292565b925061132060208501611292565b9150604084013590509250925092565b60008060008060808587031215611345578081fd5b61134e85611292565b935061135c60208601611292565b93969395505050506040820135916060013590565b60008060408385031215611383578182fd5b61138c83611292565b946020939093013593505050565b6000806000606084860312156113ae578283fd5b6113b784611292565b95602085013595506040909401359392505050565b6000602082840312156113dd578081fd5b815180151581146105a8578182fd5b6000602082840312156113fd578081fd5b5051919050565b600082516114168184602087016114fc565b9190910192915050565b6001600160a01b0391909116815260200190565b60006020825282518060208401526114538160408501602087016114fc565b601f01601f19169190910160400192915050565b6020808252600d908201526c13db9b1e535bdb995e541bdbdb609a1b604082015260600190565b600082198211156114a1576114a1611567565b500190565b6000826114c157634e487b7160e01b81526012600452602481fd5b500490565b60008160001904831182151516156114e0576114e0611567565b500290565b6000828210156114f7576114f7611567565b500390565b60005b838110156115175781810151838201526020016114ff565b83811115611526576000848401525b50505050565b600181811c9082168061154057607f821691505b6020821081141561156157634e487b7160e01b600052602260045260246000fd5b50919050565b634e487b7160e01b600052601160045260246000fdfeddf252ad1be2c89b69c2b068fc378daa952ba7f163c4a11628f55a4df523b3efa2646970667358221220159bea43ce419bac3bcd7ee4c8087f658a111808619d2806aada6c15fd76ac9b64736f6c63430008030033",
  "devdoc": {
    "author": "ELYSIA",
    "details": "LTokens comply with the ERC20 token standard. Some functions are restricted to the general user.",
    "kind": "dev",
    "methods": {
      "allowance(address,address)": {
        "details": "See {IERC20-allowance}."
      },
      "approve(address,uint256)": {
        "details": "See {IERC20-approve}. Requirements: - `spender` cannot be the zero address."
      },
      "balanceOf(address)": {
        "returns": {
          "_0": "Returns implicit balance multipied by ltoken interest index*"
        }
      },
      "burn(address,address,uint256,uint256)": {
        "details": "Burns lTokens account `account` and sends the equivalent amount of underlying to `receiver`",
        "params": {
          "account": "The owner of the lTokens, getting them burned",
          "amount": "The amount being burned",
          "index": "The new liquidity index of the reserve*",
          "receiver": "The address that will receive the underlying"
        }
      },
      "decimals()": {
        "details": "Returns the number of decimals used to get its user representation. For example, if `decimals` equals `2`, a balance of `505` tokens should be displayed to a user as `5,05` (`505 / 10 ** 2`). Tokens usually opt for a value of 18, imitating the relationship between Ether and Wei. This is the value {ERC20} uses, unless this function is overridden; NOTE: This information is only used for _display_ purposes: it in no way affects any of the arithmetic of the contract, including {IERC20-balanceOf} and {IERC20-transfer}."
      },
      "decreaseAllowance(address,uint256)": {
        "details": "Atomically decreases the allowance granted to `spender` by the caller. This is an alternative to {approve} that can be used as a mitigation for problems described in {IERC20-approve}. Emits an {Approval} event indicating the updated allowance. Requirements: - `spender` cannot be the zero address. - `spender` must have allowance for the caller of at least `subtractedValue`."
      },
      "getUnderlyingAsset()": {
        "details": "Returns the address of the underlying asset of this aToken (E.g. WETH for aWETH)*"
      },
      "increaseAllowance(address,uint256)": {
        "details": "Atomically increases the allowance granted to `spender` by the caller. This is an alternative to {approve} that can be used as a mitigation for problems described in {IERC20-approve}. Emits an {Approval} event indicating the updated allowance. Requirements: - `spender` cannot be the zero address."
      },
      "name()": {
        "details": "Returns the name of the token."
      },
      "symbol()": {
        "details": "Returns the symbol of the token, usually a shorter version of the name."
      },
      "transfer(address,uint256)": {
        "details": "See {IERC20-transfer}. Requirements: - `recipient` cannot be the zero address. - the caller must have a balance of at least `amount`."
      },
      "transferFrom(address,address,uint256)": {
        "details": "See {IERC20-transferFrom}. Emits an {Approval} event indicating the updated allowance. This is not required by the EIP. See the note at the beginning of {ERC20}. Requirements: - `sender` and `recipient` cannot be the zero address. - `sender` must have a balance of at least `amount`. - the caller must have allowance for ``sender``'s tokens of at least `amount`."
      },
      "transferUnderlyingTo(address,uint256)": {
        "details": "Transfers the underlying asset to receiver.",
        "params": {
          "amount": "The amount getting transferred*",
          "receiver": "The recipient of the underlying asset"
        }
      }
    },
    "title": "ELYFI LToken",
    "version": 1
  },
  "userdoc": {
    "kind": "user",
    "methods": {},
    "notice": "LTokens are the basis for repayment of loans and interest on their deposits. When Money Pool investors deposit or withdraw assets from the Money Pool Contract, the Smart Contract automatically issues or destroys LTokens accordingly.",
    "version": 1
  },
  "storageLayout": {
    "storage": [
      {
        "astId": 125,
        "contract": "contracts/LToken.sol:LToken",
        "label": "_balances",
        "offset": 0,
        "slot": "0",
        "type": "t_mapping(t_address,t_uint256)"
      },
      {
        "astId": 131,
        "contract": "contracts/LToken.sol:LToken",
        "label": "_allowances",
        "offset": 0,
        "slot": "1",
        "type": "t_mapping(t_address,t_mapping(t_address,t_uint256))"
      },
      {
        "astId": 133,
        "contract": "contracts/LToken.sol:LToken",
        "label": "_totalSupply",
        "offset": 0,
        "slot": "2",
        "type": "t_uint256"
      },
      {
        "astId": 135,
        "contract": "contracts/LToken.sol:LToken",
        "label": "_name",
        "offset": 0,
        "slot": "3",
        "type": "t_string_storage"
      },
      {
        "astId": 137,
        "contract": "contracts/LToken.sol:LToken",
        "label": "_symbol",
        "offset": 0,
        "slot": "4",
        "type": "t_string_storage"
      },
      {
        "astId": 4609,
        "contract": "contracts/LToken.sol:LToken",
        "label": "_moneyPool",
        "offset": 0,
        "slot": "5",
        "type": "t_contract(IMoneyPool)6934"
      },
      {
        "astId": 4612,
        "contract": "contracts/LToken.sol:LToken",
        "label": "_incentivePool",
        "offset": 0,
        "slot": "6",
        "type": "t_contract(IIncentivePool)6678"
      },
      {
        "astId": 4614,
        "contract": "contracts/LToken.sol:LToken",
        "label": "_underlyingAsset",
        "offset": 0,
        "slot": "7",
        "type": "t_address"
      }
    ],
    "types": {
      "t_address": {
        "encoding": "inplace",
        "label": "address",
        "numberOfBytes": "20"
      },
      "t_contract(IIncentivePool)6678": {
        "encoding": "inplace",
        "label": "contract IIncentivePool",
        "numberOfBytes": "20"
      },
      "t_contract(IMoneyPool)6934": {
        "encoding": "inplace",
        "label": "contract IMoneyPool",
        "numberOfBytes": "20"
      },
      "t_mapping(t_address,t_mapping(t_address,t_uint256))": {
        "encoding": "mapping",
        "key": "t_address",
        "label": "mapping(address => mapping(address => uint256))",
        "numberOfBytes": "32",
        "value": "t_mapping(t_address,t_uint256)"
      },
      "t_mapping(t_address,t_uint256)": {
        "encoding": "mapping",
        "key": "t_address",
        "label": "mapping(address => uint256)",
        "numberOfBytes": "32",
        "value": "t_uint256"
      },
      "t_string_storage": {
        "encoding": "bytes",
        "label": "string",
        "numberOfBytes": "32"
      },
      "t_uint256": {
        "encoding": "inplace",
        "label": "uint256",
        "numberOfBytes": "32"
      }
    }
  }
}