{
  "address": "0x0F7De21f422F179cE5394F23f1C680F4797119F8",
  "abi": [
    {
      "inputs": [],
      "stateMutability": "nonpayable",
      "type": "constructor"
    },
    {
      "anonymous": false,
      "inputs": [
        {
          "indexed": true,
          "internalType": "address",
          "name": "account",
          "type": "address"
        }
      ],
      "name": "NewCSPAdded",
      "type": "event"
    },
    {
      "anonymous": false,
      "inputs": [
        {
          "indexed": true,
          "internalType": "address",
          "name": "account",
          "type": "address"
        }
      ],
      "name": "NewCouncilAdded",
      "type": "event"
    },
    {
      "anonymous": false,
      "inputs": [
        {
          "indexed": true,
          "internalType": "address",
          "name": "account",
          "type": "address"
        }
      ],
      "name": "UpdateAdmin",
      "type": "event"
    },
    {
      "inputs": [
        {
          "internalType": "address",
          "name": "account",
          "type": "address"
        }
      ],
      "name": "addCSP",
      "outputs": [],
      "stateMutability": "nonpayable",
      "type": "function"
    },
    {
      "inputs": [
        {
          "internalType": "address",
          "name": "account",
          "type": "address"
        }
      ],
      "name": "addCouncil",
      "outputs": [],
      "stateMutability": "nonpayable",
      "type": "function"
    },
    {
      "inputs": [
        {
          "internalType": "address",
          "name": "account",
          "type": "address"
        }
      ],
      "name": "isCSP",
      "outputs": [
        {
          "internalType": "bool",
          "name": "",
          "type": "bool"
        }
      ],
      "stateMutability": "view",
      "type": "function"
    },
    {
      "inputs": [
        {
          "internalType": "address",
          "name": "account",
          "type": "address"
        }
      ],
      "name": "isCouncil",
      "outputs": [
        {
          "internalType": "bool",
          "name": "",
          "type": "bool"
        }
      ],
      "stateMutability": "view",
      "type": "function"
    },
    {
      "inputs": [
        {
          "internalType": "address",
          "name": "account",
          "type": "address"
        }
      ],
      "name": "isMoneyPool",
      "outputs": [
        {
          "internalType": "bool",
          "name": "",
          "type": "bool"
        }
      ],
      "stateMutability": "view",
      "type": "function"
    },
    {
      "inputs": [
        {
          "internalType": "address",
          "name": "account",
          "type": "address"
        }
      ],
      "name": "setAdmin",
      "outputs": [],
      "stateMutability": "nonpayable",
      "type": "function"
    }
  ],
  "transactionHash": "0x77d2550055e4378c60852545c3ed0288c5a3d3ba2f70d461c68ebba0bd7fa721",
  "args": [],
  "solcInputHash": "6384bc112e4cb10a01932abc66540276",
  "bytecode": "0x608060405234801561001057600080fd5b50610241806100206000396000f3fe608060405234801561001057600080fd5b50600436106100625760003560e01c806322aa8e7d1461006757806331e3ccf41461007c578063704b6c02146100a457806372411359146100b75780639aa360ec1461007c578063ae8b79971461007c575b600080fd5b61007a6100753660046101dd565b6100ca565b005b61009061008a3660046101dd565b50600090565b604051901515815260200160405180910390f35b61007a6100b23660046101dd565b610115565b61007a6100c53660046101dd565b610168565b6100de6610d3d55390d25360ca1b826101af565b6040516001600160a01b038216907f94b301526e028aec5a50c07590d098bdf8483f32485a8b8bba723955763063d590600090a250565b6101316e26a7a722aca827a7a62fa0a226a4a760891b826101af565b6040516001600160a01b038216907fbfc8d7754fec5096becc28e0816011e8d0adcfe752ffa1c88924a7f88b00a41d90600090a250565b6101786204353560ec1b826101af565b6040516001600160a01b038216907f3fb355092be60c4259fe899347c2331bc81470ca2ba603a31c6c3e58b308359990600090a250565b6000918252602082815260408084206001600160a01b0390931684529190529020805460ff19166001179055565b6000602082840312156101ee578081fd5b81356001600160a01b0381168114610204578182fd5b939250505056fea264697066735822122016f656f28864886e6c2133717eec2a00460d57062c3d25bcbb46a9fd4121e28364736f6c63430008040033",
  "devdoc": {
    "author": "ELYSIA",
    "kind": "dev",
    "methods": {},
    "title": "ELYFI Connector",
    "version": 1
  },
  "userdoc": {
    "kind": "user",
    "methods": {},
    "version": 1
  },
  "storageLayout": {
    "storage": [
      {
        "astId": 2526,
        "contract": "contracts/Connector.sol:Connector",
        "label": "_roles",
        "offset": 0,
        "slot": "0",
        "type": "t_mapping(t_bytes32,t_struct(RoleData)2521_storage)"
      }
    ],
    "types": {
      "t_address": {
        "encoding": "inplace",
        "label": "address",
        "numberOfBytes": "20"
      },
      "t_bool": {
        "encoding": "inplace",
        "label": "bool",
        "numberOfBytes": "1"
      },
      "t_bytes32": {
        "encoding": "inplace",
        "label": "bytes32",
        "numberOfBytes": "32"
      },
      "t_mapping(t_address,t_bool)": {
        "encoding": "mapping",
        "key": "t_address",
        "label": "mapping(address => bool)",
        "numberOfBytes": "32",
        "value": "t_bool"
      },
      "t_mapping(t_bytes32,t_struct(RoleData)2521_storage)": {
        "encoding": "mapping",
        "key": "t_bytes32",
        "label": "mapping(bytes32 => struct ConnectorStorage.RoleData)",
        "numberOfBytes": "32",
        "value": "t_struct(RoleData)2521_storage"
      },
      "t_struct(RoleData)2521_storage": {
        "encoding": "inplace",
        "label": "struct ConnectorStorage.RoleData",
        "members": [
          {
            "astId": 2518,
            "contract": "contracts/Connector.sol:Connector",
            "label": "participants",
            "offset": 0,
            "slot": "0",
            "type": "t_mapping(t_address,t_bool)"
          },
          {
            "astId": 2520,
            "contract": "contracts/Connector.sol:Connector",
            "label": "admin",
            "offset": 0,
            "slot": "1",
            "type": "t_bytes32"
          }
        ],
        "numberOfBytes": "64"
      }
    }
  }
}