{
  "address": "0x4c972b7E7b80BdF233be5013EC685c67a948A20A",
  "abi": [
    {
      "inputs": [
        {
          "internalType": "address",
          "name": "moneyPool_",
          "type": "address"
        }
      ],
      "stateMutability": "nonpayable",
      "type": "constructor"
    },
    {
      "inputs": [
        {
          "internalType": "address",
          "name": "asset",
          "type": "address"
        },
        {
          "internalType": "uint256",
          "name": "tokenId",
          "type": "uint256"
        }
      ],
      "name": "getAssetBondData",
      "outputs": [
        {
          "components": [
            {
              "internalType": "uint256",
              "name": "tokenId",
              "type": "uint256"
            },
            {
              "internalType": "uint256",
              "name": "aTokenBalance",
              "type": "uint256"
            },
            {
              "internalType": "address",
              "name": "tokenOwner",
              "type": "address"
            },
            {
              "internalType": "enum DataStruct.AssetBondState",
              "name": "state",
              "type": "uint8"
            }
          ],
          "internalType": "struct DataPipeline.AssetBondDataLocalVars",
          "name": "",
          "type": "tuple"
        }
      ],
      "stateMutability": "view",
      "type": "function"
    },
    {
      "inputs": [
        {
          "internalType": "address",
          "name": "asset",
          "type": "address"
        }
      ],
      "name": "getReserveData",
      "outputs": [
        {
          "components": [
            {
              "internalType": "uint256",
              "name": "totalLTokenSupply",
              "type": "uint256"
            },
            {
              "internalType": "uint256",
              "name": "implicitLTokenSupply",
              "type": "uint256"
            },
            {
              "internalType": "uint256",
              "name": "lTokenInterestIndex",
              "type": "uint256"
            },
            {
              "internalType": "uint256",
              "name": "principalDTokenSupply",
              "type": "uint256"
            },
            {
              "internalType": "uint256",
              "name": "totalDTokenSupply",
              "type": "uint256"
            },
            {
              "internalType": "uint256",
              "name": "averageRealAssetBorrowRate",
              "type": "uint256"
            },
            {
              "internalType": "uint256",
              "name": "dTokenLastUpdateTimestamp",
              "type": "uint256"
            },
            {
              "internalType": "uint256",
              "name": "borrowAPR",
              "type": "uint256"
            },
            {
              "internalType": "uint256",
              "name": "supplyAPR",
              "type": "uint256"
            },
            {
              "internalType": "uint256",
              "name": "moneyPooLastUpdateTimestamp",
              "type": "uint256"
            }
          ],
          "internalType": "struct DataPipeline.ReserveDataLocalVars",
          "name": "",
          "type": "tuple"
        }
      ],
      "stateMutability": "view",
      "type": "function"
    },
    {
      "inputs": [
        {
          "internalType": "address",
          "name": "asset",
          "type": "address"
        },
        {
          "internalType": "address",
          "name": "user",
          "type": "address"
        }
      ],
      "name": "getUserData",
      "outputs": [
        {
          "components": [
            {
              "internalType": "uint256",
              "name": "underlyingAssetBalance",
              "type": "uint256"
            },
            {
              "internalType": "uint256",
              "name": "lTokenBalance",
              "type": "uint256"
            },
            {
              "internalType": "uint256",
              "name": "implicitLtokenBalance",
              "type": "uint256"
            },
            {
              "internalType": "uint256",
              "name": "dTokenBalance",
              "type": "uint256"
            },
            {
              "internalType": "uint256",
              "name": "principalDTokenBalance",
              "type": "uint256"
            },
            {
              "internalType": "uint256",
              "name": "averageRealAssetBorrowRate",
              "type": "uint256"
            },
            {
              "internalType": "uint256",
              "name": "lastUpdateTimestamp",
              "type": "uint256"
            }
          ],
          "internalType": "struct DataPipeline.UserDataLocalVars",
          "name": "",
          "type": "tuple"
        }
      ],
      "stateMutability": "view",
      "type": "function"
    },
    {
      "inputs": [],
      "name": "moneyPool",
      "outputs": [
        {
          "internalType": "contract IMoneyPool",
          "name": "",
          "type": "address"
        }
      ],
      "stateMutability": "view",
      "type": "function"
    }
  ],
  "transactionHash": "0x5cf7e86545eeafbee3e0922c38aa842b051766cc9d16c752512a0248d9e73e7b",
  "args": [
    "0xC5E7B290FFB318Ea28542A873B59a60Ca653B9B7"
  ],
  "solcInputHash": "6384bc112e4cb10a01932abc66540276",
  "bytecode": "0x608060405234801561001057600080fd5b50604051610cf9380380610cf983398101604081905261002f91610054565b600080546001600160a01b0319166001600160a01b0392909216919091179055610082565b600060208284031215610065578081fd5b81516001600160a01b038116811461007b578182fd5b9392505050565b610c68806100916000396000f3fe608060405234801561001057600080fd5b506004361061004c5760003560e01c8063342354431461005157806335ea6a75146100815780635c118edc1461010d578063f4eeefe91461012d575b600080fd5b600054610064906001600160a01b031681565b6040516001600160a01b0390911681526020015b60405180910390f35b61009461008f3660046109e6565b610196565b6040516100789190600061014082019050825182526020830151602083015260408301516040830152606083015160608301526080830151608083015260a083015160a083015260c083015160c083015260e083015160e083015261010080840151818401525061012080840151818401525092915050565b61012061011b366004610a41565b6103e7565b6040516100789190610b8c565b61014061013b366004610a09565b6104c1565b6040516100789190600060e082019050825182526020830151602083015260408301516040830152606083015160608301526080830151608083015260a083015160a083015260c083015160c083015292915050565b61019e610962565b6101a6610962565b600080546040516335ea6a7560e01b81526001600160a01b038681166004830152909116906335ea6a75906024016101a06040518083038186803b1580156101ed57600080fd5b505afa158015610201573d6000803e3d6000fd5b505050506040513d601f19601f820116820180604052508101906102259190610a6c565b90508060c001516001600160a01b03166318160ddd6040518163ffffffff1660e01b815260040160206040518083038186803b15801561026457600080fd5b505afa158015610278573d6000803e3d6000fd5b505050506040513d601f19601f8201168201806040525081019061029c9190610b3f565b8260000181815250508060c001516001600160a01b031663d1f2b4d96040518163ffffffff1660e01b815260040160206040518083038186803b1580156102e257600080fd5b505afa1580156102f6573d6000803e3d6000fd5b505050506040513d601f19601f8201168201806040525081019061031a9190610b3f565b82602001818152505080602001518260400181815250508060e001516001600160a01b031663723f319e6040518163ffffffff1660e01b815260040160806040518083038186803b15801561036e57600080fd5b505afa158015610382573d6000803e3d6000fd5b505050506040513d601f19601f820116820180604052508101906103a69190610b57565b60c086015260a0808601919091526080850191909152606080850192909252604083015160e085015290820151610100840152015161012082015292915050565b61040f6040805160808101825260008082526020820181905291810182905290606082015290565b6104376040805160808101825260008082526020820181905291810182905290606082015290565b600080546040516335ea6a7560e01b81526001600160a01b038781166004830152909116906335ea6a75906024016101a06040518083038186803b15801561047e57600080fd5b505afa158015610492573d6000803e3d6000fd5b505050506040513d601f19601f820116820180604052508101906104b69190610a6c565b505091825250919050565b6105016040518060e00160405280600081526020016000815260200160008152602001600081526020016000815260200160008152602001600081525090565b6105416040518060e00160405280600081526020016000815260200160008152602001600081526020016000815260200160008152602001600081525090565b600080546040516335ea6a7560e01b81526001600160a01b038781166004830152909116906335ea6a75906024016101a06040518083038186803b15801561058857600080fd5b505afa15801561059c573d6000803e3d6000fd5b505050506040513d601f19601f820116820180604052508101906105c09190610a6c565b6040516370a0823160e01b81526001600160a01b038681166004830152919250908616906370a082319060240160206040518083038186803b15801561060557600080fd5b505afa158015610619573d6000803e3d6000fd5b505050506040513d601f19601f8201168201806040525081019061063d9190610b3f565b825260c08101516040516370a0823160e01b81526001600160a01b038681166004830152909116906370a082319060240160206040518083038186803b15801561068657600080fd5b505afa15801561069a573d6000803e3d6000fd5b505050506040513d601f19601f820116820180604052508101906106be9190610b3f565b602083015260c0810151604051630103f1a160e71b81526001600160a01b038681166004830152909116906381f8d0809060240160206040518083038186803b15801561070a57600080fd5b505afa15801561071e573d6000803e3d6000fd5b505050506040513d601f19601f820116820180604052508101906107429190610b3f565b60408084019190915260e082015190516370a0823160e01b81526001600160a01b038681166004830152909116906370a082319060240160206040518083038186803b15801561079157600080fd5b505afa1580156107a5573d6000803e3d6000fd5b505050506040513d601f19601f820116820180604052508101906107c99190610b3f565b606083015260e081015160405163631a6fd560e11b81526001600160a01b0386811660048301529091169063c634dfaa9060240160206040518083038186803b15801561081557600080fd5b505afa158015610829573d6000803e3d6000fd5b505050506040513d601f19601f8201168201806040525081019061084d9190610b3f565b608083015260e08101516040516319b7dc3360e21b81526001600160a01b038681166004830152909116906366df70cc9060240160206040518083038186803b15801561089957600080fd5b505afa1580156108ad573d6000803e3d6000fd5b505050506040513d601f19601f820116820180604052508101906108d19190610b3f565b60a083015260e0810151604051630ad7bcdf60e41b81526001600160a01b0386811660048301529091169063ad7bcdf09060240160206040518083038186803b15801561091d57600080fd5b505afa158015610931573d6000803e3d6000fd5b505050506040513d601f19601f820116820180604052508101906109559190610b3f565b60c0830152509392505050565b604051806101400160405280600081526020016000815260200160008152602001600081526020016000815260200160008152602001600081526020016000815260200160008152602001600081525090565b80516109c081610c1a565b919050565b805180151581146109c057600080fd5b805160ff811681146109c057600080fd5b6000602082840312156109f7578081fd5b8135610a0281610c1a565b9392505050565b60008060408385031215610a1b578081fd5b8235610a2681610c1a565b91506020830135610a3681610c1a565b809150509250929050565b60008060408385031215610a53578182fd5b8235610a5e81610c1a565b946020939093013593505050565b60006101a08284031215610a7e578081fd5b610a86610be2565b825181526020830151602082015260408301516040820152606083015160608201526080830151608082015260a083015160a0820152610ac860c084016109b5565b60c0820152610ad960e084016109b5565b60e0820152610100610aec8185016109b5565b90820152610120610afe8482016109b5565b90820152610140610b108482016109d5565b90820152610160610b228482016109c5565b90820152610180610b348482016109c5565b908201529392505050565b600060208284031215610b50578081fd5b5051919050565b60008060008060808587031215610b6c578182fd5b505082516020840151604085015160609095015191969095509092509050565b81518152602080830151908201526040808301516001600160a01b0316908201526060820151608082019060068110610bd557634e487b7160e01b600052602160045260246000fd5b8060608401525092915050565b6040516101a0810167ffffffffffffffff81118282101715610c1457634e487b7160e01b600052604160045260246000fd5b60405290565b6001600160a01b0381168114610c2f57600080fd5b5056fea2646970667358221220fda0a52c0a90a2ab0d576cc5f927a0497f951d52efbf11303a69e98af8a1967464736f6c63430008040033",
  "devdoc": {
    "kind": "dev",
    "methods": {},
    "version": 1
  },
  "userdoc": {
    "kind": "user",
    "methods": {},
    "version": 1
  },
  "storageLayout": {
    "storage": [
      {
        "astId": 3376,
        "contract": "contracts/DataPipeline.sol:DataPipeline",
        "label": "moneyPool",
        "offset": 0,
        "slot": "0",
        "type": "t_contract(IMoneyPool)5568"
      }
    ],
    "types": {
      "t_contract(IMoneyPool)5568": {
        "encoding": "inplace",
        "label": "contract IMoneyPool",
        "numberOfBytes": "20"
      }
    }
  }
}