{
  "address": "0x2b12D93B27Bd0E36b586f5F563A09F1118Bc6718",
  "abi": [
    {
      "inputs": [
        {
          "internalType": "contract IMoneyPool",
          "name": "moneyPool",
          "type": "address"
        },
        {
          "internalType": "address",
          "name": "underlyingAsset_",
          "type": "address"
        },
        {
          "internalType": "string",
          "name": "name_",
          "type": "string"
        },
        {
          "internalType": "string",
          "name": "symbol_",
          "type": "string"
        }
      ],
      "stateMutability": "nonpayable",
      "type": "constructor"
    },
    {
      "anonymous": false,
      "inputs": [
        {
          "indexed": true,
          "internalType": "address",
          "name": "owner",
          "type": "address"
        },
        {
          "indexed": true,
          "internalType": "address",
          "name": "spender",
          "type": "address"
        },
        {
          "indexed": false,
          "internalType": "uint256",
          "name": "value",
          "type": "uint256"
        }
      ],
      "name": "Approval",
      "type": "event"
    },
    {
      "anonymous": false,
      "inputs": [
        {
          "indexed": true,
          "internalType": "address",
          "name": "account",
          "type": "address"
        },
        {
          "indexed": false,
          "internalType": "uint256",
          "name": "amount",
          "type": "uint256"
        },
        {
          "indexed": false,
          "internalType": "uint256",
          "name": "currentBalance",
          "type": "uint256"
        },
        {
          "indexed": false,
          "internalType": "uint256",
          "name": "balanceIncrease",
          "type": "uint256"
        },
        {
          "indexed": false,
          "internalType": "uint256",
          "name": "avgStableRate",
          "type": "uint256"
        },
        {
          "indexed": false,
          "internalType": "uint256",
          "name": "newTotalSupply",
          "type": "uint256"
        }
      ],
      "name": "Burn",
      "type": "event"
    },
    {
      "anonymous": false,
      "inputs": [
        {
          "indexed": true,
          "internalType": "address",
          "name": "account",
          "type": "address"
        },
        {
          "indexed": true,
          "internalType": "address",
          "name": "receiver",
          "type": "address"
        },
        {
          "indexed": false,
          "internalType": "uint256",
          "name": "amount",
          "type": "uint256"
        },
        {
          "indexed": false,
          "internalType": "uint256",
          "name": "currentBalance",
          "type": "uint256"
        },
        {
          "indexed": false,
          "internalType": "uint256",
          "name": "balanceIncrease",
          "type": "uint256"
        },
        {
          "indexed": false,
          "internalType": "uint256",
          "name": "newRate",
          "type": "uint256"
        },
        {
          "indexed": false,
          "internalType": "uint256",
          "name": "avgStableRate",
          "type": "uint256"
        },
        {
          "indexed": false,
          "internalType": "uint256",
          "name": "newTotalSupply",
          "type": "uint256"
        }
      ],
      "name": "Mint",
      "type": "event"
    },
    {
      "anonymous": false,
      "inputs": [
        {
          "indexed": true,
          "internalType": "address",
          "name": "from",
          "type": "address"
        },
        {
          "indexed": true,
          "internalType": "address",
          "name": "to",
          "type": "address"
        },
        {
          "indexed": false,
          "internalType": "uint256",
          "name": "value",
          "type": "uint256"
        }
      ],
      "name": "Transfer",
      "type": "event"
    },
    {
      "inputs": [],
      "name": "POOL",
      "outputs": [
        {
          "internalType": "contract IMoneyPool",
          "name": "",
          "type": "address"
        }
      ],
      "stateMutability": "view",
      "type": "function"
    },
    {
      "inputs": [
        {
          "internalType": "address",
          "name": "owner",
          "type": "address"
        },
        {
          "internalType": "address",
          "name": "spender",
          "type": "address"
        }
      ],
      "name": "allowance",
      "outputs": [
        {
          "internalType": "uint256",
          "name": "",
          "type": "uint256"
        }
      ],
      "stateMutability": "view",
      "type": "function"
    },
    {
      "inputs": [
        {
          "internalType": "address",
          "name": "spender",
          "type": "address"
        },
        {
          "internalType": "uint256",
          "name": "amount",
          "type": "uint256"
        }
      ],
      "name": "approve",
      "outputs": [
        {
          "internalType": "bool",
          "name": "",
          "type": "bool"
        }
      ],
      "stateMutability": "nonpayable",
      "type": "function"
    },
    {
      "inputs": [
        {
          "internalType": "address",
          "name": "account",
          "type": "address"
        }
      ],
      "name": "balanceOf",
      "outputs": [
        {
          "internalType": "uint256",
          "name": "",
          "type": "uint256"
        }
      ],
      "stateMutability": "view",
      "type": "function"
    },
    {
      "inputs": [
        {
          "internalType": "address",
          "name": "account",
          "type": "address"
        },
        {
          "internalType": "uint256",
          "name": "amount",
          "type": "uint256"
        }
      ],
      "name": "burn",
      "outputs": [],
      "stateMutability": "nonpayable",
      "type": "function"
    },
    {
      "inputs": [],
      "name": "decimals",
      "outputs": [
        {
          "internalType": "uint8",
          "name": "",
          "type": "uint8"
        }
      ],
      "stateMutability": "view",
      "type": "function"
    },
    {
      "inputs": [],
      "name": "getDTokenData",
      "outputs": [
        {
          "internalType": "uint256",
          "name": "",
          "type": "uint256"
        },
        {
          "internalType": "uint256",
          "name": "",
          "type": "uint256"
        },
        {
          "internalType": "uint256",
          "name": "",
          "type": "uint256"
        },
        {
          "internalType": "uint256",
          "name": "",
          "type": "uint256"
        }
      ],
      "stateMutability": "view",
      "type": "function"
    },
    {
      "inputs": [],
      "name": "getTotalAverageRealAssetBorrowRate",
      "outputs": [
        {
          "internalType": "uint256",
          "name": "",
          "type": "uint256"
        }
      ],
      "stateMutability": "view",
      "type": "function"
    },
    {
      "inputs": [],
      "name": "getTotalSupplyAndAvgRate",
      "outputs": [
        {
          "internalType": "uint256",
          "name": "",
          "type": "uint256"
        },
        {
          "internalType": "uint256",
          "name": "",
          "type": "uint256"
        }
      ],
      "stateMutability": "view",
      "type": "function"
    },
    {
      "inputs": [],
      "name": "getTotalSupplyLastUpdated",
      "outputs": [
        {
          "internalType": "uint256",
          "name": "",
          "type": "uint256"
        }
      ],
      "stateMutability": "view",
      "type": "function"
    },
    {
      "inputs": [
        {
          "internalType": "address",
          "name": "account",
          "type": "address"
        }
      ],
      "name": "getUserAverageRealAssetBorrowRate",
      "outputs": [
        {
          "internalType": "uint256",
          "name": "",
          "type": "uint256"
        }
      ],
      "stateMutability": "view",
      "type": "function"
    },
    {
      "inputs": [
        {
          "internalType": "address",
          "name": "account",
          "type": "address"
        }
      ],
      "name": "getUserLastUpdateTimestamp",
      "outputs": [
        {
          "internalType": "uint256",
          "name": "",
          "type": "uint256"
        }
      ],
      "stateMutability": "view",
      "type": "function"
    },
    {
      "inputs": [
        {
          "internalType": "address",
          "name": "account",
          "type": "address"
        },
        {
          "internalType": "address",
          "name": "receiver",
          "type": "address"
        },
        {
          "internalType": "uint256",
          "name": "amount",
          "type": "uint256"
        },
        {
          "internalType": "uint256",
          "name": "rate",
          "type": "uint256"
        }
      ],
      "name": "mint",
      "outputs": [
        {
          "internalType": "bool",
          "name": "",
          "type": "bool"
        }
      ],
      "stateMutability": "nonpayable",
      "type": "function"
    },
    {
      "inputs": [],
      "name": "name",
      "outputs": [
        {
          "internalType": "string",
          "name": "",
          "type": "string"
        }
      ],
      "stateMutability": "view",
      "type": "function"
    },
    {
      "inputs": [
        {
          "internalType": "address",
          "name": "account",
          "type": "address"
        }
      ],
      "name": "principalBalanceOf",
      "outputs": [
        {
          "internalType": "uint256",
          "name": "",
          "type": "uint256"
        }
      ],
      "stateMutability": "view",
      "type": "function"
    },
    {
      "inputs": [],
      "name": "symbol",
      "outputs": [
        {
          "internalType": "string",
          "name": "",
          "type": "string"
        }
      ],
      "stateMutability": "view",
      "type": "function"
    },
    {
      "inputs": [],
      "name": "totalSupply",
      "outputs": [
        {
          "internalType": "uint256",
          "name": "",
          "type": "uint256"
        }
      ],
      "stateMutability": "view",
      "type": "function"
    },
    {
      "inputs": [
        {
          "internalType": "address",
          "name": "recipient",
          "type": "address"
        },
        {
          "internalType": "uint256",
          "name": "amount",
          "type": "uint256"
        }
      ],
      "name": "transfer",
      "outputs": [
        {
          "internalType": "bool",
          "name": "",
          "type": "bool"
        }
      ],
      "stateMutability": "nonpayable",
      "type": "function"
    },
    {
      "inputs": [
        {
          "internalType": "address",
          "name": "sender",
          "type": "address"
        },
        {
          "internalType": "address",
          "name": "recipient",
          "type": "address"
        },
        {
          "internalType": "uint256",
          "name": "amount",
          "type": "uint256"
        }
      ],
      "name": "transferFrom",
      "outputs": [
        {
          "internalType": "bool",
          "name": "",
          "type": "bool"
        }
      ],
      "stateMutability": "nonpayable",
      "type": "function"
    }
  ],
  "transactionHash": "0x327c45fee1953d30b6881f62293330eff9ab4e8d552ef2f7a69aa300ee9e348d",
  "args": [
    "0xC5E7B290FFB318Ea28542A873B59a60Ca653B9B7",
    "0xecd32309edFdBA6d51236A4517e9c2589c84C843",
    "testDToken",
    "D"
  ],
  "solcInputHash": "6384bc112e4cb10a01932abc66540276",
  "bytecode": "0x60806040523480156200001157600080fd5b5060405162001186380380620011868339810160408190526200003491620001f3565b600880546001600160a01b038087166001600160a01b03199283161790925560098054928616929091169190911790558151620000799060069060208501906200009a565b5080516200008f9060079060208401906200009a565b5050505050620002f1565b828054620000a89062000285565b90600052602060002090601f016020900481019282620000cc576000855562000117565b82601f10620000e757805160ff191683800117855562000117565b8280016001018555821562000117579182015b8281111562000117578251825591602001919060010190620000fa565b506200012592915062000129565b5090565b5b808211156200012557600081556001016200012a565b600082601f83011262000151578081fd5b81516001600160401b03808211156200016e576200016e620002c2565b604051601f8301601f19908116603f01168101908282118183101715620001995762000199620002c2565b81604052838152602092508683858801011115620001b5578485fd5b8491505b83821015620001d85785820183015181830184015290820190620001b9565b83821115620001e957848385830101525b9695505050505050565b6000806000806080858703121562000209578384fd5b84516200021681620002d8565b60208601519094506200022981620002d8565b60408601519093506001600160401b038082111562000246578384fd5b620002548883890162000140565b935060608701519150808211156200026a578283fd5b50620002798782880162000140565b91505092959194509250565b600181811c908216806200029a57607f821691505b60208210811415620002bc57634e487b7160e01b600052602260045260246000fd5b50919050565b634e487b7160e01b600052604160045260246000fd5b6001600160a01b0381168114620002ee57600080fd5b50565b610e8580620003016000396000f3fe608060405234801561001057600080fd5b50600436106101215760003560e01c806395d89b41116100ad578063b3f1c93d11610071578063b3f1c93d14610267578063c634dfaa1461027a578063dd62ed3e146102a3578063e7484890146102b1578063f731e9be146102b957600080fd5b806395d89b41146102195780639dc29fac14610221578063a9059cbb14610144578063ad7bcdf014610236578063b0d4fc5a1461025f57600080fd5b8063313ce567116100f4578063313ce5671461018b57806366df70cc1461019a57806370a08231146101c3578063723f319e146101d65780637535d246146101fe57600080fd5b806306fdde0314610126578063095ea7b31461014457806318160ddd1461016757806323b872dd1461017d575b600080fd5b61012e6102d6565b60405161013b9190610d3d565b60405180910390f35b610157610152366004610d14565b610368565b604051901515815260200161013b565b61016f61036f565b60405190815260200161013b565b610157610152366004610c98565b6040516012815260200161013b565b61016f6101a8366004610c4c565b6001600160a01b031660009081526002602052604090205490565b61016f6101d1366004610c4c565b610381565b6101de6103ee565b60408051948552602085019390935291830152606082015260800161013b565b6008546040516001600160a01b03909116815260200161013b565b61012e610417565b61023461022f366004610d14565b610426565b005b61016f610244366004610c4c565b6001600160a01b031660009081526001602052604090205490565b60005461016f565b610157610275366004610cd3565b6106af565b61016f610288366004610c4c565b6001600160a01b031660009081526005602052604090205490565b61016f610152366004610c66565b60035461016f565b6102c16108a7565b6040805192835260208301919091520161013b565b6060600680546102e590610dfe565b80601f016020809104026020016040519081016040528092919081815260200182805461031190610dfe565b801561035e5780601f106103335761010080835404028352916020019161035e565b820191906000526020600020905b81548152906001019060200180831161034157829003601f168201915b5050505050905090565b6000806000fd5b600061037c6000546108be565b905090565b6001600160a01b0381166000908152600560209081526040808320546002909252822054816103b4575060009392505050565b6001600160a01b0384166000908152600160205260408120546103d9908390426108f5565b90506103e58382610a16565b95945050505050565b600080600080600080549050600454610406826108be565b600354919790965091945092509050565b6060600780546102e590610dfe565b6008546001600160a01b0316336001600160a01b03161461044657600080fd5b60008061045284610a6f565b9250925050600061046161036f565b6001600160a01b038616600090815260026020526040812054919250908190868411610494576000808055600455610514565b61049e8785610de7565b6004819055915060006104bc6104b386610ad5565b60005490610a16565b905060006104d36104cc8a610ad5565b8490610a16565b90508181106104ed57600060048190558080559450610511565b6105096104f985610ad5565b6105038385610de7565b90610ae6565b600081905594505b50505b85871415610547576001600160a01b03881660009081526002602090815260408083208390556001909152812055610563565b6001600160a01b03881660009081526001602052604090204290555b42600355868511156105f057600061057b8887610de7565b90506105878982610b67565b6040805182815260208101899052908101879052606081018390526080810185905260a081018490526001600160a01b038a169081907fc16f4e4ca34d790de4c656c72fd015c667d688f20be64eea360618545c4c530f9060c00160405180910390a350610664565b60006105fc8689610de7565b90506106088982610bab565b604080518281526020810189905290810187905260608101859052608081018490526001600160a01b038a16907f44bd20a79e993bdcc7cbedf54a3b4d19fb78490124b6b90d04fe3242eea579e89060a00160405180910390a2505b6040518781526000906001600160a01b038a16907fddf252ad1be2c89b69c2b068fc378daa952ba7f163c4a11628f55a4df523b3ef9060200160405180910390a35050505050505050565b6008546000906001600160a01b0316336001600160a01b0316146106d257600080fd5b6107046040518060a0016040528060008152602001600081526020016000815260200160008152602001600081525090565b60008061071087610a6f565b925092505061071d61036f565b8084526000546080850152610733908790610d90565b6004819055602084015261074686610ad5565b6040808501919091526001600160a01b03881660009081526002602052205461077190838888610bce565b606085018190526001600160a01b0389166000908152600260209081526040808320939093556001905220429081905560035550608083015183516107b891908888610bce565b60808501819052600055506107d6876107d18389610d90565b610b67565b6040518681526001600160a01b038816906000907fddf252ad1be2c89b69c2b068fc378daa952ba7f163c4a11628f55a4df523b3ef9060200160405180910390a3866001600160a01b0316886001600160a01b03167fc16f4e4ca34d790de4c656c72fd015c667d688f20be64eea360618545c4c530f888585886060015189608001518a6020015160405161089396959493929190958652602086019490945260408501929092526060840152608083015260a082015260c00190565b60405180910390a350159695505050505050565b6000805481906108b6816108be565b939092509050565b600454600090806108d25750600092915050565b60006108e184600354426108f5565b90506108ed8282610a16565b949350505050565b6000806109028484610de7565b90508061091e576b033b2e3c9fd0803ce8000000915050610a0f565b600061092b600183610de7565b905060006002831161093e576000610949565b610949600284610de7565b9050600061095b6301e1338089610da8565b905060006109698280610a16565b905060006109778284610a16565b90506000600283610988888a610dc8565b6109929190610dc8565b61099c9190610da8565b90506000600683876109ae8a8c610dc8565b6109b89190610dc8565b6109c29190610dc8565b6109cc9190610da8565b905080826109da8a88610dc8565b6109f0906b033b2e3c9fd0803ce8000000610d90565b6109fa9190610d90565b610a049190610d90565b985050505050505050505b9392505050565b6000821580610a23575081155b15610a3057506000610a69565b6b033b2e3c9fd0803ce8000000610a48600282610da8565b610a528486610dc8565b610a5c9190610d90565b610a669190610da8565b90505b92915050565b6001600160a01b0381166000908152600560205260408120548190819080610aa257600080600093509350935050610ace565b600081610aae87610381565b610ab89190610de7565b905081610ac58282610d90565b90955093509150505b9193909250565b600080610a0f633b9aca0084610dc8565b600081610b2c5760405162461bcd60e51b815260206004820152601060248201526f4469766973696f6e206279205a65726f60801b604482015260640160405180910390fd5b6000610b39600284610da8565b90508281610b536b033b2e3c9fd0803ce800000087610dc8565b610b5d9190610d90565b6108ed9190610da8565b6001600160a01b038216600090815260056020526040902054610b8a8282610d90565b6001600160a01b039093166000908152600560205260409020929092555050565b6001600160a01b038216600090815260056020526040902054610b8a8282610de7565b6000806000610be687610be088610ad5565b90610a16565b90506000610bf785610be088610ad5565b90506000610c058789610d90565b90506000610c1f610c1583610ad5565b6105038587610d90565b919a91995090975050505050505050565b80356001600160a01b0381168114610c4757600080fd5b919050565b600060208284031215610c5d578081fd5b610a6682610c30565b60008060408385031215610c78578081fd5b610c8183610c30565b9150610c8f60208401610c30565b90509250929050565b600080600060608486031215610cac578081fd5b610cb584610c30565b9250610cc360208501610c30565b9150604084013590509250925092565b60008060008060808587031215610ce8578081fd5b610cf185610c30565b9350610cff60208601610c30565b93969395505050506040820135916060013590565b60008060408385031215610d26578182fd5b610d2f83610c30565b946020939093013593505050565b6000602080835283518082850152825b81811015610d6957858101830151858201604001528201610d4d565b81811115610d7a5783604083870101525b50601f01601f1916929092016040019392505050565b60008219821115610da357610da3610e39565b500190565b600082610dc357634e487b7160e01b81526012600452602481fd5b500490565b6000816000190483118215151615610de257610de2610e39565b500290565b600082821015610df957610df9610e39565b500390565b600181811c90821680610e1257607f821691505b60208210811415610e3357634e487b7160e01b600052602260045260246000fd5b50919050565b634e487b7160e01b600052601160045260246000fdfea2646970667358221220837a9698b058e9a4ea035af30036c2005e5b0f710698212f02f4e15976d9eac964736f6c63430008040033",
  "devdoc": {
    "author": "Aave*",
    "kind": "dev",
    "methods": {
      "POOL()": {
        "details": "Returns the address of the lending pool where this aToken is used*"
      },
      "allowance(address,address)": {
        "details": "Returns the remaining number of tokens that `spender` will be allowed to spend on behalf of `owner` through {transferFrom}. This is zero by default. This value changes when {approve} or {transferFrom} are called."
      },
      "approve(address,uint256)": {
        "details": "Sets `amount` as the allowance of `spender` over the caller's tokens. Returns a boolean value indicating whether the operation succeeded. IMPORTANT: Beware that changing an allowance with this method brings the risk that someone may use both the old and the new allowance by unfortunate transaction ordering. One possible solution to mitigate this race condition is to first reduce the spender's allowance to 0 and set the desired value afterwards: https://github.com/ethereum/EIPs/issues/20#issuecomment-263524729 Emits an {Approval} event."
      },
      "balanceOf(address)": {
        "details": "Calculates the current account debt balance",
        "returns": {
          "_0": "The accumulated debt of the account*"
        }
      },
      "burn(address,uint256)": {
        "details": "Burns debt of `account`",
        "params": {
          "account": "The address of the account getting his debt burned",
          "amount": "The amount of debt tokens getting burned*"
        }
      },
      "decimals()": {
        "details": "Returns the decimals of the token."
      },
      "getDTokenData()": {
        "details": "Returns the principal and total supply, the average borrow rate and the last supply update timestamp*"
      },
      "getTotalAverageRealAssetBorrowRate()": {
        "details": "Returns the average stable rate across all the stable rate debt",
        "returns": {
          "_0": "the average stable rate*"
        }
      },
      "getTotalSupplyAndAvgRate()": {
        "details": "Returns the the total supply and the average stable rate*"
      },
      "getTotalSupplyLastUpdated()": {
        "details": "Returns the timestamp at which the total supply was updated*"
      },
      "getUserAverageRealAssetBorrowRate(address)": {
        "details": "Returns the stable rate of the account",
        "params": {
          "account": "The address of the account"
        },
        "returns": {
          "_0": "The stable rate of account*"
        }
      },
      "getUserLastUpdateTimestamp(address)": {
        "details": "Returns the timestamp of the last account action",
        "returns": {
          "_0": "The last update timestamp*"
        }
      },
      "mint(address,address,uint256,uint256)": {
        "details": "Mints debt token to the `receiver` address. -  Only callable by the LendingPool - The resulting rate is the weighted average between the rate of the new debt and the rate of the principal debt",
        "params": {
          "account": "The address receiving the borrowed underlying, being the delegatee in case of credit delegate, or same as `receiver` otherwise",
          "amount": "The amount of debt tokens to mint",
          "rate": "The rate of the debt being minted*",
          "receiver": "The address receiving the debt tokens"
        }
      },
      "name()": {
        "details": "Returns the name of the token."
      },
      "principalBalanceOf(address)": {
        "details": "Returns the principal debt balance of the account from",
        "params": {
          "account": "The account's address"
        },
        "returns": {
          "_0": "The debt balance of the account since the last burn/mint action*"
        }
      },
      "symbol()": {
        "details": "Returns the symbol of the token, usually a shorter version of the name."
      },
      "totalSupply()": {
        "details": "Returns the total supply*"
      },
      "transfer(address,uint256)": {
        "details": "Moves `amount` tokens from the caller's account to `recipient`. Returns a boolean value indicating whether the operation succeeded. Emits a {Transfer} event."
      },
      "transferFrom(address,address,uint256)": {
        "details": "Moves `amount` tokens from `sender` to `recipient` using the allowance mechanism. `amount` is then deducted from the caller's allowance. Returns a boolean value indicating whether the operation succeeded. Emits a {Transfer} event."
      }
    },
    "title": "DToken",
    "version": 1
  },
  "userdoc": {
    "kind": "user",
    "methods": {},
    "notice": "The DToken balance of borrower is the amount of money that the borrower would be required to repay and seize the collateralized asset bond token.",
    "version": 1
  },
  "storageLayout": {
    "storage": [
      {
        "astId": 2544,
        "contract": "contracts/DToken.sol:DToken",
        "label": "_totalAverageRealAssetBorrowRate",
        "offset": 0,
        "slot": "0",
        "type": "t_uint256"
      },
      {
        "astId": 2548,
        "contract": "contracts/DToken.sol:DToken",
        "label": "_userLastUpdateTimestamp",
        "offset": 0,
        "slot": "1",
        "type": "t_mapping(t_address,t_uint256)"
      },
      {
        "astId": 2552,
        "contract": "contracts/DToken.sol:DToken",
        "label": "_userAverageRealAssetBorrowRate",
        "offset": 0,
        "slot": "2",
        "type": "t_mapping(t_address,t_uint256)"
      },
      {
        "astId": 2554,
        "contract": "contracts/DToken.sol:DToken",
        "label": "_lastUpdateTimestamp",
        "offset": 0,
        "slot": "3",
        "type": "t_uint256"
      },
      {
        "astId": 2556,
        "contract": "contracts/DToken.sol:DToken",
        "label": "_totalSupply",
        "offset": 0,
        "slot": "4",
        "type": "t_uint256"
      },
      {
        "astId": 2560,
        "contract": "contracts/DToken.sol:DToken",
        "label": "_balances",
        "offset": 0,
        "slot": "5",
        "type": "t_mapping(t_address,t_uint256)"
      },
      {
        "astId": 2562,
        "contract": "contracts/DToken.sol:DToken",
        "label": "_name",
        "offset": 0,
        "slot": "6",
        "type": "t_string_storage"
      },
      {
        "astId": 2564,
        "contract": "contracts/DToken.sol:DToken",
        "label": "_symbol",
        "offset": 0,
        "slot": "7",
        "type": "t_string_storage"
      },
      {
        "astId": 2567,
        "contract": "contracts/DToken.sol:DToken",
        "label": "_moneyPool",
        "offset": 0,
        "slot": "8",
        "type": "t_contract(IMoneyPool)5568"
      },
      {
        "astId": 2569,
        "contract": "contracts/DToken.sol:DToken",
        "label": "_underlyingAsset",
        "offset": 0,
        "slot": "9",
        "type": "t_address"
      }
    ],
    "types": {
      "t_address": {
        "encoding": "inplace",
        "label": "address",
        "numberOfBytes": "20"
      },
      "t_contract(IMoneyPool)5568": {
        "encoding": "inplace",
        "label": "contract IMoneyPool",
        "numberOfBytes": "20"
      },
      "t_mapping(t_address,t_uint256)": {
        "encoding": "mapping",
        "key": "t_address",
        "label": "mapping(address => uint256)",
        "numberOfBytes": "32",
        "value": "t_uint256"
      },
      "t_string_storage": {
        "encoding": "bytes",
        "label": "string",
        "numberOfBytes": "32"
      },
      "t_uint256": {
        "encoding": "inplace",
        "label": "uint256",
        "numberOfBytes": "32"
      }
    }
  }
}