{
  "address": "0x474fE454A0E7bB4116B3c39f5392393dB1845a25",
  "abi": [
    {
      "inputs": [
        {
          "internalType": "uint256",
          "name": "optimalUtilizationRate",
          "type": "uint256"
        },
        {
          "internalType": "uint256",
          "name": "borrowRateBase",
          "type": "uint256"
        },
        {
          "internalType": "uint256",
          "name": "borrowRateOptimal",
          "type": "uint256"
        },
        {
          "internalType": "uint256",
          "name": "borrowRateMax",
          "type": "uint256"
        }
      ],
      "stateMutability": "nonpayable",
      "type": "constructor"
    },
    {
      "inputs": [
        {
          "internalType": "address",
          "name": "asset",
          "type": "address"
        },
        {
          "internalType": "address",
          "name": "lToken",
          "type": "address"
        },
        {
          "internalType": "uint256",
          "name": "totalDTokenBalance",
          "type": "uint256"
        },
        {
          "internalType": "uint256",
          "name": "investAmount",
          "type": "uint256"
        },
        {
          "internalType": "uint256",
          "name": "borrowAmount",
          "type": "uint256"
        },
        {
          "internalType": "uint256",
          "name": "averageBorrowAPR",
          "type": "uint256"
        },
        {
          "internalType": "uint256",
          "name": "moneyPoolFactor",
          "type": "uint256"
        }
      ],
      "name": "calculateRates",
      "outputs": [
        {
          "internalType": "uint256",
          "name": "",
          "type": "uint256"
        },
        {
          "internalType": "uint256",
          "name": "",
          "type": "uint256"
        }
      ],
      "stateMutability": "view",
      "type": "function"
    }
  ],
  "transactionHash": "0x3df1d8671581442d04be0b5475ad712fe5b84b916dd1dcda59ef56241766332c",
  "args": [
    "800000000000000000000000000",
    "20000000000000000000000000",
    "100000000000000000000000000",
    "1000000000000000000000000000"
  ],
  "solcInputHash": "6384bc112e4cb10a01932abc66540276",
  "bytecode": "0x608060405234801561001057600080fd5b5060405161067638038061067683398101604081905261002f91610046565b60009390935560019190915560025560035561007b565b6000806000806080858703121561005b578384fd5b505082516020840151604085015160609095015191969095509092509050565b6105ec8061008a6000396000f3fe608060405234801561001057600080fd5b506004361061002b5760003560e01c806382160f2914610030575b600080fd5b61004361003e3660046103f4565b61005c565b6040805192835260208301919091520160405180910390f35b60008061008a6040518060800160405280600081526020016000815260200160008152602001600081525090565b8781526040516370a0823160e01b81526001600160a01b038a8116600483015260009188918a91908e16906370a082319060240160206040518083038186803b1580156100d657600080fd5b505afa1580156100ea573d6000803e3d6000fd5b505050506040513d601f19601f8201168201806040525081019061010e9190610451565b61011891906104cb565b6101229190610522565b8251909150156101495781516101449061013c90836104cb565b835190610289565b61014c565b60005b6020830181905260006040840181905254106101a35761018c82602001516101866000546001546002546101809190610522565b90610289565b90610314565b60015461019991906104cb565b60408301526101fe565b6101eb60025483602001516101b89190610522565b6101866000546101d16b033b2e3c9fd0803ce800000090565b6101db9190610522565b6002546003546101809190610522565b6002546101f891906104cb565b60408301525b6020820151604083015161021191610314565b826060018181525050610242604051806060016040528060338152602001610550603391398351602085015161036b565b61026d604051806060016040528060348152602001610583603491398360400151846060015161036b565b8160400151826060015193509350505097509795505050505050565b6000816102cf5760405162461bcd60e51b815260206004820152601060248201526f4469766973696f6e206279205a65726f60801b604482015260640160405180910390fd5b60006102dc6002846104e3565b905082816102f66b033b2e3c9fd0803ce800000087610503565b61030091906104cb565b61030a91906104e3565b9150505b92915050565b6000821580610321575081155b1561032e5750600061030e565b6b033b2e3c9fd0803ce80000006103466002826104e3565b6103508486610503565b61035a91906104cb565b61036491906104e3565b9392505050565b6103b283838360405160240161038393929190610469565b60408051601f198184030181529190526020810180516001600160e01b031663969cdd0360e01b1790526103b7565b505050565b80516a636f6e736f6c652e6c6f67602083016000808483855afa5050505050565b80356001600160a01b03811681146103ef57600080fd5b919050565b600080600080600080600060e0888a03121561040e578283fd5b610417886103d8565b9650610425602089016103d8565b96999698505050506040850135946060810135946080820135945060a0820135935060c0909101359150565b600060208284031215610462578081fd5b5051919050565b6060815260008451806060840152815b818110156104965760208188018101516080868401015201610479565b818111156104a75782608083860101525b5060208301949094525060408101919091526080601f909201601f19160101919050565b600082198211156104de576104de610539565b500190565b6000826104fe57634e487b7160e01b81526012600452602481fd5b500490565b600081600019048311821515161561051d5761051d610539565b500290565b60008282101561053457610534610539565b500390565b634e487b7160e01b600052601160045260246000fdfe6861726468617420696e7465726573742052617465204d6f64656c20636f6e736f6c653a20746f74616c446562742d5574696c6861726468617420696e7465726573742052617465204d6f64656c20636f6e736f6c653a20426f72726f77207c20537570706c79a2646970667358221220780852d2033b1f50eddc543f86e0db18d1371e32452339850162480479d8df5b64736f6c63430008040033",
  "devdoc": {
    "author": "ELYSIA",
    "kind": "dev",
    "methods": {},
    "title": "ELYFI InterestRateModel",
    "version": 1
  },
  "userdoc": {
    "kind": "user",
    "methods": {},
    "version": 1
  },
  "storageLayout": {
    "storage": [
      {
        "astId": 3896,
        "contract": "contracts/InterestRateModel.sol:InterestRateModel",
        "label": "_optimalUtilizationRate",
        "offset": 0,
        "slot": "0",
        "type": "t_uint256"
      },
      {
        "astId": 3898,
        "contract": "contracts/InterestRateModel.sol:InterestRateModel",
        "label": "_borrowRateBase",
        "offset": 0,
        "slot": "1",
        "type": "t_uint256"
      },
      {
        "astId": 3900,
        "contract": "contracts/InterestRateModel.sol:InterestRateModel",
        "label": "_borrowRateOptimal",
        "offset": 0,
        "slot": "2",
        "type": "t_uint256"
      },
      {
        "astId": 3902,
        "contract": "contracts/InterestRateModel.sol:InterestRateModel",
        "label": "_borrowRateMax",
        "offset": 0,
        "slot": "3",
        "type": "t_uint256"
      }
    ],
    "types": {
      "t_uint256": {
        "encoding": "inplace",
        "label": "uint256",
        "numberOfBytes": "32"
      }
    }
  }
}