{
  "address": "0xC5E7B290FFB318Ea28542A873B59a60Ca653B9B7",
  "abi": [
    {
      "inputs": [
        {
          "internalType": "uint256",
          "name": "maxReserveCount_",
          "type": "uint256"
        },
        {
          "internalType": "address",
          "name": "connector",
          "type": "address"
        }
      ],
      "stateMutability": "nonpayable",
      "type": "constructor"
    },
    {
      "anonymous": false,
      "inputs": [
        {
          "indexed": true,
          "internalType": "address",
          "name": "asset",
          "type": "address"
        },
        {
          "indexed": true,
          "internalType": "address",
          "name": "borrower",
          "type": "address"
        },
        {
          "indexed": true,
          "internalType": "address",
          "name": "receiver",
          "type": "address"
        },
        {
          "indexed": false,
          "internalType": "uint256",
          "name": "tokenId",
          "type": "uint256"
        },
        {
          "indexed": false,
          "internalType": "uint256",
          "name": "borrowAPR",
          "type": "uint256"
        },
        {
          "indexed": false,
          "internalType": "uint256",
          "name": "borrowAmount",
          "type": "uint256"
        }
      ],
      "name": "BorrowAgainstAssetBond",
      "type": "event"
    },
    {
      "anonymous": false,
      "inputs": [
        {
          "indexed": true,
          "internalType": "address",
          "name": "asset",
          "type": "address"
        },
        {
          "indexed": true,
          "internalType": "address",
          "name": "account",
          "type": "address"
        },
        {
          "indexed": false,
          "internalType": "uint256",
          "name": "amount",
          "type": "uint256"
        }
      ],
      "name": "InvestMoneyPool",
      "type": "event"
    },
    {
      "anonymous": false,
      "inputs": [],
      "name": "RepayAgainstAssetBond",
      "type": "event"
    },
    {
      "anonymous": false,
      "inputs": [
        {
          "indexed": true,
          "internalType": "address",
          "name": "asset",
          "type": "address"
        },
        {
          "indexed": true,
          "internalType": "address",
          "name": "account",
          "type": "address"
        },
        {
          "indexed": true,
          "internalType": "address",
          "name": "to",
          "type": "address"
        },
        {
          "indexed": false,
          "internalType": "uint256",
          "name": "amount",
          "type": "uint256"
        }
      ],
      "name": "WithdrawMoneyPool",
      "type": "event"
    },
    {
      "inputs": [
        {
          "internalType": "address",
          "name": "asset",
          "type": "address"
        },
        {
          "internalType": "address",
          "name": "lToken",
          "type": "address"
        },
        {
          "internalType": "address",
          "name": "dToken",
          "type": "address"
        },
        {
          "internalType": "address",
          "name": "interestModel",
          "type": "address"
        },
        {
          "internalType": "address",
          "name": "tokenizer",
          "type": "address"
        },
        {
          "internalType": "uint256",
          "name": "moneyPoolFactor_",
          "type": "uint256"
        }
      ],
      "name": "addNewReserve",
      "outputs": [],
      "stateMutability": "nonpayable",
      "type": "function"
    },
    {
      "inputs": [
        {
          "internalType": "address",
          "name": "asset",
          "type": "address"
        },
        {
          "internalType": "address",
          "name": "receiver",
          "type": "address"
        },
        {
          "internalType": "uint256",
          "name": "borrowAmount",
          "type": "uint256"
        },
        {
          "internalType": "uint256",
          "name": "tokenId",
          "type": "uint256"
        }
      ],
      "name": "borrowAgainstABToken",
      "outputs": [],
      "stateMutability": "nonpayable",
      "type": "function"
    },
    {
      "inputs": [
        {
          "internalType": "address",
          "name": "asset",
          "type": "address"
        }
      ],
      "name": "getLTokenInterestIndex",
      "outputs": [
        {
          "internalType": "uint256",
          "name": "",
          "type": "uint256"
        }
      ],
      "stateMutability": "view",
      "type": "function"
    },
    {
      "inputs": [
        {
          "internalType": "address",
          "name": "asset",
          "type": "address"
        }
      ],
      "name": "getReserveData",
      "outputs": [
        {
          "components": [
            {
              "internalType": "uint256",
              "name": "moneyPoolFactor",
              "type": "uint256"
            },
            {
              "internalType": "uint256",
              "name": "lTokenInterestIndex",
              "type": "uint256"
            },
            {
              "internalType": "uint256",
              "name": "borrowAPR",
              "type": "uint256"
            },
            {
              "internalType": "uint256",
              "name": "supplyAPR",
              "type": "uint256"
            },
            {
              "internalType": "uint256",
              "name": "totalDepositedAssetBondCount",
              "type": "uint256"
            },
            {
              "internalType": "uint256",
              "name": "lastUpdateTimestamp",
              "type": "uint256"
            },
            {
              "internalType": "address",
              "name": "lTokenAddress",
              "type": "address"
            },
            {
              "internalType": "address",
              "name": "dTokenAddress",
              "type": "address"
            },
            {
              "internalType": "address",
              "name": "interestModelAddress",
              "type": "address"
            },
            {
              "internalType": "address",
              "name": "tokenizerAddress",
              "type": "address"
            },
            {
              "internalType": "uint8",
              "name": "id",
              "type": "uint8"
            },
            {
              "internalType": "bool",
              "name": "isPaused",
              "type": "bool"
            },
            {
              "internalType": "bool",
              "name": "isActivated",
              "type": "bool"
            }
          ],
          "internalType": "struct DataStruct.ReserveData",
          "name": "",
          "type": "tuple"
        }
      ],
      "stateMutability": "view",
      "type": "function"
    },
    {
      "inputs": [
        {
          "internalType": "address",
          "name": "asset",
          "type": "address"
        },
        {
          "internalType": "address",
          "name": "account",
          "type": "address"
        },
        {
          "internalType": "uint256",
          "name": "amount",
          "type": "uint256"
        }
      ],
      "name": "investMoneyPool",
      "outputs": [],
      "stateMutability": "nonpayable",
      "type": "function"
    },
    {
      "inputs": [
        {
          "internalType": "address",
          "name": "asset",
          "type": "address"
        },
        {
          "internalType": "address",
          "name": "receiver",
          "type": "address"
        },
        {
          "internalType": "uint256",
          "name": "repayAmount",
          "type": "uint256"
        },
        {
          "internalType": "uint256",
          "name": "tokenId",
          "type": "uint256"
        }
      ],
      "name": "retrieveAssetBond",
      "outputs": [],
      "stateMutability": "nonpayable",
      "type": "function"
    },
    {
      "inputs": [
        {
          "internalType": "address",
          "name": "asset",
          "type": "address"
        },
        {
          "internalType": "address",
          "name": "from",
          "type": "address"
        },
        {
          "internalType": "address",
          "name": "to",
          "type": "address"
        },
        {
          "internalType": "uint256",
          "name": "amount",
          "type": "uint256"
        },
        {
          "internalType": "uint256",
          "name": "previousFromBalance",
          "type": "uint256"
        },
        {
          "internalType": "uint256",
          "name": "previousToBalance",
          "type": "uint256"
        }
      ],
      "name": "validateLTokenTransfer",
      "outputs": [],
      "stateMutability": "nonpayable",
      "type": "function"
    },
    {
      "inputs": [
        {
          "internalType": "address",
          "name": "asset",
          "type": "address"
        },
        {
          "internalType": "address",
          "name": "account",
          "type": "address"
        },
        {
          "internalType": "uint256",
          "name": "amount",
          "type": "uint256"
        }
      ],
      "name": "withdrawMoneyPool",
      "outputs": [
        {
          "internalType": "uint256",
          "name": "",
          "type": "uint256"
        }
      ],
      "stateMutability": "nonpayable",
      "type": "function"
    }
  ],
  "transactionHash": "0x0063e59de0f39e0f91b369ca3c3d4c88d522cce486e5b6fd02ae5b49064d823e",
  "args": [
    "16",
    "0x0F7De21f422F179cE5394F23f1C680F4797119F8"
  ],
  "solcInputHash": "6384bc112e4cb10a01932abc66540276",
  "bytecode": "0x60806040523480156200001157600080fd5b5060405162001bd038038062001bd083398101604081905262000034916200007a565b600480546001600160a01b0319166001600160a01b038316179055600382905560028054600191906000906200006c908490620000b7565b90915550620000dc92505050565b600080604083850312156200008d578182fd5b825160208401519092506001600160a01b0381168114620000ac578182fd5b809150509250929050565b60008219821115620000d757634e487b7160e01b81526011600452602481fd5b500190565b611ae480620000ec6000396000f3fe608060405234801561001057600080fd5b50600436106100885760003560e01c8063cee439231161005b578063cee4392314610220578063ea12095814610241578063f02615da14610254578063f9e9d8221461026757600080fd5b80632d3e31a91461008d57806335ea6a75146100a257806347ac8089146101fa578063593b387b1461020d575b600080fd5b6100a061009b36600461154d565b61027a565b005b6101e46100b03660046114b9565b604080516101a081018252600080825260208201819052918101829052606081018290526080810182905260a0810182905260c0810182905260e081018290526101008101829052610120810182905261014081018290526101608101829052610180810191909152506001600160a01b039081166000908152602081815260409182902082516101a081018452815481526001820154928101929092526002810154928201929092526003820154606082015260048201546080820152600582015460a08201526006820154831660c08201526007820154831660e08201526008820154831661010082015260099091015491821661012082015260ff600160a01b83048116610140830152600160a81b830481161515610160830152600160b01b909204909116151561018082015290565b6040516101f1919061183c565b60405180910390f35b6100a06102083660046114d5565b6102ac565b6100a061021b3660046115b1565b6104db565b61023361022e3660046114b9565b610645565b6040519081526020016101f1565b61023361024f3660046115b1565b61066c565b6100a06102623660046115f1565b610831565b6100a06102753660046115f1565b6108c7565b6001600160a01b03868116600090815260208190526040902060060154163314156102a457600080fd5b505050505050565b6000604051806101a001604052808381526020016102d36b033b2e3c9fd0803ce800000090565b8152602001600081526020016000815260200160008152602001428152602001876001600160a01b03168152602001866001600160a01b03168152602001856001600160a01b03168152602001846001600160a01b03168152602001600060ff16815260200160001515815260200160011515815250905080600080896001600160a01b03166001600160a01b03168152602001908152602001600020600082015181600001556020820151816001015560408201518160020155606082015181600301556080820151816004015560a0820151816005015560c08201518160060160006101000a8154816001600160a01b0302191690836001600160a01b0316021790555060e08201518160070160006101000a8154816001600160a01b0302191690836001600160a01b031602179055506101008201518160080160006101000a8154816001600160a01b0302191690836001600160a01b031602179055506101208201518160090160006101000a8154816001600160a01b0302191690836001600160a01b031602179055506101408201518160090160146101000a81548160ff021916908360ff1602179055506101608201518160090160156101000a81548160ff0219169083151502179055506101808201518160090160166101000a81548160ff0219169083151502179055509050506104d287610baa565b50505050505050565b6001600160a01b03831660009081526020819052604090206104fd8183610c4d565b61050681610c91565b6105138185846000610cac565b6006810154610531906001600160a01b038681169133911685610f12565b60068101546001820154604051630ab714fb60e11b81526001600160a01b03868116600483015260248201869052604482019290925291169063156e29f690606401602060405180830381600087803b15801561058d57600080fd5b505af11580156105a1573d6000803e3d6000fd5b505050506040513d601f19601f820116820180604052508101906105c59190611636565b506105f2604051806060016040528060358152602001611a7a603591398383600501548460020154610f6c565b826001600160a01b0316846001600160a01b03167f6f0d59d8f0e507fa97253ee160cfbb78cd1b8f9ff8b3e356079496741028c1428460405161063791815260200190565b60405180910390a350505050565b6001600160a01b038116600090815260208190526040812061066690610fb5565b92915050565b6001600160a01b03838116600090815260208190526040808220600681015491516370a0823160e01b8152336004820152929390928492909116906370a082319060240160206040518083038186803b1580156106c857600080fd5b505afa1580156106dc573d6000803e3d6000fd5b505050506040513d601f19601f820116820180604052508101906107009190611752565b905083610714838887856001600254610ff5565b61071d83610c91565b61072a8388600084610cac565b60068301546001840154604051636b81068560e11b81523360048201526001600160a01b03898116602483015260448201859052606482019290925291169063d7020d0a90608401600060405180830381600087803b15801561078c57600080fd5b505af11580156107a0573d6000803e3d6000fd5b505050506107d0604051806060016040528060358152602001611a45603591398285600101548660020154610f6c565b856001600160a01b0316336001600160a01b0316886001600160a01b03167f3e053b412d4245cd032de4787bb0b551d4b340f45084e79caa70acee14e445838460405161081f91815260200190565b60405180910390a45050509392505050565b6001600160a01b0384811660009081526020819052604080822060098101549151634134592760e11b81526004810186905290939190911690638268b24e9060240160006040518083038186803b15801561088b57600080fd5b505afa15801561089f573d6000803e3d6000fd5b505050506040513d6000823e601f3d908101601f191682016040526104d29190810190611656565b6001600160a01b0384811660009081526020819052604080822060098101549151634134592760e11b81526004810186905290939190911690638268b24e9060240160006040518083038186803b15801561092157600080fd5b505afa158015610935573d6000803e3d6000fd5b505050506040513d6000823e601f3d908101601f1916820160405261095d9190810190611656565b905061096b82828887611042565b61097482610c91565b6009820154600283015460405163344c988d60e11b8152336004820152602481018690526044810187905260648101919091526001600160a01b0390911690636899311a90608401600060405180830381600087803b1580156109d657600080fd5b505af11580156109ea573d6000803e3d6000fd5b505050506007820154600283015460405163b3f1c93d60e01b81523360048201526001600160a01b03888116602483015260448201889052606482019290925291169063b3f1c93d90608401602060405180830381600087803b158015610a5057600080fd5b505af1158015610a64573d6000803e3d6000fd5b505050506040513d601f19601f82011682018060405250810190610a889190611636565b50610a968287600087610cac565b6006820154604051634efecaa560e01b81526001600160a01b0387811660048301526024820187905290911690634efecaa590604401602060405180830381600087803b158015610ae657600080fd5b505af1158015610afa573d6000803e3d6000fd5b505050506040513d601f19601f82011682018060405250810190610b1e9190611752565b50610b4b604051806060016040528060358152602001611a45603591398584600501548560020154610f6c565b600282015460408051858152602081019290925281018590526001600160a01b038087169133918916907f7aeba67ea06121a98887c26ff63e48bce3d36e4dec7687cfe3b6a49cf8728ecd9060600160405180910390a4505050505050565b6002546003548110610bbb57600080fd5b6001600160a01b038216600090815260208190526040902060090154600160a01b900460ff1615610beb57600080fd5b6001600160a01b038216600081815260208181526040808320600901805460ff60a01b1916600160a01b60ff88160217905584835260019182905290912080546001600160a01b031916909217909155610c46908290611931565b6002555050565b80610c5757600080fd5b6009820154600160a81b900460ff16151560011415610c7557600080fd5b6009820154600160b01b900460ff16610c8d57600080fd5b5050565b60018101546005820154610ca68383836110c3565b50505050565b610cde6040518060a0016040528060008152602001600081526020016000815260200160008152602001600081525090565b8460070160009054906101000a90046001600160a01b03166001600160a01b03166318160ddd6040518163ffffffff1660e01b815260040160206040518083038186803b158015610d2e57600080fd5b505afa158015610d42573d6000803e3d6000fd5b505050506040513d601f19601f82011682018060405250810190610d669190611752565b815260078501546040805163586a7e2d60e11b815290516001600160a01b039092169163b0d4fc5a91600480820192602092909190829003018186803b158015610daf57600080fd5b505afa158015610dc3573d6000803e3d6000fd5b505050506040513d601f19601f82011682018060405250810190610de79190611752565b6060820181905260088601546006870154835188546040516382160f2960e01b81526001600160a01b038a8116600483015293841660248201526044810192909252606482018890526084820187905260a482019490945260c481019390935216906382160f299060e401604080518083038186803b158015610e6957600080fd5b505afa158015610e7d573d6000803e3d6000fd5b505050506040513d601f19601f82011682018060405250810190610ea1919061176a565b60408381018290526020808501849052600289018490556003890183905560018901548251908152908101939093528201526001600160a01b038516907f69c9002e7c46c29723828d90d3d740de55613b10b94f818bb38412db23317fe59060600160405180910390a25050505050565b604080516001600160a01b0385811660248301528416604482015260648082018490528251808303909101815260849091019091526020810180516001600160e01b03166323b872dd60e01b179052610ca690859061112d565b610ca684848484604051602401610f86949392919061180d565b60408051601f198184030181529190526020810180516001600160e01b03166304772b3360e11b179052611209565b600581015460009042811415610fce5750506001015490565b6000610fed8460010154610fe78660030154854261122a565b90611272565b949350505050565b83610fff57600080fd5b6009860154600160a81b900460ff1615156001141561101d57600080fd5b6009860154600160b01b900460ff1661103557600080fd5b828411156102a457600080fd5b60068401546040516370a0823160e01b81526001600160a01b0391821660048201526000918416906370a082319060240160206040518083038186803b15801561108b57600080fd5b505afa15801561109f573d6000803e3d6000fd5b505050506040513d601f19601f820116820180604052508101906102a49190611752565b6003830154600090806110de57505042600584015581611126565b6110e785610fb5565b60018601554260058601556040805160608101909152603580825261111e9190611a106020830139866001015487600501546112c2565b505060018301545b9392505050565b6000611182826040518060400160405280602081526020017f5361666545524332303a206c6f772d6c6576656c2063616c6c206661696c6564815250856001600160a01b03166113099092919063ffffffff16565b80519091501561120457808060200190518101906111a09190611636565b6112045760405162461bcd60e51b815260206004820152602a60248201527f5361666545524332303a204552433230206f7065726174696f6e20646964206e6044820152691bdd081cdd58d8d9595960b21b60648201526084015b60405180910390fd5b505050565b80516a636f6e736f6c652e6c6f67602083016000808483855afa5050505050565b6000806112378484611988565b90506b033b2e3c9fd0803ce80000006301e133806112558388611969565b61125f9190611949565b6112699190611931565b95945050505050565b600082158061127f575081155b1561128c57506000610666565b6b033b2e3c9fd0803ce80000006112a4600282611949565b6112ae8486611969565b6112b89190611931565b6111269190611949565b6112048383836040516024016112da939291906117e8565b60408051601f198184030181529190526020810180516001600160e01b031663969cdd0360e01b179052611209565b6060610fed848460008585843b6113625760405162461bcd60e51b815260206004820152601d60248201527f416464726573733a2063616c6c20746f206e6f6e2d636f6e747261637400000060448201526064016111fb565b600080866001600160a01b0316858760405161137e91906117b9565b60006040518083038185875af1925050503d80600081146113bb576040519150601f19603f3d011682016040523d82523d6000602084013e6113c0565b606091505b50915091506113d08282866113db565b979650505050505050565b606083156113ea575081611126565b8251156113fa5782518084602001fd5b8160405162461bcd60e51b81526004016111fb91906117d5565b805161141f816119f7565b919050565b80516006811061141f57600080fd5b600082601f830112611443578081fd5b815167ffffffffffffffff8082111561145e5761145e6119e1565b604051601f8301601f19908116603f01168101908282118183101715611486576114866119e1565b8160405283815286602085880101111561149e578485fd5b6114af84602083016020890161199f565b9695505050505050565b6000602082840312156114ca578081fd5b8135611126816119f7565b60008060008060008060c087890312156114ed578182fd5b86356114f8816119f7565b95506020870135611508816119f7565b94506040870135611518816119f7565b93506060870135611528816119f7565b92506080870135611538816119f7565b8092505060a087013590509295509295509295565b60008060008060008060c08789031215611565578182fd5b8635611570816119f7565b95506020870135611580816119f7565b94506040870135611590816119f7565b959894975094956060810135955060808101359460a0909101359350915050565b6000806000606084860312156115c5578283fd5b83356115d0816119f7565b925060208401356115e0816119f7565b929592945050506040919091013590565b60008060008060808587031215611606578384fd5b8435611611816119f7565b93506020850135611621816119f7565b93969395505050506040820135916060013590565b600060208284031215611647578081fd5b81518015158114611126578182fd5b600060208284031215611667578081fd5b815167ffffffffffffffff8082111561167e578283fd5b908301906101808286031215611692578283fd5b61169a611907565b6116a383611414565b81526116b160208401611414565b60208201526116c260408401611414565b60408201526060830151828111156116d8578485fd5b6116e487828601611433565b6060830152506080838101519082015260a0808401519082015260c0808401519082015260e080840151908201526101008084015190820152610120808401519082015261014080840151908201526101609150611743828401611424565b91810191909152949350505050565b600060208284031215611763578081fd5b5051919050565b6000806040838503121561177c578182fd5b505080516020909101519092909150565b600081518084526117a581602086016020860161199f565b601f01601f19169290920160200192915050565b600082516117cb81846020870161199f565b9190910192915050565b602081526000611126602083018461178d565b6060815260006117fb606083018661178d565b60208301949094525060400152919050565b608081526000611820608083018761178d565b6020830195909552506040810192909252606090910152919050565b60006101a082019050825182526020830151602083015260408301516040830152606083015160608301526080830151608083015260a083015160a083015260c083015161189560c08401826001600160a01b03169052565b5060e08301516118b060e08401826001600160a01b03169052565b50610100838101516001600160a01b039081169184019190915261012080850151909116908301526101408084015160ff169083015261016080840151151590830152610180928301511515929091019190915290565b604051610180810167ffffffffffffffff8111828210171561192b5761192b6119e1565b60405290565b60008219821115611944576119446119cb565b500190565b60008261196457634e487b7160e01b81526012600452602481fd5b500490565b6000816000190483118215151615611983576119836119cb565b500290565b60008282101561199a5761199a6119cb565b500390565b60005b838110156119ba5781810151838201526020016119a2565b83811115610ca65750506000910152565b634e487b7160e01b600052601160045260246000fd5b634e487b7160e01b600052604160045260246000fd5b6001600160a01b0381168114611a0c57600080fd5b5056fe6861726468617420757064617465496e64657820636f6e736f6c653a206c546f6b656e20696e646578207c2074696d657374616d70426f72726f772066696e616c697a65207c616d6f756e747c6c61737455706461746554696d657374616d707c626f72726f77415052496e766573742066696e616c697a65207c616d6f756e747c6c546f6b656e496e746572657374496e6465787c626f72726f77415052a2646970667358221220f705df441915f3bb4cb9497971fb0e25acffa08f6fc999ebacb63d8be5c33a8164736f6c63430008040033",
  "devdoc": {
    "author": "ELYSIA",
    "kind": "dev",
    "methods": {
      "borrowAgainstABToken(address,address,uint256,uint256)": {
        "details": "Withdraws an amount of underlying asset from the reserve and burns the corresponding lTokens.",
        "params": {
          "borrowAmount": "borrowAmount*",
          "receiver": "The address that will receive the underlying asset"
        }
      },
      "getLTokenInterestIndex(address)": {
        "details": "Returns LToken Interest index of asset",
        "params": {
          "asset": "The address of the underlying asset of the reserve"
        },
        "returns": {
          "_0": "The LToken interest index of reserve"
        }
      },
      "getReserveData(address)": {
        "details": "Returns the state and configuration of the reserve",
        "params": {
          "asset": "The address of the underlying asset of the reserve"
        },
        "returns": {
          "_0": "The state of the reserve*"
        }
      },
      "investMoneyPool(address,address,uint256)": {
        "details": "Invests an amount of underlying asset and receive corresponding LTokens.",
        "params": {
          "account": "The address that will receive the LToken",
          "amount": "Investment amount*",
          "asset": "The address of the underlying asset to invest"
        }
      },
      "validateLTokenTransfer(address,address,address,uint256,uint256,uint256)": {
        "details": "Validate and finalize LToken transfer"
      },
      "withdrawMoneyPool(address,address,uint256)": {
        "details": "Withdraws an amount of underlying asset from the reserve and burns the corresponding lTokens.",
        "params": {
          "account": "The address that will receive the underlying asset",
          "amount": "Withdrawl amount*",
          "asset": "The address of the underlying asset to withdraw"
        }
      }
    },
    "title": "Main contract for ELYFI beta. This contract manages the ability to invest and withdraw cryptocurrency and create NFT-backed loans.",
    "version": 1
  },
  "userdoc": {
    "kind": "user",
    "methods": {
      "borrowAgainstABToken(address,address,uint256,uint256)": {
        "notice": "@param asset The address of the underlying asset to withdraw"
      },
      "validateLTokenTransfer(address,address,address,uint256,uint256,uint256)": {
        "notice": "In beta version, there's no need for validation"
      }
    },
    "notice": "This contract is beta version of ELYFI. The investor and borrower should approve the ELYFI moneypool contract to move their AssetBond token or ERC20 tokens on their behalf.*",
    "version": 1
  },
  "storageLayout": {
    "storage": [
      {
        "astId": 4828,
        "contract": "contracts/MoneyPool.sol:MoneyPool",
        "label": "_reserves",
        "offset": 0,
        "slot": "0",
        "type": "t_mapping(t_address,t_struct(ReserveData)5664_storage)"
      },
      {
        "astId": 4832,
        "contract": "contracts/MoneyPool.sol:MoneyPool",
        "label": "_reservesList",
        "offset": 0,
        "slot": "1",
        "type": "t_mapping(t_uint256,t_address)"
      },
      {
        "astId": 4834,
        "contract": "contracts/MoneyPool.sol:MoneyPool",
        "label": "_reserveCount",
        "offset": 0,
        "slot": "2",
        "type": "t_uint256"
      },
      {
        "astId": 4836,
        "contract": "contracts/MoneyPool.sol:MoneyPool",
        "label": "_maxReserveCount",
        "offset": 0,
        "slot": "3",
        "type": "t_uint256"
      },
      {
        "astId": 4838,
        "contract": "contracts/MoneyPool.sol:MoneyPool",
        "label": "_connector",
        "offset": 0,
        "slot": "4",
        "type": "t_address"
      }
    ],
    "types": {
      "t_address": {
        "encoding": "inplace",
        "label": "address",
        "numberOfBytes": "20"
      },
      "t_bool": {
        "encoding": "inplace",
        "label": "bool",
        "numberOfBytes": "1"
      },
      "t_mapping(t_address,t_struct(ReserveData)5664_storage)": {
        "encoding": "mapping",
        "key": "t_address",
        "label": "mapping(address => struct DataStruct.ReserveData)",
        "numberOfBytes": "32",
        "value": "t_struct(ReserveData)5664_storage"
      },
      "t_mapping(t_uint256,t_address)": {
        "encoding": "mapping",
        "key": "t_uint256",
        "label": "mapping(uint256 => address)",
        "numberOfBytes": "32",
        "value": "t_address"
      },
      "t_struct(ReserveData)5664_storage": {
        "encoding": "inplace",
        "label": "struct DataStruct.ReserveData",
        "members": [
          {
            "astId": 5639,
            "contract": "contracts/MoneyPool.sol:MoneyPool",
            "label": "moneyPoolFactor",
            "offset": 0,
            "slot": "0",
            "type": "t_uint256"
          },
          {
            "astId": 5641,
            "contract": "contracts/MoneyPool.sol:MoneyPool",
            "label": "lTokenInterestIndex",
            "offset": 0,
            "slot": "1",
            "type": "t_uint256"
          },
          {
            "astId": 5643,
            "contract": "contracts/MoneyPool.sol:MoneyPool",
            "label": "borrowAPR",
            "offset": 0,
            "slot": "2",
            "type": "t_uint256"
          },
          {
            "astId": 5645,
            "contract": "contracts/MoneyPool.sol:MoneyPool",
            "label": "supplyAPR",
            "offset": 0,
            "slot": "3",
            "type": "t_uint256"
          },
          {
            "astId": 5647,
            "contract": "contracts/MoneyPool.sol:MoneyPool",
            "label": "totalDepositedAssetBondCount",
            "offset": 0,
            "slot": "4",
            "type": "t_uint256"
          },
          {
            "astId": 5649,
            "contract": "contracts/MoneyPool.sol:MoneyPool",
            "label": "lastUpdateTimestamp",
            "offset": 0,
            "slot": "5",
            "type": "t_uint256"
          },
          {
            "astId": 5651,
            "contract": "contracts/MoneyPool.sol:MoneyPool",
            "label": "lTokenAddress",
            "offset": 0,
            "slot": "6",
            "type": "t_address"
          },
          {
            "astId": 5653,
            "contract": "contracts/MoneyPool.sol:MoneyPool",
            "label": "dTokenAddress",
            "offset": 0,
            "slot": "7",
            "type": "t_address"
          },
          {
            "astId": 5655,
            "contract": "contracts/MoneyPool.sol:MoneyPool",
            "label": "interestModelAddress",
            "offset": 0,
            "slot": "8",
            "type": "t_address"
          },
          {
            "astId": 5657,
            "contract": "contracts/MoneyPool.sol:MoneyPool",
            "label": "tokenizerAddress",
            "offset": 0,
            "slot": "9",
            "type": "t_address"
          },
          {
            "astId": 5659,
            "contract": "contracts/MoneyPool.sol:MoneyPool",
            "label": "id",
            "offset": 20,
            "slot": "9",
            "type": "t_uint8"
          },
          {
            "astId": 5661,
            "contract": "contracts/MoneyPool.sol:MoneyPool",
            "label": "isPaused",
            "offset": 21,
            "slot": "9",
            "type": "t_bool"
          },
          {
            "astId": 5663,
            "contract": "contracts/MoneyPool.sol:MoneyPool",
            "label": "isActivated",
            "offset": 22,
            "slot": "9",
            "type": "t_bool"
          }
        ],
        "numberOfBytes": "320"
      },
      "t_uint256": {
        "encoding": "inplace",
        "label": "uint256",
        "numberOfBytes": "32"
      },
      "t_uint8": {
        "encoding": "inplace",
        "label": "uint8",
        "numberOfBytes": "1"
      }
    }
  }
}