{
  "address": "0x375B34823cF4564ddC14DF4c5798a3a59ce666c2",
  "abi": [
    {
      "inputs": [
        {
          "internalType": "address",
          "name": "connector",
          "type": "address"
        },
        {
          "internalType": "string",
          "name": "name_",
          "type": "string"
        },
        {
          "internalType": "string",
          "name": "symbol_",
          "type": "string"
        }
      ],
      "stateMutability": "nonpayable",
      "type": "constructor"
    },
    {
      "anonymous": false,
      "inputs": [
        {
          "indexed": true,
          "internalType": "address",
          "name": "owner",
          "type": "address"
        },
        {
          "indexed": true,
          "internalType": "address",
          "name": "approved",
          "type": "address"
        },
        {
          "indexed": true,
          "internalType": "uint256",
          "name": "tokenId",
          "type": "uint256"
        }
      ],
      "name": "Approval",
      "type": "event"
    },
    {
      "anonymous": false,
      "inputs": [
        {
          "indexed": true,
          "internalType": "address",
          "name": "owner",
          "type": "address"
        },
        {
          "indexed": true,
          "internalType": "address",
          "name": "operator",
          "type": "address"
        },
        {
          "indexed": false,
          "internalType": "bool",
          "name": "approved",
          "type": "bool"
        }
      ],
      "name": "ApprovalForAll",
      "type": "event"
    },
    {
      "anonymous": false,
      "inputs": [
        {
          "indexed": true,
          "internalType": "address",
          "name": "account",
          "type": "address"
        },
        {
          "indexed": false,
          "internalType": "uint256",
          "name": "tokenId",
          "type": "uint256"
        }
      ],
      "name": "EmptyABTokenMinted",
      "type": "event"
    },
    {
      "anonymous": false,
      "inputs": [
        {
          "indexed": true,
          "internalType": "address",
          "name": "asset",
          "type": "address"
        },
        {
          "indexed": true,
          "internalType": "address",
          "name": "account",
          "type": "address"
        },
        {
          "indexed": false,
          "internalType": "uint256",
          "name": "amount",
          "type": "uint256"
        }
      ],
      "name": "Invest",
      "type": "event"
    },
    {
      "anonymous": false,
      "inputs": [
        {
          "indexed": true,
          "internalType": "address",
          "name": "from",
          "type": "address"
        },
        {
          "indexed": true,
          "internalType": "address",
          "name": "to",
          "type": "address"
        },
        {
          "indexed": true,
          "internalType": "uint256",
          "name": "tokenId",
          "type": "uint256"
        }
      ],
      "name": "Transfer",
      "type": "event"
    },
    {
      "anonymous": false,
      "inputs": [
        {
          "indexed": true,
          "internalType": "address",
          "name": "asset",
          "type": "address"
        },
        {
          "indexed": true,
          "internalType": "address",
          "name": "account",
          "type": "address"
        },
        {
          "indexed": true,
          "internalType": "address",
          "name": "to",
          "type": "address"
        },
        {
          "indexed": false,
          "internalType": "uint256",
          "name": "amount",
          "type": "uint256"
        }
      ],
      "name": "Withdraw",
      "type": "event"
    },
    {
      "inputs": [
        {
          "internalType": "address",
          "name": "to",
          "type": "address"
        },
        {
          "internalType": "uint256",
          "name": "tokenId",
          "type": "uint256"
        }
      ],
      "name": "approve",
      "outputs": [],
      "stateMutability": "nonpayable",
      "type": "function"
    },
    {
      "inputs": [
        {
          "internalType": "address",
          "name": "owner",
          "type": "address"
        }
      ],
      "name": "balanceOf",
      "outputs": [
        {
          "internalType": "uint256",
          "name": "",
          "type": "uint256"
        }
      ],
      "stateMutability": "view",
      "type": "function"
    },
    {
      "inputs": [
        {
          "internalType": "address",
          "name": "account",
          "type": "address"
        },
        {
          "internalType": "uint256",
          "name": "tokenId",
          "type": "uint256"
        },
        {
          "internalType": "uint256",
          "name": "borrowAmount",
          "type": "uint256"
        },
        {
          "internalType": "uint256",
          "name": "borrowAPR",
          "type": "uint256"
        }
      ],
      "name": "collateralizeAssetBond",
      "outputs": [],
      "stateMutability": "nonpayable",
      "type": "function"
    },
    {
      "inputs": [
        {
          "internalType": "uint256",
          "name": "tokenId",
          "type": "uint256"
        }
      ],
      "name": "getApproved",
      "outputs": [
        {
          "internalType": "address",
          "name": "",
          "type": "address"
        }
      ],
      "stateMutability": "view",
      "type": "function"
    },
    {
      "inputs": [
        {
          "internalType": "uint256",
          "name": "tokenId",
          "type": "uint256"
        }
      ],
      "name": "getAssetBondData",
      "outputs": [
        {
          "components": [
            {
              "internalType": "address",
              "name": "asset",
              "type": "address"
            },
            {
              "internalType": "address",
              "name": "borrower",
              "type": "address"
            },
            {
              "internalType": "address",
              "name": "lawfirm",
              "type": "address"
            },
            {
              "internalType": "string",
              "name": "ipfsHash",
              "type": "string"
            },
            {
              "internalType": "uint256",
              "name": "collateralValue",
              "type": "uint256"
            },
            {
              "internalType": "uint256",
              "name": "borrowAPR",
              "type": "uint256"
            },
            {
              "internalType": "uint256",
              "name": "sign",
              "type": "uint256"
            },
            {
              "internalType": "uint256",
              "name": "issuanceDate",
              "type": "uint256"
            },
            {
              "internalType": "uint256",
              "name": "dueDate",
              "type": "uint256"
            },
            {
              "internalType": "uint256",
              "name": "maturityDate",
              "type": "uint256"
            },
            {
              "internalType": "uint256",
              "name": "lastUpdateTimestamp",
              "type": "uint256"
            },
            {
              "internalType": "enum DataStruct.AssetBondState",
              "name": "state",
              "type": "uint8"
            }
          ],
          "internalType": "struct DataStruct.AssetBondData",
          "name": "",
          "type": "tuple"
        }
      ],
      "stateMutability": "view",
      "type": "function"
    },
    {
      "inputs": [
        {
          "internalType": "uint256",
          "name": "tokenId",
          "type": "uint256"
        }
      ],
      "name": "getMinter",
      "outputs": [
        {
          "internalType": "address",
          "name": "",
          "type": "address"
        }
      ],
      "stateMutability": "view",
      "type": "function"
    },
    {
      "inputs": [],
      "name": "getTokenizerData",
      "outputs": [
        {
          "components": [
            {
              "internalType": "address",
              "name": "asset",
              "type": "address"
            },
            {
              "internalType": "uint256",
              "name": "averageATokenAPR",
              "type": "uint256"
            },
            {
              "internalType": "uint256",
              "name": "totalATokenSupply",
              "type": "uint256"
            },
            {
              "internalType": "uint256",
              "name": "lastUpdateTimestamp",
              "type": "uint256"
            }
          ],
          "internalType": "struct DataStruct.TokenizerData",
          "name": "",
          "type": "tuple"
        }
      ],
      "stateMutability": "view",
      "type": "function"
    },
    {
      "inputs": [
        {
          "internalType": "address",
          "name": "owner",
          "type": "address"
        },
        {
          "internalType": "address",
          "name": "operator",
          "type": "address"
        }
      ],
      "name": "isApprovedForAll",
      "outputs": [
        {
          "internalType": "bool",
          "name": "",
          "type": "bool"
        }
      ],
      "stateMutability": "view",
      "type": "function"
    },
    {
      "inputs": [
        {
          "internalType": "address",
          "name": "account",
          "type": "address"
        },
        {
          "internalType": "uint256",
          "name": "tokenId",
          "type": "uint256"
        }
      ],
      "name": "mintABToken",
      "outputs": [],
      "stateMutability": "nonpayable",
      "type": "function"
    },
    {
      "inputs": [],
      "name": "name",
      "outputs": [
        {
          "internalType": "string",
          "name": "",
          "type": "string"
        }
      ],
      "stateMutability": "view",
      "type": "function"
    },
    {
      "inputs": [
        {
          "internalType": "uint256",
          "name": "tokenId",
          "type": "uint256"
        }
      ],
      "name": "ownerOf",
      "outputs": [
        {
          "internalType": "address",
          "name": "",
          "type": "address"
        }
      ],
      "stateMutability": "view",
      "type": "function"
    },
    {
      "inputs": [
        {
          "internalType": "address",
          "name": "account",
          "type": "address"
        },
        {
          "internalType": "uint256",
          "name": "tokenId",
          "type": "uint256"
        }
      ],
      "name": "releaseAssetBond",
      "outputs": [],
      "stateMutability": "nonpayable",
      "type": "function"
    },
    {
      "inputs": [
        {
          "internalType": "address",
          "name": "from",
          "type": "address"
        },
        {
          "internalType": "address",
          "name": "to",
          "type": "address"
        },
        {
          "internalType": "uint256",
          "name": "tokenId",
          "type": "uint256"
        }
      ],
      "name": "safeTransferFrom",
      "outputs": [],
      "stateMutability": "nonpayable",
      "type": "function"
    },
    {
      "inputs": [
        {
          "internalType": "address",
          "name": "from",
          "type": "address"
        },
        {
          "internalType": "address",
          "name": "to",
          "type": "address"
        },
        {
          "internalType": "uint256",
          "name": "tokenId",
          "type": "uint256"
        },
        {
          "internalType": "bytes",
          "name": "_data",
          "type": "bytes"
        }
      ],
      "name": "safeTransferFrom",
      "outputs": [],
      "stateMutability": "nonpayable",
      "type": "function"
    },
    {
      "inputs": [
        {
          "internalType": "address",
          "name": "operator",
          "type": "address"
        },
        {
          "internalType": "bool",
          "name": "approved",
          "type": "bool"
        }
      ],
      "name": "setApprovalForAll",
      "outputs": [],
      "stateMutability": "nonpayable",
      "type": "function"
    },
    {
      "inputs": [
        {
          "internalType": "address",
          "name": "asset",
          "type": "address"
        },
        {
          "internalType": "address",
          "name": "borrower",
          "type": "address"
        },
        {
          "internalType": "address",
          "name": "lawfirm",
          "type": "address"
        },
        {
          "internalType": "uint256",
          "name": "tokenId",
          "type": "uint256"
        },
        {
          "internalType": "uint256",
          "name": "collateralValue",
          "type": "uint256"
        },
        {
          "internalType": "uint256",
          "name": "dueDate",
          "type": "uint256"
        },
        {
          "internalType": "string",
          "name": "ipfsHash",
          "type": "string"
        }
      ],
      "name": "settleABToken",
      "outputs": [],
      "stateMutability": "nonpayable",
      "type": "function"
    },
    {
      "inputs": [
        {
          "internalType": "uint256",
          "name": "tokenId",
          "type": "uint256"
        },
        {
          "internalType": "address",
          "name": "signer",
          "type": "address"
        }
      ],
      "name": "signABToken",
      "outputs": [],
      "stateMutability": "nonpayable",
      "type": "function"
    },
    {
      "inputs": [
        {
          "internalType": "bytes4",
          "name": "interfaceId",
          "type": "bytes4"
        }
      ],
      "name": "supportsInterface",
      "outputs": [
        {
          "internalType": "bool",
          "name": "",
          "type": "bool"
        }
      ],
      "stateMutability": "view",
      "type": "function"
    },
    {
      "inputs": [],
      "name": "symbol",
      "outputs": [
        {
          "internalType": "string",
          "name": "",
          "type": "string"
        }
      ],
      "stateMutability": "view",
      "type": "function"
    },
    {
      "inputs": [
        {
          "internalType": "uint256",
          "name": "tokenId",
          "type": "uint256"
        }
      ],
      "name": "tokenURI",
      "outputs": [
        {
          "internalType": "string",
          "name": "",
          "type": "string"
        }
      ],
      "stateMutability": "view",
      "type": "function"
    },
    {
      "inputs": [
        {
          "internalType": "address",
          "name": "from",
          "type": "address"
        },
        {
          "internalType": "address",
          "name": "to",
          "type": "address"
        },
        {
          "internalType": "uint256",
          "name": "tokenId",
          "type": "uint256"
        }
      ],
      "name": "transferFrom",
      "outputs": [],
      "stateMutability": "nonpayable",
      "type": "function"
    }
  ],
  "transactionHash": "0x6c287951e7ca80b630868208d60cd4a75174f2f74319ad96ed41a598cba0ed36",
  "args": [
    "0x0F7De21f422F179cE5394F23f1C680F4797119F8",
    "testTokenizer",
    "T"
  ],
  "solcInputHash": "6384bc112e4cb10a01932abc66540276",
  "bytecode": "0x60806040523480156200001157600080fd5b5060405162002229380380620022298339810160408190526200003491620001e9565b8151829082906200004d90600990602085019062000090565b5080516200006390600a90602084019062000090565b5050600080546001600160a01b0319166001600160a01b03959095169490941790935550620002c2915050565b8280546200009e906200026f565b90600052602060002090601f016020900481019282620000c257600085556200010d565b82601f10620000dd57805160ff19168380011785556200010d565b828001600101855582156200010d579182015b828111156200010d578251825591602001919060010190620000f0565b506200011b9291506200011f565b5090565b5b808211156200011b576000815560010162000120565b600082601f83011262000147578081fd5b81516001600160401b0380821115620001645762000164620002ac565b604051601f8301601f19908116603f011681019082821181831017156200018f576200018f620002ac565b81604052838152602092508683858801011115620001ab578485fd5b8491505b83821015620001ce5785820183015181830184015290820190620001af565b83821115620001df57848385830101525b9695505050505050565b600080600060608486031215620001fe578283fd5b83516001600160a01b038116811462000215578384fd5b60208501519093506001600160401b038082111562000232578384fd5b620002408783880162000136565b9350604086015191508082111562000256578283fd5b50620002658682870162000136565b9150509250925092565b600181811c908216806200028457607f821691505b60208210811415620002a657634e487b7160e01b600052602260045260246000fd5b50919050565b634e487b7160e01b600052604160045260246000fd5b611f5780620002d26000396000f3fe608060405234801561001057600080fd5b50600436106101375760003560e01c80636352211e116100b857806395d89b411161007c57806395d89b41146102eb57806399c01658146102f3578063a22cb46514610306578063b88d4fde14610319578063c87b56dd1461032c578063e985e9c51461033f57600080fd5b80636352211e146102715780636899311a146102845780636e5936731461029757806370a08231146102aa5780638268b24e146102cb57600080fd5b806323b872dd116100ff57806323b872dd146101cc5780633d437e89146101df57806342842e0e146101f1578063539583d0146102045780635b7121f81461024857600080fd5b806301ffc9a71461013c578063059b20501461016457806306fdde0314610179578063081812fc1461018e578063095ea7b3146101b9575b600080fd5b61014f61014a366004611a85565b61037b565b60405190151581526020015b60405180910390f35b610177610172366004611881565b6103cd565b005b6101816103f3565b60405161015b9190611bb1565b6101a161019c366004611abd565b610485565b6040516001600160a01b03909116815260200161015b565b6101776101c7366004611a08565b61051f565b6101776101da36600461191e565b610635565b6101776101ed366004611ad5565b5050565b6101776101ff36600461191e565b610666565b61020c610681565b60405161015b919081516001600160a01b0316815260208083015190820152604080830151908201526060918201519181019190915260800190565b6101a1610256366004611abd565b6000908152600260205260409020546001600160a01b031690565b6101a161027f366004611abd565b6106eb565b610177610292366004611a31565b610762565b6101776102a5366004611a08565b610830565b6102bd6102b8366004611835565b6108bf565b60405190815260200161015b565b6102de6102d9366004611abd565b610946565b60405161015b9190611c96565b610181610aca565b610177610301366004611a08565b610ad9565b6101776103143660046119d2565b610c81565b610177610327366004611959565b610d46565b61018161033a366004611abd565b610d7e565b61014f61034d36600461184f565b6001600160a01b039182166000908152600e6020908152604080832093909416825291909152205460ff1690565b60006001600160e01b031982166380ac58cd60e01b14806103ac57506001600160e01b03198216635b5e139f60e01b145b806103c757506301ffc9a760e01b6001600160e01b03198316145b92915050565b60008481526008602052604090206103ea90888888878787610e66565b50505050505050565b60606009805461040290611e03565b80601f016020809104026020016040519081016040528092919081815260200182805461042e90611e03565b801561047b5780601f106104505761010080835404028352916020019161047b565b820191906000526020600020905b81548152906001019060200180831161045e57829003601f168201915b5050505050905090565b6000818152600b60205260408120546001600160a01b03166105035760405162461bcd60e51b815260206004820152602c60248201527f4552433732313a20617070726f76656420717565727920666f72206e6f6e657860448201526b34b9ba32b73a103a37b5b2b760a11b60648201526084015b60405180910390fd5b506000908152600d60205260409020546001600160a01b031690565b600061052a826106eb565b9050806001600160a01b0316836001600160a01b031614156105985760405162461bcd60e51b815260206004820152602160248201527f4552433732313a20617070726f76616c20746f2063757272656e74206f776e656044820152603960f91b60648201526084016104fa565b336001600160a01b03821614806105b457506105b4813361034d565b6106265760405162461bcd60e51b815260206004820152603860248201527f4552433732313a20617070726f76652063616c6c6572206973206e6f74206f7760448201527f6e6572206e6f7220617070726f76656420666f7220616c6c000000000000000060648201526084016104fa565b6106308383610ee3565b505050565b61063f3382610f51565b61065b5760405162461bcd60e51b81526004016104fa90611c45565b610630838383611048565b61063083838360405180602001604052806000815250610d46565b6106b5604051806080016040528060006001600160a01b031681526020016000815260200160008152602001600081525090565b50604080516080810182526004546001600160a01b03168152600554602082015260065491810191909152600754606082015290565b6000818152600b60205260408120546001600160a01b0316806103c75760405162461bcd60e51b815260206004820152602960248201527f4552433732313a206f776e657220717565727920666f72206e6f6e657869737460448201526832b73a103a37b5b2b760b91b60648201526084016104fa565b600054604051630c78f33d60e21b81523360048201526001600160a01b03909116906331e3ccf49060240160206040518083038186803b1580156107a557600080fd5b505afa1580156107b9573d6000803e3d6000fd5b505050506040513d601f19601f820116820180604052508101906107dd9190611a69565b6107e657600080fd5b60008381526008602052604090206107ff8184846111e8565b6108296040518060800160405280604e8152602001611ed4604e9139600654600554859190611234565b5050505050565b600054604051630c78f33d60e21b81523360048201526001600160a01b03909116906331e3ccf49060240160206040518083038186803b15801561087357600080fd5b505afa158015610887573d6000803e3d6000fd5b505050506040513d601f19601f820116820180604052508101906108ab9190611a69565b6108b457600080fd5b600052506008602052565b60006001600160a01b03821661092a5760405162461bcd60e51b815260206004820152602a60248201527f4552433732313a2062616c616e636520717565727920666f7220746865207a65604482015269726f206164647265737360b01b60648201526084016104fa565b506001600160a01b03166000908152600c602052604090205490565b61094e611670565b60008281526008602090815260409182902082516101808101845281546001600160a01b03908116825260018301548116938201939093526002820154909216928201929092526003820180549192916060840191906109ad90611e03565b80601f01602080910402602001604051908101604052809291908181526020018280546109d990611e03565b8015610a265780601f106109fb57610100808354040283529160200191610a26565b820191906000526020600020905b815481529060010190602001808311610a0957829003601f168201915b50505091835250506004820154602082015260058083015460408301526006830154606083015260078301546080830152600883015460a0830152600983015460c0830152600a83015460e0830152600b8301546101009092019160ff1690811115610aa257634e487b7160e01b600052602160045260246000fd5b6005811115610ac157634e487b7160e01b600052602160045260246000fd5b90525092915050565b6060600a805461040290611e03565b60005460405163ae8b799760e01b81523360048201526001600160a01b039091169063ae8b79979060240160206040518083038186803b158015610b1c57600080fd5b505afa158015610b30573d6000803e3d6000fd5b505050506040513d601f19601f82011682018060405250810190610b549190611a69565b610b5d57600080fd5b6000818152600260205260409020546001600160a01b031615610b7f57600080fd5b60005460405163ae8b799760e01b81526001600160a01b0384811660048301529091169063ae8b79979060240160206040518083038186803b158015610bc457600080fd5b505afa158015610bd8573d6000803e3d6000fd5b505050506040513d601f19601f82011682018060405250810190610bfc9190611a69565b610c0557600080fd5b610c1f828260405180602001604052806000815250611280565b60008181526002602090815260409182902080546001600160a01b0319166001600160a01b03861690811790915591518381527fc407c36d93bef74b6f92fb173436baeaa172ed100896497215570848ea4622bd910160405180910390a25050565b6001600160a01b038216331415610cda5760405162461bcd60e51b815260206004820152601960248201527f4552433732313a20617070726f766520746f2063616c6c65720000000000000060448201526064016104fa565b336000818152600e602090815260408083206001600160a01b03871680855290835292819020805460ff191686151590811790915590519081529192917f17307eab39ab6107e8899845ad3d59bd9653f200f220920489ca2b5937696c31910160405180910390a35050565b610d503383610f51565b610d6c5760405162461bcd60e51b81526004016104fa90611c45565b610d78848484846112b3565b50505050565b6000818152600b60205260409020546060906001600160a01b0316610dfd5760405162461bcd60e51b815260206004820152602f60248201527f4552433732314d657461646174613a2055524920717565727920666f72206e6f60448201526e3732bc34b9ba32b73a103a37b5b2b760891b60648201526084016104fa565b6000610e1460408051602081019091526000815290565b90506000815111610e345760405180602001604052806000815250610e5f565b80610e3e846112e6565b604051602001610e4f929190611b45565b6040516020818303038152906040525b9392505050565b86546001600160a01b038088166001600160a01b03199283161789556001890180548883169084161790556002890180549187169190921617905560048701839055600887018290558051610ec4906003890190602084019061170a565b505042600a870155505050600b909201805460ff191660011790555050565b6000818152600d6020526040902080546001600160a01b0319166001600160a01b0384169081179091558190610f18826106eb565b6001600160a01b03167f8c5be1e5ebec7d5bd14f71427d1e84f3dd0314c0f7b2291e5b200ac8c7c3b92560405160405180910390a45050565b6000818152600b60205260408120546001600160a01b0316610fca5760405162461bcd60e51b815260206004820152602c60248201527f4552433732313a206f70657261746f7220717565727920666f72206e6f6e657860448201526b34b9ba32b73a103a37b5b2b760a11b60648201526084016104fa565b6000610fd5836106eb565b9050806001600160a01b0316846001600160a01b031614806110105750836001600160a01b031661100584610485565b6001600160a01b0316145b8061104057506001600160a01b038082166000908152600e602090815260408083209388168352929052205460ff165b949350505050565b826001600160a01b031661105b826106eb565b6001600160a01b0316146110c35760405162461bcd60e51b815260206004820152602960248201527f4552433732313a207472616e73666572206f6620746f6b656e2074686174206960448201526839903737ba1037bbb760b91b60648201526084016104fa565b6001600160a01b0382166111255760405162461bcd60e51b8152602060048201526024808201527f4552433732313a207472616e7366657220746f20746865207a65726f206164646044820152637265737360e01b60648201526084016104fa565b611130600082610ee3565b6001600160a01b0383166000908152600c60205260408120805460019290611159908490611dc0565b90915550506001600160a01b0382166000908152600c60205260408120805460019290611187908490611d75565b90915550506000818152600b602052604080822080546001600160a01b0319166001600160a01b0386811691821790925591518493918716917fddf252ad1be2c89b69c2b068fc378daa952ba7f163c4a11628f55a4df523b3ef91a4505050565b60058301819055600b8301805460ff1916600317905542600a84018190556007840155600883015461121d9062015180611da1565b6112279042611d75565b8360090181905550505050565b610d788484848460405160240161124e9493929190611bc4565b60408051601f198184030181529190526020810180516001600160e01b03166304772b3360e11b179052611400565b50565b61128a8383611421565b6112976000848484611563565b6106305760405162461bcd60e51b81526004016104fa90611bf3565b6112be848484611048565b6112ca84848484611563565b610d785760405162461bcd60e51b81526004016104fa90611bf3565b60608161130a5750506040805180820190915260018152600360fc1b602082015290565b8160005b8115611334578061131e81611e3e565b915061132d9050600a83611d8d565b915061130e565b60008167ffffffffffffffff81111561135d57634e487b7160e01b600052604160045260246000fd5b6040519080825280601f01601f191660200182016040528015611387576020820181803683370190505b5090505b84156110405761139c600183611dc0565b91506113a9600a86611e59565b6113b4906030611d75565b60f81b8183815181106113d757634e487b7160e01b600052603260045260246000fd5b60200101906001600160f81b031916908160001a9053506113f9600a86611d8d565b945061138b565b80516a636f6e736f6c652e6c6f67602083016000808483855afa5050505050565b6001600160a01b0382166114775760405162461bcd60e51b815260206004820181905260248201527f4552433732313a206d696e7420746f20746865207a65726f206164647265737360448201526064016104fa565b6000818152600b60205260409020546001600160a01b0316156114dc5760405162461bcd60e51b815260206004820152601c60248201527f4552433732313a20746f6b656e20616c7265616479206d696e7465640000000060448201526064016104fa565b6001600160a01b0382166000908152600c60205260408120805460019290611505908490611d75565b90915550506000818152600b602052604080822080546001600160a01b0319166001600160a01b03861690811790915590518392907fddf252ad1be2c89b69c2b068fc378daa952ba7f163c4a11628f55a4df523b3ef908290a45050565b60006001600160a01b0384163b1561166557604051630a85bd0160e11b81526001600160a01b0385169063150b7a02906115a7903390899088908890600401611b74565b602060405180830381600087803b1580156115c157600080fd5b505af19250505080156115f1575060408051601f3d908101601f191682019092526115ee91810190611aa1565b60015b61164b573d80801561161f576040519150601f19603f3d011682016040523d82523d6000602084013e611624565b606091505b5080516116435760405162461bcd60e51b81526004016104fa90611bf3565b805181602001fd5b6001600160e01b031916630a85bd0160e11b149050611040565b506001949350505050565b60405180610180016040528060006001600160a01b0316815260200160006001600160a01b0316815260200160006001600160a01b0316815260200160608152602001600081526020016000815260200160008152602001600081526020016000815260200160008152602001600081526020016000600581111561170557634e487b7160e01b600052602160045260246000fd5b905290565b82805461171690611e03565b90600052602060002090601f016020900481019282611738576000855561177e565b82601f1061175157805160ff191683800117855561177e565b8280016001018555821561177e579182015b8281111561177e578251825591602001919060010190611763565b5061178a92915061178e565b5090565b5b8082111561178a576000815560010161178f565b600067ffffffffffffffff808411156117be576117be611e99565b604051601f8501601f19908116603f011681019082821181831017156117e6576117e6611e99565b816040528093508581528686860111156117ff57600080fd5b858560208301376000602087830101525050509392505050565b80356001600160a01b038116811461183057600080fd5b919050565b600060208284031215611846578081fd5b610e5f82611819565b60008060408385031215611861578081fd5b61186a83611819565b915061187860208401611819565b90509250929050565b600080600080600080600060e0888a03121561189b578283fd5b6118a488611819565b96506118b260208901611819565b95506118c060408901611819565b9450606088013593506080880135925060a0880135915060c088013567ffffffffffffffff8111156118f0578182fd5b8801601f81018a13611900578182fd5b61190f8a8235602084016117a3565b91505092959891949750929550565b600080600060608486031215611932578283fd5b61193b84611819565b925061194960208501611819565b9150604084013590509250925092565b6000806000806080858703121561196e578384fd5b61197785611819565b935061198560208601611819565b925060408501359150606085013567ffffffffffffffff8111156119a7578182fd5b8501601f810187136119b7578182fd5b6119c6878235602084016117a3565b91505092959194509250565b600080604083850312156119e4578182fd5b6119ed83611819565b915060208301356119fd81611eaf565b809150509250929050565b60008060408385031215611a1a578182fd5b611a2383611819565b946020939093013593505050565b60008060008060808587031215611a46578384fd5b611a4f85611819565b966020860135965060408601359560600135945092505050565b600060208284031215611a7a578081fd5b8151610e5f81611eaf565b600060208284031215611a96578081fd5b8135610e5f81611ebd565b600060208284031215611ab2578081fd5b8151610e5f81611ebd565b600060208284031215611ace578081fd5b5035919050565b60008060408385031215611ae7578182fd5b8235915061187860208401611819565b60008151808452611b0f816020860160208601611dd7565b601f01601f19169290920160200192915050565b60068110611b4157634e487b7160e01b600052602160045260246000fd5b9052565b60008351611b57818460208801611dd7565b835190830190611b6b818360208801611dd7565b01949350505050565b6001600160a01b0385811682528416602082015260408101839052608060608201819052600090611ba790830184611af7565b9695505050505050565b602081526000610e5f6020830184611af7565b608081526000611bd76080830187611af7565b6020830195909552506040810192909252606090910152919050565b60208082526032908201527f4552433732313a207472616e7366657220746f206e6f6e20455243373231526560408201527131b2b4bb32b91034b6b83632b6b2b73a32b960711b606082015260800190565b60208082526031908201527f4552433732313a207472616e736665722063616c6c6572206973206e6f74206f6040820152701ddb995c881b9bdc88185c1c1c9bdd9959607a1b606082015260800190565b60208152611cb06020820183516001600160a01b03169052565b60006020830151611ccc60408401826001600160a01b03169052565b5060408301516001600160a01b0381166060840152506060830151610180806080850152611cfe6101a0850183611af7565b9150608085015160a085015260a085015160c085015260c085015160e085015260e0850151610100818187015280870151915050610120818187015280870151915050610140818187015280870151915050610160818187015280870151915050611d6b82860182611b23565b5090949350505050565b60008219821115611d8857611d88611e6d565b500190565b600082611d9c57611d9c611e83565b500490565b6000816000190483118215151615611dbb57611dbb611e6d565b500290565b600082821015611dd257611dd2611e6d565b500390565b60005b83811015611df2578181015183820152602001611dda565b83811115610d785750506000910152565b600181811c90821680611e1757607f821691505b60208210811415611e3857634e487b7160e01b600052602260045260246000fd5b50919050565b6000600019821415611e5257611e52611e6d565b5060010190565b600082611e6857611e68611e83565b500690565b634e487b7160e01b600052601160045260246000fd5b634e487b7160e01b600052601260045260246000fd5b634e487b7160e01b600052604160045260246000fd5b801515811461127d57600080fd5b6001600160e01b03198116811461127d57600080fdfe68617264686174206465706f736974204142546f6b656e20546f6b656e697a6572207c20626f72726f77415052207c20746f74616c537570706c79207c206176657261676541546f6b656e415052a26469706673582212207233324891da9aef405f842e04c5e591df65d3cf924de624e821e5c4702479a964736f6c63430008040033",
  "devdoc": {
    "author": "ELYSIA",
    "kind": "dev",
    "methods": {
      "approve(address,uint256)": {
        "details": "See {IERC721-approve}."
      },
      "balanceOf(address)": {
        "details": "See {IERC721-balanceOf}."
      },
      "getApproved(uint256)": {
        "details": "See {IERC721-getApproved}."
      },
      "getAssetBondData(uint256)": {
        "details": "Returns the state of the asset bond",
        "params": {
          "tokenId": "The asset bond tokenId"
        },
        "returns": {
          "_0": "The data of the asset bond*"
        }
      },
      "isApprovedForAll(address,address)": {
        "details": "See {IERC721-isApprovedForAll}."
      },
      "mintABToken(address,uint256)": {
        "params": {
          "account": "CSP address",
          "tokenId": "The tokenId is a unique identifier for asset bond."
        }
      },
      "name()": {
        "details": "See {IERC721Metadata-name}."
      },
      "ownerOf(uint256)": {
        "details": "See {IERC721-ownerOf}."
      },
      "safeTransferFrom(address,address,uint256)": {
        "details": "See {IERC721-safeTransferFrom}."
      },
      "safeTransferFrom(address,address,uint256,bytes)": {
        "details": "See {IERC721-safeTransferFrom}."
      },
      "setApprovalForAll(address,bool)": {
        "details": "See {IERC721-setApprovalForAll}."
      },
      "settleABToken(address,address,address,uint256,uint256,uint256,string)": {
        "params": {
          "borrower": "borrower",
          "collateralValue": "collateralValue in USD",
          "tokenId": "tokenId"
        }
      },
      "supportsInterface(bytes4)": {
        "details": "See {IERC165-supportsInterface}."
      },
      "symbol()": {
        "details": "See {IERC721Metadata-symbol}."
      },
      "tokenURI(uint256)": {
        "details": "See {IERC721Metadata-tokenURI}."
      },
      "transferFrom(address,address,uint256)": {
        "details": "See {IERC721-transferFrom}."
      }
    },
    "title": "ELYFI Tokenizer",
    "version": 1
  },
  "userdoc": {
    "kind": "user",
    "methods": {
      "mintABToken(address,uint256)": {
        "notice": "This function can be called by collateral service providers when they want to sign a contract. Borrowers who wants to take out a loan backed by real asset must enter into a contract with a collateral service provider to obtain a loan. Borrowers should submit various documents necessary for evaluating a loan secured by real assets to the collateral service provider."
      },
      "settleABToken(address,address,address,uint256,uint256,uint256,string)": {
        "notice": "This function is called after Based on the documents submitted by the loan applicant, risk analysis for the relevant asset is conducted, and the loan availability, maximum loanable amount and the interest rate between collateral service provider and borrower are calculated."
      }
    },
    "version": 1
  },
  "storageLayout": {
    "storage": [
      {
        "astId": 5167,
        "contract": "contracts/Tokenizer.sol:Tokenizer",
        "label": "_connector",
        "offset": 0,
        "slot": "0",
        "type": "t_contract(IConnector)5224"
      },
      {
        "astId": 5171,
        "contract": "contracts/Tokenizer.sol:Tokenizer",
        "label": "_tokenType",
        "offset": 0,
        "slot": "1",
        "type": "t_mapping(t_uint256,t_bytes32)"
      },
      {
        "astId": 5175,
        "contract": "contracts/Tokenizer.sol:Tokenizer",
        "label": "_minter",
        "offset": 0,
        "slot": "2",
        "type": "t_mapping(t_uint256,t_address)"
      },
      {
        "astId": 5177,
        "contract": "contracts/Tokenizer.sol:Tokenizer",
        "label": "_underlyingAsset",
        "offset": 0,
        "slot": "3",
        "type": "t_address"
      },
      {
        "astId": 5180,
        "contract": "contracts/Tokenizer.sol:Tokenizer",
        "label": "_tokenizerData",
        "offset": 0,
        "slot": "4",
        "type": "t_struct(TokenizerData)5706_storage"
      },
      {
        "astId": 5186,
        "contract": "contracts/Tokenizer.sol:Tokenizer",
        "label": "_assetBondData",
        "offset": 0,
        "slot": "8",
        "type": "t_mapping(t_uint256,t_struct(AssetBondData)5690_storage)"
      },
      {
        "astId": 859,
        "contract": "contracts/Tokenizer.sol:Tokenizer",
        "label": "_name",
        "offset": 0,
        "slot": "9",
        "type": "t_string_storage"
      },
      {
        "astId": 861,
        "contract": "contracts/Tokenizer.sol:Tokenizer",
        "label": "_symbol",
        "offset": 0,
        "slot": "10",
        "type": "t_string_storage"
      },
      {
        "astId": 865,
        "contract": "contracts/Tokenizer.sol:Tokenizer",
        "label": "_owners",
        "offset": 0,
        "slot": "11",
        "type": "t_mapping(t_uint256,t_address)"
      },
      {
        "astId": 869,
        "contract": "contracts/Tokenizer.sol:Tokenizer",
        "label": "_balances",
        "offset": 0,
        "slot": "12",
        "type": "t_mapping(t_address,t_uint256)"
      },
      {
        "astId": 873,
        "contract": "contracts/Tokenizer.sol:Tokenizer",
        "label": "_tokenApprovals",
        "offset": 0,
        "slot": "13",
        "type": "t_mapping(t_uint256,t_address)"
      },
      {
        "astId": 879,
        "contract": "contracts/Tokenizer.sol:Tokenizer",
        "label": "_operatorApprovals",
        "offset": 0,
        "slot": "14",
        "type": "t_mapping(t_address,t_mapping(t_address,t_bool))"
      }
    ],
    "types": {
      "t_address": {
        "encoding": "inplace",
        "label": "address",
        "numberOfBytes": "20"
      },
      "t_bool": {
        "encoding": "inplace",
        "label": "bool",
        "numberOfBytes": "1"
      },
      "t_bytes32": {
        "encoding": "inplace",
        "label": "bytes32",
        "numberOfBytes": "32"
      },
      "t_contract(IConnector)5224": {
        "encoding": "inplace",
        "label": "contract IConnector",
        "numberOfBytes": "20"
      },
      "t_enum(AssetBondState)5697": {
        "encoding": "inplace",
        "label": "enum DataStruct.AssetBondState",
        "numberOfBytes": "1"
      },
      "t_mapping(t_address,t_bool)": {
        "encoding": "mapping",
        "key": "t_address",
        "label": "mapping(address => bool)",
        "numberOfBytes": "32",
        "value": "t_bool"
      },
      "t_mapping(t_address,t_mapping(t_address,t_bool))": {
        "encoding": "mapping",
        "key": "t_address",
        "label": "mapping(address => mapping(address => bool))",
        "numberOfBytes": "32",
        "value": "t_mapping(t_address,t_bool)"
      },
      "t_mapping(t_address,t_uint256)": {
        "encoding": "mapping",
        "key": "t_address",
        "label": "mapping(address => uint256)",
        "numberOfBytes": "32",
        "value": "t_uint256"
      },
      "t_mapping(t_uint256,t_address)": {
        "encoding": "mapping",
        "key": "t_uint256",
        "label": "mapping(uint256 => address)",
        "numberOfBytes": "32",
        "value": "t_address"
      },
      "t_mapping(t_uint256,t_bytes32)": {
        "encoding": "mapping",
        "key": "t_uint256",
        "label": "mapping(uint256 => bytes32)",
        "numberOfBytes": "32",
        "value": "t_bytes32"
      },
      "t_mapping(t_uint256,t_struct(AssetBondData)5690_storage)": {
        "encoding": "mapping",
        "key": "t_uint256",
        "label": "mapping(uint256 => struct DataStruct.AssetBondData)",
        "numberOfBytes": "32",
        "value": "t_struct(AssetBondData)5690_storage"
      },
      "t_string_storage": {
        "encoding": "bytes",
        "label": "string",
        "numberOfBytes": "32"
      },
      "t_struct(AssetBondData)5690_storage": {
        "encoding": "inplace",
        "label": "struct DataStruct.AssetBondData",
        "members": [
          {
            "astId": 5666,
            "contract": "contracts/Tokenizer.sol:Tokenizer",
            "label": "asset",
            "offset": 0,
            "slot": "0",
            "type": "t_address"
          },
          {
            "astId": 5668,
            "contract": "contracts/Tokenizer.sol:Tokenizer",
            "label": "borrower",
            "offset": 0,
            "slot": "1",
            "type": "t_address"
          },
          {
            "astId": 5670,
            "contract": "contracts/Tokenizer.sol:Tokenizer",
            "label": "lawfirm",
            "offset": 0,
            "slot": "2",
            "type": "t_address"
          },
          {
            "astId": 5672,
            "contract": "contracts/Tokenizer.sol:Tokenizer",
            "label": "ipfsHash",
            "offset": 0,
            "slot": "3",
            "type": "t_string_storage"
          },
          {
            "astId": 5674,
            "contract": "contracts/Tokenizer.sol:Tokenizer",
            "label": "collateralValue",
            "offset": 0,
            "slot": "4",
            "type": "t_uint256"
          },
          {
            "astId": 5676,
            "contract": "contracts/Tokenizer.sol:Tokenizer",
            "label": "borrowAPR",
            "offset": 0,
            "slot": "5",
            "type": "t_uint256"
          },
          {
            "astId": 5678,
            "contract": "contracts/Tokenizer.sol:Tokenizer",
            "label": "sign",
            "offset": 0,
            "slot": "6",
            "type": "t_uint256"
          },
          {
            "astId": 5680,
            "contract": "contracts/Tokenizer.sol:Tokenizer",
            "label": "issuanceDate",
            "offset": 0,
            "slot": "7",
            "type": "t_uint256"
          },
          {
            "astId": 5682,
            "contract": "contracts/Tokenizer.sol:Tokenizer",
            "label": "dueDate",
            "offset": 0,
            "slot": "8",
            "type": "t_uint256"
          },
          {
            "astId": 5684,
            "contract": "contracts/Tokenizer.sol:Tokenizer",
            "label": "maturityDate",
            "offset": 0,
            "slot": "9",
            "type": "t_uint256"
          },
          {
            "astId": 5686,
            "contract": "contracts/Tokenizer.sol:Tokenizer",
            "label": "lastUpdateTimestamp",
            "offset": 0,
            "slot": "10",
            "type": "t_uint256"
          },
          {
            "astId": 5689,
            "contract": "contracts/Tokenizer.sol:Tokenizer",
            "label": "state",
            "offset": 0,
            "slot": "11",
            "type": "t_enum(AssetBondState)5697"
          }
        ],
        "numberOfBytes": "384"
      },
      "t_struct(TokenizerData)5706_storage": {
        "encoding": "inplace",
        "label": "struct DataStruct.TokenizerData",
        "members": [
          {
            "astId": 5699,
            "contract": "contracts/Tokenizer.sol:Tokenizer",
            "label": "asset",
            "offset": 0,
            "slot": "0",
            "type": "t_address"
          },
          {
            "astId": 5701,
            "contract": "contracts/Tokenizer.sol:Tokenizer",
            "label": "averageATokenAPR",
            "offset": 0,
            "slot": "1",
            "type": "t_uint256"
          },
          {
            "astId": 5703,
            "contract": "contracts/Tokenizer.sol:Tokenizer",
            "label": "totalATokenSupply",
            "offset": 0,
            "slot": "2",
            "type": "t_uint256"
          },
          {
            "astId": 5705,
            "contract": "contracts/Tokenizer.sol:Tokenizer",
            "label": "lastUpdateTimestamp",
            "offset": 0,
            "slot": "3",
            "type": "t_uint256"
          }
        ],
        "numberOfBytes": "128"
      },
      "t_uint256": {
        "encoding": "inplace",
        "label": "uint256",
        "numberOfBytes": "32"
      }
    }
  }
}