{
  "address": "0xf917147d8ED7b57C107D36576f4cCDe410ae29B6",
  "abi": [
    {
      "inputs": [
        {
          "internalType": "contract IMoneyPool",
          "name": "moneyPool",
          "type": "address"
        },
        {
          "internalType": "address",
          "name": "underlyingAsset_",
          "type": "address"
        },
        {
          "internalType": "string",
          "name": "name_",
          "type": "string"
        },
        {
          "internalType": "string",
          "name": "symbol_",
          "type": "string"
        }
      ],
      "stateMutability": "nonpayable",
      "type": "constructor"
    },
    {
      "anonymous": false,
      "inputs": [
        {
          "indexed": true,
          "internalType": "address",
          "name": "owner",
          "type": "address"
        },
        {
          "indexed": true,
          "internalType": "address",
          "name": "spender",
          "type": "address"
        },
        {
          "indexed": false,
          "internalType": "uint256",
          "name": "value",
          "type": "uint256"
        }
      ],
      "name": "Approval",
      "type": "event"
    },
    {
      "anonymous": false,
      "inputs": [
        {
          "indexed": true,
          "internalType": "address",
          "name": "account",
          "type": "address"
        },
        {
          "indexed": false,
          "internalType": "uint256",
          "name": "amount",
          "type": "uint256"
        },
        {
          "indexed": false,
          "internalType": "uint256",
          "name": "currentBalance",
          "type": "uint256"
        },
        {
          "indexed": false,
          "internalType": "uint256",
          "name": "balanceIncrease",
          "type": "uint256"
        },
        {
          "indexed": false,
          "internalType": "uint256",
          "name": "avgStableRate",
          "type": "uint256"
        },
        {
          "indexed": false,
          "internalType": "uint256",
          "name": "newTotalSupply",
          "type": "uint256"
        }
      ],
      "name": "Burn",
      "type": "event"
    },
    {
      "anonymous": false,
      "inputs": [
        {
          "indexed": true,
          "internalType": "address",
          "name": "account",
          "type": "address"
        },
        {
          "indexed": true,
          "internalType": "address",
          "name": "receiver",
          "type": "address"
        },
        {
          "indexed": false,
          "internalType": "uint256",
          "name": "amount",
          "type": "uint256"
        },
        {
          "indexed": false,
          "internalType": "uint256",
          "name": "currentBalance",
          "type": "uint256"
        },
        {
          "indexed": false,
          "internalType": "uint256",
          "name": "balanceIncrease",
          "type": "uint256"
        },
        {
          "indexed": false,
          "internalType": "uint256",
          "name": "newRate",
          "type": "uint256"
        },
        {
          "indexed": false,
          "internalType": "uint256",
          "name": "avgStableRate",
          "type": "uint256"
        },
        {
          "indexed": false,
          "internalType": "uint256",
          "name": "newTotalSupply",
          "type": "uint256"
        }
      ],
      "name": "Mint",
      "type": "event"
    },
    {
      "anonymous": false,
      "inputs": [
        {
          "indexed": true,
          "internalType": "address",
          "name": "from",
          "type": "address"
        },
        {
          "indexed": true,
          "internalType": "address",
          "name": "to",
          "type": "address"
        },
        {
          "indexed": false,
          "internalType": "uint256",
          "name": "value",
          "type": "uint256"
        }
      ],
      "name": "Transfer",
      "type": "event"
    },
    {
      "inputs": [],
      "name": "POOL",
      "outputs": [
        {
          "internalType": "contract IMoneyPool",
          "name": "",
          "type": "address"
        }
      ],
      "stateMutability": "view",
      "type": "function"
    },
    {
      "inputs": [
        {
          "internalType": "address",
          "name": "owner",
          "type": "address"
        },
        {
          "internalType": "address",
          "name": "spender",
          "type": "address"
        }
      ],
      "name": "allowance",
      "outputs": [
        {
          "internalType": "uint256",
          "name": "",
          "type": "uint256"
        }
      ],
      "stateMutability": "view",
      "type": "function"
    },
    {
      "inputs": [
        {
          "internalType": "address",
          "name": "spender",
          "type": "address"
        },
        {
          "internalType": "uint256",
          "name": "amount",
          "type": "uint256"
        }
      ],
      "name": "approve",
      "outputs": [
        {
          "internalType": "bool",
          "name": "",
          "type": "bool"
        }
      ],
      "stateMutability": "nonpayable",
      "type": "function"
    },
    {
      "inputs": [
        {
          "internalType": "address",
          "name": "account",
          "type": "address"
        }
      ],
      "name": "balanceOf",
      "outputs": [
        {
          "internalType": "uint256",
          "name": "",
          "type": "uint256"
        }
      ],
      "stateMutability": "view",
      "type": "function"
    },
    {
      "inputs": [
        {
          "internalType": "address",
          "name": "account",
          "type": "address"
        },
        {
          "internalType": "uint256",
          "name": "amount",
          "type": "uint256"
        }
      ],
      "name": "burn",
      "outputs": [],
      "stateMutability": "nonpayable",
      "type": "function"
    },
    {
      "inputs": [],
      "name": "decimals",
      "outputs": [
        {
          "internalType": "uint8",
          "name": "",
          "type": "uint8"
        }
      ],
      "stateMutability": "view",
      "type": "function"
    },
    {
      "inputs": [],
      "name": "getDTokenData",
      "outputs": [
        {
          "internalType": "uint256",
          "name": "",
          "type": "uint256"
        },
        {
          "internalType": "uint256",
          "name": "",
          "type": "uint256"
        },
        {
          "internalType": "uint256",
          "name": "",
          "type": "uint256"
        },
        {
          "internalType": "uint256",
          "name": "",
          "type": "uint256"
        }
      ],
      "stateMutability": "view",
      "type": "function"
    },
    {
      "inputs": [],
      "name": "getTotalAverageRealAssetBorrowRate",
      "outputs": [
        {
          "internalType": "uint256",
          "name": "",
          "type": "uint256"
        }
      ],
      "stateMutability": "view",
      "type": "function"
    },
    {
      "inputs": [],
      "name": "getTotalSupplyAndAvgRate",
      "outputs": [
        {
          "internalType": "uint256",
          "name": "",
          "type": "uint256"
        },
        {
          "internalType": "uint256",
          "name": "",
          "type": "uint256"
        }
      ],
      "stateMutability": "view",
      "type": "function"
    },
    {
      "inputs": [],
      "name": "getTotalSupplyLastUpdated",
      "outputs": [
        {
          "internalType": "uint256",
          "name": "",
          "type": "uint256"
        }
      ],
      "stateMutability": "view",
      "type": "function"
    },
    {
      "inputs": [
        {
          "internalType": "address",
          "name": "account",
          "type": "address"
        }
      ],
      "name": "getUserAverageRealAssetBorrowRate",
      "outputs": [
        {
          "internalType": "uint256",
          "name": "",
          "type": "uint256"
        }
      ],
      "stateMutability": "view",
      "type": "function"
    },
    {
      "inputs": [
        {
          "internalType": "address",
          "name": "account",
          "type": "address"
        }
      ],
      "name": "getUserLastUpdateTimestamp",
      "outputs": [
        {
          "internalType": "uint256",
          "name": "",
          "type": "uint256"
        }
      ],
      "stateMutability": "view",
      "type": "function"
    },
    {
      "inputs": [
        {
          "internalType": "address",
          "name": "account",
          "type": "address"
        },
        {
          "internalType": "address",
          "name": "receiver",
          "type": "address"
        },
        {
          "internalType": "uint256",
          "name": "amount",
          "type": "uint256"
        },
        {
          "internalType": "uint256",
          "name": "rate",
          "type": "uint256"
        }
      ],
      "name": "mint",
      "outputs": [],
      "stateMutability": "nonpayable",
      "type": "function"
    },
    {
      "inputs": [],
      "name": "name",
      "outputs": [
        {
          "internalType": "string",
          "name": "",
          "type": "string"
        }
      ],
      "stateMutability": "view",
      "type": "function"
    },
    {
      "inputs": [
        {
          "internalType": "address",
          "name": "account",
          "type": "address"
        }
      ],
      "name": "principalBalanceOf",
      "outputs": [
        {
          "internalType": "uint256",
          "name": "",
          "type": "uint256"
        }
      ],
      "stateMutability": "view",
      "type": "function"
    },
    {
      "inputs": [],
      "name": "symbol",
      "outputs": [
        {
          "internalType": "string",
          "name": "",
          "type": "string"
        }
      ],
      "stateMutability": "view",
      "type": "function"
    },
    {
      "inputs": [],
      "name": "totalSupply",
      "outputs": [
        {
          "internalType": "uint256",
          "name": "",
          "type": "uint256"
        }
      ],
      "stateMutability": "view",
      "type": "function"
    },
    {
      "inputs": [
        {
          "internalType": "address",
          "name": "recipient",
          "type": "address"
        },
        {
          "internalType": "uint256",
          "name": "amount",
          "type": "uint256"
        }
      ],
      "name": "transfer",
      "outputs": [
        {
          "internalType": "bool",
          "name": "",
          "type": "bool"
        }
      ],
      "stateMutability": "nonpayable",
      "type": "function"
    },
    {
      "inputs": [
        {
          "internalType": "address",
          "name": "sender",
          "type": "address"
        },
        {
          "internalType": "address",
          "name": "recipient",
          "type": "address"
        },
        {
          "internalType": "uint256",
          "name": "amount",
          "type": "uint256"
        }
      ],
      "name": "transferFrom",
      "outputs": [
        {
          "internalType": "bool",
          "name": "",
          "type": "bool"
        }
      ],
      "stateMutability": "nonpayable",
      "type": "function"
    }
  ],
  "transactionHash": "0x5b2853c428e4593f0399432a519206ff3ba72be6715633354b8112feb4be0639",
  "args": [
    "0xa93008fD32EB24E488DDAA6C0aA152559fDa9E8c",
    "0xA0b86991c6218b36c1d19D4a2e9Eb0cE3606eB48",
    "Elyfi_USDC_DToken",
    "ELFI_USDC_DToken"
  ],
  "solcInputHash": "efcd845ea837ae5482eec05fa8d312de",
  "bytecode": "0x60806040523480156200001157600080fd5b50604051620012c6380380620012c68339810160408190526200003491620001f3565b600880546001600160a01b038087166001600160a01b03199283161790925560098054928616929091169190911790558151620000799060069060208501906200009a565b5080516200008f9060079060208401906200009a565b5050505050620002f1565b828054620000a89062000285565b90600052602060002090601f016020900481019282620000cc576000855562000117565b82601f10620000e757805160ff191683800117855562000117565b8280016001018555821562000117579182015b8281111562000117578251825591602001919060010190620000fa565b506200012592915062000129565b5090565b5b808211156200012557600081556001016200012a565b600082601f83011262000151578081fd5b81516001600160401b03808211156200016e576200016e620002c2565b604051601f8301601f19908116603f01168101908282118183101715620001995762000199620002c2565b81604052838152602092508683858801011115620001b5578485fd5b8491505b83821015620001d85785820183015181830184015290820190620001b9565b83821115620001e957848385830101525b9695505050505050565b6000806000806080858703121562000209578384fd5b84516200021681620002d8565b60208601519094506200022981620002d8565b60408601519093506001600160401b038082111562000246578384fd5b620002548883890162000140565b935060608701519150808211156200026a578283fd5b50620002798782880162000140565b91505092959194509250565b600181811c908216806200029a57607f821691505b60208210811415620002bc57634e487b7160e01b600052602260045260246000fd5b50919050565b634e487b7160e01b600052604160045260246000fd5b6001600160a01b0381168114620002ee57600080fd5b50565b610fc580620003016000396000f3fe608060405234801561001057600080fd5b50600436106100f15760003560e01c806306fdde03146100f6578063095ea7b31461011457806318160ddd1461013757806323b872dd1461014d578063313ce5671461016057806366df70cc1461016f57806370a0823114610182578063723f319e146101955780637535d246146101bd57806395d89b41146101d85780639dc29fac146101e0578063a9059cbb146101f5578063ad7bcdf014610208578063b0d4fc5a14610231578063b3f1c93d14610239578063c634dfaa1461024c578063dd62ed3e14610275578063e748489014610288578063f731e9be14610290575b600080fd5b6100fe6102ad565b60405161010b9190610dee565b60405180910390f35b610127610122366004610dc5565b61033f565b604051901515815260200161010b565b61013f61038f565b60405190815260200161010b565b61012761015b366004610d49565b6103a1565b6040516012815260200161010b565b61013f61017d366004610cfd565b6103f2565b61013f610190366004610cfd565b610411565b61019d61047f565b60408051948552602085019390935291830152606082015260800161010b565b6008546040516001600160a01b03909116815260200161010b565b6100fe6104a8565b6101f36101ee366004610dc5565b6104b7565b005b610127610203366004610dc5565b610721565b61013f610216366004610cfd565b6001600160a01b031660009081526001602052604090205490565b60005461013f565b6101f3610247366004610d84565b610767565b61013f61025a366004610cfd565b6001600160a01b031660009081526005602052604090205490565b61013f610283366004610d17565b610928565b60035461013f565b61029861096f565b6040805192835260208301919091520161010b565b6060600680546102bc90610efe565b80601f01602080910402602001604051908101604052809291908181526020018280546102e890610efe565b80156103355780601f1061030a57610100808354040283529160200191610335565b820191906000526020600020905b81548152906001019060200180831161031857829003601f168201915b5050505050905090565b60405162461bcd60e51b815260206004820152601760248201527611151bdad95b905c1c1c9bdd99539bdd105b1b1bddd959604a1b60448201526000906064015b60405180910390fd5b92915050565b600061039c600054610986565b905090565b60405162461bcd60e51b815260206004820152601c60248201527b11151bdad95b951c985b9cd9995c919c9bdb539bdd105b1b1bddd95960221b6044820152600090606401610380565b9392505050565b6001600160a01b0381166000908152600260205260409020545b919050565b6001600160a01b0381166000908152600560209081526040808320546002909252822054816104455760009250505061040c565b6001600160a01b03841660009081526001602052604081205461046a908390426109be565b90506104768382610adb565b95945050505050565b60008060008060008054905060045461049782610986565b600354919790965091945092509050565b6060600780546102bc90610efe565b6008546001600160a01b0316336001600160a01b0316146104ea5760405162461bcd60e51b815260040161038090610e41565b6000806104f684610b2a565b9250925050600061050561038f565b6001600160a01b0386166000908152600260205260408120549192509081908684116105385760008080556004556105b8565b6105428785610ee7565b60048190559150600061056061055786610b90565b60005490610adb565b905060006105776105708a610b90565b8490610adb565b9050818110610591576000600481905580805594506105b5565b6105ad61059d85610b90565b6105a78385610ee7565b90610ba1565b600081905594505b50505b858714156105eb576001600160a01b03881660009081526002602090815260408083208390556001909152812055610607565b6001600160a01b03881660009081526001602052604090204290555b426003558685111561067457600061061f8887610ee7565b905061062b8982610c1d565b886001600160a01b0316896001600160a01b0316600080516020610f50833981519152838a8a878a8a60405161066696959493929190610e68565b60405180910390a3506106e8565b60006106808689610ee7565b905061068c8982610c61565b604080518281526020810189905290810187905260608101859052608081018490526001600160a01b038a16907f44bd20a79e993bdcc7cbedf54a3b4d19fb78490124b6b90d04fe3242eea579e89060a00160405180910390a2505b6040518781526000906001600160a01b038a1690600080516020610f708339815191529060200160405180910390a35050505050505050565b60405162461bcd60e51b815260206004820152601860248201527711151bdad95b951c985b9cd9995c939bdd105b1b1bddd95960421b6044820152600090606401610380565b6008546001600160a01b0316336001600160a01b03161461079a5760405162461bcd60e51b815260040161038090610e41565b6107cc6040518060a0016040528060008152602001600081526020016000815260200160008152602001600081525090565b6000806107d886610b2a565b92509250506107e561038f565b80845260005460808501526107fb908690610e90565b6004819055602084015261080e85610b90565b6040808501919091526001600160a01b03871660009081526002602052205461083990838787610c84565b606085018190526001600160a01b03881660009081526002602090815260408083209390935560019052204290819055600355506080830151835161088091908787610c84565b608085018190526000555061089e866108998388610e90565b610c1d565b6040518581526001600160a01b03871690600090600080516020610f708339815191529060200160405180910390a36001600160a01b03808716908816600080516020610f508339815191526108f48489610e90565b8585886060015189608001518a6020015160405161091796959493929190610e68565b60405180910390a350505050505050565b60405162461bcd60e51b815260206004820152601960248201527811151bdad95b905b1b1bddd85b98d9539bdd105b1b1bddd959603a1b6044820152600090606401610380565b60008054819061097e81610986565b925090509091565b6004546000908061099b57600091505061040c565b60006109aa84600354426109be565b90506109b68282610adb565b949350505050565b6000806109cb8484610ee7565b9050806109e657676765c793fa10079d601b1b9150506103eb565b60006109f3600183610ee7565b9050600060028311610a06576000610a11565b610a11600284610ee7565b90506000610a236301e1338089610ea8565b90506000610a318280610adb565b90506000610a3f8284610adb565b90506000600283610a50888a610ec8565b610a5a9190610ec8565b610a649190610ea8565b9050600060068387610a768a8c610ec8565b610a809190610ec8565b610a8a9190610ec8565b610a949190610ea8565b90508082610aa28a88610ec8565b610ab790676765c793fa10079d601b1b610e90565b610ac19190610e90565b610acb9190610e90565b9c9b505050505050505050505050565b6000821580610ae8575081155b15610af557506000610389565b676765c793fa10079d601b1b610b0c600282610ea8565b610b168486610ec8565b610b209190610e90565b6103eb9190610ea8565b6001600160a01b0381166000908152600560205260408120548190819080610b5d57600080600093509350935050610b89565b600081610b6987610411565b610b739190610ee7565b905081610b808282610e90565b90955093509150505b9193909250565b6000806103eb633b9aca0084610ec8565b600081610be35760405162461bcd60e51b815260206004820152601060248201526f4469766973696f6e206279205a65726f60801b6044820152606401610380565b6000610bf0600284610ea8565b90508281610c09676765c793fa10079d601b1b87610ec8565b610c139190610e90565b6109b69190610ea8565b6001600160a01b038216600090815260056020526040902054610c408282610e90565b6001600160a01b039093166000908152600560205260409020929092555050565b6001600160a01b038216600090815260056020526040902054610c408282610ee7565b6000806000610c9c87610c9688610b90565b90610adb565b90506000610cad85610c9688610b90565b90506000610cbb8789610e90565b90506000610cd5610ccb83610b90565b6105a78587610e90565b919a91995090975050505050505050565b80356001600160a01b038116811461040c57600080fd5b600060208284031215610d0e578081fd5b6103eb82610ce6565b60008060408385031215610d29578081fd5b610d3283610ce6565b9150610d4060208401610ce6565b90509250929050565b600080600060608486031215610d5d578081fd5b610d6684610ce6565b9250610d7460208501610ce6565b9150604084013590509250925092565b60008060008060808587031215610d99578081fd5b610da285610ce6565b9350610db060208601610ce6565b93969395505050506040820135916060013590565b60008060408385031215610dd7578182fd5b610de083610ce6565b946020939093013593505050565b6000602080835283518082850152825b81811015610e1a57858101830151858201604001528201610dfe565b81811115610e2b5783604083870101525b50601f01601f1916929092016040019392505050565b6020808252600d908201526c13db9b1e535bdb995e541bdbdb609a1b604082015260600190565b958652602086019490945260408501929092526060840152608083015260a082015260c00190565b60008219821115610ea357610ea3610f39565b500190565b600082610ec357634e487b7160e01b81526012600452602481fd5b500490565b6000816000190483118215151615610ee257610ee2610f39565b500290565b600082821015610ef957610ef9610f39565b500390565b600181811c90821680610f1257607f821691505b60208210811415610f3357634e487b7160e01b600052602260045260246000fd5b50919050565b634e487b7160e01b600052601160045260246000fdfec16f4e4ca34d790de4c656c72fd015c667d688f20be64eea360618545c4c530fddf252ad1be2c89b69c2b068fc378daa952ba7f163c4a11628f55a4df523b3efa26469706673582212205c18f2f3325673ac246f4d15a8903080d20b98a97d373881cef8b45d23a0ca7964736f6c63430008030033",
  "devdoc": {
    "author": "Elysia*",
    "kind": "dev",
    "methods": {
      "POOL()": {
        "details": "Returns the address of the lending pool where this aToken is used*"
      },
      "allowance(address,address)": {
        "details": "Returns the remaining number of tokens that `spender` will be allowed to spend on behalf of `owner` through {transferFrom}. This is zero by default. This value changes when {approve} or {transferFrom} are called."
      },
      "approve(address,uint256)": {
        "details": "Sets `amount` as the allowance of `spender` over the caller's tokens. Returns a boolean value indicating whether the operation succeeded. IMPORTANT: Beware that changing an allowance with this method brings the risk that someone may use both the old and the new allowance by unfortunate transaction ordering. One possible solution to mitigate this race condition is to first reduce the spender's allowance to 0 and set the desired value afterwards: https://github.com/ethereum/EIPs/issues/20#issuecomment-263524729 Emits an {Approval} event."
      },
      "balanceOf(address)": {
        "details": "Calculates the current account debt balance",
        "returns": {
          "_0": "The accumulated debt of the account*"
        }
      },
      "burn(address,uint256)": {
        "details": "Burns debt of `account`",
        "params": {
          "account": "The address of the account getting his debt burned",
          "amount": "The amount of debt tokens getting burned*"
        }
      },
      "decimals()": {
        "details": "Returns the decimals of the token."
      },
      "getDTokenData()": {
        "details": "Returns the principal and total supply, the average borrow rate and the last supply update timestamp*"
      },
      "getTotalAverageRealAssetBorrowRate()": {
        "details": "Returns the average stable rate across all the stable rate debt",
        "returns": {
          "_0": "the average stable rate*"
        }
      },
      "getTotalSupplyAndAvgRate()": {
        "details": "Returns the the total supply and the average stable rate*"
      },
      "getTotalSupplyLastUpdated()": {
        "details": "Returns the timestamp at which the total supply was updated*"
      },
      "getUserAverageRealAssetBorrowRate(address)": {
        "details": "Returns the stable rate of the account",
        "params": {
          "account": "The address of the account"
        },
        "returns": {
          "_0": "The stable rate of account*"
        }
      },
      "getUserLastUpdateTimestamp(address)": {
        "details": "Returns the timestamp of the last account action",
        "returns": {
          "_0": "The last update timestamp*"
        }
      },
      "mint(address,address,uint256,uint256)": {
        "details": "Mints debt token to the `receiver` address. -  Only callable by the LendingPool - The resulting rate is the weighted average between the rate of the new debt and the rate of the principal debt",
        "params": {
          "account": "The address receiving the borrowed underlying, being the delegatee in case of credit delegate, or same as `receiver` otherwise",
          "amount": "The amount of debt tokens to mint",
          "rate": "The rate of the debt being minted*",
          "receiver": "The address receiving the debt tokens"
        }
      },
      "name()": {
        "details": "Returns the name of the token."
      },
      "principalBalanceOf(address)": {
        "details": "Returns the principal debt balance of the account from",
        "params": {
          "account": "The account's address"
        },
        "returns": {
          "_0": "The debt balance of the account since the last burn/mint action*"
        }
      },
      "symbol()": {
        "details": "Returns the symbol of the token, usually a shorter version of the name."
      },
      "totalSupply()": {
        "details": "Returns the total supply*"
      },
      "transfer(address,uint256)": {
        "details": "Moves `amount` tokens from the caller's account to `recipient`. Returns a boolean value indicating whether the operation succeeded. Emits a {Transfer} event."
      },
      "transferFrom(address,address,uint256)": {
        "details": "Moves `amount` tokens from `sender` to `recipient` using the allowance mechanism. `amount` is then deducted from the caller's allowance. Returns a boolean value indicating whether the operation succeeded. Emits a {Transfer} event."
      }
    },
    "title": "DToken",
    "version": 1
  },
  "userdoc": {
    "kind": "user",
    "methods": {},
    "notice": "The DToken balance of borrower is the amount of money that the borrower would be required to repay and seize the collateralized asset bond token.",
    "version": 1
  },
  "storageLayout": {
    "storage": [
      {
        "astId": 2733,
        "contract": "contracts/DToken.sol:DToken",
        "label": "_totalAverageRealAssetBorrowRate",
        "offset": 0,
        "slot": "0",
        "type": "t_uint256"
      },
      {
        "astId": 2737,
        "contract": "contracts/DToken.sol:DToken",
        "label": "_userLastUpdateTimestamp",
        "offset": 0,
        "slot": "1",
        "type": "t_mapping(t_address,t_uint256)"
      },
      {
        "astId": 2741,
        "contract": "contracts/DToken.sol:DToken",
        "label": "_userAverageRealAssetBorrowRate",
        "offset": 0,
        "slot": "2",
        "type": "t_mapping(t_address,t_uint256)"
      },
      {
        "astId": 2743,
        "contract": "contracts/DToken.sol:DToken",
        "label": "_lastUpdateTimestamp",
        "offset": 0,
        "slot": "3",
        "type": "t_uint256"
      },
      {
        "astId": 2745,
        "contract": "contracts/DToken.sol:DToken",
        "label": "_totalSupply",
        "offset": 0,
        "slot": "4",
        "type": "t_uint256"
      },
      {
        "astId": 2749,
        "contract": "contracts/DToken.sol:DToken",
        "label": "_balances",
        "offset": 0,
        "slot": "5",
        "type": "t_mapping(t_address,t_uint256)"
      },
      {
        "astId": 2751,
        "contract": "contracts/DToken.sol:DToken",
        "label": "_name",
        "offset": 0,
        "slot": "6",
        "type": "t_string_storage"
      },
      {
        "astId": 2753,
        "contract": "contracts/DToken.sol:DToken",
        "label": "_symbol",
        "offset": 0,
        "slot": "7",
        "type": "t_string_storage"
      },
      {
        "astId": 2756,
        "contract": "contracts/DToken.sol:DToken",
        "label": "_moneyPool",
        "offset": 0,
        "slot": "8",
        "type": "t_contract(IMoneyPool)7140"
      },
      {
        "astId": 2758,
        "contract": "contracts/DToken.sol:DToken",
        "label": "_underlyingAsset",
        "offset": 0,
        "slot": "9",
        "type": "t_address"
      }
    ],
    "types": {
      "t_address": {
        "encoding": "inplace",
        "label": "address",
        "numberOfBytes": "20"
      },
      "t_contract(IMoneyPool)7140": {
        "encoding": "inplace",
        "label": "contract IMoneyPool",
        "numberOfBytes": "20"
      },
      "t_mapping(t_address,t_uint256)": {
        "encoding": "mapping",
        "key": "t_address",
        "label": "mapping(address => uint256)",
        "numberOfBytes": "32",
        "value": "t_uint256"
      },
      "t_string_storage": {
        "encoding": "bytes",
        "label": "string",
        "numberOfBytes": "32"
      },
      "t_uint256": {
        "encoding": "inplace",
        "label": "uint256",
        "numberOfBytes": "32"
      }
    }
  }
}