{
  "address": "0xd037fE2bFB78f4bAFAD5903241Dd284f43306B62",
  "abi": [
    {
      "inputs": [
        {
          "internalType": "uint256",
          "name": "optimalUtilizationRate",
          "type": "uint256"
        },
        {
          "internalType": "uint256",
          "name": "borrowRateBase",
          "type": "uint256"
        },
        {
          "internalType": "uint256",
          "name": "borrowRateOptimal",
          "type": "uint256"
        },
        {
          "internalType": "uint256",
          "name": "borrowRateMax",
          "type": "uint256"
        },
        {
          "internalType": "address",
          "name": "connector",
          "type": "address"
        }
      ],
      "stateMutability": "nonpayable",
      "type": "constructor"
    },
    {
      "inputs": [],
      "name": "_borrowRateBase",
      "outputs": [
        {
          "internalType": "uint256",
          "name": "",
          "type": "uint256"
        }
      ],
      "stateMutability": "view",
      "type": "function"
    },
    {
      "inputs": [],
      "name": "_borrowRateMax",
      "outputs": [
        {
          "internalType": "uint256",
          "name": "",
          "type": "uint256"
        }
      ],
      "stateMutability": "view",
      "type": "function"
    },
    {
      "inputs": [],
      "name": "_borrowRateOptimal",
      "outputs": [
        {
          "internalType": "uint256",
          "name": "",
          "type": "uint256"
        }
      ],
      "stateMutability": "view",
      "type": "function"
    },
    {
      "inputs": [],
      "name": "_optimalUtilizationRate",
      "outputs": [
        {
          "internalType": "uint256",
          "name": "",
          "type": "uint256"
        }
      ],
      "stateMutability": "view",
      "type": "function"
    },
    {
      "inputs": [
        {
          "internalType": "uint256",
          "name": "lTokenAssetBalance",
          "type": "uint256"
        },
        {
          "internalType": "uint256",
          "name": "totalDTokenBalance",
          "type": "uint256"
        },
        {
          "internalType": "uint256",
          "name": "depositAmount",
          "type": "uint256"
        },
        {
          "internalType": "uint256",
          "name": "borrowAmount",
          "type": "uint256"
        },
        {
          "internalType": "uint256",
          "name": "moneyPoolFactor",
          "type": "uint256"
        }
      ],
      "name": "calculateRates",
      "outputs": [
        {
          "internalType": "uint256",
          "name": "",
          "type": "uint256"
        },
        {
          "internalType": "uint256",
          "name": "",
          "type": "uint256"
        }
      ],
      "stateMutability": "view",
      "type": "function"
    },
    {
      "inputs": [
        {
          "internalType": "uint256",
          "name": "borrowRateBase",
          "type": "uint256"
        }
      ],
      "name": "updateBorrowRateBase",
      "outputs": [],
      "stateMutability": "nonpayable",
      "type": "function"
    },
    {
      "inputs": [
        {
          "internalType": "uint256",
          "name": "borrowRateMax",
          "type": "uint256"
        }
      ],
      "name": "updateBorrowRateMax",
      "outputs": [],
      "stateMutability": "nonpayable",
      "type": "function"
    },
    {
      "inputs": [
        {
          "internalType": "uint256",
          "name": "borrowRateOptimal",
          "type": "uint256"
        }
      ],
      "name": "updateBorrowRateOptimal",
      "outputs": [],
      "stateMutability": "nonpayable",
      "type": "function"
    },
    {
      "inputs": [
        {
          "internalType": "uint256",
          "name": "optimalUtilizationRate",
          "type": "uint256"
        }
      ],
      "name": "updateOptimalUtilizationRate",
      "outputs": [],
      "stateMutability": "nonpayable",
      "type": "function"
    }
  ],
  "transactionHash": "0x0e6ed7459a325abddd4dbe928d417480a4004959ebc0ecc44ab55161e8b7c13f",
  "args": [
    "800000000000000000000000000",
    "50000000000000000000000000",
    "60000000000000000000000000",
    "1000000000000000000000000000",
    "0x5c2cE44fF70eF0bD898E2bf37e7da7605D0ae607"
  ],
  "solcInputHash": "efcd845ea837ae5482eec05fa8d312de",
  "bytecode": "0x608060405234801561001057600080fd5b5060405161082538038061082583398101604081905261002f91610065565b600094909455600192909255600255600355600480546001600160a01b0319166001600160a01b039092169190911790556100be565b600080600080600060a0868803121561007c578081fd5b855160208701516040880151606089015160808a0151939850919650945092506001600160a01b03811681146100b0578182fd5b809150509295509295909350565b610758806100cd6000396000f3fe608060405234801561001057600080fd5b50600436106100835760003560e01c806309d10c53146100885780633abc333c146100b557806340115cd5146100cc57806353ed86be146100e1578063864cb367146100ea578063899edaae146100fd578063968c7b8814610106578063b874de4f1461010f578063d88a7e3614610122575b600080fd5b61009b610096366004610624565b610135565b604080519283526020830191909152015b60405180910390f35b6100be60035481565b6040519081526020016100ac565b6100df6100da36600461060c565b610287565b005b6100be60005481565b6100df6100f836600461060c565b610330565b6100be60015481565b6100be60025481565b6100df61011d36600461060c565b6103d0565b6100df61013036600461060c565b610470565b6000806101636040518060800160405280600081526020016000815260200160008152602001600081525090565b868152600085610173888b61069e565b61017d91906106f5565b8251909150156101a457815161019f90610197908361069e565b835190610510565b6101a7565b60005b6020830181905260006040840181905254106101fe576101e782602001516101e16000546001546002546101db91906106f5565b90610510565b90610596565b6001546101f4919061069e565b6040830152610258565b610245600254836020015161021391906106f5565b6101e160005461022b676765c793fa10079d601b1b90565b61023591906106f5565b6002546003546101db91906106f5565b600254610252919061069e565b60408301525b6020820151604083015161026b91610596565b6060830181905260409092015199919850909650505050505050565b60048054604051630f2770bf60e41b81526001600160a01b039091169163f2770bf0916102b69133910161065e565b60206040518083038186803b1580156102ce57600080fd5b505afa1580156102e2573d6000803e3d6000fd5b505050506040513d601f19601f8201168201806040525081019061030691906105ec565b61032b5760405162461bcd60e51b815260040161032290610672565b60405180910390fd5b600155565b60048054604051630f2770bf60e41b81526001600160a01b039091169163f2770bf09161035f9133910161065e565b60206040518083038186803b15801561037757600080fd5b505afa15801561038b573d6000803e3d6000fd5b505050506040513d601f19601f820116820180604052508101906103af91906105ec565b6103cb5760405162461bcd60e51b815260040161032290610672565b600255565b60048054604051630f2770bf60e41b81526001600160a01b039091169163f2770bf0916103ff9133910161065e565b60206040518083038186803b15801561041757600080fd5b505afa15801561042b573d6000803e3d6000fd5b505050506040513d601f19601f8201168201806040525081019061044f91906105ec565b61046b5760405162461bcd60e51b815260040161032290610672565b600355565b60048054604051630f2770bf60e41b81526001600160a01b039091169163f2770bf09161049f9133910161065e565b60206040518083038186803b1580156104b757600080fd5b505afa1580156104cb573d6000803e3d6000fd5b505050506040513d601f19601f820116820180604052508101906104ef91906105ec565b61050b5760405162461bcd60e51b815260040161032290610672565b600055565b6000816105525760405162461bcd60e51b815260206004820152601060248201526f4469766973696f6e206279205a65726f60801b6044820152606401610322565b600061055f6002846106b6565b90508281610578676765c793fa10079d601b1b876106d6565b610582919061069e565b61058c91906106b6565b9150505b92915050565b60008215806105a3575081155b156105b057506000610590565b676765c793fa10079d601b1b6105c76002826106b6565b6105d184866106d6565b6105db919061069e565b6105e591906106b6565b9392505050565b6000602082840312156105fd578081fd5b815180151581146105e5578182fd5b60006020828403121561061d578081fd5b5035919050565b600080600080600060a0868803121561063b578081fd5b505083359560208501359550604085013594606081013594506080013592509050565b6001600160a01b0391909116815260200190565b60208082526012908201527127b7363ca6b7b732bca837b7b620b236b4b760711b604082015260600190565b600082198211156106b1576106b161070c565b500190565b6000826106d157634e487b7160e01b81526012600452602481fd5b500490565b60008160001904831182151516156106f0576106f061070c565b500290565b6000828210156107075761070761070c565b500390565b634e487b7160e01b600052601160045260246000fdfea2646970667358221220de7e8a5b6cf940864dad91d6fd8253baa64bf409c815428cf7551b9a22b695e964736f6c63430008030033",
  "devdoc": {
    "author": "ELYSIA",
    "kind": "dev",
    "methods": {
      "calculateRates(uint256,uint256,uint256,uint256,uint256)": {
        "details": "Calculation Example Case1: under optimal U baseRate = 2%, util = 40%, optimalRate = 10%, optimalUtil = 80% result = 2+40*(10-2)/80 = 4% Case2: over optimal U optimalRate = 10%, util = 90%, maxRate = 100%, optimalUtil = 80% result = 10+(90-80)*(100-10)/(100-80) = 55%",
        "params": {
          "borrowAmount": "The liquidity taken during the operation",
          "depositAmount": "The liquidity added during the operation",
          "lTokenAssetBalance": "Total deposit amount",
          "moneyPoolFactor": "The moneypool factor. ununsed variable in version 1",
          "totalDTokenBalance": "total loan amount"
        }
      },
      "constructor": {
        "params": {
          "borrowRateBase": "The base interest rate.",
          "borrowRateMax": "Interest rate when the Money Pool utilization ratio is 1",
          "borrowRateOptimal": "Interest rate when the Money Pool utilization ratio is optimal",
          "optimalUtilizationRate": "When the MoneyPool utilization ratio exceeds this parameter, `optimalUtilizationRate`, the kinked rates model adjusts interests."
        }
      }
    },
    "title": "ELYFI InterestRateModel",
    "version": 1
  },
  "userdoc": {
    "kind": "user",
    "methods": {
      "calculateRates(uint256,uint256,uint256,uint256,uint256)": {
        "notice": "Calculates the interest rates."
      }
    },
    "notice": "Interest rates model in ELYFI. ELYFI's interest rates are determined by algorithms. When borrowing demand increases, borrowing interest and MoneyPool ROI increase, suppressing excessove borrowing demand and inducing depositors to supply liquidity. Therefore, ELYFI's interest rates are influenced by the Money Pool `utilizationRatio`. The Money Pool utilization ratio is a variable representing the current borrowing and deposit status of the Money Pool. The interest rates of ELYFI exhibits some form of kink. They sharply change at some defined threshold, `optimalUtilazationRate`.",
    "version": 1
  },
  "storageLayout": {
    "storage": [
      {
        "astId": 4736,
        "contract": "contracts/InterestRateModel.sol:InterestRateModel",
        "label": "_optimalUtilizationRate",
        "offset": 0,
        "slot": "0",
        "type": "t_uint256"
      },
      {
        "astId": 4738,
        "contract": "contracts/InterestRateModel.sol:InterestRateModel",
        "label": "_borrowRateBase",
        "offset": 0,
        "slot": "1",
        "type": "t_uint256"
      },
      {
        "astId": 4740,
        "contract": "contracts/InterestRateModel.sol:InterestRateModel",
        "label": "_borrowRateOptimal",
        "offset": 0,
        "slot": "2",
        "type": "t_uint256"
      },
      {
        "astId": 4742,
        "contract": "contracts/InterestRateModel.sol:InterestRateModel",
        "label": "_borrowRateMax",
        "offset": 0,
        "slot": "3",
        "type": "t_uint256"
      },
      {
        "astId": 4744,
        "contract": "contracts/InterestRateModel.sol:InterestRateModel",
        "label": "_connector",
        "offset": 0,
        "slot": "4",
        "type": "t_address"
      }
    ],
    "types": {
      "t_address": {
        "encoding": "inplace",
        "label": "address",
        "numberOfBytes": "20"
      },
      "t_uint256": {
        "encoding": "inplace",
        "label": "uint256",
        "numberOfBytes": "32"
      }
    }
  }
}