{
  "address": "0x68f69Ab21242e194ebd7534B598e26180dD92616",
  "abi": [
    {
      "inputs": [
        {
          "internalType": "address",
          "name": "connector",
          "type": "address"
        },
        {
          "internalType": "address",
          "name": "moneyPool",
          "type": "address"
        },
        {
          "internalType": "string",
          "name": "name_",
          "type": "string"
        },
        {
          "internalType": "string",
          "name": "symbol_",
          "type": "string"
        }
      ],
      "stateMutability": "nonpayable",
      "type": "constructor"
    },
    {
      "anonymous": false,
      "inputs": [
        {
          "indexed": true,
          "internalType": "address",
          "name": "owner",
          "type": "address"
        },
        {
          "indexed": true,
          "internalType": "address",
          "name": "approved",
          "type": "address"
        },
        {
          "indexed": true,
          "internalType": "uint256",
          "name": "tokenId",
          "type": "uint256"
        }
      ],
      "name": "Approval",
      "type": "event"
    },
    {
      "anonymous": false,
      "inputs": [
        {
          "indexed": true,
          "internalType": "address",
          "name": "owner",
          "type": "address"
        },
        {
          "indexed": true,
          "internalType": "address",
          "name": "operator",
          "type": "address"
        },
        {
          "indexed": false,
          "internalType": "bool",
          "name": "approved",
          "type": "bool"
        }
      ],
      "name": "ApprovalForAll",
      "type": "event"
    },
    {
      "anonymous": false,
      "inputs": [
        {
          "indexed": true,
          "internalType": "address",
          "name": "account",
          "type": "address"
        },
        {
          "indexed": false,
          "internalType": "uint256",
          "name": "tokenId",
          "type": "uint256"
        },
        {
          "indexed": false,
          "internalType": "uint256",
          "name": "borrowAmount",
          "type": "uint256"
        },
        {
          "indexed": false,
          "internalType": "uint256",
          "name": "interestRate",
          "type": "uint256"
        }
      ],
      "name": "AssetBondCollateralized",
      "type": "event"
    },
    {
      "anonymous": false,
      "inputs": [
        {
          "indexed": true,
          "internalType": "address",
          "name": "liquidator",
          "type": "address"
        },
        {
          "indexed": false,
          "internalType": "uint256",
          "name": "tokenId",
          "type": "uint256"
        }
      ],
      "name": "AssetBondLiquidated",
      "type": "event"
    },
    {
      "anonymous": false,
      "inputs": [
        {
          "indexed": true,
          "internalType": "address",
          "name": "borrower",
          "type": "address"
        },
        {
          "indexed": false,
          "internalType": "uint256",
          "name": "tokenId",
          "type": "uint256"
        }
      ],
      "name": "AssetBondReleased",
      "type": "event"
    },
    {
      "anonymous": false,
      "inputs": [
        {
          "indexed": true,
          "internalType": "address",
          "name": "borrower",
          "type": "address"
        },
        {
          "indexed": true,
          "internalType": "address",
          "name": "signer",
          "type": "address"
        },
        {
          "indexed": false,
          "internalType": "uint256",
          "name": "tokenId",
          "type": "uint256"
        },
        {
          "indexed": false,
          "internalType": "uint256",
          "name": "principal",
          "type": "uint256"
        },
        {
          "indexed": false,
          "internalType": "uint256",
          "name": "couponRate",
          "type": "uint256"
        },
        {
          "indexed": false,
          "internalType": "uint256",
          "name": "delinquencyRate",
          "type": "uint256"
        },
        {
          "indexed": false,
          "internalType": "uint256",
          "name": "debtCeiling",
          "type": "uint256"
        },
        {
          "indexed": false,
          "internalType": "uint256",
          "name": "maturityTimestamp",
          "type": "uint256"
        },
        {
          "indexed": false,
          "internalType": "uint256",
          "name": "liquidationTimestamp",
          "type": "uint256"
        },
        {
          "indexed": false,
          "internalType": "uint256",
          "name": "loanStartTimestamp",
          "type": "uint256"
        },
        {
          "indexed": false,
          "internalType": "string",
          "name": "ifpsHash",
          "type": "string"
        }
      ],
      "name": "AssetBondSettled",
      "type": "event"
    },
    {
      "anonymous": false,
      "inputs": [
        {
          "indexed": true,
          "internalType": "address",
          "name": "signer",
          "type": "address"
        },
        {
          "indexed": false,
          "internalType": "uint256",
          "name": "tokenId",
          "type": "uint256"
        },
        {
          "indexed": false,
          "internalType": "string",
          "name": "signerOpinionHash",
          "type": "string"
        }
      ],
      "name": "AssetBondSigned",
      "type": "event"
    },
    {
      "anonymous": false,
      "inputs": [
        {
          "indexed": true,
          "internalType": "address",
          "name": "account",
          "type": "address"
        },
        {
          "indexed": false,
          "internalType": "uint256",
          "name": "tokenId",
          "type": "uint256"
        }
      ],
      "name": "EmptyAssetBondMinted",
      "type": "event"
    },
    {
      "anonymous": false,
      "inputs": [
        {
          "indexed": true,
          "internalType": "address",
          "name": "from",
          "type": "address"
        },
        {
          "indexed": true,
          "internalType": "address",
          "name": "to",
          "type": "address"
        },
        {
          "indexed": true,
          "internalType": "uint256",
          "name": "tokenId",
          "type": "uint256"
        }
      ],
      "name": "Transfer",
      "type": "event"
    },
    {
      "inputs": [
        {
          "internalType": "address",
          "name": "to",
          "type": "address"
        },
        {
          "internalType": "uint256",
          "name": "tokenId",
          "type": "uint256"
        }
      ],
      "name": "approve",
      "outputs": [],
      "stateMutability": "nonpayable",
      "type": "function"
    },
    {
      "inputs": [
        {
          "internalType": "address",
          "name": "owner",
          "type": "address"
        }
      ],
      "name": "balanceOf",
      "outputs": [
        {
          "internalType": "uint256",
          "name": "",
          "type": "uint256"
        }
      ],
      "stateMutability": "view",
      "type": "function"
    },
    {
      "inputs": [
        {
          "internalType": "address",
          "name": "account",
          "type": "address"
        },
        {
          "internalType": "uint256",
          "name": "tokenId",
          "type": "uint256"
        },
        {
          "internalType": "uint256",
          "name": "borrowAmount",
          "type": "uint256"
        },
        {
          "internalType": "uint256",
          "name": "interestRate",
          "type": "uint256"
        }
      ],
      "name": "collateralizeAssetBond",
      "outputs": [],
      "stateMutability": "nonpayable",
      "type": "function"
    },
    {
      "inputs": [
        {
          "internalType": "uint256",
          "name": "tokenId",
          "type": "uint256"
        }
      ],
      "name": "getApproved",
      "outputs": [
        {
          "internalType": "address",
          "name": "",
          "type": "address"
        }
      ],
      "stateMutability": "view",
      "type": "function"
    },
    {
      "inputs": [
        {
          "internalType": "uint256",
          "name": "tokenId",
          "type": "uint256"
        }
      ],
      "name": "getAssetBondData",
      "outputs": [
        {
          "components": [
            {
              "internalType": "enum DataStruct.AssetBondState",
              "name": "state",
              "type": "uint8"
            },
            {
              "internalType": "address",
              "name": "borrower",
              "type": "address"
            },
            {
              "internalType": "address",
              "name": "signer",
              "type": "address"
            },
            {
              "internalType": "address",
              "name": "collateralServiceProvider",
              "type": "address"
            },
            {
              "internalType": "uint256",
              "name": "principal",
              "type": "uint256"
            },
            {
              "internalType": "uint256",
              "name": "debtCeiling",
              "type": "uint256"
            },
            {
              "internalType": "uint256",
              "name": "couponRate",
              "type": "uint256"
            },
            {
              "internalType": "uint256",
              "name": "interestRate",
              "type": "uint256"
            },
            {
              "internalType": "uint256",
              "name": "delinquencyRate",
              "type": "uint256"
            },
            {
              "internalType": "uint256",
              "name": "loanStartTimestamp",
              "type": "uint256"
            },
            {
              "internalType": "uint256",
              "name": "collateralizeTimestamp",
              "type": "uint256"
            },
            {
              "internalType": "uint256",
              "name": "maturityTimestamp",
              "type": "uint256"
            },
            {
              "internalType": "uint256",
              "name": "liquidationTimestamp",
              "type": "uint256"
            },
            {
              "internalType": "string",
              "name": "ipfsHash",
              "type": "string"
            },
            {
              "internalType": "string",
              "name": "signerOpinionHash",
              "type": "string"
            }
          ],
          "internalType": "struct DataStruct.AssetBondData",
          "name": "",
          "type": "tuple"
        }
      ],
      "stateMutability": "view",
      "type": "function"
    },
    {
      "inputs": [
        {
          "internalType": "uint256",
          "name": "tokenId",
          "type": "uint256"
        }
      ],
      "name": "getAssetBondDebtData",
      "outputs": [
        {
          "internalType": "uint256",
          "name": "",
          "type": "uint256"
        },
        {
          "internalType": "uint256",
          "name": "",
          "type": "uint256"
        }
      ],
      "stateMutability": "view",
      "type": "function"
    },
    {
      "inputs": [
        {
          "internalType": "uint256",
          "name": "tokenId",
          "type": "uint256"
        }
      ],
      "name": "getAssetBondIdData",
      "outputs": [
        {
          "components": [
            {
              "internalType": "uint256",
              "name": "nonce",
              "type": "uint256"
            },
            {
              "internalType": "uint256",
              "name": "countryCode",
              "type": "uint256"
            },
            {
              "internalType": "uint256",
              "name": "collateralServiceProviderIdentificationNumber",
              "type": "uint256"
            },
            {
              "internalType": "uint256",
              "name": "collateralLatitude",
              "type": "uint256"
            },
            {
              "internalType": "uint256",
              "name": "collateralLatitudeSign",
              "type": "uint256"
            },
            {
              "internalType": "uint256",
              "name": "collateralLongitude",
              "type": "uint256"
            },
            {
              "internalType": "uint256",
              "name": "collateralLongitudeSign",
              "type": "uint256"
            },
            {
              "internalType": "uint256",
              "name": "collateralDetail",
              "type": "uint256"
            },
            {
              "internalType": "uint256",
              "name": "collateralCategory",
              "type": "uint256"
            },
            {
              "internalType": "uint256",
              "name": "productNumber",
              "type": "uint256"
            }
          ],
          "internalType": "struct DataStruct.AssetBondIdData",
          "name": "",
          "type": "tuple"
        }
      ],
      "stateMutability": "pure",
      "type": "function"
    },
    {
      "inputs": [
        {
          "internalType": "uint256",
          "name": "tokenId",
          "type": "uint256"
        }
      ],
      "name": "getMinter",
      "outputs": [
        {
          "internalType": "address",
          "name": "",
          "type": "address"
        }
      ],
      "stateMutability": "view",
      "type": "function"
    },
    {
      "inputs": [
        {
          "internalType": "address",
          "name": "owner",
          "type": "address"
        },
        {
          "internalType": "address",
          "name": "operator",
          "type": "address"
        }
      ],
      "name": "isApprovedForAll",
      "outputs": [
        {
          "internalType": "bool",
          "name": "",
          "type": "bool"
        }
      ],
      "stateMutability": "view",
      "type": "function"
    },
    {
      "inputs": [
        {
          "internalType": "address",
          "name": "account",
          "type": "address"
        },
        {
          "internalType": "uint256",
          "name": "tokenId",
          "type": "uint256"
        }
      ],
      "name": "liquidateAssetBond",
      "outputs": [],
      "stateMutability": "nonpayable",
      "type": "function"
    },
    {
      "inputs": [
        {
          "internalType": "address",
          "name": "account",
          "type": "address"
        },
        {
          "internalType": "uint256",
          "name": "tokenId",
          "type": "uint256"
        }
      ],
      "name": "mintAssetBond",
      "outputs": [],
      "stateMutability": "nonpayable",
      "type": "function"
    },
    {
      "inputs": [],
      "name": "name",
      "outputs": [
        {
          "internalType": "string",
          "name": "",
          "type": "string"
        }
      ],
      "stateMutability": "view",
      "type": "function"
    },
    {
      "inputs": [
        {
          "internalType": "uint256",
          "name": "tokenId",
          "type": "uint256"
        }
      ],
      "name": "ownerOf",
      "outputs": [
        {
          "internalType": "address",
          "name": "",
          "type": "address"
        }
      ],
      "stateMutability": "view",
      "type": "function"
    },
    {
      "inputs": [
        {
          "internalType": "address",
          "name": "account",
          "type": "address"
        },
        {
          "internalType": "uint256",
          "name": "tokenId",
          "type": "uint256"
        }
      ],
      "name": "releaseAssetBond",
      "outputs": [],
      "stateMutability": "nonpayable",
      "type": "function"
    },
    {
      "inputs": [
        {
          "internalType": "address",
          "name": "from",
          "type": "address"
        },
        {
          "internalType": "address",
          "name": "to",
          "type": "address"
        },
        {
          "internalType": "uint256",
          "name": "tokenId",
          "type": "uint256"
        }
      ],
      "name": "safeTransferFrom",
      "outputs": [],
      "stateMutability": "nonpayable",
      "type": "function"
    },
    {
      "inputs": [
        {
          "internalType": "address",
          "name": "from",
          "type": "address"
        },
        {
          "internalType": "address",
          "name": "to",
          "type": "address"
        },
        {
          "internalType": "uint256",
          "name": "tokenId",
          "type": "uint256"
        },
        {
          "internalType": "bytes",
          "name": "_data",
          "type": "bytes"
        }
      ],
      "name": "safeTransferFrom",
      "outputs": [],
      "stateMutability": "nonpayable",
      "type": "function"
    },
    {
      "inputs": [
        {
          "internalType": "address",
          "name": "operator",
          "type": "address"
        },
        {
          "internalType": "bool",
          "name": "approved",
          "type": "bool"
        }
      ],
      "name": "setApprovalForAll",
      "outputs": [],
      "stateMutability": "nonpayable",
      "type": "function"
    },
    {
      "inputs": [
        {
          "internalType": "address",
          "name": "borrower",
          "type": "address"
        },
        {
          "internalType": "address",
          "name": "signer",
          "type": "address"
        },
        {
          "internalType": "uint256",
          "name": "tokenId",
          "type": "uint256"
        },
        {
          "internalType": "uint256",
          "name": "principal",
          "type": "uint256"
        },
        {
          "internalType": "uint256",
          "name": "couponRate",
          "type": "uint256"
        },
        {
          "internalType": "uint256",
          "name": "delinquencyRate",
          "type": "uint256"
        },
        {
          "internalType": "uint256",
          "name": "debtCeiling",
          "type": "uint256"
        },
        {
          "internalType": "uint16",
          "name": "loanDuration",
          "type": "uint16"
        },
        {
          "internalType": "uint16",
          "name": "loanStartTimeYear",
          "type": "uint16"
        },
        {
          "internalType": "uint8",
          "name": "loanStartTimeMonth",
          "type": "uint8"
        },
        {
          "internalType": "uint8",
          "name": "loanStartTimeDay",
          "type": "uint8"
        },
        {
          "internalType": "string",
          "name": "ipfsHash",
          "type": "string"
        }
      ],
      "name": "settleAssetBond",
      "outputs": [],
      "stateMutability": "nonpayable",
      "type": "function"
    },
    {
      "inputs": [
        {
          "internalType": "uint256",
          "name": "tokenId",
          "type": "uint256"
        },
        {
          "internalType": "string",
          "name": "signerOpinionHash",
          "type": "string"
        }
      ],
      "name": "signAssetBond",
      "outputs": [],
      "stateMutability": "nonpayable",
      "type": "function"
    },
    {
      "inputs": [
        {
          "internalType": "bytes4",
          "name": "interfaceId",
          "type": "bytes4"
        }
      ],
      "name": "supportsInterface",
      "outputs": [
        {
          "internalType": "bool",
          "name": "",
          "type": "bool"
        }
      ],
      "stateMutability": "view",
      "type": "function"
    },
    {
      "inputs": [],
      "name": "symbol",
      "outputs": [
        {
          "internalType": "string",
          "name": "",
          "type": "string"
        }
      ],
      "stateMutability": "view",
      "type": "function"
    },
    {
      "inputs": [
        {
          "internalType": "uint256",
          "name": "tokenId",
          "type": "uint256"
        }
      ],
      "name": "tokenURI",
      "outputs": [
        {
          "internalType": "string",
          "name": "",
          "type": "string"
        }
      ],
      "stateMutability": "view",
      "type": "function"
    },
    {
      "inputs": [
        {
          "internalType": "address",
          "name": "from",
          "type": "address"
        },
        {
          "internalType": "address",
          "name": "to",
          "type": "address"
        },
        {
          "internalType": "uint256",
          "name": "tokenId",
          "type": "uint256"
        }
      ],
      "name": "transferFrom",
      "outputs": [],
      "stateMutability": "nonpayable",
      "type": "function"
    }
  ],
  "transactionHash": "0x15b554edd496fe498e7259cd711a68b0ca1f0631a22ecb7b0b9d47970165968c",
  "args": [
    "0x5c2cE44fF70eF0bD898E2bf37e7da7605D0ae607",
    "0xa93008fD32EB24E488DDAA6C0aA152559fDa9E8c",
    "Elyfi_DaiStablecoin_Tokenzier",
    "ELFI_DAI_Tokenizer"
  ],
  "solcInputHash": "0c71cd98fa6269b62417fa18d1fc6779",
  "bytecode": "0x60806040523480156200001157600080fd5b506040516200308238038062003082833981016040819052620000349162000215565b8151829082906200004d9060069060208501906200009f565b508051620000639060079060208401906200009f565b5050600080546001600160a01b039687166001600160a01b031991821617909155600180549590961694169390931790935550620002f5915050565b828054620000ad90620002a2565b90600052602060002090601f016020900481019282620000d157600085556200011c565b82601f10620000ec57805160ff19168380011785556200011c565b828001600101855582156200011c579182015b828111156200011c578251825591602001919060010190620000ff565b506200012a9291506200012e565b5090565b5b808211156200012a57600081556001016200012f565b80516001600160a01b03811681146200015d57600080fd5b919050565b600082601f83011262000173578081fd5b81516001600160401b0380821115620001905762000190620002df565b604051601f8301601f19908116603f01168101908282118183101715620001bb57620001bb620002df565b81604052838152602092508683858801011115620001d7578485fd5b8491505b83821015620001fa5785820183015181830184015290820190620001db565b838211156200020b57848385830101525b9695505050505050565b600080600080608085870312156200022b578384fd5b620002368562000145565b9350620002466020860162000145565b60408601519093506001600160401b038082111562000263578384fd5b620002718883890162000162565b9350606087015191508082111562000287578283fd5b50620002968782880162000162565b91505092959194509250565b600181811c90821680620002b757607f821691505b60208210811415620002d957634e487b7160e01b600052602260045260246000fd5b50919050565b634e487b7160e01b600052604160045260246000fd5b612d7d80620003056000396000f3fe608060405234801561001057600080fd5b506004361061011d5760003560e01c806301ffc9a71461012257806306fdde031461014a578063081812fc1461015f578063095ea7b31461017f578063132cfab2146101945780631a4dbaf8146101a757806323b872dd146101cf57806342842e0e146101e257806354b0e57f146101f55780635b7121f8146102085780635cb45fea146102315780636352211e146102bd5780636899311a146102d05780636e593673146102e357806370a08231146102f65780638268b24e146103175780638d50c46f1461033757806395d89b411461034a578063a22cb46514610352578063b88d4fde14610365578063bfccc2e014610378578063c87b56dd1461038b578063e985e9c51461039e575b600080fd5b6101356101303660046126e9565b6103b1565b60405190151581526020015b60405180910390f35b610152610405565b604051610141919061291d565b61017261016d3660046127ab565b610497565b60405161014191906128cc565b61019261018d36600461266c565b610524565b005b6101926101a23660046127db565b610635565b6101ba6101b53660046127ab565b6107ca565b60408051928352602083019190915201610141565b6101926101dd3660046124af565b610a74565b6101926101f03660046124af565b610aa5565b61019261020336600461266c565b610ac0565b6101726102163660046127ab565b6000908152600360205260409020546001600160a01b031690565b61024461023f3660046127ab565b610b5e565b6040516101419190600061014082019050825182526020830151602083015260408301516040830152606083015160608301526080830151608083015260a083015160a083015260c083015160c083015260e083015160e083015261010080840151818401525061012080840151818401525092915050565b6101726102cb3660046127ab565b610c38565b6101926102de366004612695565b610caf565b6101926102f136600461266c565b610d73565b610309610304366004612463565b610e14565b604051908152602001610141565b61032a6103253660046127ab565b610e9b565b6040516101419190612a31565b61019261034536600461266c565b61118c565b6101526113de565b610192610360366004612636565b6113ed565b6101926103733660046124ea565b6114bb565b610192610386366004612562565b6114f3565b6101526103993660046127ab565b611ad1565b6101356103ac36600461247d565b611ba9565b60006001600160e01b031982166380ac58cd60e01b14806103e257506001600160e01b03198216635b5e139f60e01b145b806103fd57506301ffc9a760e01b6001600160e01b03198316145b90505b919050565b60606006805461041490612c57565b80601f016020809104026020016040519081016040528092919081815260200182805461044090612c57565b801561048d5780601f106104625761010080835404028352916020019161048d565b820191906000526020600020905b81548152906001019060200180831161047057829003601f168201915b5050505050905090565b60006104a282611bd7565b6105085760405162461bcd60e51b815260206004820152602c60248201527f4552433732313a20617070726f76656420717565727920666f72206e6f6e657860448201526b34b9ba32b73a103a37b5b2b760a11b60648201526084015b60405180910390fd5b506000908152600a60205260409020546001600160a01b031690565b600061052f82610c38565b9050806001600160a01b0316836001600160a01b0316141561059d5760405162461bcd60e51b815260206004820152602160248201527f4552433732313a20617070726f76616c20746f2063757272656e74206f776e656044820152603960f91b60648201526084016104ff565b336001600160a01b03821614806105b957506105b981336103ac565b6106265760405162461bcd60e51b815260206004820152603860248201527f4552433732313a20617070726f76652063616c6c6572206973206e6f74206f776044820152771b995c881b9bdc88185c1c1c9bdd995908199bdc88185b1b60421b60648201526084016104ff565b6106308383611bf4565b505050565b6000546040516326a8d83b60e21b81526001600160a01b0390911690639aa360ec906106659033906004016128cc565b60206040518083038186803b15801561067d57600080fd5b505afa158015610691573d6000803e3d6000fd5b505050506040513d601f19601f820116820180604052508101906106b591906126cd565b6106ef5760405162461bcd60e51b815260206004820152600b60248201526a13db9b1e50dbdd5b98da5b60aa1b60448201526064016104ff565b6000828152600560205260409081902090516309d3a6b760e11b8152600481018290527308f7e687A90bbA01e8613827FD0D67e41949F9CC906313a74d6e9060240160006040518083038186803b15801561074957600080fd5b505af415801561075d573d6000803e3d6000fd5b5050825460ff191660021783555050815161078190600d830190602085019061231a565b50336001600160a01b03167fa8237d359de2b8e453986112528b8a3502579d8ff461908475522fc9fad3fd6584846040516107bd929190612b2b565b60405180910390a2505050565b60008181526005602052604080822081516101e0810190925280548392908290829060ff16600681111561080e57634e487b7160e01b600052602160045260246000fd5b600681111561082d57634e487b7160e01b600052602160045260246000fd5b815281546001600160a01b036101009182900481166020840152600184015481166040840152600284015416606083015260038301546080830152600483015460a0830152600583015460c0830152600683015460e083015260078301549082015260088201546101208201526009820154610140820152600a820154610160820152600b820154610180820152600c820180546101a0909201916108d190612c57565b80601f01602080910402602001604051908101604052809291908181526020018280546108fd90612c57565b801561094a5780601f1061091f5761010080835404028352916020019161094a565b820191906000526020600020905b81548152906001019060200180831161092d57829003601f168201915b50505050508152602001600d8201805461096390612c57565b80601f016020809104026020016040519081016040528092919081815260200182805461098f90612c57565b80156109dc5780601f106109b1576101008083540402835291602001916109dc565b820191906000526020600020905b8154815290600101906020018083116109bf57829003601f168201915b5050509190925250506040516367f0d33960e01b815273A139841E0D43BAb85DDD00469EeD93a5a000cA9e926367f0d3399250610a1b91600401612a31565b604080518083038186803b158015610a3257600080fd5b505af4158015610a46573d6000803e3d6000fd5b505050506040513d601f19601f82011682018060405250810190610a6a919061281f565b9250925050915091565b610a7e3382611c62565b610a9a5760405162461bcd60e51b81526004016104ff906129e0565b610630838383611d2c565b610630838383604051806020016040528060008152506114bb565b6001546001600160a01b0316336001600160a01b031614610af35760405162461bcd60e51b81526004016104ff906129b9565b6000818152600560205260409020805460ff19166006178155600154610b23906001600160a01b03168484610a74565b826001600160a01b03167fb523fc152d4fcd4c6af1d46b649c797ba53c00b102bc294c82a552c21d752007836040516107bd91815260200190565b610bb4604051806101400160405280600081526020016000815260200160008152602001600081526020016000815260200160008152602001600081526020016000815260200160008152602001600081525090565b6040516304cd216560e21b81526004810183905273A139841E0D43BAb85DDD00469EeD93a5a000cA9e906313348594906024016101406040518083038186803b158015610c0057600080fd5b505af4158015610c14573d6000803e3d6000fd5b505050506040513d601f19601f820116820180604052508101906103fd9190612721565b6000818152600860205260408120546001600160a01b0316806103fd5760405162461bcd60e51b815260206004820152602960248201527f4552433732313a206f776e657220717565727920666f72206e6f6e657869737460448201526832b73a103a37b5b2b760b91b60648201526084016104ff565b6001546001600160a01b0316336001600160a01b031614610ce25760405162461bcd60e51b81526004016104ff906129b9565b6000838152600560205260409020805460ff1916600317815560068101829055426009820155600154610d209086906001600160a01b031686610a74565b60408051858152602081018590529081018390526001600160a01b038616907f29401d855a91c37a599481c2a1f13bcf5ee36250ccb66cb4a936c281214bf38e9060600160405180910390a25050505050565b6001546001600160a01b0316336001600160a01b031614610da65760405162461bcd60e51b81526004016104ff906129b9565b6000818152600560208190526040909120805460ff19169091178155600154610dd9906001600160a01b03168484610a74565b826001600160a01b03167fb1834f73928b1cbce8667e8018c79613cbecb2a5f3b479bd9a7a8befb959e3a3836040516107bd91815260200190565b60006001600160a01b038216610e7f5760405162461bcd60e51b815260206004820152602a60248201527f4552433732313a2062616c616e636520717565727920666f7220746865207a65604482015269726f206164647265737360b01b60648201526084016104ff565b506001600160a01b031660009081526009602052604090205490565b610f30604080516101e08101909152806000815260200160006001600160a01b0316815260200160006001600160a01b0316815260200160006001600160a01b0316815260200160008152602001600081526020016000815260200160008152602001600081526020016000815260200160008152602001600081526020016000815260200160608152602001606081525090565b60008281526005602052604080822081516101e081019092528054829060ff166006811115610f6f57634e487b7160e01b600052602160045260246000fd5b6006811115610f8e57634e487b7160e01b600052602160045260246000fd5b815281546001600160a01b036101009182900481166020840152600184015481166040840152600284015416606083015260038301546080830152600483015460a0830152600583015460c0830152600683015460e083015260078301549082015260088201546101208201526009820154610140820152600a820154610160820152600b820154610180820152600c820180546101a09092019161103290612c57565b80601f016020809104026020016040519081016040528092919081815260200182805461105e90612c57565b80156110ab5780601f10611080576101008083540402835291602001916110ab565b820191906000526020600020905b81548152906001019060200180831161108e57829003601f168201915b50505050508152602001600d820180546110c490612c57565b80601f01602080910402602001604051908101604052809291908181526020018280546110f090612c57565b801561113d5780601f106111125761010080835404028352916020019161113d565b820191906000526020600020905b81548152906001019060200180831161112057829003601f168201915b5050505050815250509050806101800151421015801561117d575060038151600681111561117b57634e487b7160e01b600052602160045260246000fd5b145b156103fd576006815292915050565b600054604051631fc6b2f960e11b81526001600160a01b0390911690633f8d65f2906111bc9033906004016128cc565b60206040518083038186803b1580156111d457600080fd5b505afa1580156111e8573d6000803e3d6000fd5b505050506040513d601f19601f8201168201806040525081019061120c91906126cd565b6112285760405162461bcd60e51b81526004016104ff90612982565b600054604051631fc6b2f960e11b81526001600160a01b0390911690633f8d65f2906112589085906004016128cc565b60206040518083038186803b15801561127057600080fd5b505afa158015611284573d6000803e3d6000fd5b505050506040513d601f19601f820116820180604052508101906112a891906126cd565b6112e75760405162461bcd60e51b815260206004820152601060248201526f2737ba20b63637bbb2b226b4b73a32b960811b60448201526064016104ff565b6040516304cd216560e21b81526004810182905260009073A139841E0D43BAb85DDD00469EeD93a5a000cA9e906313348594906024016101406040518083038186803b15801561133657600080fd5b505af415801561134a573d6000803e3d6000fd5b505050506040513d601f19601f8201168201806040525081019061136e9190612721565b905061137981611eba565b6113838383611f4f565b6000828152600360205260409081902080546001600160a01b03191633179055516001600160a01b038416907f81eb994f88e94e83535c8ee16a6badf618255469bb0d72734eb3edcd824f105a906107bd9085815260200190565b60606007805461041490612c57565b6001600160a01b0382163314156114425760405162461bcd60e51b815260206004820152601960248201527822a9219b99189d1030b8383937bb32903a379031b0b63632b960391b60448201526064016104ff565b336000818152600b602090815260408083206001600160a01b0387168085529252909120805460ff1916841515179055906001600160a01b03167f17307eab39ab6107e8899845ad3d59bd9653f200f220920489ca2b5937696c31836040516114af911515815260200190565b60405180910390a35050565b6114c53383611c62565b6114e15760405162461bcd60e51b81526004016104ff906129e0565b6114ed84848484611f6d565b50505050565b600054604051631fc6b2f960e11b81526001600160a01b0390911690633f8d65f2906115239033906004016128cc565b60206040518083038186803b15801561153b57600080fd5b505afa15801561154f573d6000803e3d6000fd5b505050506040513d601f19601f8201168201806040525081019061157391906126cd565b61158f5760405162461bcd60e51b81526004016104ff90612982565b6115b360405180606001604052806000815260200160008152602001600081525090565b336115bd8c610c38565b6001600160a01b0316146116085760405162461bcd60e51b81526020600482015260126024820152714f6e6c794f6e77657243616e536574746c6560701b60448201526064016104ff565b60008b81526005602052604081205460ff16600681111561163957634e487b7160e01b600052602160045260246000fd5b146116775760405162461bcd60e51b815260206004820152600e60248201526d105b1c9958591e54d95d1d1b195960921b60448201526064016104ff565b6000546040516326a8d83b60e21b81526001600160a01b0390911690639aa360ec906116a7908f906004016128cc565b60206040518083038186803b1580156116bf57600080fd5b505afa1580156116d3573d6000803e3d6000fd5b505050506040513d601f19601f820116820180604052508101906116f791906126cd565b6117385760405162461bcd60e51b815260206004820152601260248201527114da59db995c925cd39bdd10dbdd5b98da5b60721b60448201526064016104ff565b600080825260208201819052604080830191909152516304646cc560e51b815261ffff8616600482015260ff8086166024830152841660448201527301d07C9FD2e3fbC493e0A2dE588CE1c1EaD137e490638c8d98a09060640160206040518083038186803b1580156117aa57600080fd5b505af41580156117be573d6000803e3d6000fd5b505050506040513d601f19601f820116820180604052508101906117e291906127c3565b81526117f561ffff871662015180612bf5565b81516118019190612bc9565b6020820181905261181590620d2f00612bc9565b60408083019190915280516101e0810190915260009080600181526020018f6001600160a01b031681526020018e6001600160a01b03168152602001336001600160a01b031681526020018c81526020018981526020018b8152602001600081526020018a8152602001836000015181526020016000815260200183602001518152602001836040015181526020018481526020016040518060200160405280600081525081525090507308f7e687A90bbA01e8613827FD0D67e41949F9CC632536dc16826040518263ffffffff1660e01b81526004016118f69190612a31565b60006040518083038186803b15801561190e57600080fd5b505af4158015611922573d6000803e3d6000fd5b50505060008d815260056020526040902082518154849350829060ff1916600183600681111561196257634e487b7160e01b600052602160045260246000fd5b021790555060208281015182546001600160a01b03918216610100908102610100600160a81b031990921691909117845560408501516001850180549184166001600160a01b03199283161790556060860151600286018054919094169116179091556080840151600384015560a0840151600484015560c0840151600584015560e08401516006840155830151600783015561012083015160088301556101408301516009830155610160830151600a830155610180830151600b8301556101a08301518051611a3992600c850192019061231a565b506101c08201518051611a5691600d84019160209091019061231a565b509050508c6001600160a01b03168e6001600160a01b03167f8b5ac4b5b53cc9ee641d8e3867949d01fa7afb75a350ded527721699a2ad54ae8e8e8e8e8e89602001518a604001518b600001518d604051611ab999989796959493929190612b44565b60405180910390a35050505050505050505050505050565b6060611adc82611bd7565b611b405760405162461bcd60e51b815260206004820152602f60248201527f4552433732314d657461646174613a2055524920717565727920666f72206e6f60448201526e3732bc34b9ba32b73a103a37b5b2b760891b60648201526084016104ff565b6000611b5760408051602081019091526000815290565b90506000815111611b775760405180602001604052806000815250611ba2565b80611b8184611fa0565b604051602001611b9292919061289d565b6040516020818303038152906040525b9392505050565b6001600160a01b039182166000908152600b6020908152604080832093909416825291909152205460ff1690565b6000908152600860205260409020546001600160a01b0316151590565b6000818152600a6020526040902080546001600160a01b0319166001600160a01b0384169081179091558190611c2982610c38565b6001600160a01b03167f8c5be1e5ebec7d5bd14f71427d1e84f3dd0314c0f7b2291e5b200ac8c7c3b92560405160405180910390a45050565b6000611c6d82611bd7565b611cce5760405162461bcd60e51b815260206004820152602c60248201527f4552433732313a206f70657261746f7220717565727920666f72206e6f6e657860448201526b34b9ba32b73a103a37b5b2b760a11b60648201526084016104ff565b6000611cd983610c38565b9050806001600160a01b0316846001600160a01b03161480611d145750836001600160a01b0316611d0984610497565b6001600160a01b0316145b80611d245750611d248185611ba9565b949350505050565b826001600160a01b0316611d3f82610c38565b6001600160a01b031614611da75760405162461bcd60e51b815260206004820152602960248201527f4552433732313a207472616e73666572206f6620746f6b656e2074686174206960448201526839903737ba1037bbb760b91b60648201526084016104ff565b6001600160a01b038216611e095760405162461bcd60e51b8152602060048201526024808201527f4552433732313a207472616e7366657220746f20746865207a65726f206164646044820152637265737360e01b60648201526084016104ff565b611e14600082611bf4565b6001600160a01b0383166000908152600960205260408120805460019290611e3d908490612c14565b90915550506001600160a01b0382166000908152600960205260408120805460019290611e6b908490612bc9565b909155505060008181526008602052604080822080546001600160a01b0319166001600160a01b038681169182179092559151849391871691600080516020612d2883398151915291a4505050565b62895440816060015110611f025760405162461bcd60e51b815260206004820152600f60248201526e496e7661696c644c6174697475646560881b60448201526064016104ff565b630112a8808160a0015110611f4c5760405162461bcd60e51b815260206004820152601060248201526f496e7661696c644c6f6e67697475646560801b60448201526064016104ff565b50565b611f698282604051806020016040528060008152506120ba565b5050565b611f78848484611d2c565b611f84848484846120ed565b6114ed5760405162461bcd60e51b81526004016104ff90612930565b606081611fc557506040805180820190915260018152600360fc1b6020820152610400565b8160005b8115611fef5780611fd981612c92565b9150611fe89050600a83612be1565b9150611fc9565b6000816001600160401b0381111561201757634e487b7160e01b600052604160045260246000fd5b6040519080825280601f01601f191660200182016040528015612041576020820181803683370190505b5090505b8415611d2457612056600183612c14565b9150612063600a86612cad565b61206e906030612bc9565b60f81b81838151811061209157634e487b7160e01b600052603260045260246000fd5b60200101906001600160f81b031916908160001a9053506120b3600a86612be1565b9450612045565b6120c483836121fa565b6120d160008484846120ed565b6106305760405162461bcd60e51b81526004016104ff90612930565b60006001600160a01b0384163b156121ef57604051630a85bd0160e11b81526001600160a01b0385169063150b7a02906121319033908990889088906004016128e0565b602060405180830381600087803b15801561214b57600080fd5b505af192505050801561217b575060408051601f3d908101601f1916820190925261217891810190612705565b60015b6121d5573d8080156121a9576040519150601f19603f3d011682016040523d82523d6000602084013e6121ae565b606091505b5080516121cd5760405162461bcd60e51b81526004016104ff90612930565b805181602001fd5b6001600160e01b031916630a85bd0160e11b149050611d24565b506001949350505050565b6001600160a01b0382166122505760405162461bcd60e51b815260206004820181905260248201527f4552433732313a206d696e7420746f20746865207a65726f206164647265737360448201526064016104ff565b61225981611bd7565b156122a55760405162461bcd60e51b815260206004820152601c60248201527b115490cdcc8c4e881d1bdad95b88185b1c9958591e481b5a5b9d195960221b60448201526064016104ff565b6001600160a01b03821660009081526009602052604081208054600192906122ce908490612bc9565b909155505060008181526008602052604080822080546001600160a01b0319166001600160a01b0386169081179091559051839290600080516020612d28833981519152908290a45050565b82805461232690612c57565b90600052602060002090601f016020900481019282612348576000855561238e565b82601f1061236157805160ff191683800117855561238e565b8280016001018555821561238e579182015b8281111561238e578251825591602001919060010190612373565b5061239a92915061239e565b5090565b5b8082111561239a576000815560010161239f565b60006001600160401b038311156123cc576123cc612ced565b6123df601f8401601f1916602001612b99565b90508281528383830111156123f357600080fd5b828260208301376000602084830101529392505050565b80356001600160a01b038116811461040057600080fd5b600082601f830112612431578081fd5b611ba2838335602085016123b3565b803561ffff8116811461040057600080fd5b803560ff8116811461040057600080fd5b600060208284031215612474578081fd5b611ba28261240a565b6000806040838503121561248f578081fd5b6124988361240a565b91506124a66020840161240a565b90509250929050565b6000806000606084860312156124c3578081fd5b6124cc8461240a565b92506124da6020850161240a565b9150604084013590509250925092565b600080600080608085870312156124ff578081fd5b6125088561240a565b93506125166020860161240a565b92506040850135915060608501356001600160401b03811115612537578182fd5b8501601f81018713612547578182fd5b612556878235602084016123b3565b91505092959194509250565b6000806000806000806000806000806000806101808d8f031215612584578788fd5b61258d8d61240a565b9b5061259b60208e0161240a565b9a5060408d0135995060608d0135985060808d0135975060a08d0135965060c08d013595506125cc60e08e01612440565b94506125db6101008e01612440565b93506125ea6101208e01612452565b92506125f96101408e01612452565b91506001600160401b036101608e01351115612613578081fd5b6126248e6101608f01358f01612421565b90509295989b509295989b509295989b565b60008060408385031215612648578182fd5b6126518361240a565b9150602083013561266181612d03565b809150509250929050565b6000806040838503121561267e578182fd5b6126878361240a565b946020939093013593505050565b600080600080608085870312156126aa578182fd5b6126b38561240a565b966020860135965060408601359560600135945092505050565b6000602082840312156126de578081fd5b8151611ba281612d03565b6000602082840312156126fa578081fd5b8135611ba281612d11565b600060208284031215612716578081fd5b8151611ba281612d11565b6000610140808385031215612734578182fd5b61273d81612b99565b9050825181526020830151602082015260408301516040820152606083015160608201526080830151608082015260a083015160a082015260c083015160c082015260e083015160e08201526101008084015181830152506101208084015181830152508091505092915050565b6000602082840312156127bc578081fd5b5035919050565b6000602082840312156127d4578081fd5b5051919050565b600080604083850312156127ed578182fd5b8235915060208301356001600160401b03811115612809578182fd5b61281585828601612421565b9150509250929050565b60008060408385031215612831578182fd5b505080516020909101519092909150565b6001600160a01b03169052565b60008151808452612867816020860160208601612c2b565b601f01601f19169290920160200192915050565b6007811061289957634e487b7160e01b600052602160045260246000fd5b9052565b600083516128af818460208801612c2b565b8351908301906128c3818360208801612c2b565b01949350505050565b6001600160a01b0391909116815260200190565b6001600160a01b03858116825284166020820152604081018390526080606082018190526000906129139083018461284f565b9695505050505050565b600060208252611ba2602083018461284f565b60208082526032908201527f4552433732313a207472616e7366657220746f206e6f6e20455243373231526560408201527131b2b4bb32b91034b6b83632b6b2b73a32b960711b606082015260800190565b6020808252601d908201527f4f6e6c79436f6c6c61746572616c5365727669636550726f7669646572000000604082015260600190565b6020808252600d908201526c13db9b1e535bdb995e541bdbdb609a1b604082015260600190565b60208082526031908201527f4552433732313a207472616e736665722063616c6c6572206973206e6f74206f6040820152701ddb995c881b9bdc88185c1c1c9bdd9959607a1b606082015260800190565b600060208252612a4560208301845161287b565b6020830151612a576040840182612842565b506040830151612a6a6060840182612842565b506060830151612a7d6080840182612842565b50608083015160a08381019190915283015160c08084019190915283015160e08084019190915283015161010080840191909152830151610120808401919091528301516101408084019190915283015161016080840191909152830151610180808401919091528301516101a0808401919091528301516101e06101c0808501829052612b0f61020086018461284f565b90860151858203601f190183870152909250612913838261284f565b600083825260406020830152611d24604083018461284f565b60006101208b83528a60208401528960408401528860608401528760808401528660a08401528560c08401528460e084015280610100840152612b898184018561284f565b9c9b505050505050505050505050565b604051601f8201601f191681016001600160401b0381118282101715612bc157612bc1612ced565b604052919050565b60008219821115612bdc57612bdc612cc1565b500190565b600082612bf057612bf0612cd7565b500490565b6000816000190483118215151615612c0f57612c0f612cc1565b500290565b600082821015612c2657612c26612cc1565b500390565b60005b83811015612c46578181015183820152602001612c2e565b838111156114ed5750506000910152565b600181811c90821680612c6b57607f821691505b60208210811415612c8c57634e487b7160e01b600052602260045260246000fd5b50919050565b6000600019821415612ca657612ca6612cc1565b5060010190565b600082612cbc57612cbc612cd7565b500690565b634e487b7160e01b600052601160045260246000fd5b634e487b7160e01b600052601260045260246000fd5b634e487b7160e01b600052604160045260246000fd5b8015158114611f4c57600080fd5b6001600160e01b031981168114611f4c57600080fdfeddf252ad1be2c89b69c2b068fc378daa952ba7f163c4a11628f55a4df523b3efa2646970667358221220a027fb936f47aa0fb69e249289eb1160d9a6a20c7c21e8a63be0008e27296f7d64736f6c63430008030033",
  "deployedBytecode": "0x608060405234801561001057600080fd5b506004361061011d5760003560e01c806301ffc9a71461012257806306fdde031461014a578063081812fc1461015f578063095ea7b31461017f578063132cfab2146101945780631a4dbaf8146101a757806323b872dd146101cf57806342842e0e146101e257806354b0e57f146101f55780635b7121f8146102085780635cb45fea146102315780636352211e146102bd5780636899311a146102d05780636e593673146102e357806370a08231146102f65780638268b24e146103175780638d50c46f1461033757806395d89b411461034a578063a22cb46514610352578063b88d4fde14610365578063bfccc2e014610378578063c87b56dd1461038b578063e985e9c51461039e575b600080fd5b6101356101303660046126e9565b6103b1565b60405190151581526020015b60405180910390f35b610152610405565b604051610141919061291d565b61017261016d3660046127ab565b610497565b60405161014191906128cc565b61019261018d36600461266c565b610524565b005b6101926101a23660046127db565b610635565b6101ba6101b53660046127ab565b6107ca565b60408051928352602083019190915201610141565b6101926101dd3660046124af565b610a74565b6101926101f03660046124af565b610aa5565b61019261020336600461266c565b610ac0565b6101726102163660046127ab565b6000908152600360205260409020546001600160a01b031690565b61024461023f3660046127ab565b610b5e565b6040516101419190600061014082019050825182526020830151602083015260408301516040830152606083015160608301526080830151608083015260a083015160a083015260c083015160c083015260e083015160e083015261010080840151818401525061012080840151818401525092915050565b6101726102cb3660046127ab565b610c38565b6101926102de366004612695565b610caf565b6101926102f136600461266c565b610d73565b610309610304366004612463565b610e14565b604051908152602001610141565b61032a6103253660046127ab565b610e9b565b6040516101419190612a31565b61019261034536600461266c565b61118c565b6101526113de565b610192610360366004612636565b6113ed565b6101926103733660046124ea565b6114bb565b610192610386366004612562565b6114f3565b6101526103993660046127ab565b611ad1565b6101356103ac36600461247d565b611ba9565b60006001600160e01b031982166380ac58cd60e01b14806103e257506001600160e01b03198216635b5e139f60e01b145b806103fd57506301ffc9a760e01b6001600160e01b03198316145b90505b919050565b60606006805461041490612c57565b80601f016020809104026020016040519081016040528092919081815260200182805461044090612c57565b801561048d5780601f106104625761010080835404028352916020019161048d565b820191906000526020600020905b81548152906001019060200180831161047057829003601f168201915b5050505050905090565b60006104a282611bd7565b6105085760405162461bcd60e51b815260206004820152602c60248201527f4552433732313a20617070726f76656420717565727920666f72206e6f6e657860448201526b34b9ba32b73a103a37b5b2b760a11b60648201526084015b60405180910390fd5b506000908152600a60205260409020546001600160a01b031690565b600061052f82610c38565b9050806001600160a01b0316836001600160a01b0316141561059d5760405162461bcd60e51b815260206004820152602160248201527f4552433732313a20617070726f76616c20746f2063757272656e74206f776e656044820152603960f91b60648201526084016104ff565b336001600160a01b03821614806105b957506105b981336103ac565b6106265760405162461bcd60e51b815260206004820152603860248201527f4552433732313a20617070726f76652063616c6c6572206973206e6f74206f776044820152771b995c881b9bdc88185c1c1c9bdd995908199bdc88185b1b60421b60648201526084016104ff565b6106308383611bf4565b505050565b6000546040516326a8d83b60e21b81526001600160a01b0390911690639aa360ec906106659033906004016128cc565b60206040518083038186803b15801561067d57600080fd5b505afa158015610691573d6000803e3d6000fd5b505050506040513d601f19601f820116820180604052508101906106b591906126cd565b6106ef5760405162461bcd60e51b815260206004820152600b60248201526a13db9b1e50dbdd5b98da5b60aa1b60448201526064016104ff565b6000828152600560205260409081902090516309d3a6b760e11b81526004810182905273__$a034ea2d5e2156aee4d32ca102faa25bbf$__906313a74d6e9060240160006040518083038186803b15801561074957600080fd5b505af415801561075d573d6000803e3d6000fd5b5050825460ff191660021783555050815161078190600d830190602085019061231a565b50336001600160a01b03167fa8237d359de2b8e453986112528b8a3502579d8ff461908475522fc9fad3fd6584846040516107bd929190612b2b565b60405180910390a2505050565b60008181526005602052604080822081516101e0810190925280548392908290829060ff16600681111561080e57634e487b7160e01b600052602160045260246000fd5b600681111561082d57634e487b7160e01b600052602160045260246000fd5b815281546001600160a01b036101009182900481166020840152600184015481166040840152600284015416606083015260038301546080830152600483015460a0830152600583015460c0830152600683015460e083015260078301549082015260088201546101208201526009820154610140820152600a820154610160820152600b820154610180820152600c820180546101a0909201916108d190612c57565b80601f01602080910402602001604051908101604052809291908181526020018280546108fd90612c57565b801561094a5780601f1061091f5761010080835404028352916020019161094a565b820191906000526020600020905b81548152906001019060200180831161092d57829003601f168201915b50505050508152602001600d8201805461096390612c57565b80601f016020809104026020016040519081016040528092919081815260200182805461098f90612c57565b80156109dc5780601f106109b1576101008083540402835291602001916109dc565b820191906000526020600020905b8154815290600101906020018083116109bf57829003601f168201915b5050509190925250506040516367f0d33960e01b815273__$82c3638f3539fdc3511ed289aa50105dc3$__926367f0d3399250610a1b91600401612a31565b604080518083038186803b158015610a3257600080fd5b505af4158015610a46573d6000803e3d6000fd5b505050506040513d601f19601f82011682018060405250810190610a6a919061281f565b9250925050915091565b610a7e3382611c62565b610a9a5760405162461bcd60e51b81526004016104ff906129e0565b610630838383611d2c565b610630838383604051806020016040528060008152506114bb565b6001546001600160a01b0316336001600160a01b031614610af35760405162461bcd60e51b81526004016104ff906129b9565b6000818152600560205260409020805460ff19166006178155600154610b23906001600160a01b03168484610a74565b826001600160a01b03167fb523fc152d4fcd4c6af1d46b649c797ba53c00b102bc294c82a552c21d752007836040516107bd91815260200190565b610bb4604051806101400160405280600081526020016000815260200160008152602001600081526020016000815260200160008152602001600081526020016000815260200160008152602001600081525090565b6040516304cd216560e21b81526004810183905273__$82c3638f3539fdc3511ed289aa50105dc3$__906313348594906024016101406040518083038186803b158015610c0057600080fd5b505af4158015610c14573d6000803e3d6000fd5b505050506040513d601f19601f820116820180604052508101906103fd9190612721565b6000818152600860205260408120546001600160a01b0316806103fd5760405162461bcd60e51b815260206004820152602960248201527f4552433732313a206f776e657220717565727920666f72206e6f6e657869737460448201526832b73a103a37b5b2b760b91b60648201526084016104ff565b6001546001600160a01b0316336001600160a01b031614610ce25760405162461bcd60e51b81526004016104ff906129b9565b6000838152600560205260409020805460ff1916600317815560068101829055426009820155600154610d209086906001600160a01b031686610a74565b60408051858152602081018590529081018390526001600160a01b038616907f29401d855a91c37a599481c2a1f13bcf5ee36250ccb66cb4a936c281214bf38e9060600160405180910390a25050505050565b6001546001600160a01b0316336001600160a01b031614610da65760405162461bcd60e51b81526004016104ff906129b9565b6000818152600560208190526040909120805460ff19169091178155600154610dd9906001600160a01b03168484610a74565b826001600160a01b03167fb1834f73928b1cbce8667e8018c79613cbecb2a5f3b479bd9a7a8befb959e3a3836040516107bd91815260200190565b60006001600160a01b038216610e7f5760405162461bcd60e51b815260206004820152602a60248201527f4552433732313a2062616c616e636520717565727920666f7220746865207a65604482015269726f206164647265737360b01b60648201526084016104ff565b506001600160a01b031660009081526009602052604090205490565b610f30604080516101e08101909152806000815260200160006001600160a01b0316815260200160006001600160a01b0316815260200160006001600160a01b0316815260200160008152602001600081526020016000815260200160008152602001600081526020016000815260200160008152602001600081526020016000815260200160608152602001606081525090565b60008281526005602052604080822081516101e081019092528054829060ff166006811115610f6f57634e487b7160e01b600052602160045260246000fd5b6006811115610f8e57634e487b7160e01b600052602160045260246000fd5b815281546001600160a01b036101009182900481166020840152600184015481166040840152600284015416606083015260038301546080830152600483015460a0830152600583015460c0830152600683015460e083015260078301549082015260088201546101208201526009820154610140820152600a820154610160820152600b820154610180820152600c820180546101a09092019161103290612c57565b80601f016020809104026020016040519081016040528092919081815260200182805461105e90612c57565b80156110ab5780601f10611080576101008083540402835291602001916110ab565b820191906000526020600020905b81548152906001019060200180831161108e57829003601f168201915b50505050508152602001600d820180546110c490612c57565b80601f01602080910402602001604051908101604052809291908181526020018280546110f090612c57565b801561113d5780601f106111125761010080835404028352916020019161113d565b820191906000526020600020905b81548152906001019060200180831161112057829003601f168201915b5050505050815250509050806101800151421015801561117d575060038151600681111561117b57634e487b7160e01b600052602160045260246000fd5b145b156103fd576006815292915050565b600054604051631fc6b2f960e11b81526001600160a01b0390911690633f8d65f2906111bc9033906004016128cc565b60206040518083038186803b1580156111d457600080fd5b505afa1580156111e8573d6000803e3d6000fd5b505050506040513d601f19601f8201168201806040525081019061120c91906126cd565b6112285760405162461bcd60e51b81526004016104ff90612982565b600054604051631fc6b2f960e11b81526001600160a01b0390911690633f8d65f2906112589085906004016128cc565b60206040518083038186803b15801561127057600080fd5b505afa158015611284573d6000803e3d6000fd5b505050506040513d601f19601f820116820180604052508101906112a891906126cd565b6112e75760405162461bcd60e51b815260206004820152601060248201526f2737ba20b63637bbb2b226b4b73a32b960811b60448201526064016104ff565b6040516304cd216560e21b81526004810182905260009073__$82c3638f3539fdc3511ed289aa50105dc3$__906313348594906024016101406040518083038186803b15801561133657600080fd5b505af415801561134a573d6000803e3d6000fd5b505050506040513d601f19601f8201168201806040525081019061136e9190612721565b905061137981611eba565b6113838383611f4f565b6000828152600360205260409081902080546001600160a01b03191633179055516001600160a01b038416907f81eb994f88e94e83535c8ee16a6badf618255469bb0d72734eb3edcd824f105a906107bd9085815260200190565b60606007805461041490612c57565b6001600160a01b0382163314156114425760405162461bcd60e51b815260206004820152601960248201527822a9219b99189d1030b8383937bb32903a379031b0b63632b960391b60448201526064016104ff565b336000818152600b602090815260408083206001600160a01b0387168085529252909120805460ff1916841515179055906001600160a01b03167f17307eab39ab6107e8899845ad3d59bd9653f200f220920489ca2b5937696c31836040516114af911515815260200190565b60405180910390a35050565b6114c53383611c62565b6114e15760405162461bcd60e51b81526004016104ff906129e0565b6114ed84848484611f6d565b50505050565b600054604051631fc6b2f960e11b81526001600160a01b0390911690633f8d65f2906115239033906004016128cc565b60206040518083038186803b15801561153b57600080fd5b505afa15801561154f573d6000803e3d6000fd5b505050506040513d601f19601f8201168201806040525081019061157391906126cd565b61158f5760405162461bcd60e51b81526004016104ff90612982565b6115b360405180606001604052806000815260200160008152602001600081525090565b336115bd8c610c38565b6001600160a01b0316146116085760405162461bcd60e51b81526020600482015260126024820152714f6e6c794f6e77657243616e536574746c6560701b60448201526064016104ff565b60008b81526005602052604081205460ff16600681111561163957634e487b7160e01b600052602160045260246000fd5b146116775760405162461bcd60e51b815260206004820152600e60248201526d105b1c9958591e54d95d1d1b195960921b60448201526064016104ff565b6000546040516326a8d83b60e21b81526001600160a01b0390911690639aa360ec906116a7908f906004016128cc565b60206040518083038186803b1580156116bf57600080fd5b505afa1580156116d3573d6000803e3d6000fd5b505050506040513d601f19601f820116820180604052508101906116f791906126cd565b6117385760405162461bcd60e51b815260206004820152601260248201527114da59db995c925cd39bdd10dbdd5b98da5b60721b60448201526064016104ff565b600080825260208201819052604080830191909152516304646cc560e51b815261ffff8616600482015260ff80861660248301528416604482015273__$f064660449bb8f64614f18479211edbf10$__90638c8d98a09060640160206040518083038186803b1580156117aa57600080fd5b505af41580156117be573d6000803e3d6000fd5b505050506040513d601f19601f820116820180604052508101906117e291906127c3565b81526117f561ffff871662015180612bf5565b81516118019190612bc9565b6020820181905261181590620d2f00612bc9565b60408083019190915280516101e0810190915260009080600181526020018f6001600160a01b031681526020018e6001600160a01b03168152602001336001600160a01b031681526020018c81526020018981526020018b8152602001600081526020018a81526020018360000151815260200160008152602001836020015181526020018360400151815260200184815260200160405180602001604052806000815250815250905073__$a034ea2d5e2156aee4d32ca102faa25bbf$__632536dc16826040518263ffffffff1660e01b81526004016118f69190612a31565b60006040518083038186803b15801561190e57600080fd5b505af4158015611922573d6000803e3d6000fd5b50505060008d815260056020526040902082518154849350829060ff1916600183600681111561196257634e487b7160e01b600052602160045260246000fd5b021790555060208281015182546001600160a01b03918216610100908102610100600160a81b031990921691909117845560408501516001850180549184166001600160a01b03199283161790556060860151600286018054919094169116179091556080840151600384015560a0840151600484015560c0840151600584015560e08401516006840155830151600783015561012083015160088301556101408301516009830155610160830151600a830155610180830151600b8301556101a08301518051611a3992600c850192019061231a565b506101c08201518051611a5691600d84019160209091019061231a565b509050508c6001600160a01b03168e6001600160a01b03167f8b5ac4b5b53cc9ee641d8e3867949d01fa7afb75a350ded527721699a2ad54ae8e8e8e8e8e89602001518a604001518b600001518d604051611ab999989796959493929190612b44565b60405180910390a35050505050505050505050505050565b6060611adc82611bd7565b611b405760405162461bcd60e51b815260206004820152602f60248201527f4552433732314d657461646174613a2055524920717565727920666f72206e6f60448201526e3732bc34b9ba32b73a103a37b5b2b760891b60648201526084016104ff565b6000611b5760408051602081019091526000815290565b90506000815111611b775760405180602001604052806000815250611ba2565b80611b8184611fa0565b604051602001611b9292919061289d565b6040516020818303038152906040525b9392505050565b6001600160a01b039182166000908152600b6020908152604080832093909416825291909152205460ff1690565b6000908152600860205260409020546001600160a01b0316151590565b6000818152600a6020526040902080546001600160a01b0319166001600160a01b0384169081179091558190611c2982610c38565b6001600160a01b03167f8c5be1e5ebec7d5bd14f71427d1e84f3dd0314c0f7b2291e5b200ac8c7c3b92560405160405180910390a45050565b6000611c6d82611bd7565b611cce5760405162461bcd60e51b815260206004820152602c60248201527f4552433732313a206f70657261746f7220717565727920666f72206e6f6e657860448201526b34b9ba32b73a103a37b5b2b760a11b60648201526084016104ff565b6000611cd983610c38565b9050806001600160a01b0316846001600160a01b03161480611d145750836001600160a01b0316611d0984610497565b6001600160a01b0316145b80611d245750611d248185611ba9565b949350505050565b826001600160a01b0316611d3f82610c38565b6001600160a01b031614611da75760405162461bcd60e51b815260206004820152602960248201527f4552433732313a207472616e73666572206f6620746f6b656e2074686174206960448201526839903737ba1037bbb760b91b60648201526084016104ff565b6001600160a01b038216611e095760405162461bcd60e51b8152602060048201526024808201527f4552433732313a207472616e7366657220746f20746865207a65726f206164646044820152637265737360e01b60648201526084016104ff565b611e14600082611bf4565b6001600160a01b0383166000908152600960205260408120805460019290611e3d908490612c14565b90915550506001600160a01b0382166000908152600960205260408120805460019290611e6b908490612bc9565b909155505060008181526008602052604080822080546001600160a01b0319166001600160a01b038681169182179092559151849391871691600080516020612d2883398151915291a4505050565b62895440816060015110611f025760405162461bcd60e51b815260206004820152600f60248201526e496e7661696c644c6174697475646560881b60448201526064016104ff565b630112a8808160a0015110611f4c5760405162461bcd60e51b815260206004820152601060248201526f496e7661696c644c6f6e67697475646560801b60448201526064016104ff565b50565b611f698282604051806020016040528060008152506120ba565b5050565b611f78848484611d2c565b611f84848484846120ed565b6114ed5760405162461bcd60e51b81526004016104ff90612930565b606081611fc557506040805180820190915260018152600360fc1b6020820152610400565b8160005b8115611fef5780611fd981612c92565b9150611fe89050600a83612be1565b9150611fc9565b6000816001600160401b0381111561201757634e487b7160e01b600052604160045260246000fd5b6040519080825280601f01601f191660200182016040528015612041576020820181803683370190505b5090505b8415611d2457612056600183612c14565b9150612063600a86612cad565b61206e906030612bc9565b60f81b81838151811061209157634e487b7160e01b600052603260045260246000fd5b60200101906001600160f81b031916908160001a9053506120b3600a86612be1565b9450612045565b6120c483836121fa565b6120d160008484846120ed565b6106305760405162461bcd60e51b81526004016104ff90612930565b60006001600160a01b0384163b156121ef57604051630a85bd0160e11b81526001600160a01b0385169063150b7a02906121319033908990889088906004016128e0565b602060405180830381600087803b15801561214b57600080fd5b505af192505050801561217b575060408051601f3d908101601f1916820190925261217891810190612705565b60015b6121d5573d8080156121a9576040519150601f19603f3d011682016040523d82523d6000602084013e6121ae565b606091505b5080516121cd5760405162461bcd60e51b81526004016104ff90612930565b805181602001fd5b6001600160e01b031916630a85bd0160e11b149050611d24565b506001949350505050565b6001600160a01b0382166122505760405162461bcd60e51b815260206004820181905260248201527f4552433732313a206d696e7420746f20746865207a65726f206164647265737360448201526064016104ff565b61225981611bd7565b156122a55760405162461bcd60e51b815260206004820152601c60248201527b115490cdcc8c4e881d1bdad95b88185b1c9958591e481b5a5b9d195960221b60448201526064016104ff565b6001600160a01b03821660009081526009602052604081208054600192906122ce908490612bc9565b909155505060008181526008602052604080822080546001600160a01b0319166001600160a01b0386169081179091559051839290600080516020612d28833981519152908290a45050565b82805461232690612c57565b90600052602060002090601f016020900481019282612348576000855561238e565b82601f1061236157805160ff191683800117855561238e565b8280016001018555821561238e579182015b8281111561238e578251825591602001919060010190612373565b5061239a92915061239e565b5090565b5b8082111561239a576000815560010161239f565b60006001600160401b038311156123cc576123cc612ced565b6123df601f8401601f1916602001612b99565b90508281528383830111156123f357600080fd5b828260208301376000602084830101529392505050565b80356001600160a01b038116811461040057600080fd5b600082601f830112612431578081fd5b611ba2838335602085016123b3565b803561ffff8116811461040057600080fd5b803560ff8116811461040057600080fd5b600060208284031215612474578081fd5b611ba28261240a565b6000806040838503121561248f578081fd5b6124988361240a565b91506124a66020840161240a565b90509250929050565b6000806000606084860312156124c3578081fd5b6124cc8461240a565b92506124da6020850161240a565b9150604084013590509250925092565b600080600080608085870312156124ff578081fd5b6125088561240a565b93506125166020860161240a565b92506040850135915060608501356001600160401b03811115612537578182fd5b8501601f81018713612547578182fd5b612556878235602084016123b3565b91505092959194509250565b6000806000806000806000806000806000806101808d8f031215612584578788fd5b61258d8d61240a565b9b5061259b60208e0161240a565b9a5060408d0135995060608d0135985060808d0135975060a08d0135965060c08d013595506125cc60e08e01612440565b94506125db6101008e01612440565b93506125ea6101208e01612452565b92506125f96101408e01612452565b91506001600160401b036101608e01351115612613578081fd5b6126248e6101608f01358f01612421565b90509295989b509295989b509295989b565b60008060408385031215612648578182fd5b6126518361240a565b9150602083013561266181612d03565b809150509250929050565b6000806040838503121561267e578182fd5b6126878361240a565b946020939093013593505050565b600080600080608085870312156126aa578182fd5b6126b38561240a565b966020860135965060408601359560600135945092505050565b6000602082840312156126de578081fd5b8151611ba281612d03565b6000602082840312156126fa578081fd5b8135611ba281612d11565b600060208284031215612716578081fd5b8151611ba281612d11565b6000610140808385031215612734578182fd5b61273d81612b99565b9050825181526020830151602082015260408301516040820152606083015160608201526080830151608082015260a083015160a082015260c083015160c082015260e083015160e08201526101008084015181830152506101208084015181830152508091505092915050565b6000602082840312156127bc578081fd5b5035919050565b6000602082840312156127d4578081fd5b5051919050565b600080604083850312156127ed578182fd5b8235915060208301356001600160401b03811115612809578182fd5b61281585828601612421565b9150509250929050565b60008060408385031215612831578182fd5b505080516020909101519092909150565b6001600160a01b03169052565b60008151808452612867816020860160208601612c2b565b601f01601f19169290920160200192915050565b6007811061289957634e487b7160e01b600052602160045260246000fd5b9052565b600083516128af818460208801612c2b565b8351908301906128c3818360208801612c2b565b01949350505050565b6001600160a01b0391909116815260200190565b6001600160a01b03858116825284166020820152604081018390526080606082018190526000906129139083018461284f565b9695505050505050565b600060208252611ba2602083018461284f565b60208082526032908201527f4552433732313a207472616e7366657220746f206e6f6e20455243373231526560408201527131b2b4bb32b91034b6b83632b6b2b73a32b960711b606082015260800190565b6020808252601d908201527f4f6e6c79436f6c6c61746572616c5365727669636550726f7669646572000000604082015260600190565b6020808252600d908201526c13db9b1e535bdb995e541bdbdb609a1b604082015260600190565b60208082526031908201527f4552433732313a207472616e736665722063616c6c6572206973206e6f74206f6040820152701ddb995c881b9bdc88185c1c1c9bdd9959607a1b606082015260800190565b600060208252612a4560208301845161287b565b6020830151612a576040840182612842565b506040830151612a6a6060840182612842565b506060830151612a7d6080840182612842565b50608083015160a08381019190915283015160c08084019190915283015160e08084019190915283015161010080840191909152830151610120808401919091528301516101408084019190915283015161016080840191909152830151610180808401919091528301516101a0808401919091528301516101e06101c0808501829052612b0f61020086018461284f565b90860151858203601f190183870152909250612913838261284f565b600083825260406020830152611d24604083018461284f565b60006101208b83528a60208401528960408401528860608401528760808401528660a08401528560c08401528460e084015280610100840152612b898184018561284f565b9c9b505050505050505050505050565b604051601f8201601f191681016001600160401b0381118282101715612bc157612bc1612ced565b604052919050565b60008219821115612bdc57612bdc612cc1565b500190565b600082612bf057612bf0612cd7565b500490565b6000816000190483118215151615612c0f57612c0f612cc1565b500290565b600082821015612c2657612c26612cc1565b500390565b60005b83811015612c46578181015183820152602001612c2e565b838111156114ed5750506000910152565b600181811c90821680612c6b57607f821691505b60208210811415612c8c57634e487b7160e01b600052602260045260246000fd5b50919050565b6000600019821415612ca657612ca6612cc1565b5060010190565b600082612cbc57612cbc612cd7565b500690565b634e487b7160e01b600052601160045260246000fd5b634e487b7160e01b600052601260045260246000fd5b634e487b7160e01b600052604160045260246000fd5b8015158114611f4c57600080fd5b6001600160e01b031981168114611f4c57600080fdfeddf252ad1be2c89b69c2b068fc378daa952ba7f163c4a11628f55a4df523b3efa2646970667358221220a027fb936f47aa0fb69e249289eb1160d9a6a20c7c21e8a63be0008e27296f7d64736f6c63430008030033",
  "libraries": {
    "AssetBond": "0xA139841E0D43BAb85DDD00469EeD93a5a000cA9e",
    "Validation": "0x08f7e687A90bbA01e8613827FD0D67e41949F9CC",
    "TimeConverter": "0x01d07C9FD2e3fbC493e0A2dE588CE1c1EaD137e4"
  },
  "devdoc": {
    "author": "ELYSIA",
    "kind": "dev",
    "methods": {
      "approve(address,uint256)": {
        "details": "See {IERC721-approve}."
      },
      "balanceOf(address)": {
        "details": "See {IERC721-balanceOf}."
      },
      "collateralizeAssetBond(address,uint256,uint256,uint256)": {
        "details": "The collateralizing asset bond token should be only from the MoneyPool.",
        "params": {
          "account": "The owner of asset bond token",
          "borrowAmount": "The borrow amount.",
          "interestRate": "The interest rate of the loan between MoneyPool and borrower.",
          "tokenId": "The token Id to collateralize"
        }
      },
      "getApproved(uint256)": {
        "details": "See {IERC721-getApproved}."
      },
      "getAssetBondData(uint256)": {
        "details": "The state of the asset bond is `LIQUIDATED` when the current timestamp is greater than liquidation timestamp.",
        "params": {
          "tokenId": "The asset bond tokenId"
        },
        "returns": {
          "_0": "The data struct of the asset bond*"
        }
      },
      "getAssetBondDebtData(uint256)": {
        "details": "Returns the state debt of the asset bond",
        "params": {
          "tokenId": "The id of the asset bond"
        },
        "returns": {
          "_0": "Accrued debt on the moneypool and the fee on the collateral service provider.*"
        }
      },
      "isApprovedForAll(address,address)": {
        "details": "See {IERC721-isApprovedForAll}."
      },
      "liquidateAssetBond(address,uint256)": {
        "details": "The liquidating asset bond token should be only from the MoneyPool.",
        "params": {
          "account": "The liquidator",
          "tokenId": "The token Id to release"
        }
      },
      "mintAssetBond(address,uint256)": {
        "params": {
          "account": "CollateralServiceProvider address",
          "tokenId": "Unique identifier for asset bond."
        }
      },
      "name()": {
        "details": "See {IERC721Metadata-name}."
      },
      "ownerOf(uint256)": {
        "details": "See {IERC721-ownerOf}."
      },
      "releaseAssetBond(address,uint256)": {
        "details": "The releasing asset bond token should be only from the MoneyPool.",
        "params": {
          "account": "The borrower",
          "tokenId": "The token Id to release"
        }
      },
      "safeTransferFrom(address,address,uint256)": {
        "details": "See {IERC721-safeTransferFrom}."
      },
      "safeTransferFrom(address,address,uint256,bytes)": {
        "details": "See {IERC721-safeTransferFrom}."
      },
      "setApprovalForAll(address,bool)": {
        "details": "See {IERC721-setApprovalForAll}."
      },
      "settleAssetBond(address,address,uint256,uint256,uint256,uint256,uint256,uint16,uint16,uint8,uint8,string)": {
        "params": {
          "borrower": "The address of the borrower who must repay and retrieve the asset bond",
          "couponRate": "The coupon rate of the bond",
          "debtCeiling": "DebtCeiling, the available value of collateral asset when liquidated",
          "delinquencyRate": "The overdue interest rate of the bond. After the loan duration, the borrower",
          "ipfsHash": "IpfsHash which contract and collateral data stored The interest rate paid on a bond by its issuer for the term of the security",
          "loanDuration": "LoanDuration",
          "loanStartTimeDay": "LoanStartTimeDay",
          "loanStartTimeMonth": "LoanStartTimeMonth",
          "loanStartTimeYear": "LoanStartTimeYear",
          "principal": "The borrow amount based on the contract between collateral service provider and borrower in reality",
          "signer": "A third-party agency address that reviews entities listed on the asset bond data",
          "tokenId": "Token id to settle"
        }
      },
      "signAssetBond(uint256,string)": {
        "params": {
          "signerOpinionHash": "The signer can upload their opinion as a form of official documents on IPFS server.",
          "tokenId": "The token Id to release"
        }
      },
      "supportsInterface(bytes4)": {
        "details": "See {IERC165-supportsInterface}."
      },
      "symbol()": {
        "details": "See {IERC721Metadata-symbol}."
      },
      "tokenURI(uint256)": {
        "details": "See {IERC721Metadata-tokenURI}."
      },
      "transferFrom(address,address,uint256)": {
        "details": "See {IERC721-transferFrom}."
      }
    },
    "title": "ELYFI Tokenizer",
    "version": 1
  },
  "userdoc": {
    "events": {
      "AssetBondSettled(address,address,uint256,uint256,uint256,uint256,uint256,uint256,uint256,uint256,string)": {
        "notice": "Emitted when a collateral service provider mints an empty asset bond token.*"
      },
      "EmptyAssetBondMinted(address,uint256)": {
        "notice": "Emitted when a collateral service provider mints an empty asset bond token."
      }
    },
    "kind": "user",
    "methods": {
      "collateralizeAssetBond(address,uint256,uint256,uint256)": {
        "notice": "The collateral service provider can take out a loan of value equivalent to the collateral recored in asset bond tokens. The asset bond tokens are automatically transferred to the MoneyPool by internal function of `borrow` function."
      },
      "getAssetBondData(uint256)": {
        "notice": "Returns the state of the asset bond"
      },
      "getAssetBondDebtData(uint256)": {
        "notice": "When the borrower takes a loan, the repayment is the sum of two types of amounts: debt on the money pool and fee on the collateral service provider. The former is the amount to be repaid to the moneypool, and the latter is the amount to be paid to collateral service provider as a fee."
      },
      "liquidateAssetBond(address,uint256)": {
        "notice": "When the liquidation scenario, the dTokens are destroyed and the collateral of the locked up asset bond tokens in the MoneyPool is transferred to liquidator."
      },
      "mintAssetBond(address,uint256)": {
        "notice": "This function can be called by collateral service providers when they want to sign a contract. Borrowers who wants to take out a loan backed by real asset must enter into a contract with a collateral service provider to obtain a loan. Borrowers should submit various documents necessary for evaluating a loan secured by real assets to the collateral service provider."
      },
      "releaseAssetBond(address,uint256)": {
        "notice": "When the repayment scenario, the dTokens are destroyed and the collateral of the locked up asset bond tokens in the MoneyPool is unlocked. The asset bond tokens are transfered to the address of the borrower for terminating the collateral contract."
      },
      "settleAssetBond(address,address,uint256,uint256,uint256,uint256,uint256,uint16,uint16,uint8,uint8,string)": {
        "notice": "This function is called after collateral service provider based on the documents submitted by the loan applicant, risk analysis for the relevant asset is conducted, and the loan availability, maximum loanable amount and the interest rate between collateral service provider and borrower are calculated."
      },
      "signAssetBond(uint256,string)": {
        "notice": "When the collateral service provider settled the informations based on the real world contract in asset bond token, the third party connector such as lawfrim should review this and sign it. The object for this process is to build trust in the token issuance in ELYFI. This final verification process is carried out by reliable parties such as lawfirm. The review is following four items. Determination of the authenticity of collateral security details entered in real estate registration Determination of the authenticity of the contract between a real estate owner and a collateral service provider Determination of the value of principal and interest through certificates of seal impressions of real estate owners and lenders Determination of whether the important information entered in smart contracts match the contract content This allows the asset bond tokens to be recognized as collateral on the blockchain."
      }
    },
    "notice": "Asset bond token is a type of token that records information about real asset-backed bonds and acts as bonds on-chain. It complies with the NFT standard, ERC721 and this token can be deposited in the Money Pool to execute a loan contract.",
    "version": 1
  },
  "storageLayout": {
    "storage": [
      {
        "astId": 6453,
        "contract": "contracts/Tokenizer.sol:Tokenizer",
        "label": "_connector",
        "offset": 0,
        "slot": "0",
        "type": "t_contract(IConnector)6517"
      },
      {
        "astId": 6456,
        "contract": "contracts/Tokenizer.sol:Tokenizer",
        "label": "_moneyPool",
        "offset": 0,
        "slot": "1",
        "type": "t_contract(IMoneyPool)6934"
      },
      {
        "astId": 6460,
        "contract": "contracts/Tokenizer.sol:Tokenizer",
        "label": "_tokenType",
        "offset": 0,
        "slot": "2",
        "type": "t_mapping(t_uint256,t_bytes32)"
      },
      {
        "astId": 6464,
        "contract": "contracts/Tokenizer.sol:Tokenizer",
        "label": "_minter",
        "offset": 0,
        "slot": "3",
        "type": "t_mapping(t_uint256,t_address)"
      },
      {
        "astId": 6466,
        "contract": "contracts/Tokenizer.sol:Tokenizer",
        "label": "_underlyingAsset",
        "offset": 0,
        "slot": "4",
        "type": "t_address"
      },
      {
        "astId": 6471,
        "contract": "contracts/Tokenizer.sol:Tokenizer",
        "label": "_assetBondData",
        "offset": 0,
        "slot": "5",
        "type": "t_mapping(t_uint256,t_struct(AssetBondData)7126_storage)"
      },
      {
        "astId": 969,
        "contract": "contracts/Tokenizer.sol:Tokenizer",
        "label": "_name",
        "offset": 0,
        "slot": "6",
        "type": "t_string_storage"
      },
      {
        "astId": 971,
        "contract": "contracts/Tokenizer.sol:Tokenizer",
        "label": "_symbol",
        "offset": 0,
        "slot": "7",
        "type": "t_string_storage"
      },
      {
        "astId": 975,
        "contract": "contracts/Tokenizer.sol:Tokenizer",
        "label": "_owners",
        "offset": 0,
        "slot": "8",
        "type": "t_mapping(t_uint256,t_address)"
      },
      {
        "astId": 979,
        "contract": "contracts/Tokenizer.sol:Tokenizer",
        "label": "_balances",
        "offset": 0,
        "slot": "9",
        "type": "t_mapping(t_address,t_uint256)"
      },
      {
        "astId": 983,
        "contract": "contracts/Tokenizer.sol:Tokenizer",
        "label": "_tokenApprovals",
        "offset": 0,
        "slot": "10",
        "type": "t_mapping(t_uint256,t_address)"
      },
      {
        "astId": 989,
        "contract": "contracts/Tokenizer.sol:Tokenizer",
        "label": "_operatorApprovals",
        "offset": 0,
        "slot": "11",
        "type": "t_mapping(t_address,t_mapping(t_address,t_bool))"
      }
    ],
    "types": {
      "t_address": {
        "encoding": "inplace",
        "label": "address",
        "numberOfBytes": "20"
      },
      "t_bool": {
        "encoding": "inplace",
        "label": "bool",
        "numberOfBytes": "1"
      },
      "t_bytes32": {
        "encoding": "inplace",
        "label": "bytes32",
        "numberOfBytes": "32"
      },
      "t_contract(IConnector)6517": {
        "encoding": "inplace",
        "label": "contract IConnector",
        "numberOfBytes": "20"
      },
      "t_contract(IMoneyPool)6934": {
        "encoding": "inplace",
        "label": "contract IMoneyPool",
        "numberOfBytes": "20"
      },
      "t_enum(AssetBondState)7155": {
        "encoding": "inplace",
        "label": "enum DataStruct.AssetBondState",
        "numberOfBytes": "1"
      },
      "t_mapping(t_address,t_bool)": {
        "encoding": "mapping",
        "key": "t_address",
        "label": "mapping(address => bool)",
        "numberOfBytes": "32",
        "value": "t_bool"
      },
      "t_mapping(t_address,t_mapping(t_address,t_bool))": {
        "encoding": "mapping",
        "key": "t_address",
        "label": "mapping(address => mapping(address => bool))",
        "numberOfBytes": "32",
        "value": "t_mapping(t_address,t_bool)"
      },
      "t_mapping(t_address,t_uint256)": {
        "encoding": "mapping",
        "key": "t_address",
        "label": "mapping(address => uint256)",
        "numberOfBytes": "32",
        "value": "t_uint256"
      },
      "t_mapping(t_uint256,t_address)": {
        "encoding": "mapping",
        "key": "t_uint256",
        "label": "mapping(uint256 => address)",
        "numberOfBytes": "32",
        "value": "t_address"
      },
      "t_mapping(t_uint256,t_bytes32)": {
        "encoding": "mapping",
        "key": "t_uint256",
        "label": "mapping(uint256 => bytes32)",
        "numberOfBytes": "32",
        "value": "t_bytes32"
      },
      "t_mapping(t_uint256,t_struct(AssetBondData)7126_storage)": {
        "encoding": "mapping",
        "key": "t_uint256",
        "label": "mapping(uint256 => struct DataStruct.AssetBondData)",
        "numberOfBytes": "32",
        "value": "t_struct(AssetBondData)7126_storage"
      },
      "t_string_storage": {
        "encoding": "bytes",
        "label": "string",
        "numberOfBytes": "32"
      },
      "t_struct(AssetBondData)7126_storage": {
        "encoding": "inplace",
        "label": "struct DataStruct.AssetBondData",
        "members": [
          {
            "astId": 7097,
            "contract": "contracts/Tokenizer.sol:Tokenizer",
            "label": "state",
            "offset": 0,
            "slot": "0",
            "type": "t_enum(AssetBondState)7155"
          },
          {
            "astId": 7099,
            "contract": "contracts/Tokenizer.sol:Tokenizer",
            "label": "borrower",
            "offset": 1,
            "slot": "0",
            "type": "t_address"
          },
          {
            "astId": 7101,
            "contract": "contracts/Tokenizer.sol:Tokenizer",
            "label": "signer",
            "offset": 0,
            "slot": "1",
            "type": "t_address"
          },
          {
            "astId": 7103,
            "contract": "contracts/Tokenizer.sol:Tokenizer",
            "label": "collateralServiceProvider",
            "offset": 0,
            "slot": "2",
            "type": "t_address"
          },
          {
            "astId": 7105,
            "contract": "contracts/Tokenizer.sol:Tokenizer",
            "label": "principal",
            "offset": 0,
            "slot": "3",
            "type": "t_uint256"
          },
          {
            "astId": 7107,
            "contract": "contracts/Tokenizer.sol:Tokenizer",
            "label": "debtCeiling",
            "offset": 0,
            "slot": "4",
            "type": "t_uint256"
          },
          {
            "astId": 7109,
            "contract": "contracts/Tokenizer.sol:Tokenizer",
            "label": "couponRate",
            "offset": 0,
            "slot": "5",
            "type": "t_uint256"
          },
          {
            "astId": 7111,
            "contract": "contracts/Tokenizer.sol:Tokenizer",
            "label": "interestRate",
            "offset": 0,
            "slot": "6",
            "type": "t_uint256"
          },
          {
            "astId": 7113,
            "contract": "contracts/Tokenizer.sol:Tokenizer",
            "label": "delinquencyRate",
            "offset": 0,
            "slot": "7",
            "type": "t_uint256"
          },
          {
            "astId": 7115,
            "contract": "contracts/Tokenizer.sol:Tokenizer",
            "label": "loanStartTimestamp",
            "offset": 0,
            "slot": "8",
            "type": "t_uint256"
          },
          {
            "astId": 7117,
            "contract": "contracts/Tokenizer.sol:Tokenizer",
            "label": "collateralizeTimestamp",
            "offset": 0,
            "slot": "9",
            "type": "t_uint256"
          },
          {
            "astId": 7119,
            "contract": "contracts/Tokenizer.sol:Tokenizer",
            "label": "maturityTimestamp",
            "offset": 0,
            "slot": "10",
            "type": "t_uint256"
          },
          {
            "astId": 7121,
            "contract": "contracts/Tokenizer.sol:Tokenizer",
            "label": "liquidationTimestamp",
            "offset": 0,
            "slot": "11",
            "type": "t_uint256"
          },
          {
            "astId": 7123,
            "contract": "contracts/Tokenizer.sol:Tokenizer",
            "label": "ipfsHash",
            "offset": 0,
            "slot": "12",
            "type": "t_string_storage"
          },
          {
            "astId": 7125,
            "contract": "contracts/Tokenizer.sol:Tokenizer",
            "label": "signerOpinionHash",
            "offset": 0,
            "slot": "13",
            "type": "t_string_storage"
          }
        ],
        "numberOfBytes": "448"
      },
      "t_uint256": {
        "encoding": "inplace",
        "label": "uint256",
        "numberOfBytes": "32"
      }
    }
  }
}